{
  "contractName": "Administered",
  "abi": [
    {
      "constant": true,
      "inputs": [
        {
          "name": "_operator",
          "type": "address"
        },
        {
          "name": "_role",
          "type": "string"
        }
      ],
      "name": "checkRole",
      "outputs": [],
      "payable": false,
      "stateMutability": "view",
      "type": "function"
    },
    {
      "constant": true,
      "inputs": [],
      "name": "numAdmins",
      "outputs": [
        {
          "name": "",
          "type": "uint256"
        }
      ],
      "payable": false,
      "stateMutability": "view",
      "type": "function"
    },
    {
      "constant": true,
      "inputs": [
        {
          "name": "_operator",
          "type": "address"
        },
        {
          "name": "_role",
          "type": "string"
        }
      ],
      "name": "hasRole",
      "outputs": [
        {
          "name": "",
          "type": "bool"
        }
      ],
      "payable": false,
      "stateMutability": "view",
      "type": "function"
    },
    {
      "constant": true,
      "inputs": [],
      "name": "ROLE_ADMIN",
      "outputs": [
        {
          "name": "",
          "type": "string"
        }
      ],
      "payable": false,
      "stateMutability": "view",
      "type": "function"
    },
    {
      "inputs": [],
      "payable": false,
      "stateMutability": "nonpayable",
      "type": "constructor"
    },
    {
      "anonymous": false,
      "inputs": [
        {
          "indexed": true,
          "name": "operator",
          "type": "address"
        },
        {
          "indexed": false,
          "name": "role",
          "type": "string"
        }
      ],
      "name": "RoleAdded",
      "type": "event"
    },
    {
      "anonymous": false,
      "inputs": [
        {
          "indexed": true,
          "name": "operator",
          "type": "address"
        },
        {
          "indexed": false,
          "name": "role",
          "type": "string"
        }
      ],
      "name": "RoleRemoved",
      "type": "event"
    },
    {
      "constant": false,
      "inputs": [
        {
          "name": "_account",
          "type": "address"
        }
      ],
      "name": "addAdminRole",
      "outputs": [],
      "payable": false,
      "stateMutability": "nonpayable",
      "type": "function"
    },
    {
      "constant": false,
      "inputs": [
        {
          "name": "_account",
          "type": "address"
        }
      ],
      "name": "removeAdminRole",
      "outputs": [],
      "payable": false,
      "stateMutability": "nonpayable",
      "type": "function"
    },
    {
      "constant": true,
      "inputs": [
        {
          "name": "_address",
          "type": "address"
        }
      ],
      "name": "isAdmin",
      "outputs": [
        {
          "name": "",
          "type": "bool"
        }
      ],
      "payable": false,
      "stateMutability": "view",
      "type": "function"
    }
  ],
  "bytecode": "0x60806040526001805534801561001457600080fd5b50610063336040805190810160405280600581526020017f61646d696e000000000000000000000000000000000000000000000000000000815250610068640100000000026401000000009004565b610207565b6100f2826000836040518082805190602001908083835b6020831015156100a4578051825260208201915060208101905060208303925061007f565b6001836020036101000a03801982511681845116808217855250505050505090500191505090815260200160405180910390206101a9640100000000026108de179091906401000000009004565b8173ffffffffffffffffffffffffffffffffffffffff167fbfec83d64eaa953f2708271a023ab9ee82057f8f3578d548c1a4ba0b5b700489826040518080602001828103825283818151815260200191508051906020019080838360005b8381101561016b578082015181840152602081019050610150565b50505050905090810190601f1680156101985780820380516001836020036101000a031916815260200191505b509250505060405180910390a25050565b60018260000160008373ffffffffffffffffffffffffffffffffffffffff1673ffffffffffffffffffffffffffffffffffffffff16815260200190815260200160002060006101000a81548160ff0219169083151502179055505050565b6109c6806102166000396000f300608060405260043610610083576000357c0100000000000000000000000000000000000000000000000000000000900463ffffffff1680630988ca8c146100885780630efd498914610111578063217fe6c61461013c57806324d7806c146101dd5780636595171c14610238578063d391014b1461027b578063dccfe3101461030b575b600080fd5b34801561009457600080fd5b5061010f600480360381019080803573ffffffffffffffffffffffffffffffffffffffff169060200190929190803590602001908201803590602001908080601f016020809104026020016040519081016040528093929190818152602001838380828437820191505050505050919291929050505061034e565b005b34801561011d57600080fd5b506101266103cf565b6040518082815260200191505060405180910390f35b34801561014857600080fd5b506101c3600480360381019080803573ffffffffffffffffffffffffffffffffffffffff169060200190929190803590602001908201803590602001908080601f01602080910402602001604051908101604052809392919081815260200183838082843782019150505050505091929192905050506103d5565b604051808215151515815260200191505060405180910390f35b3480156101e957600080fd5b5061021e600480360381019080803573ffffffffffffffffffffffffffffffffffffffff16906020019092919050505061045c565b604051808215151515815260200191505060405180910390f35b34801561024457600080fd5b50610279600480360381019080803573ffffffffffffffffffffffffffffffffffffffff1690602001909291905050506104a4565b005b34801561028757600080fd5b50610290610537565b6040518080602001828103825283818151815260200191508051906020019080838360005b838110156102d05780820151818401526020810190506102b5565b50505050905090810190601f1680156102fd5780820380516001836020036101000a031916815260200191505b509250505060405180910390f35b34801561031757600080fd5b5061034c600480360381019080803573ffffffffffffffffffffffffffffffffffffffff169060200190929190505050610570565b005b6103cb826000836040518082805190602001908083835b60208310151561038a5780518252602082019150602081019050602083039250610365565b6001836020036101000a038019825116818451168082178552505050505050905001915050908152602001604051809103902061060490919063ffffffff16565b5050565b60015481565b6000610454836000846040518082805190602001908083835b60208310151561041357805182526020820191506020810190506020830392506103ee565b6001836020036101000a038019825116818451168082178552505050505050905001915050908152602001604051809103902061061d90919063ffffffff16565b905092915050565b600061049d826040805190810160405280600581526020017f61646d696e0000000000000000000000000000000000000000000000000000008152506103d5565b9050919050565b6104e3336040805190810160405280600581526020017f61646d696e00000000000000000000000000000000000000000000000000000081525061034e565b610522816040805190810160405280600581526020017f61646d696e000000000000000000000000000000000000000000000000000000815250610676565b60016000815480929190600101919050555050565b6040805190810160405280600581526020017f61646d696e00000000000000000000000000000000000000000000000000000081525081565b6105af336040805190810160405280600581526020017f61646d696e00000000000000000000000000000000000000000000000000000081525061034e565b6105ee816040805190810160405280600581526020017f61646d696e0000000000000000000000000000000000000000000000000000008152506107aa565b6001600081548092919060019003919050555050565b61060e828261061d565b151561061957600080fd5b5050565b60008260000160008373ffffffffffffffffffffffffffffffffffffffff1673ffffffffffffffffffffffffffffffffffffffff16815260200190815260200160002060009054906101000a900460ff16905092915050565b6106f3826000836040518082805190602001908083835b6020831015156106b2578051825260208201915060208101905060208303925061068d565b6001836020036101000a03801982511681845116808217855250505050505090500191505090815260200160405180910390206108de90919063ffffffff16565b8173ffffffffffffffffffffffffffffffffffffffff167fbfec83d64eaa953f2708271a023ab9ee82057f8f3578d548c1a4ba0b5b700489826040518080602001828103825283818151815260200191508051906020019080838360005b8381101561076c578082015181840152602081019050610751565b50505050905090810190601f1680156107995780820380516001836020036101000a031916815260200191505b509250505060405180910390a25050565b610827826000836040518082805190602001908083835b6020831015156107e657805182526020820191506020810190506020830392506107c1565b6001836020036101000a038019825116818451168082178552505050505050905001915050908152602001604051809103902061093c90919063ffffffff16565b8173ffffffffffffffffffffffffffffffffffffffff167fd211483f91fc6eff862467f8de606587a30c8fc9981056f051b897a418df803a826040518080602001828103825283818151815260200191508051906020019080838360005b838110156108a0578082015181840152602081019050610885565b50505050905090810190601f1680156108cd5780820380516001836020036101000a031916815260200191505b509250505060405180910390a25050565b60018260000160008373ffffffffffffffffffffffffffffffffffffffff1673ffffffffffffffffffffffffffffffffffffffff16815260200190815260200160002060006101000a81548160ff0219169083151502179055505050565b60008260000160008373ffffffffffffffffffffffffffffffffffffffff1673ffffffffffffffffffffffffffffffffffffffff16815260200190815260200160002060006101000a81548160ff02191690831515021790555050505600a165627a7a72305820c140668e05581f0861e51e01f931cf35fe0b9a1308517d9aadb091842e8858260029",
  "source": "// Contract Development 1\n// DONE: Timing campaigns\n// DONE: Ending Campaign and Payouts\n// DONE: Manager can cancel Campaign before approved\n// DONE: Rewrite state transition according to solidy state machine pattern\n\n// Contract Developement 2\n// DONE: Implement Circuit Breaker Pattern!\n// TASK: Use a Library\n  // -- Change tests to use new admin style (they must add admins)\n  // -- setup script must add admins\n  // -- reveal logic must check num admins and take majority\n  // -- UI for stopping efm\n  // -- UI for adding admins\n  // -- Make Administerable/Administrated a super class of efm and campaign and put rbac stuff in it\n// TASK: Comment Contracts and Tests\n// TASK: Review All variable/function etc Names\n// TASK: Review All variable/function etc accessibility\n// TASK: Split Contract Files\n// TASK: Write Solidity Tests\n// TASK: Review uints and restrict size if possible (at least make them uint256)\n// DONE: Use a library/Package to advance time in tests\n// TASK: Review Security Best Practices - writeup\n// TASK: Review Design Patterns - writeup\n// TASK: Error messages for require statements\n// TASK: Campaign Factory Contract\n\n// Frontend\n// DONE: Set up React Project and React Crash Course\n// DONE: Frontend\n// TASK: Events + Listening for them\n  // -- Check events in tests too\n\n// Submitable\n// TASK: Packaging and Other Documentation\n// TASK: Make sure it works on Ubuntu\n// TASK: Review Grading Rubric\n// TASK: Release on testnet\n\npragma solidity ^0.4.24;\n\nimport \"./EmergencyStoppable.sol\";\nimport \"./Campaign.sol\";\nimport '../node_modules/zeppelin-solidity/contracts/access/rbac/RBAC.sol';\n\ncontract Administered is RBAC {\n/**\n   * A constant role name for indicating admins.\n   */\n  string public constant ROLE_ADMIN = \"admin\";\n  uint public numAdmins = 1;\n\n  /**\n   * @dev modifier to scope access to admins\n   * // reverts\n   */\n  modifier onlyAdmin()\n  {\n    checkRole(msg.sender, ROLE_ADMIN);\n    _;\n  }\n\n  modifier notAdmin()\n  {\n    require(!hasRole(msg.sender, ROLE_ADMIN));\n    _;\n  }\n\n  constructor()\n    public\n  {\n    addRole(msg.sender, ROLE_ADMIN);\n  }\n\n  /**\n   * @dev add a role to an account\n   * @param _account the account that will have the admin role\n   */\n  function addAdminRole(address _account)\n    public\n    onlyAdmin\n  {\n    addRole(_account, ROLE_ADMIN);\n    numAdmins++;\n  }\n\n  /**\n   * @dev remove a role from an account\n   * @param _account the account that will no longer have the admin role\n   */\n  function removeAdminRole(address _account)\n    public\n    onlyAdmin\n  {\n    removeRole(_account, ROLE_ADMIN);\n    numAdmins--;\n  }\n\n  function isAdmin(address _address) \n    public\n    view\n    returns(bool)\n  {\n    return hasRole(_address, ROLE_ADMIN);\n  }\n\n}\n\ncontract EthFundMe is Administered, EmergencyStoppable {\n\n  \n  /**\n   * @dev constructor. Sets msg.sender as admin by default\n   */\n  constructor() public {\n    addRole(msg.sender, ROLE_ADMIN);\n  }\n\n\n  /**\n    IMPLEMENT EmergencyStoppable INTERFACE\n   */\n    function isAuthorized() internal \n    onlyAdmin\n    returns(bool) \n  {\n    return true;\n  }\n\n  /**\n    EVENTS\n   */\n  event CampaignCreated (\n    address indexed campaignAddress\n  );\n\n  /**\n    CAMPAIGNS\n  */\n  address[] public campaigns;\n\n  function getNumCampaigns() public view returns (uint) {\n    return campaigns.length;\n  }\n  \n  function createCampaign(string title, uint goal, uint duration, string description, string image) public \n    stoppedInEmergency\n    notAdmin\n    returns(address) {\n    Campaign newCampaign = new Campaign(campaigns.length, title, goal, duration, description, image, msg.sender, address(this));\n    campaigns.push(address(newCampaign));\n    emit CampaignCreated(address(newCampaign));\n    return address(newCampaign);\n  }\n\n}\n\n",
  "sourcePath": "/mnt/c/Users/jalal/Github/EthFundMe/contracts/EthFundMe.sol",
  "compiler": {
    "name": "solc",
    "version": "0.4.24+commit.e67f0147.Emscripten.clang"
  },
  "schemaVersion": "2.0.1",
  "updatedAt": "2018-08-16T08:09:44.828Z"
}