{
  "contractName": "Administrated",
  "abi": [
    {
      "constant": true,
      "inputs": [
        {
          "name": "_operator",
          "type": "address"
        },
        {
          "name": "_role",
          "type": "string"
        }
      ],
      "name": "checkRole",
      "outputs": [],
      "payable": false,
      "stateMutability": "view",
      "type": "function"
    },
    {
      "constant": true,
      "inputs": [],
      "name": "numAdmins",
      "outputs": [
        {
          "name": "",
          "type": "uint256"
        }
      ],
      "payable": false,
      "stateMutability": "view",
      "type": "function"
    },
    {
      "constant": true,
      "inputs": [
        {
          "name": "_operator",
          "type": "address"
        },
        {
          "name": "_role",
          "type": "string"
        }
      ],
      "name": "hasRole",
      "outputs": [
        {
          "name": "",
          "type": "bool"
        }
      ],
      "payable": false,
      "stateMutability": "view",
      "type": "function"
    },
    {
      "constant": true,
      "inputs": [],
      "name": "ROLE_ADMIN",
      "outputs": [
        {
          "name": "",
          "type": "string"
        }
      ],
      "payable": false,
      "stateMutability": "view",
      "type": "function"
    },
    {
      "inputs": [],
      "payable": false,
      "stateMutability": "nonpayable",
      "type": "constructor"
    },
    {
      "anonymous": false,
      "inputs": [
        {
          "indexed": true,
          "name": "operator",
          "type": "address"
        },
        {
          "indexed": false,
          "name": "role",
          "type": "string"
        }
      ],
      "name": "RoleAdded",
      "type": "event"
    },
    {
      "anonymous": false,
      "inputs": [
        {
          "indexed": true,
          "name": "operator",
          "type": "address"
        },
        {
          "indexed": false,
          "name": "role",
          "type": "string"
        }
      ],
      "name": "RoleRemoved",
      "type": "event"
    },
    {
      "constant": false,
      "inputs": [
        {
          "name": "_account",
          "type": "address"
        }
      ],
      "name": "addAdminRole",
      "outputs": [],
      "payable": false,
      "stateMutability": "nonpayable",
      "type": "function"
    },
    {
      "constant": false,
      "inputs": [
        {
          "name": "_account",
          "type": "address"
        }
      ],
      "name": "removeAdminRole",
      "outputs": [],
      "payable": false,
      "stateMutability": "nonpayable",
      "type": "function"
    },
    {
      "constant": true,
      "inputs": [
        {
          "name": "_address",
          "type": "address"
        }
      ],
      "name": "isAdmin",
      "outputs": [
        {
          "name": "",
          "type": "bool"
        }
      ],
      "payable": false,
      "stateMutability": "view",
      "type": "function"
    },
    {
      "constant": true,
      "inputs": [],
      "name": "echoAddress",
      "outputs": [
        {
          "name": "",
          "type": "address"
        }
      ],
      "payable": false,
      "stateMutability": "view",
      "type": "function"
    }
  ],
  "bytecode": "0x608060405234801561001057600080fd5b5061005f336040805190810160405280600581526020017f61646d696e00000000000000000000000000000000000000000000000000000081525061006b640100000000026401000000009004565b6001808190555061020a565b6100f5826000836040518082805190602001908083835b6020831015156100a75780518252602082019150602081019050602083039250610082565b6001836020036101000a03801982511681845116808217855250505050505090500191505090815260200160405180910390206101ac64010000000002610948179091906401000000009004565b8173ffffffffffffffffffffffffffffffffffffffff167fbfec83d64eaa953f2708271a023ab9ee82057f8f3578d548c1a4ba0b5b700489826040518080602001828103825283818151815260200191508051906020019080838360005b8381101561016e578082015181840152602081019050610153565b50505050905090810190601f16801561019b5780820380516001836020036101000a031916815260200191505b509250505060405180910390a25050565b60018260000160008373ffffffffffffffffffffffffffffffffffffffff1673ffffffffffffffffffffffffffffffffffffffff16815260200190815260200160002060006101000a81548160ff0219169083151502179055505050565b610a30806102196000396000f30060806040526004361061008e576000357c0100000000000000000000000000000000000000000000000000000000900463ffffffff1680630988ca8c146100935780630efd49891461011c578063217fe6c61461014757806324d7806c146101e85780636595171c146102435780639cbf301c14610286578063d391014b146102dd578063dccfe3101461036d575b600080fd5b34801561009f57600080fd5b5061011a600480360381019080803573ffffffffffffffffffffffffffffffffffffffff169060200190929190803590602001908201803590602001908080601f01602080910402602001604051908101604052809392919081815260200183838082843782019150505050505091929192905050506103b0565b005b34801561012857600080fd5b50610131610431565b6040518082815260200191505060405180910390f35b34801561015357600080fd5b506101ce600480360381019080803573ffffffffffffffffffffffffffffffffffffffff169060200190929190803590602001908201803590602001908080601f0160208091040260200160405190810160405280939291908181526020018383808284378201915050505050509192919290505050610437565b604051808215151515815260200191505060405180910390f35b3480156101f457600080fd5b50610229600480360381019080803573ffffffffffffffffffffffffffffffffffffffff1690602001909291905050506104be565b604051808215151515815260200191505060405180910390f35b34801561024f57600080fd5b50610284600480360381019080803573ffffffffffffffffffffffffffffffffffffffff169060200190929190505050610506565b005b34801561029257600080fd5b5061029b610599565b604051808273ffffffffffffffffffffffffffffffffffffffff1673ffffffffffffffffffffffffffffffffffffffff16815260200191505060405180910390f35b3480156102e957600080fd5b506102f26105a1565b6040518080602001828103825283818151815260200191508051906020019080838360005b83811015610332578082015181840152602081019050610317565b50505050905090810190601f16801561035f5780820380516001836020036101000a031916815260200191505b509250505060405180910390f35b34801561037957600080fd5b506103ae600480360381019080803573ffffffffffffffffffffffffffffffffffffffff1690602001909291905050506105da565b005b61042d826000836040518082805190602001908083835b6020831015156103ec57805182526020820191506020810190506020830392506103c7565b6001836020036101000a038019825116818451168082178552505050505050905001915050908152602001604051809103902061066e90919063ffffffff16565b5050565b60015481565b60006104b6836000846040518082805190602001908083835b6020831015156104755780518252602082019150602081019050602083039250610450565b6001836020036101000a038019825116818451168082178552505050505050905001915050908152602001604051809103902061068790919063ffffffff16565b905092915050565b60006104ff826040805190810160405280600581526020017f61646d696e000000000000000000000000000000000000000000000000000000815250610437565b9050919050565b610545336040805190810160405280600581526020017f61646d696e0000000000000000000000000000000000000000000000000000008152506103b0565b610584816040805190810160405280600581526020017f61646d696e0000000000000000000000000000000000000000000000000000008152506106e0565b60016000815480929190600101919050555050565b600033905090565b6040805190810160405280600581526020017f61646d696e00000000000000000000000000000000000000000000000000000081525081565b610619336040805190810160405280600581526020017f61646d696e0000000000000000000000000000000000000000000000000000008152506103b0565b610658816040805190810160405280600581526020017f61646d696e000000000000000000000000000000000000000000000000000000815250610814565b6001600081548092919060019003919050555050565b6106788282610687565b151561068357600080fd5b5050565b60008260000160008373ffffffffffffffffffffffffffffffffffffffff1673ffffffffffffffffffffffffffffffffffffffff16815260200190815260200160002060009054906101000a900460ff16905092915050565b61075d826000836040518082805190602001908083835b60208310151561071c57805182526020820191506020810190506020830392506106f7565b6001836020036101000a038019825116818451168082178552505050505050905001915050908152602001604051809103902061094890919063ffffffff16565b8173ffffffffffffffffffffffffffffffffffffffff167fbfec83d64eaa953f2708271a023ab9ee82057f8f3578d548c1a4ba0b5b700489826040518080602001828103825283818151815260200191508051906020019080838360005b838110156107d65780820151818401526020810190506107bb565b50505050905090810190601f1680156108035780820380516001836020036101000a031916815260200191505b509250505060405180910390a25050565b610891826000836040518082805190602001908083835b602083101515610850578051825260208201915060208101905060208303925061082b565b6001836020036101000a03801982511681845116808217855250505050505090500191505090815260200160405180910390206109a690919063ffffffff16565b8173ffffffffffffffffffffffffffffffffffffffff167fd211483f91fc6eff862467f8de606587a30c8fc9981056f051b897a418df803a826040518080602001828103825283818151815260200191508051906020019080838360005b8381101561090a5780820151818401526020810190506108ef565b50505050905090810190601f1680156109375780820380516001836020036101000a031916815260200191505b509250505060405180910390a25050565b60018260000160008373ffffffffffffffffffffffffffffffffffffffff1673ffffffffffffffffffffffffffffffffffffffff16815260200190815260200160002060006101000a81548160ff0219169083151502179055505050565b60008260000160008373ffffffffffffffffffffffffffffffffffffffff1673ffffffffffffffffffffffffffffffffffffffff16815260200190815260200160002060006101000a81548160ff02191690831515021790555050505600a165627a7a723058207347f2044e8de67e07c1cb0a0ac99a8e19069c2ba70c801504b03aaaa9650c870029",
  "source": "pragma solidity ^0.4.24;\n\nimport \"../node_modules/zeppelin-solidity/contracts/access/rbac/RBAC.sol\";\n\ncontract Administrated is RBAC {\n  /**\n   * A constant role name for indicating admins.\n   */\n  string public constant ROLE_ADMIN = \"admin\";\n  uint public numAdmins;\n\n  /**\n   * @dev modifier to scope access to admins\n   * // reverts\n   */\n  modifier onlyAdmin()\n  {\n    checkRole(msg.sender, ROLE_ADMIN);\n    _;\n  }\n\n  modifier notAdmin()\n  {\n    require(!hasRole(msg.sender, ROLE_ADMIN));\n    _;\n  }\n\n  constructor()\n    public\n  {\n    addRole(msg.sender, ROLE_ADMIN);\n    numAdmins = 1;\n  }\n\n  /**\n   * @dev add a role to an account\n   * @param _account the account that will have the admin role\n   */\n  function addAdminRole(address _account)\n    public\n    onlyAdmin\n  {\n    addRole(_account, ROLE_ADMIN);\n    numAdmins++;\n  }\n\n  /**\n   * @dev remove a role from an account\n   * @param _account the account that will no longer have the admin role\n   */\n  function removeAdminRole(address _account)\n    public\n    onlyAdmin\n  {\n    removeRole(_account, ROLE_ADMIN);\n    numAdmins--;\n  }\n\n  function isAdmin(address _address) \n    public\n    view\n    returns(bool)\n  {\n    return hasRole(_address, ROLE_ADMIN);\n  }\n\n  function echoAddress() public view returns(address) {\n    return msg.sender;\n  }\n\n}",
  "sourcePath": "/mnt/c/Users/jalal/Github/EthFundMe/contracts/Administrated.sol",
  "compiler": {
    "name": "solc",
    "version": "0.4.24+commit.e67f0147.Emscripten.clang"
  },
  "schemaVersion": "2.0.1",
  "updatedAt": "2018-08-17T17:19:00.649Z"
}