{
  "contractName": "Administrated",
  "abi": [
    {
      "constant": true,
      "inputs": [],
      "name": "efm",
      "outputs": [
        {
          "name": "",
          "type": "address"
        }
      ],
      "payable": false,
      "stateMutability": "view",
      "type": "function"
    },
    {
      "inputs": [
        {
          "name": "efmAddress",
          "type": "address"
        }
      ],
      "payable": false,
      "stateMutability": "nonpayable",
      "type": "constructor"
    }
  ],
  "bytecode": "0x608060405234801561001057600080fd5b5060405160208061016b83398101806040528101908080519060200190929190505050806000806101000a81548173ffffffffffffffffffffffffffffffffffffffff021916908373ffffffffffffffffffffffffffffffffffffffff1602179055505060e9806100826000396000f300608060405260043610603f576000357c0100000000000000000000000000000000000000000000000000000000900463ffffffff168063aedbf409146044575b600080fd5b348015604f57600080fd5b5060566098565b604051808273ffffffffffffffffffffffffffffffffffffffff1673ffffffffffffffffffffffffffffffffffffffff16815260200191505060405180910390f35b6000809054906101000a900473ffffffffffffffffffffffffffffffffffffffff16815600a165627a7a72305820fd0cf94f057c6b64cd4cbbb94dc39c6dda59e3645d1a42b70938c45931fae38a0029",
  "source": "pragma solidity ^0.4.24;\r\n\r\nimport \"./EthFundMe.sol\";\r\n// import \"./Approvable.sol\";\r\n\r\n// It is a good practice to structure functions which interact\r\n// with other contracts (i.e. call functions or send Ether)\r\n// into three phases:\r\n// 1. check conditions\r\n// 2. perform actions (potentially change conditions)\r\n// 3. interact with other contracts\r\n// If these phases get mixed up, the other contract might call\r\n// back into the current contract and change the state or cause\r\n// effects (ether payout) to be done multiple times.\r\n// If functions that are called internally include interactions with external\r\n// contracts, they have to be considered interaction with\r\n// external contracts too.\r\n\r\ncontract Administrated {\r\n  EthFundMe public efm;\r\n  \r\n  constructor(address efmAddress) public {\r\n    efm = EthFundMe(efmAddress);\r\n  }\r\n\r\n  modifier onlyAdmin {\r\n    require(efm.isAdmin(msg.sender));\r\n    _;\r\n  }\r\n\r\n}\r\n\r\ncontract Approvable is Administrated {\r\n\r\n  /**\r\n    DATA STRUCTURES\r\n   */\r\n\r\n  enum ApprovalStates {\r\n    Commit,\r\n    Reveal,\r\n    Approved,\r\n    Rejected,\r\n    Cancelled\r\n  }\r\n\r\n  ApprovalStates public approvalState = ApprovalStates.Commit;\r\n\r\n  /**\r\n    STATE VARIABLES\r\n   */\r\n\r\n  uint public numApprovals;\r\n  uint public numRejections;\r\n\r\n  uint public numVoteSecrets;\r\n  uint public numVoteReveals;\r\n\r\n  mapping(address => bytes32) public voteSecrets;\r\n  mapping(address => bool) public hasVoted;\r\n  mapping(address => bool) public hasRevealed;\r\n\r\n  /**\r\n    CONSTRUCTOR\r\n   */\r\n\r\n  constructor(address efmAddress) Administrated(efmAddress) public {\r\n    \r\n  }\r\n\r\n  /**\r\n    ABSTRACT FUNCTIONS\r\n   */\r\n\r\n  function onApproval() internal;\r\n  function onRejection() internal;\r\n\r\n  /**\r\n    MODIFIERS\r\n   */\r\n\r\n  // ACCESS RESTRICTION\r\n\r\n  modifier onlyVotedAdmin() {\r\n    require(hasVoted[msg.sender] == true);\r\n    _;\r\n  }\r\n\r\n  modifier onlyNotRevealedAdmin() {\r\n    require(hasRevealed[msg.sender] == false);\r\n    _;\r\n  }\r\n\r\n  // STATE MANAGEMENT\r\n\r\n  modifier onlyDuringApprovalState(ApprovalStates _approvalState) {\r\n    require(approvalState == _approvalState);\r\n    _;\r\n  }\r\n\r\n  modifier endCommit() {\r\n    _;\r\n    if (numVoteSecrets == 3) {\r\n      approvalState = ApprovalStates.Reveal;\r\n    }\r\n  }\r\n\r\n  // Doesn't require all votes to be revealed only enough.\r\n  modifier endReveal() {\r\n    _;\r\n    if (numApprovals >= 2) {\r\n      approvalState = ApprovalStates.Approved;\r\n      onApproval();\r\n    } \r\n    if (numRejections >= 2) {\r\n      approvalState = ApprovalStates.Rejected;\r\n      onRejection();\r\n    }\r\n  }\r\n\r\n  /**\r\n    INTERFACE\r\n   */\r\n\r\n  function vote(bytes32 secretVote) public \r\n    onlyAdmin \r\n    onlyDuringApprovalState(ApprovalStates.Commit) \r\n    endCommit {\r\n      voteSecrets[msg.sender] = secretVote;\r\n      if (hasVoted[msg.sender] == false) {\r\n        numVoteSecrets++;\r\n        hasVoted[msg.sender] = true;\r\n    }\r\n  }\r\n\r\n  function reveal(bool voteOption, uint salt) public \r\n    onlyVotedAdmin \r\n    onlyNotRevealedAdmin\r\n    onlyDuringApprovalState(ApprovalStates.Reveal) \r\n    endReveal {\r\n      require(keccak256(abi.encodePacked(voteOption, salt)) == voteSecrets[msg.sender]);\r\n\r\n      if (voteOption) {\r\n        numApprovals++;\r\n      } else {\r\n        numRejections++;\r\n      }\r\n\r\n      numVoteReveals++;\r\n      hasRevealed[msg.sender] = true;\r\n  }\r\n}\r\n\r\ncontract Campaign is Approvable {\r\n\r\n  /**\r\n    DATA STRUCTURES \r\n   */\r\n\r\n\r\n  enum CampaignStates {\r\n    Pending,\r\n    Active,\r\n    Successful,\r\n    Unsuccessful,\r\n    Cancelled\r\n  }\r\n\r\n  struct Contribution {\r\n    uint amount;\r\n    uint timestamp;\r\n  }\r\n\r\n  struct Contributor {\r\n    address addr;\r\n    uint totalContributed;\r\n    uint numContributions;\r\n    mapping (uint => Contribution) contributions;\r\n  }\r\n\r\n  /**\r\n    STATE VARIABLES\r\n   */\r\n\r\n  CampaignStates public campaignState = CampaignStates.Pending;\r\n  uint public funds = address(this).balance;\r\n  uint public endDate;\r\n  mapping (address => bool) hasWithdrawn;\r\n\r\n  uint public id;\r\n  string public title;\r\n  uint public goal;\r\n  uint public duration;\r\n  address public manager;\r\n\r\n  uint public numContributors;\r\n  mapping (address => Contributor) public contributors;\r\n  mapping (address => bool) public hasContributed;\r\n\r\n  /**\r\n    CONSTRUCTOR\r\n   */\r\n\r\n  constructor(\r\n    uint _id, \r\n    string _title, \r\n    uint _goal,  \r\n    uint _duration, \r\n    address _manager, \r\n    address efmAddress\r\n  ) Approvable(efmAddress) public {\r\n    id = _id;\r\n    title = _title;\r\n    goal = _goal;\r\n    duration = _duration * 1 days;\r\n    manager = _manager;\r\n  }\r\n\r\n  // STATE TRANSITION/RESTRICTION\r\n\r\n  modifier onlyDuringCampaignState(CampaignStates _campaignState) {\r\n    require(campaignState == _campaignState);\r\n    _;\r\n  }\r\n\r\n  modifier onlyBeforeCampaignEnd() {\r\n    require(campaignState <= CampaignStates.Active);\r\n    _;\r\n  }\r\n\r\n  modifier onlyAfterCampaignEnd() {\r\n    require(campaignState > CampaignStates.Active);\r\n    _;\r\n  }\r\n\r\n  // FIXME: Could be renamed to endCampaign\r\n  modifier transitionState() {\r\n    if (campaignState == CampaignStates.Active && block.timestamp > endDate\r\n    ) {\r\n      \r\n      if (funds >= goal) {\r\n        campaignState = CampaignStates.Successful;\r\n      } else {\r\n        campaignState = CampaignStates.Unsuccessful;\r\n      }\r\n\r\n    }\r\n    _;\r\n  }\r\n\r\n  // ACCESS RESTRICTION\r\n\r\n  modifier notManager() {\r\n    require(msg.sender != manager);\r\n    _;\r\n  }\r\n\r\n  modifier onlyManagerOrAdmin() {\r\n    require(msg.sender == manager || efm.isAdmin(msg.sender));\r\n    _;\r\n  }\r\n\r\n  modifier hasNotWithdrawn() {\r\n    require(hasWithdrawn[msg.sender] == false);\r\n    _;\r\n  }\r\n\r\n  // INPUT VALIDATION\r\n\r\n  modifier validateContribution() {\r\n    //No Zero Contributions\r\n    require(msg.value > 0); \r\n     //Integer Overflow Protection\r\n    require(funds + msg.value > funds);\r\n    require(contributors[msg.sender].totalContributed + msg.value > contributors[msg.sender].totalContributed);\r\n    _;\r\n  }\r\n  \r\n  //FIXME: Logic in this modifier doesn't belong in a modifier.\r\n  modifier newContributor() {\r\n    if (!hasContributed[msg.sender]) {\r\n      contributors[msg.sender] = Contributor({\r\n        addr: msg.sender,\r\n        totalContributed: 0,\r\n        numContributions: 0\r\n      });\r\n      hasContributed[msg.sender] = true;\r\n      numContributors++;\r\n    }\r\n    _;\r\n  }\r\n\r\n  /**\r\n    FUNCTIONS\r\n   */\r\n\r\n  // INTERNAL FUNCTIONS\r\n\r\n  function onApproval() internal {\r\n    endDate = now + duration;\r\n    campaignState = CampaignStates.Active;\r\n  }\r\n\r\n  function onRejection() internal {\r\n    campaignState = CampaignStates.Unsuccessful;\r\n  }\r\n\r\n  // INTERFACE\r\n\r\n  function contribute() public payable \r\n    notManager \r\n    transitionState\r\n    onlyDuringCampaignState(CampaignStates.Active)\r\n    newContributor \r\n    validateContribution {\r\n      contributors[msg.sender].contributions[contributors[msg.sender].numContributions] = Contribution(msg.value, now);\r\n      contributors[msg.sender].numContributions++;\r\n      contributors[msg.sender].totalContributed += msg.value;\r\n      funds += msg.value;\r\n    }\r\n  \r\n  function cancelCampaign() public\r\n    onlyManagerOrAdmin\r\n    transitionState\r\n    onlyBeforeCampaignEnd\r\n    {\r\n      approvalState = ApprovalStates.Cancelled;\r\n      campaignState = CampaignStates.Cancelled;\r\n    }\r\n\r\n  // FIXME: Consider removing this function. It's essentially unnecessary since withdraw will end the campaign\r\n  // but it exists as a formal way of ending the campaign.\r\n  function endCampaign() public \r\n    onlyManagerOrAdmin\r\n    transitionState\r\n    onlyAfterCampaignEnd\r\n    {\r\n    }\r\n\r\n  function withdraw() public \r\n    hasNotWithdrawn\r\n    transitionState \r\n    onlyAfterCampaignEnd {\r\n      if (campaignState == CampaignStates.Successful) {\r\n        require(msg.sender == manager);\r\n        hasWithdrawn[msg.sender] = true;\r\n        funds = 0;\r\n        msg.sender.transfer(funds);\r\n      }\r\n\r\n      if(campaignState == CampaignStates.Unsuccessful || campaignState == CampaignStates.Cancelled) {\r\n        require(hasContributed[msg.sender] == true);\r\n        hasWithdrawn[msg.sender] = true;\r\n        funds -= contributors[msg.sender].totalContributed;\r\n        msg.sender.transfer(contributors[msg.sender].totalContributed);\r\n      }\r\n  }\r\n\r\n  // GETTERS\r\n  // FIXME: Should the getters transition state?\r\n  // Decide this when building the frontend. If it can help update state correctly in the frontend it\r\n  // might be a good idea, otherwise it's unneccessary.\r\n\r\n\r\n  function getTotalContributed(address contributor) public view returns(uint totalContributed) {\r\n    totalContributed = contributors[contributor].totalContributed;\r\n  }\r\n  \r\n  function getNumContributions(address contributor) public view returns(uint numContributions) {\r\n    numContributions = contributors[contributor].numContributions;\r\n  }\r\n\r\n  function getContribution(address contributor, uint i) public view returns(uint amount, uint timestamp) {\r\n    amount = contributors[contributor].contributions[i].amount;\r\n    timestamp = contributors[contributor].contributions[i].timestamp;\r\n  }\r\n\r\n  // HELPERS\r\n\r\n  function isActive() public view returns(bool) {\r\n    return (block.timestamp < endDate);\r\n  }\r\n\r\n  function getBlockTimestamp() public view returns(uint) {\r\n    return block.timestamp;\r\n  }\r\n\r\n}",
  "sourcePath": "C:\\Users\\jalal\\GitHub\\EthFundMe\\contracts\\Campaign.sol",
  "compiler": {
    "name": "solc",
    "version": "0.4.24+commit.e67f0147.Emscripten.clang"
  },
  "schemaVersion": "2.0.1",
  "updatedAt": "2018-07-30T10:12:57.497Z"
}