{
  "contractName": "Administrated",
  "abi": [
    {
      "constant": true,
      "inputs": [
        {
          "name": "_operator",
          "type": "address"
        },
        {
          "name": "_role",
          "type": "string"
        }
      ],
      "name": "checkRole",
      "outputs": [],
      "payable": false,
      "stateMutability": "view",
      "type": "function"
    },
    {
      "constant": true,
      "inputs": [],
      "name": "numAdmins",
      "outputs": [
        {
          "name": "",
          "type": "uint256"
        }
      ],
      "payable": false,
      "stateMutability": "view",
      "type": "function"
    },
    {
      "constant": true,
      "inputs": [
        {
          "name": "_operator",
          "type": "address"
        },
        {
          "name": "_role",
          "type": "string"
        }
      ],
      "name": "hasRole",
      "outputs": [
        {
          "name": "",
          "type": "bool"
        }
      ],
      "payable": false,
      "stateMutability": "view",
      "type": "function"
    },
    {
      "constant": true,
      "inputs": [],
      "name": "ROLE_ADMIN",
      "outputs": [
        {
          "name": "",
          "type": "string"
        }
      ],
      "payable": false,
      "stateMutability": "view",
      "type": "function"
    },
    {
      "inputs": [],
      "payable": false,
      "stateMutability": "nonpayable",
      "type": "constructor"
    },
    {
      "anonymous": false,
      "inputs": [
        {
          "indexed": true,
          "name": "account",
          "type": "address"
        }
      ],
      "name": "AdminAdded",
      "type": "event"
    },
    {
      "anonymous": false,
      "inputs": [
        {
          "indexed": true,
          "name": "account",
          "type": "address"
        }
      ],
      "name": "AdminRemoved",
      "type": "event"
    },
    {
      "anonymous": false,
      "inputs": [
        {
          "indexed": true,
          "name": "operator",
          "type": "address"
        },
        {
          "indexed": false,
          "name": "role",
          "type": "string"
        }
      ],
      "name": "RoleAdded",
      "type": "event"
    },
    {
      "anonymous": false,
      "inputs": [
        {
          "indexed": true,
          "name": "operator",
          "type": "address"
        },
        {
          "indexed": false,
          "name": "role",
          "type": "string"
        }
      ],
      "name": "RoleRemoved",
      "type": "event"
    },
    {
      "constant": false,
      "inputs": [
        {
          "name": "_account",
          "type": "address"
        }
      ],
      "name": "addAdminRole",
      "outputs": [],
      "payable": false,
      "stateMutability": "nonpayable",
      "type": "function"
    },
    {
      "constant": false,
      "inputs": [
        {
          "name": "_account",
          "type": "address"
        }
      ],
      "name": "removeAdminRole",
      "outputs": [],
      "payable": false,
      "stateMutability": "nonpayable",
      "type": "function"
    },
    {
      "constant": true,
      "inputs": [
        {
          "name": "_address",
          "type": "address"
        }
      ],
      "name": "isAdmin",
      "outputs": [
        {
          "name": "",
          "type": "bool"
        }
      ],
      "payable": false,
      "stateMutability": "view",
      "type": "function"
    }
  ],
  "bytecode": "0x608060405234801561001057600080fd5b5061005f336040805190810160405280600581526020017f61646d696e00000000000000000000000000000000000000000000000000000081525061006b640100000000026401000000009004565b6001808190555061020a565b6100f5826000836040518082805190602001908083835b6020831015156100a75780518252602082019150602081019050602083039250610082565b6001836020036101000a03801982511681845116808217855250505050505090500191505090815260200160405180910390206101ac64010000000002610964179091906401000000009004565b8173ffffffffffffffffffffffffffffffffffffffff167fbfec83d64eaa953f2708271a023ab9ee82057f8f3578d548c1a4ba0b5b700489826040518080602001828103825283818151815260200191508051906020019080838360005b8381101561016e578082015181840152602081019050610153565b50505050905090810190601f16801561019b5780820380516001836020036101000a031916815260200191505b509250505060405180910390a25050565b60018260000160008373ffffffffffffffffffffffffffffffffffffffff1673ffffffffffffffffffffffffffffffffffffffff16815260200190815260200160002060006101000a81548160ff0219169083151502179055505050565b610a4c806102196000396000f300608060405260043610610083576000357c0100000000000000000000000000000000000000000000000000000000900463ffffffff1680630988ca8c146100885780630efd498914610111578063217fe6c61461013c57806324d7806c146101dd5780636595171c14610238578063d391014b1461027b578063dccfe3101461030b575b600080fd5b34801561009457600080fd5b5061010f600480360381019080803573ffffffffffffffffffffffffffffffffffffffff169060200190929190803590602001908201803590602001908080601f016020809104026020016040519081016040528093929190818152602001838380828437820191505050505050919291929050505061034e565b005b34801561011d57600080fd5b506101266103cf565b6040518082815260200191505060405180910390f35b34801561014857600080fd5b506101c3600480360381019080803573ffffffffffffffffffffffffffffffffffffffff169060200190929190803590602001908201803590602001908080601f01602080910402602001604051908101604052809392919081815260200183838082843782019150505050505091929192905050506103d5565b604051808215151515815260200191505060405180910390f35b3480156101e957600080fd5b5061021e600480360381019080803573ffffffffffffffffffffffffffffffffffffffff16906020019092919050505061045c565b604051808215151515815260200191505060405180910390f35b34801561024457600080fd5b50610279600480360381019080803573ffffffffffffffffffffffffffffffffffffffff1690602001909291905050506104a4565b005b34801561028757600080fd5b5061029061057a565b6040518080602001828103825283818151815260200191508051906020019080838360005b838110156102d05780820151818401526020810190506102b5565b50505050905090810190601f1680156102fd5780820380516001836020036101000a031916815260200191505b509250505060405180910390f35b34801561031757600080fd5b5061034c600480360381019080803573ffffffffffffffffffffffffffffffffffffffff1690602001909291905050506105b3565b005b6103cb826000836040518082805190602001908083835b60208310151561038a5780518252602082019150602081019050602083039250610365565b6001836020036101000a038019825116818451168082178552505050505050905001915050908152602001604051809103902061068a90919063ffffffff16565b5050565b60015481565b6000610454836000846040518082805190602001908083835b60208310151561041357805182526020820191506020810190506020830392506103ee565b6001836020036101000a03801982511681845116808217855250505050505090500191505090815260200160405180910390206106a390919063ffffffff16565b905092915050565b600061049d826040805190810160405280600581526020017f61646d696e0000000000000000000000000000000000000000000000000000008152506103d5565b9050919050565b6104e3336040805190810160405280600581526020017f61646d696e00000000000000000000000000000000000000000000000000000081525061034e565b610522816040805190810160405280600581526020017f61646d696e0000000000000000000000000000000000000000000000000000008152506106fc565b6001600081548092919060010191905055508073ffffffffffffffffffffffffffffffffffffffff167f44d6d25963f097ad14f29f06854a01f575648a1ef82f30e562ccd3889717e33960405160405180910390a250565b6040805190810160405280600581526020017f61646d696e00000000000000000000000000000000000000000000000000000081525081565b6105f2336040805190810160405280600581526020017f61646d696e00000000000000000000000000000000000000000000000000000081525061034e565b610631816040805190810160405280600581526020017f61646d696e000000000000000000000000000000000000000000000000000000815250610830565b600160008154809291906001900391905055508073ffffffffffffffffffffffffffffffffffffffff167fa3b62bc36326052d97ea62d63c3d60308ed4c3ea8ac079dd8499f1e9c4f80c0f60405160405180910390a250565b61069482826106a3565b151561069f57600080fd5b5050565b60008260000160008373ffffffffffffffffffffffffffffffffffffffff1673ffffffffffffffffffffffffffffffffffffffff16815260200190815260200160002060009054906101000a900460ff16905092915050565b610779826000836040518082805190602001908083835b6020831015156107385780518252602082019150602081019050602083039250610713565b6001836020036101000a038019825116818451168082178552505050505050905001915050908152602001604051809103902061096490919063ffffffff16565b8173ffffffffffffffffffffffffffffffffffffffff167fbfec83d64eaa953f2708271a023ab9ee82057f8f3578d548c1a4ba0b5b700489826040518080602001828103825283818151815260200191508051906020019080838360005b838110156107f25780820151818401526020810190506107d7565b50505050905090810190601f16801561081f5780820380516001836020036101000a031916815260200191505b509250505060405180910390a25050565b6108ad826000836040518082805190602001908083835b60208310151561086c5780518252602082019150602081019050602083039250610847565b6001836020036101000a03801982511681845116808217855250505050505090500191505090815260200160405180910390206109c290919063ffffffff16565b8173ffffffffffffffffffffffffffffffffffffffff167fd211483f91fc6eff862467f8de606587a30c8fc9981056f051b897a418df803a826040518080602001828103825283818151815260200191508051906020019080838360005b8381101561092657808201518184015260208101905061090b565b50505050905090810190601f1680156109535780820380516001836020036101000a031916815260200191505b509250505060405180910390a25050565b60018260000160008373ffffffffffffffffffffffffffffffffffffffff1673ffffffffffffffffffffffffffffffffffffffff16815260200190815260200160002060006101000a81548160ff0219169083151502179055505050565b60008260000160008373ffffffffffffffffffffffffffffffffffffffff1673ffffffffffffffffffffffffffffffffffffffff16815260200190815260200160002060006101000a81548160ff02191690831515021790555050505600a165627a7a72305820cf09a1bb26073e5e9b32de4ab51501a7a1d0cc1acaaae43449b73d763681646e0029",
  "source": "pragma solidity ^0.4.24;\n\nimport \"../node_modules/zeppelin-solidity/contracts/access/rbac/RBAC.sol\";\n\n/**\n  @title Administrated\n  @dev This contract enables management of accounts with admin roles\n  @dev Utilizes the Open Zeppelin Role Based Access Control (RBAC) Library\n */\n\ncontract Administrated is RBAC {\n  /**\n    @dev Event emitted when Admin Role is granted\n   */\n  event AdminAdded (\n    address indexed account\n  );\n\n  /**\n    @dev Event emitted when Admin Role is revoked\n   */\n  event AdminRemoved (\n    address indexed account\n  );\n\n  /**\n   * A constant role name for indicating admins.\n   */\n  string public constant ROLE_ADMIN = \"admin\";\n  uint256 public numAdmins; //tracks the numbder of valid admins\n\n  /**\n   * @dev modifier to scope access to admins\n   * // reverts\n   */\n  modifier onlyAdmin()\n  {\n    checkRole(msg.sender, ROLE_ADMIN);\n    _;\n  }\n\n  /**\n   * @dev modifier to scope access to non admins\n   * // reverts\n   */\n  modifier notAdmin()\n  {\n    require(!hasRole(msg.sender, ROLE_ADMIN));\n    _;\n  }\n  \n  /**\n   * @dev constructor\n   * Assigns msg.sender (the deploying address) the Admin Role\n   * must initialize the first admin and increment numAdmins in the constructor\n   * because the addAdminRole() function is protected by the onlyAdmin modifier and \n   * thus can't be used to add the first admin\n   */\n  constructor()\n    public\n  {\n    addRole(msg.sender, ROLE_ADMIN);\n    numAdmins = 1;\n  }\n\n  /**\n   * @dev add a role to an account\n   * @param _account the account that will have the admin role\n   */\n  function addAdminRole(address _account)\n    public\n    onlyAdmin\n  {\n    addRole(_account, ROLE_ADMIN);\n    numAdmins++;\n    emit AdminAdded(_account);\n  }\n\n  /**\n   * @dev remove a role from an account\n   * @param _account the account that will no longer have the admin role\n   */\n  function removeAdminRole(address _account)\n    public\n    onlyAdmin\n  {\n    removeRole(_account, ROLE_ADMIN);\n    numAdmins--;\n    emit AdminRemoved(_account);\n  }\n\n  /**\n    @dev returns true if _address has the admin role\n    @param _address the address to test\n   */\n  function isAdmin(address _address) \n    public\n    view\n    returns(bool)\n  {\n    return hasRole(_address, ROLE_ADMIN);\n  }\n\n}",
  "sourcePath": "/mnt/c/Users/jalal/Github/EthFundMe/contracts/Administrated.sol",
  "compiler": {
    "name": "solc",
    "version": "0.4.24+commit.e67f0147.Emscripten.clang"
  },
  "schemaVersion": "2.0.1",
  "updatedAt": "2018-08-22T19:31:07.921Z"
}