{
  "contractName": "Administrated",
  "abi": [
    {
      "constant": true,
      "inputs": [
        {
          "name": "_operator",
          "type": "address"
        },
        {
          "name": "_role",
          "type": "string"
        }
      ],
      "name": "checkRole",
      "outputs": [],
      "payable": false,
      "stateMutability": "view",
      "type": "function"
    },
    {
      "constant": true,
      "inputs": [],
      "name": "numAdmins",
      "outputs": [
        {
          "name": "",
          "type": "uint256"
        }
      ],
      "payable": false,
      "stateMutability": "view",
      "type": "function"
    },
    {
      "constant": true,
      "inputs": [
        {
          "name": "_operator",
          "type": "address"
        },
        {
          "name": "_role",
          "type": "string"
        }
      ],
      "name": "hasRole",
      "outputs": [
        {
          "name": "",
          "type": "bool"
        }
      ],
      "payable": false,
      "stateMutability": "view",
      "type": "function"
    },
    {
      "constant": true,
      "inputs": [],
      "name": "ROLE_ADMIN",
      "outputs": [
        {
          "name": "",
          "type": "string"
        }
      ],
      "payable": false,
      "stateMutability": "view",
      "type": "function"
    },
    {
      "inputs": [],
      "payable": false,
      "stateMutability": "nonpayable",
      "type": "constructor"
    },
    {
      "anonymous": false,
      "inputs": [
        {
          "indexed": true,
          "name": "operator",
          "type": "address"
        },
        {
          "indexed": false,
          "name": "role",
          "type": "string"
        }
      ],
      "name": "RoleAdded",
      "type": "event"
    },
    {
      "anonymous": false,
      "inputs": [
        {
          "indexed": true,
          "name": "operator",
          "type": "address"
        },
        {
          "indexed": false,
          "name": "role",
          "type": "string"
        }
      ],
      "name": "RoleRemoved",
      "type": "event"
    },
    {
      "constant": false,
      "inputs": [
        {
          "name": "_account",
          "type": "address"
        }
      ],
      "name": "addAdminRole",
      "outputs": [],
      "payable": false,
      "stateMutability": "nonpayable",
      "type": "function"
    },
    {
      "constant": false,
      "inputs": [
        {
          "name": "_account",
          "type": "address"
        }
      ],
      "name": "removeAdminRole",
      "outputs": [],
      "payable": false,
      "stateMutability": "nonpayable",
      "type": "function"
    },
    {
      "constant": true,
      "inputs": [
        {
          "name": "_address",
          "type": "address"
        }
      ],
      "name": "isAdmin",
      "outputs": [
        {
          "name": "",
          "type": "bool"
        }
      ],
      "payable": false,
      "stateMutability": "view",
      "type": "function"
    }
  ],
  "bytecode": "0x608060405234801561001057600080fd5b5061005f336040805190810160405280600581526020017f61646d696e00000000000000000000000000000000000000000000000000000081525061006b640100000000026401000000009004565b6001808190555061020a565b6100f5826000836040518082805190602001908083835b6020831015156100a75780518252602082019150602081019050602083039250610082565b6001836020036101000a03801982511681845116808217855250505050505090500191505090815260200160405180910390206101ac640100000000026108de179091906401000000009004565b8173ffffffffffffffffffffffffffffffffffffffff167fbfec83d64eaa953f2708271a023ab9ee82057f8f3578d548c1a4ba0b5b700489826040518080602001828103825283818151815260200191508051906020019080838360005b8381101561016e578082015181840152602081019050610153565b50505050905090810190601f16801561019b5780820380516001836020036101000a031916815260200191505b509250505060405180910390a25050565b60018260000160008373ffffffffffffffffffffffffffffffffffffffff1673ffffffffffffffffffffffffffffffffffffffff16815260200190815260200160002060006101000a81548160ff0219169083151502179055505050565b6109c6806102196000396000f300608060405260043610610083576000357c0100000000000000000000000000000000000000000000000000000000900463ffffffff1680630988ca8c146100885780630efd498914610111578063217fe6c61461013c57806324d7806c146101dd5780636595171c14610238578063d391014b1461027b578063dccfe3101461030b575b600080fd5b34801561009457600080fd5b5061010f600480360381019080803573ffffffffffffffffffffffffffffffffffffffff169060200190929190803590602001908201803590602001908080601f016020809104026020016040519081016040528093929190818152602001838380828437820191505050505050919291929050505061034e565b005b34801561011d57600080fd5b506101266103cf565b6040518082815260200191505060405180910390f35b34801561014857600080fd5b506101c3600480360381019080803573ffffffffffffffffffffffffffffffffffffffff169060200190929190803590602001908201803590602001908080601f01602080910402602001604051908101604052809392919081815260200183838082843782019150505050505091929192905050506103d5565b604051808215151515815260200191505060405180910390f35b3480156101e957600080fd5b5061021e600480360381019080803573ffffffffffffffffffffffffffffffffffffffff16906020019092919050505061045c565b604051808215151515815260200191505060405180910390f35b34801561024457600080fd5b50610279600480360381019080803573ffffffffffffffffffffffffffffffffffffffff1690602001909291905050506104a4565b005b34801561028757600080fd5b50610290610537565b6040518080602001828103825283818151815260200191508051906020019080838360005b838110156102d05780820151818401526020810190506102b5565b50505050905090810190601f1680156102fd5780820380516001836020036101000a031916815260200191505b509250505060405180910390f35b34801561031757600080fd5b5061034c600480360381019080803573ffffffffffffffffffffffffffffffffffffffff169060200190929190505050610570565b005b6103cb826000836040518082805190602001908083835b60208310151561038a5780518252602082019150602081019050602083039250610365565b6001836020036101000a038019825116818451168082178552505050505050905001915050908152602001604051809103902061060490919063ffffffff16565b5050565b60015481565b6000610454836000846040518082805190602001908083835b60208310151561041357805182526020820191506020810190506020830392506103ee565b6001836020036101000a038019825116818451168082178552505050505050905001915050908152602001604051809103902061061d90919063ffffffff16565b905092915050565b600061049d826040805190810160405280600581526020017f61646d696e0000000000000000000000000000000000000000000000000000008152506103d5565b9050919050565b6104e3336040805190810160405280600581526020017f61646d696e00000000000000000000000000000000000000000000000000000081525061034e565b610522816040805190810160405280600581526020017f61646d696e000000000000000000000000000000000000000000000000000000815250610676565b60016000815480929190600101919050555050565b6040805190810160405280600581526020017f61646d696e00000000000000000000000000000000000000000000000000000081525081565b6105af336040805190810160405280600581526020017f61646d696e00000000000000000000000000000000000000000000000000000081525061034e565b6105ee816040805190810160405280600581526020017f61646d696e0000000000000000000000000000000000000000000000000000008152506107aa565b6001600081548092919060019003919050555050565b61060e828261061d565b151561061957600080fd5b5050565b60008260000160008373ffffffffffffffffffffffffffffffffffffffff1673ffffffffffffffffffffffffffffffffffffffff16815260200190815260200160002060009054906101000a900460ff16905092915050565b6106f3826000836040518082805190602001908083835b6020831015156106b2578051825260208201915060208101905060208303925061068d565b6001836020036101000a03801982511681845116808217855250505050505090500191505090815260200160405180910390206108de90919063ffffffff16565b8173ffffffffffffffffffffffffffffffffffffffff167fbfec83d64eaa953f2708271a023ab9ee82057f8f3578d548c1a4ba0b5b700489826040518080602001828103825283818151815260200191508051906020019080838360005b8381101561076c578082015181840152602081019050610751565b50505050905090810190601f1680156107995780820380516001836020036101000a031916815260200191505b509250505060405180910390a25050565b610827826000836040518082805190602001908083835b6020831015156107e657805182526020820191506020810190506020830392506107c1565b6001836020036101000a038019825116818451168082178552505050505050905001915050908152602001604051809103902061093c90919063ffffffff16565b8173ffffffffffffffffffffffffffffffffffffffff167fd211483f91fc6eff862467f8de606587a30c8fc9981056f051b897a418df803a826040518080602001828103825283818151815260200191508051906020019080838360005b838110156108a0578082015181840152602081019050610885565b50505050905090810190601f1680156108cd5780820380516001836020036101000a031916815260200191505b509250505060405180910390a25050565b60018260000160008373ffffffffffffffffffffffffffffffffffffffff1673ffffffffffffffffffffffffffffffffffffffff16815260200190815260200160002060006101000a81548160ff0219169083151502179055505050565b60008260000160008373ffffffffffffffffffffffffffffffffffffffff1673ffffffffffffffffffffffffffffffffffffffff16815260200190815260200160002060006101000a81548160ff02191690831515021790555050505600a165627a7a723058204fc84a44777b467fc9e6d389af5f60364fd13c129f0279e7216de5b0c0eace340029",
  "source": "pragma solidity ^0.4.24;\r\n\r\nimport \"../node_modules/zeppelin-solidity/contracts/access/rbac/RBAC.sol\";\r\n\r\n/**\r\n  @title Administrated\r\n  @dev This contract enables management of accounts with admin roles\r\n  @dev Utilizes the Open Zeppelin Role Based Access Control (RBAC) Library\r\n */\r\n\r\ncontract Administrated is RBAC {\r\n  /**\r\n   * A constant role name for indicating admins.\r\n   */\r\n  string public constant ROLE_ADMIN = \"admin\";\r\n  uint256 public numAdmins; //tracks the numbder of valid admins\r\n\r\n  /**\r\n   * @dev modifier to scope access to admins\r\n   * // reverts\r\n   */\r\n  modifier onlyAdmin()\r\n  {\r\n    checkRole(msg.sender, ROLE_ADMIN);\r\n    _;\r\n  }\r\n\r\n  /**\r\n   * @dev modifier to scope access to non admins\r\n   * // reverts\r\n   */\r\n  modifier notAdmin()\r\n  {\r\n    require(!hasRole(msg.sender, ROLE_ADMIN));\r\n    _;\r\n  }\r\n  \r\n  /**\r\n   * @dev constructor\r\n   * Assigns msg.sender (the deploying address) the Admin Role\r\n   * must initialize the first admin and increment numAdmins in the constructor\r\n   * because the addAdminRole() function is protected by the onlyAdmin modifier and \r\n   * thus can't be used to add the first admin\r\n   */\r\n  constructor()\r\n    public\r\n  {\r\n    addRole(msg.sender, ROLE_ADMIN);\r\n    numAdmins = 1;\r\n  }\r\n\r\n  /**\r\n   * @dev add a role to an account\r\n   * @param _account the account that will have the admin role\r\n   */\r\n  function addAdminRole(address _account)\r\n    public\r\n    onlyAdmin\r\n  {\r\n    addRole(_account, ROLE_ADMIN);\r\n    numAdmins++;\r\n  }\r\n\r\n  /**\r\n   * @dev remove a role from an account\r\n   * @param _account the account that will no longer have the admin role\r\n   */\r\n  function removeAdminRole(address _account)\r\n    public\r\n    onlyAdmin\r\n  {\r\n    removeRole(_account, ROLE_ADMIN);\r\n    numAdmins--;\r\n  }\r\n\r\n  /**\r\n    @dev returns true if _address has the admin role\r\n    @param _address the address to test\r\n   */\r\n  function isAdmin(address _address) \r\n    public\r\n    view\r\n    returns(bool)\r\n  {\r\n    return hasRole(_address, ROLE_ADMIN);\r\n  }\r\n\r\n}",
  "sourcePath": "C:\\Users\\jalal\\GitHub\\EthFundMe\\contracts\\Administrated.sol",
  "compiler": {
    "name": "solc",
    "version": "0.4.24+commit.e67f0147.Emscripten.clang"
  },
  "schemaVersion": "2.0.1",
  "updatedAt": "2018-08-19T12:09:49.029Z"
}