{
  "contractName": "Administrated",
  "abi": [
    {
      "constant": true,
      "inputs": [],
      "name": "efm",
      "outputs": [
        {
          "name": "",
          "type": "address"
        }
      ],
      "payable": false,
      "stateMutability": "view",
      "type": "function"
    },
    {
      "inputs": [
        {
          "name": "efmAddress",
          "type": "address"
        }
      ],
      "payable": false,
      "stateMutability": "nonpayable",
      "type": "constructor"
    }
  ],
  "bytecode": "0x608060405234801561001057600080fd5b5060405160208061016b83398101806040528101908080519060200190929190505050806000806101000a81548173ffffffffffffffffffffffffffffffffffffffff021916908373ffffffffffffffffffffffffffffffffffffffff1602179055505060e9806100826000396000f300608060405260043610603f576000357c0100000000000000000000000000000000000000000000000000000000900463ffffffff168063aedbf409146044575b600080fd5b348015604f57600080fd5b5060566098565b604051808273ffffffffffffffffffffffffffffffffffffffff1673ffffffffffffffffffffffffffffffffffffffff16815260200191505060405180910390f35b6000809054906101000a900473ffffffffffffffffffffffffffffffffffffffff16815600a165627a7a723058205c8e95b89e4c0d970f20675efe2e5b514da1a405b2036034cb7f665cdcb943990029",
  "source": "pragma solidity ^0.4.24;\n\nimport \"./EthFundMe.sol\";\n// import \"./Approvable.sol\";\n\n// It is a good practice to structure functions which interact\n// with other contracts (i.e. call functions or send Ether)\n// into three phases:\n// 1. check conditions\n// 2. perform actions (potentially change conditions)\n// 3. interact with other contracts\n// If these phases get mixed up, the other contract might call\n// back into the current contract and change the state or cause\n// effects (ether payout) to be done multiple times.\n// If functions that are called internally include interactions with external\n// contracts, they have to be considered interaction with\n// external contracts too.\n\ncontract Administrated {\n  EthFundMe public efm;\n  \n  constructor(address efmAddress) public {\n    efm = EthFundMe(efmAddress);\n  }\n\n  modifier onlyAdmin {\n    require(efm.isAdmin(msg.sender));\n    _;\n  }\n\n}\n\ncontract Approvable is Administrated {\n\n  /**\n    DATA STRUCTURES\n   */\n\n  enum ApprovalStates {\n    Commit,\n    Reveal,\n    Approved,\n    Rejected,\n    Cancelled\n  }\n\n  ApprovalStates public approvalState = ApprovalStates.Commit;\n\n  /**\n    STATE VARIABLES\n   */\n\n  uint public numApprovals;\n  uint public numRejections;\n\n  uint public numVoteSecrets;\n  uint public numVoteReveals;\n\n  mapping(address => bytes32) public voteSecrets;\n  mapping(address => bool) public hasVoted;\n  mapping(address => bool) public hasRevealed;\n\n  /**\n    CONSTRUCTOR\n   */\n\n  constructor(address efmAddress) Administrated(efmAddress) public {\n    \n  }\n\n  /**\n    ABSTRACT FUNCTIONS\n   */\n\n  function onApproval() internal;\n  function onRejection() internal;\n\n  /**\n    MODIFIERS\n   */\n\n  // ACCESS RESTRICTION\n\n  modifier onlyVotedAdmin() {\n    require(hasVoted[msg.sender] == true);\n    _;\n  }\n\n  modifier onlyNotRevealedAdmin() {\n    require(hasRevealed[msg.sender] == false);\n    _;\n  }\n\n  // STATE MANAGEMENT\n\n  modifier onlyDuringApprovalState(ApprovalStates _approvalState) {\n    require(approvalState == _approvalState);\n    _;\n  }\n\n  modifier endCommit() {\n    _;\n    if (numVoteSecrets == 3) {\n      approvalState = ApprovalStates.Reveal;\n    }\n  }\n\n  // Doesn't require all votes to be revealed only enough.\n  modifier endReveal() {\n    _;\n    if (numApprovals >= 2) {\n      approvalState = ApprovalStates.Approved;\n      onApproval();\n    } \n    if (numRejections >= 2) {\n      approvalState = ApprovalStates.Rejected;\n      onRejection();\n    }\n  }\n\n  /**\n    INTERFACE\n   */\n\n  function vote(bytes32 secretVote) public \n    onlyAdmin \n    onlyDuringApprovalState(ApprovalStates.Commit) \n    endCommit {\n      voteSecrets[msg.sender] = secretVote;\n      if (hasVoted[msg.sender] == false) {\n        numVoteSecrets++;\n        hasVoted[msg.sender] = true;\n    }\n  }\n\n  function reveal(bool voteOption, uint salt) public \n    onlyVotedAdmin \n    onlyNotRevealedAdmin\n    onlyDuringApprovalState(ApprovalStates.Reveal) \n    endReveal {\n      require(keccak256(abi.encodePacked(voteOption, salt)) == voteSecrets[msg.sender]);\n\n      if (voteOption) {\n        numApprovals++;\n      } else {\n        numRejections++;\n      }\n\n      numVoteReveals++;\n      hasRevealed[msg.sender] = true;\n  }\n}\n\ncontract Campaign is Approvable {\n\n  /**\n    DATA STRUCTURES \n   */\n\n\n  enum CampaignStates {\n    Pending,\n    Active,\n    Successful,\n    Unsuccessful,\n    Cancelled\n  }\n\n  struct Contribution {\n    uint amount;\n    uint timestamp;\n  }\n\n  struct Contributor {\n    address addr;\n    uint totalContributed;\n    uint numContributions;\n    mapping (uint => Contribution) contributions;\n  }\n\n  /**\n    STATE VARIABLES\n   */\n\n  CampaignStates public campaignState = CampaignStates.Pending;\n  uint public funds = address(this).balance;\n  uint public endDate;\n  mapping (address => bool) hasWithdrawn;\n\n  uint public id;\n  string public title;\n  uint public goal;\n  uint public duration;\n  address public manager;\n\n  uint public numContributors;\n  mapping (address => Contributor) public contributors;\n  mapping (address => bool) public hasContributed;\n\n  /**\n    CONSTRUCTOR\n   */\n\n  constructor(\n    uint _id, \n    string _title, \n    uint _goal,  \n    uint _duration, \n    address _manager, \n    address efmAddress\n  ) Approvable(efmAddress) public {\n    id = _id;\n    title = _title;\n    goal = _goal;\n    duration = _duration * 1 days;\n    manager = _manager;\n  }\n\n  // STATE TRANSITION/RESTRICTION\n\n  modifier onlyDuringCampaignState(CampaignStates _campaignState) {\n    require(campaignState == _campaignState);\n    _;\n  }\n\n  modifier onlyBeforeCampaignEnd() {\n    require(campaignState <= CampaignStates.Active);\n    _;\n  }\n\n  modifier onlyAfterCampaignEnd() {\n    require(campaignState > CampaignStates.Active);\n    _;\n  }\n\n  // FIXME: Could be renamed to endCampaign\n  modifier transitionState() {\n    if (campaignState == CampaignStates.Active && block.timestamp > endDate\n    ) {\n      \n      if (funds >= goal) {\n        campaignState = CampaignStates.Successful;\n      } else {\n        campaignState = CampaignStates.Unsuccessful;\n      }\n\n    }\n    _;\n  }\n\n  // ACCESS RESTRICTION\n\n  modifier notManager() {\n    require(msg.sender != manager);\n    _;\n  }\n\n  modifier onlyManagerOrAdmin() {\n    require(msg.sender == manager || efm.isAdmin(msg.sender));\n    _;\n  }\n\n  modifier hasNotWithdrawn() {\n    require(hasWithdrawn[msg.sender] == false);\n    _;\n  }\n\n  // INPUT VALIDATION\n\n  modifier validateContribution() {\n    //No Zero Contributions\n    require(msg.value > 0); \n     //Integer Overflow Protection\n    require(funds + msg.value > funds);\n    require(contributors[msg.sender].totalContributed + msg.value > contributors[msg.sender].totalContributed);\n    _;\n  }\n  \n  //FIXME: Logic in this modifier doesn't belong in a modifier.\n  modifier newContributor() {\n    if (!hasContributed[msg.sender]) {\n      contributors[msg.sender] = Contributor({\n        addr: msg.sender,\n        totalContributed: 0,\n        numContributions: 0\n      });\n      hasContributed[msg.sender] = true;\n      numContributors++;\n    }\n    _;\n  }\n\n  /**\n    FUNCTIONS\n   */\n\n  // INTERNAL FUNCTIONS\n\n  function onApproval() internal {\n    endDate = now + duration;\n    campaignState = CampaignStates.Active;\n  }\n\n  function onRejection() internal {\n    campaignState = CampaignStates.Unsuccessful;\n  }\n\n  // INTERFACE\n\n  function contribute() public payable \n    notManager \n    transitionState\n    onlyDuringCampaignState(CampaignStates.Active)\n    newContributor \n    validateContribution {\n      contributors[msg.sender].contributions[contributors[msg.sender].numContributions] = Contribution(msg.value, now);\n      contributors[msg.sender].numContributions++;\n      contributors[msg.sender].totalContributed += msg.value;\n      funds += msg.value;\n    }\n  \n  function cancelCampaign() public\n    onlyManagerOrAdmin\n    transitionState\n    onlyBeforeCampaignEnd\n    {\n      approvalState = ApprovalStates.Cancelled;\n      campaignState = CampaignStates.Cancelled;\n    }\n\n  // FIXME: Consider removing this function. It's essentially unnecessary since withdraw will end the campaign\n  // but it exists as a formal way of ending the campaign.\n  function endCampaign() public \n    onlyManagerOrAdmin\n    transitionState\n    onlyAfterCampaignEnd\n    {\n    }\n\n  function withdraw() public \n    hasNotWithdrawn\n    transitionState \n    onlyAfterCampaignEnd {\n      if (campaignState == CampaignStates.Successful) {\n        require(msg.sender == manager);\n        hasWithdrawn[msg.sender] = true;\n        funds = 0;\n        msg.sender.transfer(funds);\n      }\n\n      if(campaignState == CampaignStates.Unsuccessful || campaignState == CampaignStates.Cancelled) {\n        require(hasContributed[msg.sender] == true);\n        hasWithdrawn[msg.sender] = true;\n        funds -= contributors[msg.sender].totalContributed;\n        msg.sender.transfer(contributors[msg.sender].totalContributed);\n      }\n  }\n\n  // GETTERS\n  // FIXME: Should the getters transition state?\n  // Decide this when building the frontend. If it can help update state correctly in the frontend it\n  // might be a good idea, otherwise it's unneccessary.\n\n\n  function getTotalContributed(address contributor) public view returns(uint totalContributed) {\n    totalContributed = contributors[contributor].totalContributed;\n  }\n  \n  function getNumContributions(address contributor) public view returns(uint numContributions) {\n    numContributions = contributors[contributor].numContributions;\n  }\n\n  function getContribution(address contributor, uint i) public view returns(uint amount, uint timestamp) {\n    amount = contributors[contributor].contributions[i].amount;\n    timestamp = contributors[contributor].contributions[i].timestamp;\n  }\n\n  // HELPERS\n\n  function isActive() public view returns(bool) {\n    return (block.timestamp < endDate);\n  }\n\n  function getBlockTimestamp() public view returns(uint) {\n    return block.timestamp;\n  }\n\n}",
  "sourcePath": "C:\\Users\\jalal\\GitHub\\EthFundMe\\contracts\\Campaign.sol",
  "compiler": {
    "name": "solc",
    "version": "0.4.24+commit.e67f0147.Emscripten.clang"
  },
  "schemaVersion": "2.0.1",
  "updatedAt": "2018-07-31T13:46:09.955Z"
}