{
  "contractName": "Approvable",
  "abi": [
    {
      "constant": true,
      "inputs": [],
      "name": "numVotes",
      "outputs": [
        {
          "name": "",
          "type": "uint256"
        }
      ],
      "payable": false,
      "stateMutability": "view",
      "type": "function"
    },
    {
      "constant": true,
      "inputs": [
        {
          "name": "",
          "type": "address"
        }
      ],
      "name": "votes",
      "outputs": [
        {
          "name": "",
          "type": "uint256"
        }
      ],
      "payable": false,
      "stateMutability": "view",
      "type": "function"
    },
    {
      "inputs": [
        {
          "name": "efmAddress",
          "type": "address"
        }
      ],
      "payable": false,
      "stateMutability": "nonpayable",
      "type": "constructor"
    },
    {
      "constant": false,
      "inputs": [
        {
          "name": "secretVote",
          "type": "uint256"
        }
      ],
      "name": "vote",
      "outputs": [],
      "payable": false,
      "stateMutability": "nonpayable",
      "type": "function"
    },
    {
      "constant": true,
      "inputs": [],
      "name": "getNumVotes",
      "outputs": [
        {
          "name": "",
          "type": "uint256"
        }
      ],
      "payable": false,
      "stateMutability": "view",
      "type": "function"
    }
  ],
  "bytecode": "0x608060405234801561001057600080fd5b506040516020806103758339810180604052810190808051906020019092919050505080806000806101000a81548173ffffffffffffffffffffffffffffffffffffffff021916908373ffffffffffffffffffffffffffffffffffffffff16021790555050506102f0806100856000396000f300608060405260043610610062576000357c0100000000000000000000000000000000000000000000000000000000900463ffffffff1680630121b93f146100675780638b5a8db214610094578063a3bef4d7146100bf578063d8bff5a5146100ea575b600080fd5b34801561007357600080fd5b5061009260048036038101908080359060200190929190505050610141565b005b3480156100a057600080fd5b506100a961029c565b6040518082815260200191505060405180910390f35b3480156100cb57600080fd5b506100d46102a6565b6040518082815260200191505060405180910390f35b3480156100f657600080fd5b5061012b600480360381019080803573ffffffffffffffffffffffffffffffffffffffff1690602001909291905050506102ac565b6040518082815260200191505060405180910390f35b6000809054906101000a900473ffffffffffffffffffffffffffffffffffffffff1673ffffffffffffffffffffffffffffffffffffffff166324d7806c336040518263ffffffff167c0100000000000000000000000000000000000000000000000000000000028152600401808273ffffffffffffffffffffffffffffffffffffffff1673ffffffffffffffffffffffffffffffffffffffff168152602001915050602060405180830381600087803b1580156101fd57600080fd5b505af1158015610211573d6000803e3d6000fd5b505050506040513d602081101561022757600080fd5b8101908080519060200190929190505050151561024357600080fd5b80600660003373ffffffffffffffffffffffffffffffffffffffff1673ffffffffffffffffffffffffffffffffffffffff1681526020019081526020016000208190555060056000815480929190600101919050555050565b6000600554905090565b60055481565b600660205280600052604060002060009150905054815600a165627a7a7230582040a95ce3be19bc0004f01fad3cebd0cbd615ce9a5a973e229d205235d93872270029",
  "source": "pragma solidity ^0.4.24;\n\n// import \"./Approvable.sol\";\n// import \"./Campaign.sol\";\n\ncontract EthFundMe {\n\n  /**\n    ADMINS\n   */\n  address[] public admins;\n  mapping (address=> bool) public isAdmin;\n\n  /**\n    Allows initialization of the contract with up to 3 admins\n   */\n  constructor(address[] _admins) public {\n    //FIXME: Can I put a require statement in a contructor? What happens if it fails?\n    require(_admins.length <= 3);\n    \n    admins = _admins;\n    for (uint i = 0; i < admins.length; i++) {\n      isAdmin[admins[i]] = true;\n    }\n  }\n\n  function getNumAdmins() public view returns (uint) {\n    return admins.length;\n  }\n\n  /**\n    CAMPAIGNS\n  */\n  address[] public campaigns;\n\n  function getNumCampaigns() public view returns (uint) {\n    return campaigns.length;\n  }\n\n  function createCampaign(string title, uint goal) public returns(address) {\n    Campaign newCampaign = new Campaign(campaigns.length, title, goal, msg.sender, address(this));\n    campaigns.push(address(newCampaign));\n    return address(newCampaign);\n  }\n\n\n}\n\ncontract Administrated {\n  EthFundMe efm;\n  \n  constructor(address efmAddress) public {\n    efm = EthFundMe(efmAddress);\n  }\n\n  modifier onlyAdmin {\n    require(efm.isAdmin(msg.sender));\n    _;\n  }\n\n}\n\ncontract Approvable is Administrated {\n  uint votesFor;\t\t    /// tally of votes supporting proposal\n  uint votesAgainst;      /// tally of votes countering proposal\n  mapping(address => bool) didCommit;  /// indicates whether an address committed a vote for this poll\n  mapping(address => bool) didReveal;   /// indicates whether an address revealed a vote for this poll\n\n  uint public numVotes;\n  mapping(address => uint) public votes;\n\n  constructor(address efmAddress) Administrated(efmAddress) public {\n    \n  }\n\n  function vote(uint secretVote) public onlyAdmin {\n    votes[msg.sender] = secretVote;\n    numVotes++;\n  }\n\n  function getNumVotes() public view returns (uint) {\n    return numVotes;\n  }\n\n}\n\ncontract Campaign is Approvable {\n  enum States {\n    Pending, \n    Open, \n    Closed,\n    Rejected\n  }\n\n  struct Contribution {\n    uint amount;\n    uint timestamp;\n  }\n\n  struct Contributor {\n    uint amountContributed;\n    Contribution[] contributions;\n  }\n\n  States public state;\n  uint public id;\n  string public title;\n  uint public goal;\n  address public manager;\n  mapping (address => Contributor) public contributors;\n  uint public funds;\n\n  constructor(uint _id, string _title, uint _goal, address _manager, address efmAddress) Approvable(efmAddress) public {\n    id = _id;\n    title = _title;\n    goal = _goal;\n    manager = _manager;\n    state = States.Pending;\n    //TODO: create a poll for administrators to approve/reject the campaign.\n  }\n\n  function contribute() public payable {\n    //FIXME: check msg.value is positive integer\n    contributors[msg.sender].contributions.push(Contribution(msg.value, now));\n    \n    //FIXME: Check these for integer overflow\n    contributors[msg.sender].amountContributed += msg.value;\n    funds += msg.value;\n  }\n  \n  //FIXME: what happens if address passed in hasn't made a contribution?\n  //maybe need to require that a contributor exists at that address\n  function getNumContributions(address contributor) public view returns(uint numContributions) {\n    numContributions = contributors[contributor].contributions.length;\n  }\n\n  function getContribution(address contributor, uint i) public view returns(uint amount, uint timestamp) {\n    amount = contributors[contributor].contributions[i].amount;\n    timestamp = contributors[contributor].contributions[i].timestamp;\n  }\n\n}",
  "sourcePath": "C:\\Users\\jalal\\GitHub\\EthFundMe\\contracts\\EthFundMe.sol",
  "compiler": {
    "name": "solc",
    "version": "0.4.24+commit.e67f0147.Emscripten.clang"
  },
  "schemaVersion": "2.0.1",
  "updatedAt": "2018-07-17T06:47:08.256Z"
}