{
  "contractName": "CampaignFactory",
  "abi": [
    {
      "constant": true,
      "inputs": [
        {
          "name": "_operator",
          "type": "address"
        },
        {
          "name": "_role",
          "type": "string"
        }
      ],
      "name": "checkRole",
      "outputs": [],
      "payable": false,
      "stateMutability": "view",
      "type": "function"
    },
    {
      "constant": true,
      "inputs": [],
      "name": "numAdmins",
      "outputs": [
        {
          "name": "",
          "type": "uint256"
        }
      ],
      "payable": false,
      "stateMutability": "view",
      "type": "function"
    },
    {
      "constant": false,
      "inputs": [],
      "name": "stopContract",
      "outputs": [],
      "payable": false,
      "stateMutability": "nonpayable",
      "type": "function"
    },
    {
      "constant": true,
      "inputs": [
        {
          "name": "",
          "type": "uint256"
        }
      ],
      "name": "campaigns",
      "outputs": [
        {
          "name": "",
          "type": "address"
        }
      ],
      "payable": false,
      "stateMutability": "view",
      "type": "function"
    },
    {
      "constant": true,
      "inputs": [
        {
          "name": "_operator",
          "type": "address"
        },
        {
          "name": "_role",
          "type": "string"
        }
      ],
      "name": "hasRole",
      "outputs": [
        {
          "name": "",
          "type": "bool"
        }
      ],
      "payable": false,
      "stateMutability": "view",
      "type": "function"
    },
    {
      "constant": true,
      "inputs": [
        {
          "name": "_address",
          "type": "address"
        }
      ],
      "name": "isAdmin",
      "outputs": [
        {
          "name": "",
          "type": "bool"
        }
      ],
      "payable": false,
      "stateMutability": "view",
      "type": "function"
    },
    {
      "constant": true,
      "inputs": [],
      "name": "isStopped",
      "outputs": [
        {
          "name": "",
          "type": "bool"
        }
      ],
      "payable": false,
      "stateMutability": "view",
      "type": "function"
    },
    {
      "constant": false,
      "inputs": [],
      "name": "resumeContract",
      "outputs": [],
      "payable": false,
      "stateMutability": "nonpayable",
      "type": "function"
    },
    {
      "constant": true,
      "inputs": [],
      "name": "ROLE_ADMIN",
      "outputs": [
        {
          "name": "",
          "type": "string"
        }
      ],
      "payable": false,
      "stateMutability": "view",
      "type": "function"
    },
    {
      "inputs": [],
      "payable": false,
      "stateMutability": "nonpayable",
      "type": "constructor"
    },
    {
      "anonymous": false,
      "inputs": [
        {
          "indexed": true,
          "name": "campaignAddress",
          "type": "address"
        }
      ],
      "name": "LogCampaignCreated",
      "type": "event"
    },
    {
      "anonymous": false,
      "inputs": [],
      "name": "LogContractStopped",
      "type": "event"
    },
    {
      "anonymous": false,
      "inputs": [],
      "name": "LogContractResumed",
      "type": "event"
    },
    {
      "anonymous": false,
      "inputs": [
        {
          "indexed": true,
          "name": "account",
          "type": "address"
        }
      ],
      "name": "LogAdminAdded",
      "type": "event"
    },
    {
      "anonymous": false,
      "inputs": [
        {
          "indexed": true,
          "name": "account",
          "type": "address"
        }
      ],
      "name": "LogAdminRemoved",
      "type": "event"
    },
    {
      "anonymous": false,
      "inputs": [
        {
          "indexed": true,
          "name": "operator",
          "type": "address"
        },
        {
          "indexed": false,
          "name": "role",
          "type": "string"
        }
      ],
      "name": "RoleAdded",
      "type": "event"
    },
    {
      "anonymous": false,
      "inputs": [
        {
          "indexed": true,
          "name": "operator",
          "type": "address"
        },
        {
          "indexed": false,
          "name": "role",
          "type": "string"
        }
      ],
      "name": "RoleRemoved",
      "type": "event"
    },
    {
      "constant": false,
      "inputs": [
        {
          "name": "title",
          "type": "string"
        },
        {
          "name": "goal",
          "type": "uint256"
        },
        {
          "name": "duration",
          "type": "uint256"
        },
        {
          "name": "description",
          "type": "string"
        },
        {
          "name": "image",
          "type": "string"
        }
      ],
      "name": "createCampaign",
      "outputs": [
        {
          "name": "",
          "type": "address"
        }
      ],
      "payable": false,
      "stateMutability": "nonpayable",
      "type": "function"
    },
    {
      "constant": false,
      "inputs": [
        {
          "name": "_account",
          "type": "address"
        }
      ],
      "name": "addAdminRole",
      "outputs": [],
      "payable": false,
      "stateMutability": "nonpayable",
      "type": "function"
    },
    {
      "constant": false,
      "inputs": [
        {
          "name": "_account",
          "type": "address"
        }
      ],
      "name": "removeAdminRole",
      "outputs": [],
      "payable": false,
      "stateMutability": "nonpayable",
      "type": "function"
    },
    {
      "constant": true,
      "inputs": [],
      "name": "getNumCampaigns",
      "outputs": [
        {
          "name": "",
          "type": "uint256"
        }
      ],
      "payable": false,
      "stateMutability": "view",
      "type": "function"
    }
  ],
  "bytecode": "0x60806040526000600260006101000a81548160ff0219169083151502179055503480156200002c57600080fd5b506200007d336040805190810160405280600581526020017f61646d696e0000000000000000000000000000000000000000000000000000008152506200008a640100000000026401000000009004565b6001808190555062000231565b62000119826000836040518082805190602001908083835b602083101515620000c95780518252602082019150602081019050602083039250620000a2565b6001836020036101000a0380198251168184511680821785525050505050509050019150509081526020016040518091039020620001d364010000000002620013ce179091906401000000009004565b8173ffffffffffffffffffffffffffffffffffffffff167fbfec83d64eaa953f2708271a023ab9ee82057f8f3578d548c1a4ba0b5b700489826040518080602001828103825283818151815260200191508051906020019080838360005b838110156200019457808201518184015260208101905062000177565b50505050905090810190601f168015620001c25780820380516001836020036101000a031916815260200191505b509250505060405180910390a25050565b60018260000160008373ffffffffffffffffffffffffffffffffffffffff1673ffffffffffffffffffffffffffffffffffffffff16815260200190815260200160002060006101000a81548160ff0219169083151502179055505050565b614efc80620002416000396000f300608060405260043610620000d3576000357c0100000000000000000000000000000000000000000000000000000000900463ffffffff1680630988ca8c14620000d85780630efd4989146200016457806312253a6c1462000192578063141961bc14620001ac578063217fe6c6146200021c57806324d7806c14620002c05780633f683b6a146200031e5780634b2aafcc14620003505780636595171c146200049c578063c4bc5da514620004e2578063d391014b14620004fc578063d9a9bb3e1462000592578063dccfe31014620005c0575b600080fd5b348015620000e557600080fd5b5062000162600480360381019080803573ffffffffffffffffffffffffffffffffffffffff169060200190929190803590602001908201803590602001908080601f016020809104026020016040519081016040528093929190818152602001838380828437820191505050505050919291929050505062000606565b005b3480156200017157600080fd5b506200017c6200068b565b6040518082815260200191505060405180910390f35b3480156200019f57600080fd5b50620001aa62000691565b005b348015620001b957600080fd5b50620001da6004803603810190808035906020019092919050505062000759565b604051808273ffffffffffffffffffffffffffffffffffffffff1673ffffffffffffffffffffffffffffffffffffffff16815260200191505060405180910390f35b3480156200022957600080fd5b50620002a6600480360381019080803573ffffffffffffffffffffffffffffffffffffffff169060200190929190803590602001908201803590602001908080601f016020809104026020016040519081016040528093929190818152602001838380828437820191505050505050919291929050505062000798565b604051808215151515815260200191505060405180910390f35b348015620002cd57600080fd5b5062000304600480360381019080803573ffffffffffffffffffffffffffffffffffffffff16906020019092919050505062000823565b604051808215151515815260200191505060405180910390f35b3480156200032b57600080fd5b50620003366200086d565b604051808215151515815260200191505060405180910390f35b3480156200035d57600080fd5b506200045a600480360381019080803590602001908201803590602001908080601f01602080910402602001604051908101604052809392919081815260200183838082843782019150505050505091929192908035906020019092919080359060200190929190803590602001908201803590602001908080601f0160208091040260200160405190810160405280939291908181526020018383808284378201915050505050509192919290803590602001908201803590602001908080601f016020809104026020016040519081016040528093929190818152602001838380828437820191505050505050919291929050505062000880565b604051808273ffffffffffffffffffffffffffffffffffffffff1673ffffffffffffffffffffffffffffffffffffffff16815260200191505060405180910390f35b348015620004a957600080fd5b50620004e0600480360381019080803573ffffffffffffffffffffffffffffffffffffffff16906020019092919050505062000c0f565b005b348015620004ef57600080fd5b50620004fa62000ca3565b005b3480156200050957600080fd5b506200051462000d6b565b6040518080602001828103825283818151815260200191508051906020019080838360005b838110156200055657808201518184015260208101905062000539565b50505050905090810190601f168015620005845780820380516001836020036101000a031916815260200191505b509250505060405180910390f35b3480156200059f57600080fd5b50620005aa62000da4565b6040518082815260200191505060405180910390f35b348015620005cd57600080fd5b5062000604600480360381019080803573ffffffffffffffffffffffffffffffffffffffff16906020019092919050505062000db1565b005b62000687826000836040518082805190602001908083835b6020831015156200064557805182526020820191506020810190506020830392506200061e565b6001836020036101000a038019825116818451168082178552505050505050905001915050908152602001604051809103902062000e4590919063ffffffff16565b5050565b60015481565b6200069b62000e61565b151562000710576040517f08c379a000000000000000000000000000000000000000000000000000000000815260040180806020018281038252601f8152602001807f6f6e6c7920617574686f72697a656420746f2073746f7020616c6c6f7765640081525060200191505060405180910390fd5b6001600260006101000a81548160ff0219169083151502179055507f271eeaa027ef2b0ef7f9c88ade99794e43f75016f0320df12ea62b72a74e268660405160405180910390a1565b6003818154811015156200076957fe5b906000526020600020016000915054906101000a900473ffffffffffffffffffffffffffffffffffffffff1681565b60006200081b836000846040518082805190602001908083835b602083101515620007d95780518252602082019150602081019050602083039250620007b2565b6001836020036101000a038019825116818451168082178552505050505050905001915050908152602001604051809103902062000e7390919063ffffffff16565b905092915050565b600062000866826040805190810160405280600581526020017f61646d696e00000000000000000000000000000000000000000000000000000081525062000798565b9050919050565b600260009054906101000a900460ff1681565b600080600260009054906101000a900460ff1615151562000909576040517f08c379a00000000000000000000000000000000000000000000000000000000081526004018080602001828103825260208152602001807f66756e6374696f6e2069732073746f7070656420696e20656d657267656e637981525060200191505060405180910390fd5b6200094a336040805190810160405280600581526020017f61646d696e00000000000000000000000000000000000000000000000000000081525062000798565b1515156200095757600080fd5b600380549050878787878733306200096e6200148a565b808981526020018060200188815260200187815260200180602001806020018673ffffffffffffffffffffffffffffffffffffffff1673ffffffffffffffffffffffffffffffffffffffff1681526020018573ffffffffffffffffffffffffffffffffffffffff1673ffffffffffffffffffffffffffffffffffffffff16815260200184810384528b818151815260200191508051906020019080838360005b8381101562000a2b57808201518184015260208101905062000a0e565b50505050905090810190601f16801562000a595780820380516001836020036101000a031916815260200191505b50848103835288818151815260200191508051906020019080838360005b8381101562000a9457808201518184015260208101905062000a77565b50505050905090810190601f16801562000ac25780820380516001836020036101000a031916815260200191505b50848103825287818151815260200191508051906020019080838360005b8381101562000afd57808201518184015260208101905062000ae0565b50505050905090810190601f16801562000b2b5780820380516001836020036101000a031916815260200191505b509b505050505050505050505050604051809103906000f08015801562000b56573d6000803e3d6000fd5b50905060038190806001815401808255809150509060018203906000526020600020016000909192909190916101000a81548173ffffffffffffffffffffffffffffffffffffffff021916908373ffffffffffffffffffffffffffffffffffffffff160217905550508073ffffffffffffffffffffffffffffffffffffffff167f4c4d460e293473955b154e5aa8111afbeb2f0b8bbcd90d00c3258d470bff5c6d60405160405180910390a28091505095945050505050565b600260009054906101000a900460ff1615151562000c95576040517f08c379a00000000000000000000000000000000000000000000000000000000081526004018080602001828103825260208152602001807f66756e6374696f6e2069732073746f7070656420696e20656d657267656e637981525060200191505060405180910390fd5b62000ca08162000ecc565b50565b62000cad62000e61565b151562000d22576040517f08c379a000000000000000000000000000000000000000000000000000000000815260040180806020018281038252601f8152602001807f6f6e6c7920617574686f72697a656420746f2073746f7020616c6c6f7765640081525060200191505060405180910390fd5b6000600260006101000a81548160ff0219169083151502179055507fdf670314aa1c3ef9e4bf9224b3b41f2d98d5e59ee959b56007e880be4789c27460405160405180910390a1565b6040805190810160405280600581526020017f61646d696e00000000000000000000000000000000000000000000000000000081525081565b6000600380549050905090565b600260009054906101000a900460ff1615151562000e37576040517f08c379a00000000000000000000000000000000000000000000000000000000081526004018080602001828103825260208152602001807f66756e6374696f6e2069732073746f7070656420696e20656d657267656e637981525060200191505060405180910390fd5b62000e428162000ff7565b50565b62000e51828262000e73565b151562000e5d57600080fd5b5050565b600062000e6e3362000823565b905090565b60008260000160008373ffffffffffffffffffffffffffffffffffffffff1673ffffffffffffffffffffffffffffffffffffffff16815260200190815260200160002060009054906101000a900460ff16905092915050565b62000f0d336040805190810160405280600581526020017f61646d696e00000000000000000000000000000000000000000000000000000081525062000606565b62000f4e816040805190810160405280600581526020017f61646d696e00000000000000000000000000000000000000000000000000000081525062000798565b15151562000f5b57600080fd5b62000f9c816040805190810160405280600581526020017f61646d696e00000000000000000000000000000000000000000000000000000081525062001121565b62000fab60015460016200125c565b6001819055508073ffffffffffffffffffffffffffffffffffffffff167f873b6546df550db4e197c19f621af58777f109107ed897212d3ab52d5a9f2ede60405160405180910390a250565b62001038336040805190810160405280600581526020017f61646d696e00000000000000000000000000000000000000000000000000000081525062000606565b62001079816040805190810160405280600581526020017f61646d696e00000000000000000000000000000000000000000000000000000081525062000798565b15156200108557600080fd5b620010c6816040805190810160405280600581526020017f61646d696e00000000000000000000000000000000000000000000000000000081525062001279565b620010d56001546001620013b4565b6001819055508073ffffffffffffffffffffffffffffffffffffffff167ff8fcbbc219e48667a19933651e37be65424d04b186ced0baaa6055803c6a6ba360405160405180910390a250565b620011a2826000836040518082805190602001908083835b60208310151562001160578051825260208201915060208101905060208303925062001139565b6001836020036101000a0380198251168184511680821785525050505050509050019150509081526020016040518091039020620013ce90919063ffffffff16565b8173ffffffffffffffffffffffffffffffffffffffff167fbfec83d64eaa953f2708271a023ab9ee82057f8f3578d548c1a4ba0b5b700489826040518080602001828103825283818151815260200191508051906020019080838360005b838110156200121d57808201518184015260208101905062001200565b50505050905090810190601f1680156200124b5780820380516001836020036101000a031916815260200191505b509250505060405180910390a25050565b600081830190508281101515156200127057fe5b80905092915050565b620012fa826000836040518082805190602001908083835b602083101515620012b8578051825260208201915060208101905060208303925062001291565b6001836020036101000a03801982511681845116808217855250505050505090500191505090815260200160405180910390206200142c90919063ffffffff16565b8173ffffffffffffffffffffffffffffffffffffffff167fd211483f91fc6eff862467f8de606587a30c8fc9981056f051b897a418df803a826040518080602001828103825283818151815260200191508051906020019080838360005b838110156200137557808201518184015260208101905062001358565b50505050905090810190601f168015620013a35780820380516001836020036101000a031916815260200191505b509250505060405180910390a25050565b6000828211151515620013c357fe5b818303905092915050565b60018260000160008373ffffffffffffffffffffffffffffffffffffffff1673ffffffffffffffffffffffffffffffffffffffff16815260200190815260200160002060006101000a81548160ff0219169083151502179055505050565b60008260000160008373ffffffffffffffffffffffffffffffffffffffff1673ffffffffffffffffffffffffffffffffffffffff16815260200190815260200160002060006101000a81548160ff0219169083151502179055505050565b604051613a35806200149c833901905600608060405260008060006101000a81548160ff0219169083151502179055506000600660006101000a81548160ff021916908360048111156200003e57fe5b021790555060016009556000600a60006101000a81548160ff021916908360048111156200006857fe5b02179055503073ffffffffffffffffffffffffffffffffffffffff1631600b55600b54600c553480156200009b57600080fd5b5060405162003a3538038062003a35833981018060405281019080805190602001909291908051820192919060200180519060200190929190805190602001909291908051820192919060200180518201929190602001805190602001909291908051906020019092919050505087600e8190555086600f90805190602001906200012892919062000257565b50856010819055506200015385620151806200021b64010000000002620036bb176401000000009004565b60118190555083601290805190602001906200017192919062000257565b5082601390805190602001906200018a92919062000257565b5081601460006101000a81548173ffffffffffffffffffffffffffffffffffffffff021916908373ffffffffffffffffffffffffffffffffffffffff16021790555080600a60016101000a81548173ffffffffffffffffffffffffffffffffffffffff021916908373ffffffffffffffffffffffffffffffffffffffff160217905550505050505050505062000306565b60008083141562000230576000905062000251565b81830290508183828115156200024257fe5b041415156200024d57fe5b8090505b92915050565b828054600181600116156101000203166002900490600052602060002090601f016020900481019282601f106200029a57805160ff1916838001178555620002cb565b82800160010185558215620002cb579182015b82811115620002ca578251825591602001919060010190620002ad565b5b509050620002da9190620002de565b5090565b6200030391905b80821115620002ff576000816000905550600101620002e5565b5090565b90565b61371f80620003166000396000f3006080604052600436106101e3576000357c0100000000000000000000000000000000000000000000000000000000900463ffffffff16806309eef43e146101e85780630fb5a6b41461024357806312253a6c1461026e57806318e4274d146102855780631afcf159146102b05780631cee0700146102e9578063205b19461461036f57806322f3e2d4146103ca57806339f3027d146103f95780633ccfd60b146104325780633f683b6a146104495780634019388314610478578063481c6a75146104a35780634a79d50c146104fa5780635e2c19db1461058a57806371aac7f9146105e55780637284e416146105fc5780637403c5e51461068c578063796b89b9146106b75780637fb3761e146106e2578063980e78441461070d578063a69beaba14610724578063aac0834514610755578063ab45be42146107b4578063af640d0f146107cb578063b9a53013146107f6578063c17c5cf014610851578063c24a0f8b1461087c578063c4bc5da5146108a7578063c5c4744c146108be578063c89f2ce4146108e9578063d7bb99ba14610914578063db2e21bc1461091e578063e2d3b70914610935578063e70ac62c1461098c578063f3ccaac0146109b7578063f4c9b1fd14610a47578063f81292c114610a80578063facd493914610aab575b600080fd5b3480156101f457600080fd5b50610229600480360381019080803573ffffffffffffffffffffffffffffffffffffffff169060200190929190505050610ad6565b604051808215151515815260200191505060405180910390f35b34801561024f57600080fd5b50610258610af6565b6040518082815260200191505060405180910390f35b34801561027a57600080fd5b50610283610afc565b005b34801561029157600080fd5b5061029a610bc0565b6040518082815260200191505060405180910390f35b3480156102bc57600080fd5b506102c5610c90565b604051808260048111156102d557fe5b60ff16815260200191505060405180910390f35b3480156102f557600080fd5b5061031460048036038101908080359060200190929190505050610ca3565b604051808573ffffffffffffffffffffffffffffffffffffffff1673ffffffffffffffffffffffffffffffffffffffff1681526020018481526020018381526020018215151515815260200194505050505060405180910390f35b34801561037b57600080fd5b506103b0600480360381019080803573ffffffffffffffffffffffffffffffffffffffff169060200190929190505050610d0f565b604051808215151515815260200191505060405180910390f35b3480156103d657600080fd5b506103df610d2f565b604051808215151515815260200191505060405180910390f35b34801561040557600080fd5b5061043060048036038101908080351515906020019092919080359060200190929190505050610d3b565b005b34801561043e57600080fd5b50610447611375565b005b34801561045557600080fd5b5061045e6116b5565b604051808215151515815260200191505060405180910390f35b34801561048457600080fd5b5061048d6116c7565b6040518082815260200191505060405180910390f35b3480156104af57600080fd5b506104b86116cd565b604051808273ffffffffffffffffffffffffffffffffffffffff1673ffffffffffffffffffffffffffffffffffffffff16815260200191505060405180910390f35b34801561050657600080fd5b5061050f6116f3565b6040518080602001828103825283818151815260200191508051906020019080838360005b8381101561054f578082015181840152602081019050610534565b50505050905090810190601f16801561057c5780820380516001836020036101000a031916815260200191505b509250505060405180910390f35b34801561059657600080fd5b506105cb600480360381019080803573ffffffffffffffffffffffffffffffffffffffff169060200190929190505050611791565b604051808215151515815260200191505060405180910390f35b3480156105f157600080fd5b506105fa6117b1565b005b34801561060857600080fd5b50610611611bc0565b6040518080602001828103825283818151815260200191508051906020019080838360005b83811015610651578082015181840152602081019050610636565b50505050905090810190601f16801561067e5780820380516001836020036101000a031916815260200191505b509250505060405180910390f35b34801561069857600080fd5b506106a1611c5e565b6040518082815260200191505060405180910390f35b3480156106c357600080fd5b506106cc611c64565b6040518082815260200191505060405180910390f35b3480156106ee57600080fd5b506106f7611c6c565b6040518082815260200191505060405180910390f35b34801561071957600080fd5b50610722611da9565b005b34801561073057600080fd5b5061075360048036038101908080356000191690602001909291905050506120a8565b005b34801561076157600080fd5b50610796600480360381019080803573ffffffffffffffffffffffffffffffffffffffff16906020019092919050505061241b565b60405180826000191660001916815260200191505060405180910390f35b3480156107c057600080fd5b506107c9612433565b005b3480156107d757600080fd5b506107e0612550565b6040518082815260200191505060405180910390f35b34801561080257600080fd5b50610837600480360381019080803573ffffffffffffffffffffffffffffffffffffffff169060200190929190505050612556565b604051808215151515815260200191505060405180910390f35b34801561085d57600080fd5b50610866612576565b6040518082815260200191505060405180910390f35b34801561088857600080fd5b5061089161257c565b6040518082815260200191505060405180910390f35b3480156108b357600080fd5b506108bc612582565b005b3480156108ca57600080fd5b506108d3612646565b6040518082815260200191505060405180910390f35b3480156108f557600080fd5b506108fe61264c565b6040518082815260200191505060405180910390f35b61091c612652565b005b34801561092a57600080fd5b50610933612c1b565b005b34801561094157600080fd5b5061094a612db7565b604051808273ffffffffffffffffffffffffffffffffffffffff1673ffffffffffffffffffffffffffffffffffffffff16815260200191505060405180910390f35b34801561099857600080fd5b506109a1612ddd565b6040518082815260200191505060405180910390f35b3480156109c357600080fd5b506109cc612dea565b6040518080602001828103825283818151815260200191508051906020019080838360005b83811015610a0c5780820151818401526020810190506109f1565b50505050905090810190601f168015610a395780820380516001836020036101000a031916815260200191505b509250505060405180910390f35b348015610a5357600080fd5b50610a5c612e88565b60405180826004811115610a6c57fe5b60ff16815260200191505060405180910390f35b348015610a8c57600080fd5b50610a95612e9b565b6040518082815260200191505060405180910390f35b348015610ab757600080fd5b50610ac0612ea1565b6040518082815260200191505060405180910390f35b60026020528060005260406000206000915054906101000a900460ff1681565b60115481565b610b04612ea7565b1515610b78576040517f08c379a000000000000000000000000000000000000000000000000000000000815260040180806020018281038252600f8152602001807f4f6e6c7920617574686f72697a6564000000000000000000000000000000000081525060200191505060405180910390fd5b60016000806101000a81548160ff0219169083151502179055507f271eeaa027ef2b0ef7f9c88ade99794e43f75016f0320df12ea62b72a74e268660405160405180910390a1565b6000806000809150600090505b601580549050811015610c88573373ffffffffffffffffffffffffffffffffffffffff16601582815481101515610c0057fe5b906000526020600020906004020160000160009054906101000a900473ffffffffffffffffffffffffffffffffffffffff1673ffffffffffffffffffffffffffffffffffffffff161415610c7b57610c7882601583815481101515610c6157fe5b906000526020600020906004020160010154612fa6565b91505b8080600101915050610bcd565b819250505090565b600660009054906101000a900460ff1681565b601581815481101515610cb257fe5b90600052602060002090600402016000915090508060000160009054906101000a900473ffffffffffffffffffffffffffffffffffffffff16908060010154908060020154908060030160009054906101000a900460ff16905084565b60166020528060005260406000206000915054906101000a900460ff1681565b6000600d544210905090565b6000809054906101000a900460ff16151515610dbf576040517f08c379a00000000000000000000000000000000000000000000000000000000081526004018080602001828103825260208152602001807f66756e6374696f6e2069732073746f7070656420696e20656d657267656e637981525060200191505060405180910390fd5b60011515600260003373ffffffffffffffffffffffffffffffffffffffff1673ffffffffffffffffffffffffffffffffffffffff16815260200190815260200160002060009054906101000a900460ff161515141515610e87576040517f08c379a00000000000000000000000000000000000000000000000000000000081526004018080602001828103825260158152602001807f4163636f756e7420686173206e6f7420766f746564000000000000000000000081525060200191505060405180910390fd5b60001515600360003373ffffffffffffffffffffffffffffffffffffffff1673ffffffffffffffffffffffffffffffffffffffff16815260200190815260200160002060009054906101000a900460ff161515141515610f4f576040517f08c379a000000000000000000000000000000000000000000000000000000000815260040180806020018281038252601c8152602001807f4163636f756e742068617320616c72656164792072657665616c65640000000081525060200191505060405180910390fd5b6001806004811115610f5d57fe5b600660009054906101000a900460ff166004811115610f7857fe5b141515610fed576040517f08c379a00000000000000000000000000000000000000000000000000000000081526004018080602001828103825260168152602001807f496e76616c696420617070726f76616c2073746174650000000000000000000081525060200191505060405180910390fd5b600080600160003373ffffffffffffffffffffffffffffffffffffffff1673ffffffffffffffffffffffffffffffffffffffff168152602001908152602001600020546000191685856040516020018083151515157f0100000000000000000000000000000000000000000000000000000000000000028152600101828152602001925050506040516020818303038152906040526040518082805190602001908083835b6020831015156110b75780518252602082019150602081019050602083039250611092565b6001836020036101000a03801982511681845116808217855250505050505090500191505060405180910390206000191614151561115d576040517f08c379a00000000000000000000000000000000000000000000000000000000081526004018080602001828103825260198152602001807f566f7465207365637265747320646f206e6f74206d617463680000000000000081525060200191505060405180910390fd5b841561117a5760076000815480929190600101919050555061118d565b6008600081548092919060010191905055505b6005600081548092919060010191905055506001600360003373ffffffffffffffffffffffffffffffffffffffff1673ffffffffffffffffffffffffffffffffffffffff16815260200190815260200160002060006101000a81548160ff0219169083151502179055507ff4cc05c440e669c627fbbb7e9d1d7183b3709b01e5fd3547b860ae5e4b3c493733604051808273ffffffffffffffffffffffffffffffffffffffff1673ffffffffffffffffffffffffffffffffffffffff16815260200191505060405180910390a1611262612fc2565b915061128461127283600261308a565b60028481151561127e57fe5b06612fa6565b9050806007541015156112fa576002600660006101000a81548160ff021916908360048111156112b057fe5b02179055506112bd6130a0565b7f569d4a55352e1c1a95609b1ded7721806916d220547917a4c5461f96f70e9fbe6001604051808215151515815260200191505060405180910390a15b8060085410151561136e576003600660006101000a81548160ff0219169083600481111561132457fe5b021790555061133161310f565b7f569d4a55352e1c1a95609b1ded7721806916d220547917a4c5461f96f70e9fbe6000604051808215151515815260200191505060405180910390a15b5050505050565b6000809054906101000a900460ff161515156113f9576040517f08c379a00000000000000000000000000000000000000000000000000000000081526004018080602001828103825260208152602001807f66756e6374696f6e2069732073746f7070656420696e20656d657267656e637981525060200191505060405180910390fd5b600160095414151561140a57600080fd5b600260098190555060001515601760003373ffffffffffffffffffffffffffffffffffffffff1673ffffffffffffffffffffffffffffffffffffffff16815260200190815260200160002060009054906101000a900460ff1615151415156114da576040517f08c379a000000000000000000000000000000000000000000000000000000000815260040180806020018281038252601a8152602001807f557365722068617320616c72656164792077697468647261776e00000000000081525060200191505060405180910390fd5b600160048111156114e757fe5b600a60009054906101000a900460ff16600481111561150257fe5b1480156115105750600d5442115b1561157157601054600b5410151561154b576002600a60006101000a81548160ff0219169083600481111561154157fe5b0217905550611570565b6003600a60006101000a81548160ff0219169083600481111561156a57fe5b02179055505b5b6001600481111561157e57fe5b600a60009054906101000a900460ff16600481111561159957fe5b11151561160e576040517f08c379a00000000000000000000000000000000000000000000000000000000081526004018080602001828103825260188152602001807f43616d706169676e206d757374206861766520656e646564000000000000000081525060200191505060405180910390fd5b6002600481111561161b57fe5b600a60009054906101000a900460ff16600481111561163657fe5b141561164557611644613135565b5b6003600481111561165257fe5b600a60009054906101000a900460ff16600481111561166d57fe5b148061169d575060048081111561168057fe5b600a60009054906101000a900460ff16600481111561169b57fe5b145b156116ab576116aa61333c565b5b6001600981905550565b6000809054906101000a900460ff1681565b60105481565b601460009054906101000a900473ffffffffffffffffffffffffffffffffffffffff1681565b600f8054600181600116156101000203166002900480601f0160208091040260200160405190810160405280929190818152602001828054600181600116156101000203166002900480156117895780601f1061175e57610100808354040283529160200191611789565b820191906000526020600020905b81548152906001019060200180831161176c57829003601f168201915b505050505081565b60176020528060005260406000206000915054906101000a900460ff1681565b6000809054906101000a900460ff16151515611835576040517f08c379a00000000000000000000000000000000000000000000000000000000081526004018080602001828103825260208152602001807f66756e6374696f6e2069732073746f7070656420696e20656d657267656e637981525060200191505060405180910390fd5b601460009054906101000a900473ffffffffffffffffffffffffffffffffffffffff1673ffffffffffffffffffffffffffffffffffffffff163373ffffffffffffffffffffffffffffffffffffffff1614806119855750600a60019054906101000a900473ffffffffffffffffffffffffffffffffffffffff1673ffffffffffffffffffffffffffffffffffffffff166324d7806c336040518263ffffffff167c0100000000000000000000000000000000000000000000000000000000028152600401808273ffffffffffffffffffffffffffffffffffffffff1673ffffffffffffffffffffffffffffffffffffffff168152602001915050602060405180830381600087803b15801561194957600080fd5b505af115801561195d573d6000803e3d6000fd5b505050506040513d602081101561197357600080fd5b81019080805190602001909291905050505b1515611a1f576040517f08c379a00000000000000000000000000000000000000000000000000000000081526004018080602001828103825260298152602001807f4f6e6c792063616d706169676e206d616e61676572206f722061646d696e206181526020017f7574686f72697a6564000000000000000000000000000000000000000000000081525060400191505060405180910390fd5b60016004811115611a2c57fe5b600a60009054906101000a900460ff166004811115611a4757fe5b148015611a555750600d5442115b15611ab657601054600b54101515611a90576002600a60006101000a81548160ff02191690836004811115611a8657fe5b0217905550611ab5565b6003600a60006101000a81548160ff02191690836004811115611aaf57fe5b02179055505b5b60016004811115611ac357fe5b600a60009054906101000a900460ff166004811115611ade57fe5b111515611b53576040517f08c379a00000000000000000000000000000000000000000000000000000000081526004018080602001828103825260188152602001807f43616d706169676e206d757374206861766520656e646564000000000000000081525060200191505060405180910390fd5b7fe0e42d306371841820ae4977ae96aa464c56f19c90a11c8fa267521702631faa4260026004811115611b8257fe5b600a60009054906101000a900460ff166004811115611b9d57fe5b1460405180838152602001821515151581526020019250505060405180910390a1565b60128054600181600116156101000203166002900480601f016020809104026020016040519081016040528092919081815260200182805460018160011615610100020316600290048015611c565780601f10611c2b57610100808354040283529160200191611c56565b820191906000526020600020905b815481529060010190602001808311611c3957829003601f168201915b505050505081565b60075481565b600042905090565b60008060009054906101000a900460ff16151515611cf2576040517f08c379a00000000000000000000000000000000000000000000000000000000081526004018080602001828103825260208152602001807f66756e6374696f6e2069732073746f7070656420696e20656d657267656e637981525060200191505060405180910390fd5b60016004811115611cff57fe5b600a60009054906101000a900460ff166004811115611d1a57fe5b148015611d285750600d5442115b15611d8957601054600b54101515611d63576002600a60006101000a81548160ff02191690836004811115611d5957fe5b0217905550611d88565b6003600a60006101000a81548160ff02191690836004811115611d8257fe5b02179055505b5b600a60009054906101000a900460ff166004811115611da457fe5b905090565b6000809054906101000a900460ff16151515611e2d576040517f08c379a00000000000000000000000000000000000000000000000000000000081526004018080602001828103825260208152602001807f66756e6374696f6e2069732073746f7070656420696e20656d657267656e637981525060200191505060405180910390fd5b601460009054906101000a900473ffffffffffffffffffffffffffffffffffffffff1673ffffffffffffffffffffffffffffffffffffffff163373ffffffffffffffffffffffffffffffffffffffff16141515611ef2576040517f08c379a00000000000000000000000000000000000000000000000000000000081526004018080602001828103825260208152602001807f4f6e6c792063616d706169676e206d616e6167657220617574686f72697a656481525060200191505060405180910390fd5b60016004811115611eff57fe5b600a60009054906101000a900460ff166004811115611f1a57fe5b148015611f285750600d5442115b15611f8957601054600b54101515611f63576002600a60006101000a81548160ff02191690836004811115611f5957fe5b0217905550611f88565b6003600a60006101000a81548160ff02191690836004811115611f8257fe5b02179055505b5b60016004811115611f9657fe5b600a60009054906101000a900460ff166004811115611fb157fe5b11151515612027576040517f08c379a00000000000000000000000000000000000000000000000000000000081526004018080602001828103825260178152602001807f43616d706169676e206d7573742062652061637469766500000000000000000081525060200191505060405180910390fd5b6004600660006101000a81548160ff0219169083600481111561204657fe5b02179055506004600a60006101000a81548160ff0219169083600481111561206a57fe5b02179055507fbfb4f4035f62dce15228944cd106a08022cae2a819ab6b913076b4cbb7b9988a426040518082815260200191505060405180910390a1565b6000809054906101000a900460ff1615151561212c576040517f08c379a00000000000000000000000000000000000000000000000000000000081526004018080602001828103825260208152602001807f66756e6374696f6e2069732073746f7070656420696e20656d657267656e637981525060200191505060405180910390fd5b612134612ea7565b15156121a8576040517f08c379a000000000000000000000000000000000000000000000000000000000815260040180806020018281038252600f8152602001807f4f6e6c7920617574686f72697a6564000000000000000000000000000000000081525060200191505060405180910390fd5b60008060048111156121b657fe5b600660009054906101000a900460ff1660048111156121d157fe5b141515612246576040517f08c379a00000000000000000000000000000000000000000000000000000000081526004018080602001828103825260168152602001807f496e76616c696420617070726f76616c2073746174650000000000000000000081525060200191505060405180910390fd5b81600160003373ffffffffffffffffffffffffffffffffffffffff1673ffffffffffffffffffffffffffffffffffffffff168152602001908152602001600020816000191690555060001515600260003373ffffffffffffffffffffffffffffffffffffffff1673ffffffffffffffffffffffffffffffffffffffff16815260200190815260200160002060009054906101000a900460ff1615151415612352576004600081548092919060010191905055506001600260003373ffffffffffffffffffffffffffffffffffffffff1673ffffffffffffffffffffffffffffffffffffffff16815260200190815260200160002060006101000a81548160ff0219169083151502179055505b7fefbc505b5a80578320891e619052a5a0ac87bf0eacd9921aa1c5ec025039f36633604051808273ffffffffffffffffffffffffffffffffffffffff1673ffffffffffffffffffffffffffffffffffffffff16815260200191505060405180910390a16123bd612fc2565b6004541415612417576001600660006101000a81548160ff021916908360048111156123e557fe5b02179055507fb5ba76b33654e466b305f7b906ca49190fc4c83bb499c6b26d8482ef205f454260405160405180910390a15b5050565b60016020528060005260406000206000915090505481565b6000809054906101000a900460ff161515156124b7576040517f08c379a00000000000000000000000000000000000000000000000000000000081526004018080602001828103825260208152602001807f66756e6374696f6e2069732073746f7070656420696e20656d657267656e637981525060200191505060405180910390fd5b600160048111156124c457fe5b600a60009054906101000a900460ff1660048111156124df57fe5b1480156124ed5750600d5442115b1561254e57601054600b54101515612528576002600a60006101000a81548160ff0219169083600481111561251e57fe5b021790555061254d565b6003600a60006101000a81548160ff0219169083600481111561254757fe5b02179055505b5b565b600e5481565b60036020528060005260406000206000915054906101000a900460ff1681565b60045481565b600d5481565b61258a612ea7565b15156125fe576040517f08c379a000000000000000000000000000000000000000000000000000000000815260040180806020018281038252600f8152602001807f4f6e6c7920617574686f72697a6564000000000000000000000000000000000081525060200191505060405180910390fd5b60008060006101000a81548160ff0219169083151502179055507fdf670314aa1c3ef9e4bf9224b3b41f2d98d5e59ee959b56007e880be4789c27460405160405180910390a1565b600c5481565b600b5481565b6000809054906101000a900460ff161515156126d6576040517f08c379a00000000000000000000000000000000000000000000000000000000081526004018080602001828103825260208152602001807f66756e6374696f6e2069732073746f7070656420696e20656d657267656e637981525060200191505060405180910390fd5b601460009054906101000a900473ffffffffffffffffffffffffffffffffffffffff1673ffffffffffffffffffffffffffffffffffffffff163373ffffffffffffffffffffffffffffffffffffffff161415151561279c576040517f08c379a000000000000000000000000000000000000000000000000000000000815260040180806020018281038252601f8152602001807f43616d706169676e206d616e61676572206e6f7420617574686f72697a65640081525060200191505060405180910390fd5b600160048111156127a957fe5b600a60009054906101000a900460ff1660048111156127c457fe5b1480156127d25750600d5442115b1561283357601054600b5410151561280d576002600a60006101000a81548160ff0219169083600481111561280357fe5b0217905550612832565b6003600a60006101000a81548160ff0219169083600481111561282c57fe5b02179055505b5b600180600481111561284157fe5b600a60009054906101000a900460ff16600481111561285c57fe5b1415156128f7576040517f08c379a00000000000000000000000000000000000000000000000000000000081526004018080602001828103825260248152602001807f496e636f72726563742063616d706169676e537461746520666f722066756e6381526020017f74696f6e0000000000000000000000000000000000000000000000000000000081525060400191505060405180910390fd5b60003411151561296f576040517f08c379a00000000000000000000000000000000000000000000000000000000081526004018080602001828103825260158152602001807f4e6f207a65726f20636f6e747269627574696f6e73000000000000000000000081525060200191505060405180910390fd5b600b5461297e600b5434612fa6565b1115156129f3576040517f08c379a000000000000000000000000000000000000000000000000000000000815260040180806020018281038252601d8152602001807f496e7465676572206f766572666c6f7720636865636b206661696c656400000081525060200191505060405180910390fd5b6001601660003373ffffffffffffffffffffffffffffffffffffffff1673ffffffffffffffffffffffffffffffffffffffff16815260200190815260200160002060006101000a81548160ff0219169083151502179055506000601760003373ffffffffffffffffffffffffffffffffffffffff1673ffffffffffffffffffffffffffffffffffffffff16815260200190815260200160002060006101000a81548160ff02191690831515021790555060156080604051908101604052803373ffffffffffffffffffffffffffffffffffffffff168152602001348152602001428152602001600015158152509080600181540180825580915050906001820390600052602060002090600402016000909192909190915060008201518160000160006101000a81548173ffffffffffffffffffffffffffffffffffffffff021916908373ffffffffffffffffffffffffffffffffffffffff160217905550602082015181600101556040820151816002015560608201518160030160006101000a81548160ff021916908315150217905550505050612b95600b5434612fa6565b600b81905550612ba7600c5434612fa6565b600c819055507f5f811115c4ec5f41d18478505468d01b829326546e0ff4d150a9f9d8d2621cd43334604051808373ffffffffffffffffffffffffffffffffffffffff1673ffffffffffffffffffffffffffffffffffffffff1681526020018281526020019250505060405180910390a150565b6000809054906101000a900460ff161515612cc4576040517f08c379a00000000000000000000000000000000000000000000000000000000081526004018080602001828103825260248152602001807f66756e6374696f6e206f6e6c7920617661696c61626c6520696e20656d65726781526020017f656e63790000000000000000000000000000000000000000000000000000000081525060400191505060405180910390fd5b6001600954141515612cd557600080fd5b600260098190555060001515601760003373ffffffffffffffffffffffffffffffffffffffff1673ffffffffffffffffffffffffffffffffffffffff16815260200190815260200160002060009054906101000a900460ff161515141515612da5576040517f08c379a000000000000000000000000000000000000000000000000000000000815260040180806020018281038252601a8152602001807f557365722068617320616c72656164792077697468647261776e00000000000081525060200191505060405180910390fd5b612dad61333c565b6001600981905550565b600a60019054906101000a900473ffffffffffffffffffffffffffffffffffffffff1681565b6000601580549050905090565b60138054600181600116156101000203166002900480601f016020809104026020016040519081016040528092919081815260200182805460018160011615610100020316600290048015612e805780601f10612e5557610100808354040283529160200191612e80565b820191906000526020600020905b815481529060010190602001808311612e6357829003601f168201915b505050505081565b600a60009054906101000a900460ff1681565b60085481565b60055481565b6000600a60019054906101000a900473ffffffffffffffffffffffffffffffffffffffff1673ffffffffffffffffffffffffffffffffffffffff166324d7806c336040518263ffffffff167c0100000000000000000000000000000000000000000000000000000000028152600401808273ffffffffffffffffffffffffffffffffffffffff1673ffffffffffffffffffffffffffffffffffffffff168152602001915050602060405180830381600087803b158015612f6657600080fd5b505af1158015612f7a573d6000803e3d6000fd5b505050506040513d6020811015612f9057600080fd5b8101908080519060200190929190505050905090565b60008183019050828110151515612fb957fe5b80905092915050565b6000600a60019054906101000a900473ffffffffffffffffffffffffffffffffffffffff1673ffffffffffffffffffffffffffffffffffffffff16630efd49896040518163ffffffff167c0100000000000000000000000000000000000000000000000000000000028152600401602060405180830381600087803b15801561304a57600080fd5b505af115801561305e573d6000803e3d6000fd5b505050506040513d602081101561307457600080fd5b8101908080519060200190929190505050905090565b6000818381151561309757fe5b04905092915050565b6130ac42601154612fa6565b600d819055506001600a60006101000a81548160ff021916908360048111156130d157fe5b02179055507f21c4e3c124273df865489c882398ace9f3acba7ae7f0dcbe37d41dbb50251101426040518082815260200191505060405180910390a1565b6003600a60006101000a81548160ff0219169083600481111561312e57fe5b0217905550565b601460009054906101000a900473ffffffffffffffffffffffffffffffffffffffff1673ffffffffffffffffffffffffffffffffffffffff163373ffffffffffffffffffffffffffffffffffffffff161415156131fa576040517f08c379a00000000000000000000000000000000000000000000000000000000081526004018080602001828103825260208152602001807f4f6e6c792063616d706169676e206d616e6167657220617574686f72697a656481525060200191505060405180910390fd5b6001601760003373ffffffffffffffffffffffffffffffffffffffff1673ffffffffffffffffffffffffffffffffffffffff16815260200190815260200160002060006101000a81548160ff0219169083151502179055506000600b819055507f8952f4ede4382543e314262873270bcbbf000bb44e83967e99d9f0fd4b8e56c4333073ffffffffffffffffffffffffffffffffffffffff1631604051808373ffffffffffffffffffffffffffffffffffffffff1673ffffffffffffffffffffffffffffffffffffffff1681526020018281526020019250505060405180910390a13373ffffffffffffffffffffffffffffffffffffffff166108fc3073ffffffffffffffffffffffffffffffffffffffff16319081150290604051600060405180830381858888f19350505050158015613339573d6000803e3d6000fd5b50565b60008060011515601660003373ffffffffffffffffffffffffffffffffffffffff1673ffffffffffffffffffffffffffffffffffffffff16815260200190815260200160002060009054906101000a900460ff161515141515613407576040517f08c379a00000000000000000000000000000000000000000000000000000000081526004018080602001828103825260188152602001807f5573657220686173206e6f7420636f6e7472696275746564000000000000000081525060200191505060405180910390fd5b6001601760003373ffffffffffffffffffffffffffffffffffffffff1673ffffffffffffffffffffffffffffffffffffffff16815260200190815260200160002060006101000a81548160ff02191690831515021790555060009150600090505b601580549050811015613599573373ffffffffffffffffffffffffffffffffffffffff1660158281548110151561349b57fe5b906000526020600020906004020160000160009054906101000a900473ffffffffffffffffffffffffffffffffffffffff1673ffffffffffffffffffffffffffffffffffffffff161480156135215750600015156015828154811015156134fe57fe5b906000526020600020906004020160030160009054906101000a900460ff161515145b1561358c576135508260158381548110151561353957fe5b906000526020600020906004020160010154612fa6565b9150600160158281548110151561356357fe5b906000526020600020906004020160030160006101000a81548160ff0219169083151502179055505b8080600101915050613468565b6135a5600b54836136a2565b600b81905550600160048111156135b857fe5b600a60009054906101000a900460ff1660048111156135d357fe5b14156135ec576135e5600c54836136a2565b600c819055505b7f8952f4ede4382543e314262873270bcbbf000bb44e83967e99d9f0fd4b8e56c43383604051808373ffffffffffffffffffffffffffffffffffffffff1673ffffffffffffffffffffffffffffffffffffffff1681526020018281526020019250505060405180910390a13373ffffffffffffffffffffffffffffffffffffffff166108fc839081150290604051600060405180830381858888f1935050505015801561369d573d6000803e3d6000fd5b505050565b60008282111515156136b057fe5b818303905092915050565b6000808314156136ce57600090506136ed565b81830290508183828115156136df57fe5b041415156136e957fe5b8090505b929150505600a165627a7a7230582029d22f5f4d75f5d84b56fc4dd98aede08567b1c6e3e078478d32ea74cc7a96c40029a165627a7a72305820639eefecb44a0a0cd97b04fe9f3a45ca443d35a7b089ab1ee168922ee78be00c0029",
  "source": "pragma solidity ^0.4.24;\n\nimport \"./Administrated.sol\";\nimport \"./EmergencyStoppable.sol\";\nimport \"./Campaign.sol\";\n\n/**\n  @title CampaignFactory\n  @dev The Initial Contract deployed by this project.\n  \n  CampaignFactory has a single function in it's interface, createCampaign that is intended\n  to be used by Users creating a new Crowd Funding Campaign.\n  \n  Create Campaign is the Campaign Factory function that will deploy a new instance of\n  the Campaign Contract.\n\n  CampaignFactory extends the Administrated and EmergencyStoppable Contracts. Allowing it to access\n  Admin verification and management functions and EmergencyStoppable behaviour.\n\n  It passes it's own address to the Campaign Contract constructor so that Campaigns can \n  access Administrated Admin verification functions through CampaignFactory.\n */\n\ncontract CampaignFactory is Administrated, EmergencyStoppable {\n\n  /**\n    Implement EmergencyStoppable Interface\n   */\n\n  /**\n    @dev returns true if msg.sender has the admin role\n    This funstion is required to be implemented by the EmergencyStoppable Interface.\n    It is used to determine if the calling user (msg.sender) has the authority to stop/start\n    the contract.\n   */\n  function isAuthorized() internal \n    returns(bool)\n  {\n    return isAdmin(msg.sender);\n  }\n  \n  constructor() public {\n  }\n\n  /**\n    EVENTS\n   */\n\n  /**\n    @dev Event emitted when a Campaign is created from the Campaign Factory\n    The payload is the newly created Campaign's address\n   */\n  event LogCampaignCreated (\n    address indexed campaignAddress\n  );\n\n  /**\n    STATE VARIABLES\n  */\n\n  // array to hold addresses of campaigns\n  address[] public campaigns;\n\n  /**\n    INTERFACE\n   */\n  /**\n    @dev Creates a new Campaign Contract and deploys it.\n    @param title The title of the Campaign\n    @param goal The funding goal in ether of the campaign\n    @param duration The intended duration of the Active campaign in days\n    @param description A description of the Campaign purposes\n    @param image The url of an image for the campaign\n\n    The main interface function for this Contract. Creates and deploys and new Campaign Contract\n    It passes msg.sender as the campaign manager and the address of this contract so that Camapaign\n    Contracts can access Administrated functionality (verifying admins)\n   */\n  function createCampaign(string title, uint256 goal, uint256 duration, string description, string image) public \n    stoppedInEmergency\n    notAdmin\n    returns(address)\n  {\n    Campaign newCampaign = new Campaign(campaigns.length, title, goal, duration, description, image, msg.sender, address(this));\n    campaigns.push(address(newCampaign));\n    emit LogCampaignCreated(address(newCampaign));\n    return address(newCampaign);\n  }\n\n\n  /**\n    @dev We override the addAdminRole(_account); function from the Administrated parent Contract\n    in order to apply the stoppedInEmergency modifier\n    @param _account the account address to which admin priviledges should be granted\n   */\n  function addAdminRole(address _account) public\n    stoppedInEmergency\n  {\n    super.addAdminRole(_account);\n  }\n  \n  /**\n    @dev We override the removeAdminRole(_account); function from the Administrated parent Contract\n    in order to apply the stoppedInEmergency modifier\n    @param _account the account address to which admin priviledges should be revoked\n   */\n  function removeAdminRole(address _account) public\n    stoppedInEmergency\n  {\n    super.removeAdminRole(_account);\n  }\n\n  /**\n    GETTERS\n   */\n\n  /**\n    @dev returns the number of campaigns created\n    Since we use an array to hold the campaigns we dont need a numCampaigns variable\n    like if we had used a mapping but we need a getter function if we want to get the \n    length of the array\n   */\n  function getNumCampaigns() public view returns (uint256) {\n    return campaigns.length;\n  }\n\n}\n\n",
  "sourcePath": "/home/jalal/github/ethfundme/contracts/CampaignFactory.sol",
  "compiler": {
    "name": "solc",
    "version": "0.4.24+commit.e67f0147.Emscripten.clang"
  },
  "schemaVersion": "2.0.1",
  "updatedAt": "2018-08-25T09:38:45.219Z"
}