{
  "contractName": "Campaign",
  "abi": [
    {
      "constant": true,
      "inputs": [
        {
          "name": "_operator",
          "type": "address"
        },
        {
          "name": "_role",
          "type": "string"
        }
      ],
      "name": "checkRole",
      "outputs": [],
      "payable": false,
      "stateMutability": "view",
      "type": "function"
    },
    {
      "constant": true,
      "inputs": [
        {
          "name": "",
          "type": "address"
        }
      ],
      "name": "hasVoted",
      "outputs": [
        {
          "name": "",
          "type": "bool"
        }
      ],
      "payable": false,
      "stateMutability": "view",
      "type": "function"
    },
    {
      "constant": true,
      "inputs": [],
      "name": "numAdmins",
      "outputs": [
        {
          "name": "",
          "type": "uint256"
        }
      ],
      "payable": false,
      "stateMutability": "view",
      "type": "function"
    },
    {
      "constant": true,
      "inputs": [],
      "name": "duration",
      "outputs": [
        {
          "name": "",
          "type": "uint256"
        }
      ],
      "payable": false,
      "stateMutability": "view",
      "type": "function"
    },
    {
      "constant": false,
      "inputs": [],
      "name": "stopContract",
      "outputs": [],
      "payable": false,
      "stateMutability": "nonpayable",
      "type": "function"
    },
    {
      "constant": true,
      "inputs": [],
      "name": "approvalState",
      "outputs": [
        {
          "name": "",
          "type": "uint8"
        }
      ],
      "payable": false,
      "stateMutability": "view",
      "type": "function"
    },
    {
      "constant": true,
      "inputs": [
        {
          "name": "",
          "type": "uint256"
        }
      ],
      "name": "contributions",
      "outputs": [
        {
          "name": "addr",
          "type": "address"
        },
        {
          "name": "amount",
          "type": "uint256"
        },
        {
          "name": "timestamp",
          "type": "uint256"
        }
      ],
      "payable": false,
      "stateMutability": "view",
      "type": "function"
    },
    {
      "constant": true,
      "inputs": [
        {
          "name": "",
          "type": "address"
        }
      ],
      "name": "hasContributed",
      "outputs": [
        {
          "name": "",
          "type": "bool"
        }
      ],
      "payable": false,
      "stateMutability": "view",
      "type": "function"
    },
    {
      "constant": true,
      "inputs": [
        {
          "name": "_operator",
          "type": "address"
        },
        {
          "name": "_role",
          "type": "string"
        }
      ],
      "name": "hasRole",
      "outputs": [
        {
          "name": "",
          "type": "bool"
        }
      ],
      "payable": false,
      "stateMutability": "view",
      "type": "function"
    },
    {
      "constant": true,
      "inputs": [
        {
          "name": "_address",
          "type": "address"
        }
      ],
      "name": "isAdmin",
      "outputs": [
        {
          "name": "",
          "type": "bool"
        }
      ],
      "payable": false,
      "stateMutability": "view",
      "type": "function"
    },
    {
      "constant": false,
      "inputs": [
        {
          "name": "voteOption",
          "type": "bool"
        },
        {
          "name": "salt",
          "type": "uint256"
        }
      ],
      "name": "reveal",
      "outputs": [],
      "payable": false,
      "stateMutability": "nonpayable",
      "type": "function"
    },
    {
      "constant": true,
      "inputs": [],
      "name": "isStopped",
      "outputs": [
        {
          "name": "",
          "type": "bool"
        }
      ],
      "payable": false,
      "stateMutability": "view",
      "type": "function"
    },
    {
      "constant": true,
      "inputs": [],
      "name": "goal",
      "outputs": [
        {
          "name": "",
          "type": "uint256"
        }
      ],
      "payable": false,
      "stateMutability": "view",
      "type": "function"
    },
    {
      "constant": true,
      "inputs": [],
      "name": "manager",
      "outputs": [
        {
          "name": "",
          "type": "address"
        }
      ],
      "payable": false,
      "stateMutability": "view",
      "type": "function"
    },
    {
      "constant": true,
      "inputs": [],
      "name": "title",
      "outputs": [
        {
          "name": "",
          "type": "string"
        }
      ],
      "payable": false,
      "stateMutability": "view",
      "type": "function"
    },
    {
      "constant": true,
      "inputs": [
        {
          "name": "",
          "type": "address"
        }
      ],
      "name": "hasWithdrawn",
      "outputs": [
        {
          "name": "",
          "type": "bool"
        }
      ],
      "payable": false,
      "stateMutability": "view",
      "type": "function"
    },
    {
      "constant": false,
      "inputs": [
        {
          "name": "_account",
          "type": "address"
        }
      ],
      "name": "addAdminRole",
      "outputs": [],
      "payable": false,
      "stateMutability": "nonpayable",
      "type": "function"
    },
    {
      "constant": true,
      "inputs": [],
      "name": "description",
      "outputs": [
        {
          "name": "",
          "type": "string"
        }
      ],
      "payable": false,
      "stateMutability": "view",
      "type": "function"
    },
    {
      "constant": true,
      "inputs": [],
      "name": "numApprovals",
      "outputs": [
        {
          "name": "",
          "type": "uint256"
        }
      ],
      "payable": false,
      "stateMutability": "view",
      "type": "function"
    },
    {
      "constant": true,
      "inputs": [
        {
          "name": "",
          "type": "address"
        }
      ],
      "name": "totalContributed",
      "outputs": [
        {
          "name": "",
          "type": "uint256"
        }
      ],
      "payable": false,
      "stateMutability": "view",
      "type": "function"
    },
    {
      "constant": false,
      "inputs": [
        {
          "name": "secretVote",
          "type": "bytes32"
        }
      ],
      "name": "vote",
      "outputs": [],
      "payable": false,
      "stateMutability": "nonpayable",
      "type": "function"
    },
    {
      "constant": true,
      "inputs": [
        {
          "name": "",
          "type": "address"
        }
      ],
      "name": "voteSecrets",
      "outputs": [
        {
          "name": "",
          "type": "bytes32"
        }
      ],
      "payable": false,
      "stateMutability": "view",
      "type": "function"
    },
    {
      "constant": true,
      "inputs": [],
      "name": "id",
      "outputs": [
        {
          "name": "",
          "type": "uint256"
        }
      ],
      "payable": false,
      "stateMutability": "view",
      "type": "function"
    },
    {
      "constant": true,
      "inputs": [
        {
          "name": "",
          "type": "address"
        }
      ],
      "name": "hasRevealed",
      "outputs": [
        {
          "name": "",
          "type": "bool"
        }
      ],
      "payable": false,
      "stateMutability": "view",
      "type": "function"
    },
    {
      "constant": true,
      "inputs": [],
      "name": "numVoteSecrets",
      "outputs": [
        {
          "name": "",
          "type": "uint256"
        }
      ],
      "payable": false,
      "stateMutability": "view",
      "type": "function"
    },
    {
      "constant": true,
      "inputs": [],
      "name": "endDate",
      "outputs": [
        {
          "name": "",
          "type": "uint256"
        }
      ],
      "payable": false,
      "stateMutability": "view",
      "type": "function"
    },
    {
      "constant": false,
      "inputs": [],
      "name": "resumeContract",
      "outputs": [],
      "payable": false,
      "stateMutability": "nonpayable",
      "type": "function"
    },
    {
      "constant": true,
      "inputs": [],
      "name": "funds",
      "outputs": [
        {
          "name": "",
          "type": "uint256"
        }
      ],
      "payable": false,
      "stateMutability": "view",
      "type": "function"
    },
    {
      "constant": true,
      "inputs": [],
      "name": "ROLE_ADMIN",
      "outputs": [
        {
          "name": "",
          "type": "string"
        }
      ],
      "payable": false,
      "stateMutability": "view",
      "type": "function"
    },
    {
      "constant": false,
      "inputs": [
        {
          "name": "_account",
          "type": "address"
        }
      ],
      "name": "removeAdminRole",
      "outputs": [],
      "payable": false,
      "stateMutability": "nonpayable",
      "type": "function"
    },
    {
      "constant": true,
      "inputs": [],
      "name": "image",
      "outputs": [
        {
          "name": "",
          "type": "string"
        }
      ],
      "payable": false,
      "stateMutability": "view",
      "type": "function"
    },
    {
      "constant": true,
      "inputs": [],
      "name": "campaignState",
      "outputs": [
        {
          "name": "",
          "type": "uint8"
        }
      ],
      "payable": false,
      "stateMutability": "view",
      "type": "function"
    },
    {
      "constant": true,
      "inputs": [],
      "name": "numRejections",
      "outputs": [
        {
          "name": "",
          "type": "uint256"
        }
      ],
      "payable": false,
      "stateMutability": "view",
      "type": "function"
    },
    {
      "constant": true,
      "inputs": [],
      "name": "numVoteReveals",
      "outputs": [
        {
          "name": "",
          "type": "uint256"
        }
      ],
      "payable": false,
      "stateMutability": "view",
      "type": "function"
    },
    {
      "inputs": [
        {
          "name": "_id",
          "type": "uint256"
        },
        {
          "name": "_title",
          "type": "string"
        },
        {
          "name": "_goal",
          "type": "uint256"
        },
        {
          "name": "_duration",
          "type": "uint256"
        },
        {
          "name": "_description",
          "type": "string"
        },
        {
          "name": "_image",
          "type": "string"
        },
        {
          "name": "_manager",
          "type": "address"
        }
      ],
      "payable": false,
      "stateMutability": "nonpayable",
      "type": "constructor"
    },
    {
      "anonymous": false,
      "inputs": [
        {
          "indexed": true,
          "name": "operator",
          "type": "address"
        },
        {
          "indexed": false,
          "name": "role",
          "type": "string"
        }
      ],
      "name": "RoleAdded",
      "type": "event"
    },
    {
      "anonymous": false,
      "inputs": [
        {
          "indexed": true,
          "name": "operator",
          "type": "address"
        },
        {
          "indexed": false,
          "name": "role",
          "type": "string"
        }
      ],
      "name": "RoleRemoved",
      "type": "event"
    },
    {
      "constant": false,
      "inputs": [],
      "name": "contribute",
      "outputs": [],
      "payable": true,
      "stateMutability": "payable",
      "type": "function"
    },
    {
      "constant": false,
      "inputs": [],
      "name": "cancelCampaign",
      "outputs": [],
      "payable": false,
      "stateMutability": "nonpayable",
      "type": "function"
    },
    {
      "constant": false,
      "inputs": [],
      "name": "endCampaign",
      "outputs": [],
      "payable": false,
      "stateMutability": "nonpayable",
      "type": "function"
    },
    {
      "constant": false,
      "inputs": [],
      "name": "withdraw",
      "outputs": [],
      "payable": false,
      "stateMutability": "nonpayable",
      "type": "function"
    },
    {
      "constant": false,
      "inputs": [],
      "name": "emergencyWithdraw",
      "outputs": [],
      "payable": false,
      "stateMutability": "nonpayable",
      "type": "function"
    },
    {
      "constant": true,
      "inputs": [],
      "name": "getNumContributions",
      "outputs": [
        {
          "name": "numContributions",
          "type": "uint256"
        }
      ],
      "payable": false,
      "stateMutability": "view",
      "type": "function"
    },
    {
      "constant": true,
      "inputs": [],
      "name": "isActive",
      "outputs": [
        {
          "name": "",
          "type": "bool"
        }
      ],
      "payable": false,
      "stateMutability": "view",
      "type": "function"
    },
    {
      "constant": true,
      "inputs": [],
      "name": "getBlockTimestamp",
      "outputs": [
        {
          "name": "",
          "type": "uint256"
        }
      ],
      "payable": false,
      "stateMutability": "view",
      "type": "function"
    },
    {
      "constant": false,
      "inputs": [],
      "name": "transitionCampaign",
      "outputs": [],
      "payable": false,
      "stateMutability": "nonpayable",
      "type": "function"
    },
    {
      "constant": true,
      "inputs": [],
      "name": "getTotalContributedFunds",
      "outputs": [
        {
          "name": "",
          "type": "uint256"
        }
      ],
      "payable": false,
      "stateMutability": "view",
      "type": "function"
    }
  ],
  "bytecode": "0x6080604052600180556000600260006101000a81548160ff0219169083151502179055506000600260016101000a81548160ff021916908360048111156200004357fe5b02179055506001600a556000600b60006101000a81548160ff021916908360048111156200006d57fe5b02179055503073ffffffffffffffffffffffffffffffffffffffff1631600c553480156200009a57600080fd5b5060405162002e8838038062002e88833981018060405281019080805190602001909291908051820192919060200180519060200190929190805190602001909291908051820192919060200180518201929190602001805190602001909291905050506200014e336040805190810160405280600581526020017f61646d696e00000000000000000000000000000000000000000000000000000081525062000201640100000000026401000000009004565b86600e8190555085600f90805190602001906200016d929190620003a8565b5084601081905550620151808402601181905550826012908051906020019062000199929190620003a8565b508160139080519060200190620001b2929190620003a8565b5080601460006101000a81548173ffffffffffffffffffffffffffffffffffffffff021916908373ffffffffffffffffffffffffffffffffffffffff1602179055505050505050505062000457565b62000290826000836040518082805190602001908083835b60208310151562000240578051825260208201915060208101905060208303925062000219565b6001836020036101000a03801982511681845116808217855250505050505090500191505090815260200160405180910390206200034a6401000000000262002939179091906401000000009004565b8173ffffffffffffffffffffffffffffffffffffffff167fbfec83d64eaa953f2708271a023ab9ee82057f8f3578d548c1a4ba0b5b700489826040518080602001828103825283818151815260200191508051906020019080838360005b838110156200030b578082015181840152602081019050620002ee565b50505050905090810190601f168015620003395780820380516001836020036101000a031916815260200191505b509250505060405180910390a25050565b60018260000160008373ffffffffffffffffffffffffffffffffffffffff1673ffffffffffffffffffffffffffffffffffffffff16815260200190815260200160002060006101000a81548160ff0219169083151502179055505050565b828054600181600116156101000203166002900490600052602060002090601f016020900481019282601f10620003eb57805160ff19168380011785556200041c565b828001600101855582156200041c579182015b828111156200041b578251825591602001919060010190620003fe565b5b5090506200042b91906200042f565b5090565b6200045491905b808211156200045057600081600090555060010162000436565b5090565b90565b612a2180620004676000396000f30060806040526004361061021a576000357c0100000000000000000000000000000000000000000000000000000000900463ffffffff1680630988ca8c1461021f57806309eef43e146102a85780630efd4989146103035780630fb5a6b41461032e57806312253a6c146103595780631afcf159146103705780631cee0700146103a9578063205b194614610424578063217fe6c61461047f57806322f3e2d41461052057806324d7806c1461054f57806339f3027d146105aa5780633ccfd60b146105e35780633f683b6a146105fa5780634019388314610629578063481c6a75146106545780634a79d50c146106ab5780635e2c19db1461073b57806365325386146107965780636595171c146107c157806371aac7f9146108045780637284e4161461081b5780637403c5e5146108ab578063796b89b9146108d6578063980e784414610901578063a0f243b814610918578063a69beaba1461096f578063aac08345146109a0578063ab45be42146109ff578063af640d0f14610a16578063b9a5301314610a41578063c17c5cf014610a9c578063c24a0f8b14610ac7578063c4bc5da514610af2578063c89f2ce414610b09578063d391014b14610b34578063d7bb99ba14610bc4578063db2e21bc14610bce578063dccfe31014610be5578063e70ac62c14610c28578063f3ccaac014610c53578063f4c9b1fd14610ce3578063f81292c114610d1c578063facd493914610d47575b600080fd5b34801561022b57600080fd5b506102a6600480360381019080803573ffffffffffffffffffffffffffffffffffffffff169060200190929190803590602001908201803590602001908080601f0160208091040260200160405190810160405280939291908181526020018383808284378201915050505050509192919290505050610d72565b005b3480156102b457600080fd5b506102e9600480360381019080803573ffffffffffffffffffffffffffffffffffffffff169060200190929190505050610df3565b604051808215151515815260200191505060405180910390f35b34801561030f57600080fd5b50610318610e13565b6040518082815260200191505060405180910390f35b34801561033a57600080fd5b50610343610e19565b6040518082815260200191505060405180910390f35b34801561036557600080fd5b5061036e610e1f565b005b34801561037c57600080fd5b50610385610e7b565b6040518082600481111561039557fe5b60ff16815260200191505060405180910390f35b3480156103b557600080fd5b506103d460048036038101908080359060200190929190505050610e8e565b604051808473ffffffffffffffffffffffffffffffffffffffff1673ffffffffffffffffffffffffffffffffffffffff168152602001838152602001828152602001935050505060405180910390f35b34801561043057600080fd5b50610465600480360381019080803573ffffffffffffffffffffffffffffffffffffffff169060200190929190505050610ee7565b604051808215151515815260200191505060405180910390f35b34801561048b57600080fd5b50610506600480360381019080803573ffffffffffffffffffffffffffffffffffffffff169060200190929190803590602001908201803590602001908080601f0160208091040260200160405190810160405280939291908181526020018383808284378201915050505050509192919290505050610f07565b604051808215151515815260200191505060405180910390f35b34801561052c57600080fd5b50610535610f8e565b604051808215151515815260200191505060405180910390f35b34801561055b57600080fd5b50610590600480360381019080803573ffffffffffffffffffffffffffffffffffffffff169060200190929190505050610f9a565b604051808215151515815260200191505060405180910390f35b3480156105b657600080fd5b506105e160048036038101908080351515906020019092919080359060200190929190505050610fe2565b005b3480156105ef57600080fd5b506105f8611305565b005b34801561060657600080fd5b5061060f61150b565b604051808215151515815260200191505060405180910390f35b34801561063557600080fd5b5061063e61151e565b6040518082815260200191505060405180910390f35b34801561066057600080fd5b50610669611524565b604051808273ffffffffffffffffffffffffffffffffffffffff1673ffffffffffffffffffffffffffffffffffffffff16815260200191505060405180910390f35b3480156106b757600080fd5b506106c061154a565b6040518080602001828103825283818151815260200191508051906020019080838360005b838110156107005780820151818401526020810190506106e5565b50505050905090810190601f16801561072d5780820380516001836020036101000a031916815260200191505b509250505060405180910390f35b34801561074757600080fd5b5061077c600480360381019080803573ffffffffffffffffffffffffffffffffffffffff1690602001909291905050506115e8565b604051808215151515815260200191505060405180910390f35b3480156107a257600080fd5b506107ab611608565b6040518082815260200191505060405180910390f35b3480156107cd57600080fd5b50610802600480360381019080803573ffffffffffffffffffffffffffffffffffffffff16906020019092919050505061165c565b005b34801561081057600080fd5b506108196116ef565b005b34801561082757600080fd5b50610830611834565b6040518080602001828103825283818151815260200191508051906020019080838360005b83811015610870578082015181840152602081019050610855565b50505050905090810190601f16801561089d5780820380516001836020036101000a031916815260200191505b509250505060405180910390f35b3480156108b757600080fd5b506108c06118d2565b6040518082815260200191505060405180910390f35b3480156108e257600080fd5b506108eb6118d8565b6040518082815260200191505060405180910390f35b34801561090d57600080fd5b506109166118e0565b005b34801561092457600080fd5b50610959600480360381019080803573ffffffffffffffffffffffffffffffffffffffff169060200190929190505050611a6e565b6040518082815260200191505060405180910390f35b34801561097b57600080fd5b5061099e6004803603810190808035600019169060200190929190505050611a86565b005b3480156109ac57600080fd5b506109e1600480360381019080803573ffffffffffffffffffffffffffffffffffffffff169060200190929190505050611c56565b60405180826000191660001916815260200191505060405180910390f35b348015610a0b57600080fd5b50610a14611c6e565b005b348015610a2257600080fd5b50610a2b611d23565b6040518082815260200191505060405180910390f35b348015610a4d57600080fd5b50610a82600480360381019080803573ffffffffffffffffffffffffffffffffffffffff169060200190929190505050611d29565b604051808215151515815260200191505060405180910390f35b348015610aa857600080fd5b50610ab1611d49565b6040518082815260200191505060405180910390f35b348015610ad357600080fd5b50610adc611d4f565b6040518082815260200191505060405180910390f35b348015610afe57600080fd5b50610b07611d55565b005b348015610b1557600080fd5b50610b1e611db1565b6040518082815260200191505060405180910390f35b348015610b4057600080fd5b50610b49611db7565b6040518080602001828103825283818151815260200191508051906020019080838360005b83811015610b89578082015181840152602081019050610b6e565b50505050905090810190601f168015610bb65780820380516001836020036101000a031916815260200191505b509250505060405180910390f35b610bcc611df0565b005b348015610bda57600080fd5b50610be361215b565b005b348015610bf157600080fd5b50610c26600480360381019080803573ffffffffffffffffffffffffffffffffffffffff169060200190929190505050612200565b005b348015610c3457600080fd5b50610c3d612294565b6040518082815260200191505060405180910390f35b348015610c5f57600080fd5b50610c686122a1565b6040518080602001828103825283818151815260200191508051906020019080838360005b83811015610ca8578082015181840152602081019050610c8d565b50505050905090810190601f168015610cd55780820380516001836020036101000a031916815260200191505b509250505060405180910390f35b348015610cef57600080fd5b50610cf861233f565b60405180826004811115610d0857fe5b60ff16815260200191505060405180910390f35b348015610d2857600080fd5b50610d31612352565b6040518082815260200191505060405180910390f35b348015610d5357600080fd5b50610d5c612358565b6040518082815260200191505060405180910390f35b610def826000836040518082805190602001908083835b602083101515610dae5780518252602082019150602081019050602083039250610d89565b6001836020036101000a038019825116818451168082178552505050505050905001915050908152602001604051809103902061235e90919063ffffffff16565b5050565b60086020528060005260406000206000915054906101000a900460ff1681565b60015481565b60115481565b610e5e336040805190810160405280600581526020017f61646d696e000000000000000000000000000000000000000000000000000000815250610d72565b6001600260006101000a81548160ff021916908315150217905550565b600260019054906101000a900460ff1681565b601581815481101515610e9d57fe5b90600052602060002090600302016000915090508060000160009054906101000a900473ffffffffffffffffffffffffffffffffffffffff16908060010154908060020154905083565b60176020528060005260406000206000915054906101000a900460ff1681565b6000610f86836000846040518082805190602001908083835b602083101515610f455780518252602082019150602081019050602083039250610f20565b6001836020036101000a038019825116818451168082178552505050505050905001915050908152602001604051809103902061237790919063ffffffff16565b905092915050565b6000600d544210905090565b6000610fdb826040805190810160405280600581526020017f61646d696e000000000000000000000000000000000000000000000000000000815250610f07565b9050919050565b600260009054906101000a900460ff16151515610ffe57600080fd5b60011515600860003373ffffffffffffffffffffffffffffffffffffffff1673ffffffffffffffffffffffffffffffffffffffff16815260200190815260200160002060009054906101000a900460ff16151514151561105d57600080fd5b60001515600960003373ffffffffffffffffffffffffffffffffffffffff1673ffffffffffffffffffffffffffffffffffffffff16815260200190815260200160002060009054906101000a900460ff1615151415156110bc57600080fd5b60018060048111156110ca57fe5b600260019054906101000a900460ff1660048111156110e557fe5b1415156110f157600080fd5b600760003373ffffffffffffffffffffffffffffffffffffffff1673ffffffffffffffffffffffffffffffffffffffff168152602001908152602001600020546000191683836040516020018083151515157f0100000000000000000000000000000000000000000000000000000000000000028152600101828152602001925050506040516020818303038152906040526040518082805190602001908083835b6020831015156111b85780518252602082019150602081019050602083039250611193565b6001836020036101000a0380198251168184511680821785525050505050509050019150506040518091039020600019161415156111f557600080fd5b821561121257600360008154809291906001019190505550611225565b6004600081548092919060010191905055505b6006600081548092919060010191905055506001600960003373ffffffffffffffffffffffffffffffffffffffff1673ffffffffffffffffffffffffffffffffffffffff16815260200190815260200160002060006101000a81548160ff02191690831515021790555060026003541015156112c75760028060016101000a81548160ff021916908360048111156112b957fe5b02179055506112c66123d0565b5b6002600454101515611300576003600260016101000a81548160ff021916908360048111156112f257fe5b02179055506112ff612401565b5b505050565b600260009054906101000a900460ff1615151561132157600080fd5b6001600a5414151561133257600080fd5b6002600a8190555060001515601860003373ffffffffffffffffffffffffffffffffffffffff1673ffffffffffffffffffffffffffffffffffffffff16815260200190815260200160002060009054906101000a900460ff16151514151561139957600080fd5b600160048111156113a657fe5b600b60009054906101000a900460ff1660048111156113c157fe5b1480156113cf5750600d5442115b1561143057601054600c5410151561140a576002600b60006101000a81548160ff0219169083600481111561140057fe5b021790555061142f565b6003600b60006101000a81548160ff0219169083600481111561142957fe5b02179055505b5b6001600481111561143d57fe5b600b60009054906101000a900460ff16600481111561145857fe5b11151561146457600080fd5b6002600481111561147157fe5b600b60009054906101000a900460ff16600481111561148c57fe5b141561149b5761149a612427565b5b600360048111156114a857fe5b600b60009054906101000a900460ff1660048111156114c357fe5b14806114f357506004808111156114d657fe5b600b60009054906101000a900460ff1660048111156114f157fe5b145b1561150157611500612543565b5b6001600a81905550565b600260009054906101000a900460ff1681565b60105481565b601460009054906101000a900473ffffffffffffffffffffffffffffffffffffffff1681565b600f8054600181600116156101000203166002900480601f0160208091040260200160405190810160405280929190818152602001828054600181600116156101000203166002900480156115e05780601f106115b5576101008083540402835291602001916115e0565b820191906000526020600020905b8154815290600101906020018083116115c357829003601f168201915b505050505081565b60186020528060005260406000206000915054906101000a900460ff1681565b6000806000809150600090505b6015805490508110156116545760158181548110151561163157fe5b906000526020600020906003020160010154820191508080600101915050611615565b819250505090565b61169b336040805190810160405280600581526020017f61646d696e000000000000000000000000000000000000000000000000000000815250610d72565b6116da816040805190810160405280600581526020017f61646d696e0000000000000000000000000000000000000000000000000000008152506126d1565b60016000815480929190600101919050555050565b600260009054906101000a900460ff1615151561170b57600080fd5b601460009054906101000a900473ffffffffffffffffffffffffffffffffffffffff1673ffffffffffffffffffffffffffffffffffffffff163373ffffffffffffffffffffffffffffffffffffffff1614151561176757600080fd5b6001600481111561177457fe5b600b60009054906101000a900460ff16600481111561178f57fe5b14801561179d5750600d5442115b156117fe57601054600c541015156117d8576002600b60006101000a81548160ff021916908360048111156117ce57fe5b02179055506117fd565b6003600b60006101000a81548160ff021916908360048111156117f757fe5b02179055505b5b6001600481111561180b57fe5b600b60009054906101000a900460ff16600481111561182657fe5b11151561183257600080fd5b565b60128054600181600116156101000203166002900480601f0160208091040260200160405190810160405280929190818152602001828054600181600116156101000203166002900480156118ca5780601f1061189f576101008083540402835291602001916118ca565b820191906000526020600020905b8154815290600101906020018083116118ad57829003601f168201915b505050505081565b60035481565b600042905090565b600260009054906101000a900460ff161515156118fc57600080fd5b601460009054906101000a900473ffffffffffffffffffffffffffffffffffffffff1673ffffffffffffffffffffffffffffffffffffffff163373ffffffffffffffffffffffffffffffffffffffff1614151561195857600080fd5b6001600481111561196557fe5b600b60009054906101000a900460ff16600481111561198057fe5b14801561198e5750600d5442115b156119ef57601054600c541015156119c9576002600b60006101000a81548160ff021916908360048111156119bf57fe5b02179055506119ee565b6003600b60006101000a81548160ff021916908360048111156119e857fe5b02179055505b5b600160048111156119fc57fe5b600b60009054906101000a900460ff166004811115611a1757fe5b11151515611a2457600080fd5b6004600260016101000a81548160ff02191690836004811115611a4357fe5b02179055506004600b60006101000a81548160ff02191690836004811115611a6757fe5b0217905550565b60166020528060005260406000206000915090505481565b600260009054906101000a900460ff16151515611aa257600080fd5b611ae1336040805190810160405280600581526020017f61646d696e000000000000000000000000000000000000000000000000000000815250610d72565b6000806004811115611aef57fe5b600260019054906101000a900460ff166004811115611b0a57fe5b141515611b1657600080fd5b81600760003373ffffffffffffffffffffffffffffffffffffffff1673ffffffffffffffffffffffffffffffffffffffff168152602001908152602001600020816000191690555060001515600860003373ffffffffffffffffffffffffffffffffffffffff1673ffffffffffffffffffffffffffffffffffffffff16815260200190815260200160002060009054906101000a900460ff1615151415611c22576005600081548092919060010191905055506001600860003373ffffffffffffffffffffffffffffffffffffffff1673ffffffffffffffffffffffffffffffffffffffff16815260200190815260200160002060006101000a81548160ff0219169083151502179055505b60036005541415611c52576001600260016101000a81548160ff02191690836004811115611c4c57fe5b02179055505b5050565b60076020528060005260406000206000915090505481565b600260009054906101000a900460ff16151515611c8a57600080fd5b60016004811115611c9757fe5b600b60009054906101000a900460ff166004811115611cb257fe5b148015611cc05750600d5442115b15611d2157601054600c54101515611cfb576002600b60006101000a81548160ff02191690836004811115611cf157fe5b0217905550611d20565b6003600b60006101000a81548160ff02191690836004811115611d1a57fe5b02179055505b5b565b600e5481565b60096020528060005260406000206000915054906101000a900460ff1681565b60055481565b600d5481565b611d94336040805190810160405280600581526020017f61646d696e000000000000000000000000000000000000000000000000000000815250610d72565b6000600260006101000a81548160ff021916908315150217905550565b600c5481565b6040805190810160405280600581526020017f61646d696e00000000000000000000000000000000000000000000000000000081525081565b600260009054906101000a900460ff16151515611e0c57600080fd5b601460009054906101000a900473ffffffffffffffffffffffffffffffffffffffff1673ffffffffffffffffffffffffffffffffffffffff163373ffffffffffffffffffffffffffffffffffffffff1614151515611e6957600080fd5b60016004811115611e7657fe5b600b60009054906101000a900460ff166004811115611e9157fe5b148015611e9f5750600d5442115b15611f0057601054600c54101515611eda576002600b60006101000a81548160ff02191690836004811115611ed057fe5b0217905550611eff565b6003600b60006101000a81548160ff02191690836004811115611ef957fe5b02179055505b5b6001806004811115611f0e57fe5b600b60009054906101000a900460ff166004811115611f2957fe5b141515611f3557600080fd5b600034111515611f4457600080fd5b600c5434600c5401111515611f5857600080fd5b601660003373ffffffffffffffffffffffffffffffffffffffff1673ffffffffffffffffffffffffffffffffffffffff1681526020019081526020016000205434601660003373ffffffffffffffffffffffffffffffffffffffff1673ffffffffffffffffffffffffffffffffffffffff1681526020019081526020016000205401111515611fe657600080fd5b6001601760003373ffffffffffffffffffffffffffffffffffffffff1673ffffffffffffffffffffffffffffffffffffffff16815260200190815260200160002060006101000a81548160ff02191690831515021790555060156060604051908101604052803373ffffffffffffffffffffffffffffffffffffffff168152602001348152602001428152509080600181540180825580915050906001820390600052602060002090600302016000909192909190915060008201518160000160006101000a81548173ffffffffffffffffffffffffffffffffffffffff021916908373ffffffffffffffffffffffffffffffffffffffff160217905550602082015181600101556040820151816002015550505034601660003373ffffffffffffffffffffffffffffffffffffffff1673ffffffffffffffffffffffffffffffffffffffff1681526020019081526020016000206000828254019250508190555034600c6000828254019250508190555050565b600260009054906101000a900460ff16151561217657600080fd5b6001600a5414151561218757600080fd5b6002600a8190555060001515601860003373ffffffffffffffffffffffffffffffffffffffff1673ffffffffffffffffffffffffffffffffffffffff16815260200190815260200160002060009054906101000a900460ff1615151415156121ee57600080fd5b6121f6612543565b6001600a81905550565b61223f336040805190810160405280600581526020017f61646d696e000000000000000000000000000000000000000000000000000000815250610d72565b61227e816040805190810160405280600581526020017f61646d696e000000000000000000000000000000000000000000000000000000815250612805565b6001600081548092919060019003919050555050565b6000601580549050905090565b60138054600181600116156101000203166002900480601f0160208091040260200160405190810160405280929190818152602001828054600181600116156101000203166002900480156123375780601f1061230c57610100808354040283529160200191612337565b820191906000526020600020905b81548152906001019060200180831161231a57829003601f168201915b505050505081565b600b60009054906101000a900460ff1681565b60045481565b60065481565b6123688282612377565b151561237357600080fd5b5050565b60008260000160008373ffffffffffffffffffffffffffffffffffffffff1673ffffffffffffffffffffffffffffffffffffffff16815260200190815260200160002060009054906101000a900460ff16905092915050565b6011544201600d819055506001600b60006101000a81548160ff021916908360048111156123fa57fe5b0217905550565b6003600b60006101000a81548160ff0219169083600481111561242057fe5b0217905550565b601460009054906101000a900473ffffffffffffffffffffffffffffffffffffffff1673ffffffffffffffffffffffffffffffffffffffff163373ffffffffffffffffffffffffffffffffffffffff1614151561248357600080fd5b6001601860003373ffffffffffffffffffffffffffffffffffffffff1673ffffffffffffffffffffffffffffffffffffffff16815260200190815260200160002060006101000a81548160ff0219169083151502179055506000600c819055503373ffffffffffffffffffffffffffffffffffffffff166108fc3073ffffffffffffffffffffffffffffffffffffffff16319081150290604051600060405180830381858888f19350505050158015612540573d6000803e3d6000fd5b50565b60011515601760003373ffffffffffffffffffffffffffffffffffffffff1673ffffffffffffffffffffffffffffffffffffffff16815260200190815260200160002060009054906101000a900460ff1615151415156125a257600080fd5b6001601860003373ffffffffffffffffffffffffffffffffffffffff1673ffffffffffffffffffffffffffffffffffffffff16815260200190815260200160002060006101000a81548160ff021916908315150217905550601660003373ffffffffffffffffffffffffffffffffffffffff1673ffffffffffffffffffffffffffffffffffffffff16815260200190815260200160002054600c600082825403925050819055503373ffffffffffffffffffffffffffffffffffffffff166108fc601660003373ffffffffffffffffffffffffffffffffffffffff1673ffffffffffffffffffffffffffffffffffffffff168152602001908152602001600020549081150290604051600060405180830381858888f193505050501580156126ce573d6000803e3d6000fd5b50565b61274e826000836040518082805190602001908083835b60208310151561270d57805182526020820191506020810190506020830392506126e8565b6001836020036101000a038019825116818451168082178552505050505050905001915050908152602001604051809103902061293990919063ffffffff16565b8173ffffffffffffffffffffffffffffffffffffffff167fbfec83d64eaa953f2708271a023ab9ee82057f8f3578d548c1a4ba0b5b700489826040518080602001828103825283818151815260200191508051906020019080838360005b838110156127c75780820151818401526020810190506127ac565b50505050905090810190601f1680156127f45780820380516001836020036101000a031916815260200191505b509250505060405180910390a25050565b612882826000836040518082805190602001908083835b602083101515612841578051825260208201915060208101905060208303925061281c565b6001836020036101000a038019825116818451168082178552505050505050905001915050908152602001604051809103902061299790919063ffffffff16565b8173ffffffffffffffffffffffffffffffffffffffff167fd211483f91fc6eff862467f8de606587a30c8fc9981056f051b897a418df803a826040518080602001828103825283818151815260200191508051906020019080838360005b838110156128fb5780820151818401526020810190506128e0565b50505050905090810190601f1680156129285780820380516001836020036101000a031916815260200191505b509250505060405180910390a25050565b60018260000160008373ffffffffffffffffffffffffffffffffffffffff1673ffffffffffffffffffffffffffffffffffffffff16815260200190815260200160002060006101000a81548160ff0219169083151502179055505050565b60008260000160008373ffffffffffffffffffffffffffffffffffffffff1673ffffffffffffffffffffffffffffffffffffffff16815260200190815260200160002060006101000a81548160ff02191690831515021790555050505600a165627a7a72305820fa9f28fe387ebcd5fb8e4020494944c764aca3260da154381cd00cb0e1acc91c0029",
  "source": "pragma solidity ^0.4.24;\n\nimport \"./Approvable.sol\";\nimport \"../node_modules/zeppelin-solidity/contracts/ReentrancyGuard.sol\";\n\ncontract Campaign is Approvable, ReentrancyGuard {\n\n  /**\n    DATA STRUCTURES \n   */\n\n  enum CampaignStates {\n    Pending,\n    Active,\n    Successful,\n    Unsuccessful,\n    Cancelled\n  }\n\n  struct Contribution {\n    address addr;\n    uint amount;\n    uint timestamp;\n  }\n\n  /**\n    STATE VARIABLES\n   */\n\n  CampaignStates public campaignState = CampaignStates.Pending;\n  uint public funds = address(this).balance;\n  uint public endDate;\n\n  uint public id;\n  string public title;\n  uint public goal;\n  uint public duration;\n  string public description;\n  string public image;\n  address public manager;\n\n  Contribution[] public contributions;\n  mapping (address => uint) public totalContributed;\n  mapping (address => bool) public hasContributed;\n  mapping (address => bool) public hasWithdrawn;\n\n\n  /**\n    CONSTRUCTOR\n   */\n\n  constructor(\n    uint _id, \n    string _title, \n    uint _goal,  \n    uint _duration, \n    string _description,\n    string _image,\n    address _manager \n  ) public {\n    id = _id;\n    title = _title;\n    goal = _goal;\n    duration = _duration * 1 days;\n    description = _description;\n    image = _image;\n    manager = _manager;\n  }\n\n  // STATE TRANSITION/RESTRICTION\n\n  modifier onlyDuringCampaignState(CampaignStates _campaignState) {\n    require(campaignState == _campaignState);\n    _;\n  }\n\n  modifier onlyBeforeCampaignEnd() {\n    require(campaignState <= CampaignStates.Active);\n    _;\n  }\n\n  modifier onlyAfterCampaignEnd() {\n    require(campaignState > CampaignStates.Active);\n    _;\n  }\n\n  // FIXME: Could be renamed to endCampaign\n  modifier transitionState() {\n    if (campaignState == CampaignStates.Active && block.timestamp > endDate\n    ) {\n      \n      if (funds >= goal) {\n        campaignState = CampaignStates.Successful;\n      } else {\n        campaignState = CampaignStates.Unsuccessful;\n      }\n\n    }\n    _;\n  }\n\n  // ACCESS RESTRICTION\n\n  modifier onlyNotManager() {\n    require(msg.sender != manager);\n    _;\n  }\n\n  modifier onlyManager() {\n    require(msg.sender == manager);\n    _;\n  }\n\n  modifier onlyManagerOrAdmin() {\n    // FIXME: Not checking for admin\n    // FIXME: Is this modifier still used/required? \n    require(msg.sender == manager);\n    _;\n  }\n\n  modifier onlyHasNotWithdrawn() {\n    require(hasWithdrawn[msg.sender] == false);\n    _;\n  }\n\n  modifier onlyHasContributed() {\n    require(hasContributed[msg.sender] == true);\n    _;\n  }\n\n  // INPUT VALIDATION\n\n  modifier validateContribution() {\n    //No Zero Contributions\n    require(msg.value > 0); \n     //Integer Overflow Protection\n    require(funds + msg.value > funds);\n    require(totalContributed[msg.sender] + msg.value > totalContributed[msg.sender]);\n    _;\n  }\n  \n  /**\n    FUNCTIONS\n   */\n\n  // INTERNAL FUNCTIONS\n\n  function onApproval() internal {\n    endDate = now + duration;\n    campaignState = CampaignStates.Active;\n  }\n\n  function onRejection() internal {\n    campaignState = CampaignStates.Unsuccessful;\n  }\n\n  function managerWithdrawl() private \n    onlyManager\n  {\n      hasWithdrawn[msg.sender] = true;\n      funds = 0;\n      msg.sender.transfer(address(this).balance);\n  }\n\n  function contributorWithdrawl() private \n    onlyHasContributed\n  {\n    hasWithdrawn[msg.sender] = true;\n    funds -= totalContributed[msg.sender];\n    msg.sender.transfer(totalContributed[msg.sender]);\n  }\n\n  // INTERFACE\n\n  function contribute() public payable \n    stoppedInEmergency\n    onlyNotManager \n    transitionState\n    onlyDuringCampaignState(CampaignStates.Active)\n    validateContribution {\n      hasContributed[msg.sender] = true;\n      contributions.push(Contribution(msg.sender, msg.value, now));\n      totalContributed[msg.sender] += msg.value;\n      funds += msg.value;\n    }\n  \n  // TODO: Might restrict this to only Managers\n  function cancelCampaign() public\n    stoppedInEmergency\n    onlyManagerOrAdmin\n    transitionState\n    onlyBeforeCampaignEnd\n    {\n      approvalState = ApprovalStates.Cancelled;\n      campaignState = CampaignStates.Cancelled;\n    }\n\n  // FIXME: Consider removing this function. It's essentially unnecessary since withdraw will end the campaign\n  // but it exists as a formal way of ending the campaign.\n  function endCampaign() public \n    stoppedInEmergency\n    onlyManagerOrAdmin\n    transitionState\n    onlyAfterCampaignEnd\n    {\n    }\n\n  // Wrapper to private function doing the actual work as described in ReentrancyGuard.sol\n  function withdraw() external\n    stoppedInEmergency\n    nonReentrant // TODO: How do we test, need a reentrancy contract to call this function. \n    onlyHasNotWithdrawn\n    transitionState \n    onlyAfterCampaignEnd {\n      if (campaignState == CampaignStates.Successful) {\n        managerWithdrawl();\n      }\n\n      if(campaignState == CampaignStates.Unsuccessful || campaignState == CampaignStates.Cancelled) {\n        contributorWithdrawl();\n      }\n  }\n\n  function emergencyWithdraw() external\n    onlyInEmergency\n    nonReentrant\n    onlyHasNotWithdrawn\n    {\n      contributorWithdrawl();\n    }\n\n  // GETTERS\n  // FIXME: Should the getters transition state?\n  // Decide this when building the frontend. If it can help update state correctly in the frontend it\n  // might be a good idea, otherwise it's unneccessary.\n\n  function getNumContributions() public view returns(uint numContributions) {\n    return contributions.length;\n  }\n\n  // HELPERS\n\n  function isActive() public view returns(bool) {\n    return (block.timestamp < endDate);\n  }\n\n  function getBlockTimestamp() public view returns(uint) {\n    return block.timestamp;\n  }\n\n  function transitionCampaign() public\n    stoppedInEmergency\n    transitionState \n  {\n    \n  }\n\n  function getTotalContributedFunds() public view returns(uint) {\n    uint result = 0;\n    for (uint i = 0; i < contributions.length; i++) {\n      result += contributions[i].amount;\n    }\n    return result;\n  }\n\n}",
  "sourcePath": "/mnt/c/Users/jalal/Github/EthFundMe/contracts/Campaign.sol",
  "compiler": {
    "name": "solc",
    "version": "0.4.24+commit.e67f0147.Emscripten.clang"
  },
  "schemaVersion": "2.0.1",
  "updatedAt": "2018-08-16T08:25:48.148Z"
}