{
  "contractName": "Campaign",
  "abi": [
    {
      "constant": true,
      "inputs": [
        {
          "name": "",
          "type": "address"
        }
      ],
      "name": "hasVoted",
      "outputs": [
        {
          "name": "",
          "type": "bool"
        }
      ],
      "payable": false,
      "stateMutability": "view",
      "type": "function"
    },
    {
      "constant": true,
      "inputs": [],
      "name": "duration",
      "outputs": [
        {
          "name": "",
          "type": "uint256"
        }
      ],
      "payable": false,
      "stateMutability": "view",
      "type": "function"
    },
    {
      "constant": true,
      "inputs": [],
      "name": "approvalState",
      "outputs": [
        {
          "name": "",
          "type": "uint8"
        }
      ],
      "payable": false,
      "stateMutability": "view",
      "type": "function"
    },
    {
      "constant": true,
      "inputs": [
        {
          "name": "",
          "type": "uint256"
        }
      ],
      "name": "contributions",
      "outputs": [
        {
          "name": "addr",
          "type": "address"
        },
        {
          "name": "amount",
          "type": "uint256"
        },
        {
          "name": "timestamp",
          "type": "uint256"
        }
      ],
      "payable": false,
      "stateMutability": "view",
      "type": "function"
    },
    {
      "constant": true,
      "inputs": [
        {
          "name": "",
          "type": "address"
        }
      ],
      "name": "hasContributed",
      "outputs": [
        {
          "name": "",
          "type": "bool"
        }
      ],
      "payable": false,
      "stateMutability": "view",
      "type": "function"
    },
    {
      "constant": false,
      "inputs": [
        {
          "name": "voteOption",
          "type": "bool"
        },
        {
          "name": "salt",
          "type": "uint256"
        }
      ],
      "name": "reveal",
      "outputs": [],
      "payable": false,
      "stateMutability": "nonpayable",
      "type": "function"
    },
    {
      "constant": true,
      "inputs": [],
      "name": "goal",
      "outputs": [
        {
          "name": "",
          "type": "uint256"
        }
      ],
      "payable": false,
      "stateMutability": "view",
      "type": "function"
    },
    {
      "constant": true,
      "inputs": [],
      "name": "manager",
      "outputs": [
        {
          "name": "",
          "type": "address"
        }
      ],
      "payable": false,
      "stateMutability": "view",
      "type": "function"
    },
    {
      "constant": true,
      "inputs": [],
      "name": "title",
      "outputs": [
        {
          "name": "",
          "type": "string"
        }
      ],
      "payable": false,
      "stateMutability": "view",
      "type": "function"
    },
    {
      "constant": true,
      "inputs": [],
      "name": "numApprovals",
      "outputs": [
        {
          "name": "",
          "type": "uint256"
        }
      ],
      "payable": false,
      "stateMutability": "view",
      "type": "function"
    },
    {
      "constant": true,
      "inputs": [
        {
          "name": "",
          "type": "address"
        }
      ],
      "name": "totalContributed",
      "outputs": [
        {
          "name": "",
          "type": "uint256"
        }
      ],
      "payable": false,
      "stateMutability": "view",
      "type": "function"
    },
    {
      "constant": false,
      "inputs": [
        {
          "name": "secretVote",
          "type": "bytes32"
        }
      ],
      "name": "vote",
      "outputs": [],
      "payable": false,
      "stateMutability": "nonpayable",
      "type": "function"
    },
    {
      "constant": true,
      "inputs": [
        {
          "name": "",
          "type": "address"
        }
      ],
      "name": "voteSecrets",
      "outputs": [
        {
          "name": "",
          "type": "bytes32"
        }
      ],
      "payable": false,
      "stateMutability": "view",
      "type": "function"
    },
    {
      "constant": true,
      "inputs": [],
      "name": "efm",
      "outputs": [
        {
          "name": "",
          "type": "address"
        }
      ],
      "payable": false,
      "stateMutability": "view",
      "type": "function"
    },
    {
      "constant": true,
      "inputs": [],
      "name": "id",
      "outputs": [
        {
          "name": "",
          "type": "uint256"
        }
      ],
      "payable": false,
      "stateMutability": "view",
      "type": "function"
    },
    {
      "constant": true,
      "inputs": [
        {
          "name": "",
          "type": "address"
        }
      ],
      "name": "hasRevealed",
      "outputs": [
        {
          "name": "",
          "type": "bool"
        }
      ],
      "payable": false,
      "stateMutability": "view",
      "type": "function"
    },
    {
      "constant": true,
      "inputs": [],
      "name": "numVoteSecrets",
      "outputs": [
        {
          "name": "",
          "type": "uint256"
        }
      ],
      "payable": false,
      "stateMutability": "view",
      "type": "function"
    },
    {
      "constant": true,
      "inputs": [],
      "name": "endDate",
      "outputs": [
        {
          "name": "",
          "type": "uint256"
        }
      ],
      "payable": false,
      "stateMutability": "view",
      "type": "function"
    },
    {
      "constant": true,
      "inputs": [],
      "name": "funds",
      "outputs": [
        {
          "name": "",
          "type": "uint256"
        }
      ],
      "payable": false,
      "stateMutability": "view",
      "type": "function"
    },
    {
      "constant": true,
      "inputs": [],
      "name": "campaignState",
      "outputs": [
        {
          "name": "",
          "type": "uint8"
        }
      ],
      "payable": false,
      "stateMutability": "view",
      "type": "function"
    },
    {
      "constant": true,
      "inputs": [],
      "name": "numRejections",
      "outputs": [
        {
          "name": "",
          "type": "uint256"
        }
      ],
      "payable": false,
      "stateMutability": "view",
      "type": "function"
    },
    {
      "constant": true,
      "inputs": [],
      "name": "numVoteReveals",
      "outputs": [
        {
          "name": "",
          "type": "uint256"
        }
      ],
      "payable": false,
      "stateMutability": "view",
      "type": "function"
    },
    {
      "inputs": [
        {
          "name": "_id",
          "type": "uint256"
        },
        {
          "name": "_title",
          "type": "string"
        },
        {
          "name": "_goal",
          "type": "uint256"
        },
        {
          "name": "_duration",
          "type": "uint256"
        },
        {
          "name": "_manager",
          "type": "address"
        },
        {
          "name": "efmAddress",
          "type": "address"
        }
      ],
      "payable": false,
      "stateMutability": "nonpayable",
      "type": "constructor"
    },
    {
      "constant": false,
      "inputs": [],
      "name": "contribute",
      "outputs": [],
      "payable": true,
      "stateMutability": "payable",
      "type": "function"
    },
    {
      "constant": false,
      "inputs": [],
      "name": "cancelCampaign",
      "outputs": [],
      "payable": false,
      "stateMutability": "nonpayable",
      "type": "function"
    },
    {
      "constant": false,
      "inputs": [],
      "name": "endCampaign",
      "outputs": [],
      "payable": false,
      "stateMutability": "nonpayable",
      "type": "function"
    },
    {
      "constant": false,
      "inputs": [],
      "name": "withdraw",
      "outputs": [],
      "payable": false,
      "stateMutability": "nonpayable",
      "type": "function"
    },
    {
      "constant": true,
      "inputs": [],
      "name": "getNumContributions",
      "outputs": [
        {
          "name": "numContributions",
          "type": "uint256"
        }
      ],
      "payable": false,
      "stateMutability": "view",
      "type": "function"
    },
    {
      "constant": true,
      "inputs": [],
      "name": "isActive",
      "outputs": [
        {
          "name": "",
          "type": "bool"
        }
      ],
      "payable": false,
      "stateMutability": "view",
      "type": "function"
    },
    {
      "constant": true,
      "inputs": [],
      "name": "getBlockTimestamp",
      "outputs": [
        {
          "name": "",
          "type": "uint256"
        }
      ],
      "payable": false,
      "stateMutability": "view",
      "type": "function"
    }
  ],
  "bytecode": "0x608060405260008060146101000a81548160ff021916908360048111156200002357fe5b02179055506000600860006101000a81548160ff021916908360048111156200004857fe5b02179055503073ffffffffffffffffffffffffffffffffffffffff16316009553480156200007557600080fd5b5060405162001efe38038062001efe8339810180604052810190808051906020019092919080518201929190602001805190602001909291908051906020019092919080519060200190929190805190602001909291905050508080806000806101000a81548173ffffffffffffffffffffffffffffffffffffffff021916908373ffffffffffffffffffffffffffffffffffffffff160217905550505085600b8190555084600c90805190602001906200013292919062000193565b5083600d81905550620151808302600e8190555081600f60006101000a81548173ffffffffffffffffffffffffffffffffffffffff021916908373ffffffffffffffffffffffffffffffffffffffff16021790555050505050505062000242565b828054600181600116156101000203166002900490600052602060002090601f016020900481019282601f10620001d657805160ff191683800117855562000207565b8280016001018555821562000207579182015b8281111562000206578251825591602001919060010190620001e9565b5b5090506200021691906200021a565b5090565b6200023f91905b808211156200023b57600081600090555060010162000221565b5090565b90565b611cac80620002526000396000f300608060405260043610610175576000357c0100000000000000000000000000000000000000000000000000000000900463ffffffff16806309eef43e1461017a5780630fb5a6b4146101d55780631afcf159146102005780631cee070014610239578063205b1946146102b457806322f3e2d41461030f57806339f3027d1461033e5780633ccfd60b14610377578063401938831461038e578063481c6a75146103b95780634a79d50c1461041057806371aac7f9146104a05780637403c5e5146104b7578063796b89b9146104e2578063980e78441461050d578063a0f243b814610524578063a69beaba1461057b578063aac08345146105ac578063aedbf4091461060b578063af640d0f14610662578063b9a530131461068d578063c17c5cf0146106e8578063c24a0f8b14610713578063c89f2ce41461073e578063d7bb99ba14610769578063e70ac62c14610773578063f4c9b1fd1461079e578063f81292c1146107d7578063facd493914610802575b600080fd5b34801561018657600080fd5b506101bb600480360381019080803573ffffffffffffffffffffffffffffffffffffffff16906020019092919050505061082d565b604051808215151515815260200191505060405180910390f35b3480156101e157600080fd5b506101ea61084d565b6040518082815260200191505060405180910390f35b34801561020c57600080fd5b50610215610853565b6040518082600481111561022557fe5b60ff16815260200191505060405180910390f35b34801561024557600080fd5b5061026460048036038101908080359060200190929190505050610866565b604051808473ffffffffffffffffffffffffffffffffffffffff1673ffffffffffffffffffffffffffffffffffffffff168152602001838152602001828152602001935050505060405180910390f35b3480156102c057600080fd5b506102f5600480360381019080803573ffffffffffffffffffffffffffffffffffffffff1690602001909291905050506108bf565b604051808215151515815260200191505060405180910390f35b34801561031b57600080fd5b506103246108df565b604051808215151515815260200191505060405180910390f35b34801561034a57600080fd5b50610375600480360381019080803515159060200190929190803590602001909291905050506108eb565b005b34801561038357600080fd5b5061038c610bf2565b005b34801561039a57600080fd5b506103a361103c565b6040518082815260200191505060405180910390f35b3480156103c557600080fd5b506103ce611042565b604051808273ffffffffffffffffffffffffffffffffffffffff1673ffffffffffffffffffffffffffffffffffffffff16815260200191505060405180910390f35b34801561041c57600080fd5b50610425611068565b6040518080602001828103825283818151815260200191508051906020019080838360005b8381101561046557808201518184015260208101905061044a565b50505050905090810190601f1680156104925780820380516001836020036101000a031916815260200191505b509250505060405180910390f35b3480156104ac57600080fd5b506104b5611106565b005b3480156104c357600080fd5b506104cc61132d565b6040518082815260200191505060405180910390f35b3480156104ee57600080fd5b506104f7611333565b6040518082815260200191505060405180910390f35b34801561051957600080fd5b5061052261133b565b005b34801561053057600080fd5b50610565600480360381019080803573ffffffffffffffffffffffffffffffffffffffff1690602001909291905050506115ab565b6040518082815260200191505060405180910390f35b34801561058757600080fd5b506105aa60048036038101908080356000191690602001909291905050506115c3565b005b3480156105b857600080fd5b506105ed600480360381019080803573ffffffffffffffffffffffffffffffffffffffff169060200190929190505050611839565b60405180826000191660001916815260200191505060405180910390f35b34801561061757600080fd5b50610620611851565b604051808273ffffffffffffffffffffffffffffffffffffffff1673ffffffffffffffffffffffffffffffffffffffff16815260200191505060405180910390f35b34801561066e57600080fd5b50610677611876565b6040518082815260200191505060405180910390f35b34801561069957600080fd5b506106ce600480360381019080803573ffffffffffffffffffffffffffffffffffffffff16906020019092919050505061187c565b604051808215151515815260200191505060405180910390f35b3480156106f457600080fd5b506106fd61189c565b6040518082815260200191505060405180910390f35b34801561071f57600080fd5b506107286118a2565b6040518082815260200191505060405180910390f35b34801561074a57600080fd5b506107536118a8565b6040518082815260200191505060405180910390f35b6107716118ae565b005b34801561077f57600080fd5b50610788611bfd565b6040518082815260200191505060405180910390f35b3480156107aa57600080fd5b506107b3611c0a565b604051808260048111156107c357fe5b60ff16815260200191505060405180910390f35b3480156107e357600080fd5b506107ec611c1d565b6040518082815260200191505060405180910390f35b34801561080e57600080fd5b50610817611c23565b6040518082815260200191505060405180910390f35b60066020528060005260406000206000915054906101000a900460ff1681565b600e5481565b600060149054906101000a900460ff1681565b60108181548110151561087557fe5b90600052602060002090600302016000915090508060000160009054906101000a900473ffffffffffffffffffffffffffffffffffffffff16908060010154908060020154905083565b60126020528060005260406000206000915054906101000a900460ff1681565b6000600a544210905090565b60011515600660003373ffffffffffffffffffffffffffffffffffffffff1673ffffffffffffffffffffffffffffffffffffffff16815260200190815260200160002060009054906101000a900460ff16151514151561094a57600080fd5b60001515600760003373ffffffffffffffffffffffffffffffffffffffff1673ffffffffffffffffffffffffffffffffffffffff16815260200190815260200160002060009054906101000a900460ff1615151415156109a957600080fd5b60018060048111156109b757fe5b600060149054906101000a900460ff1660048111156109d257fe5b1415156109de57600080fd5b600560003373ffffffffffffffffffffffffffffffffffffffff1673ffffffffffffffffffffffffffffffffffffffff168152602001908152602001600020546000191683836040516020018083151515157f0100000000000000000000000000000000000000000000000000000000000000028152600101828152602001925050506040516020818303038152906040526040518082805190602001908083835b602083101515610aa55780518252602082019150602081019050602083039250610a80565b6001836020036101000a038019825116818451168082178552505050505050905001915050604051809103902060001916141515610ae257600080fd5b8215610aff57600160008154809291906001019190505550610b12565b6002600081548092919060010191905055505b6004600081548092919060010191905055506001600760003373ffffffffffffffffffffffffffffffffffffffff1673ffffffffffffffffffffffffffffffffffffffff16815260200190815260200160002060006101000a81548160ff0219169083151502179055506002600154101515610bb5576002600060146101000a81548160ff02191690836004811115610ba757fe5b0217905550610bb4611c29565b5b60028054101515610bed576003600060146101000a81548160ff02191690836004811115610bdf57fe5b0217905550610bec611c5a565b5b505050565b60001515601360003373ffffffffffffffffffffffffffffffffffffffff1673ffffffffffffffffffffffffffffffffffffffff16815260200190815260200160002060009054906101000a900460ff161515141515610c5157600080fd5b60016004811115610c5e57fe5b600860009054906101000a900460ff166004811115610c7957fe5b148015610c875750600a5442115b15610ce857600d54600954101515610cc2576002600860006101000a81548160ff02191690836004811115610cb857fe5b0217905550610ce7565b6003600860006101000a81548160ff02191690836004811115610ce157fe5b02179055505b5b60016004811115610cf557fe5b600860009054906101000a900460ff166004811115610d1057fe5b111515610d1c57600080fd5b60026004811115610d2957fe5b600860009054906101000a900460ff166004811115610d4457fe5b1415610e5057600f60009054906101000a900473ffffffffffffffffffffffffffffffffffffffff1673ffffffffffffffffffffffffffffffffffffffff163373ffffffffffffffffffffffffffffffffffffffff16141515610da657600080fd5b6001601360003373ffffffffffffffffffffffffffffffffffffffff1673ffffffffffffffffffffffffffffffffffffffff16815260200190815260200160002060006101000a81548160ff02191690831515021790555060006009819055503373ffffffffffffffffffffffffffffffffffffffff166108fc6009549081150290604051600060405180830381858888f19350505050158015610e4e573d6000803e3d6000fd5b505b60036004811115610e5d57fe5b600860009054906101000a900460ff166004811115610e7857fe5b1480610ea85750600480811115610e8b57fe5b600860009054906101000a900460ff166004811115610ea657fe5b145b1561103a5760011515601260003373ffffffffffffffffffffffffffffffffffffffff1673ffffffffffffffffffffffffffffffffffffffff16815260200190815260200160002060009054906101000a900460ff161515141515610f0c57600080fd5b6001601360003373ffffffffffffffffffffffffffffffffffffffff1673ffffffffffffffffffffffffffffffffffffffff16815260200190815260200160002060006101000a81548160ff021916908315150217905550601160003373ffffffffffffffffffffffffffffffffffffffff1673ffffffffffffffffffffffffffffffffffffffff168152602001908152602001600020546009600082825403925050819055503373ffffffffffffffffffffffffffffffffffffffff166108fc601160003373ffffffffffffffffffffffffffffffffffffffff1673ffffffffffffffffffffffffffffffffffffffff168152602001908152602001600020549081150290604051600060405180830381858888f19350505050158015611038573d6000803e3d6000fd5b505b565b600d5481565b600f60009054906101000a900473ffffffffffffffffffffffffffffffffffffffff1681565b600c8054600181600116156101000203166002900480601f0160208091040260200160405190810160405280929190818152602001828054600181600116156101000203166002900480156110fe5780601f106110d3576101008083540402835291602001916110fe565b820191906000526020600020905b8154815290600101906020018083116110e157829003601f168201915b505050505081565b600f60009054906101000a900473ffffffffffffffffffffffffffffffffffffffff1673ffffffffffffffffffffffffffffffffffffffff163373ffffffffffffffffffffffffffffffffffffffff16148061125557506000809054906101000a900473ffffffffffffffffffffffffffffffffffffffff1673ffffffffffffffffffffffffffffffffffffffff166324d7806c336040518263ffffffff167c0100000000000000000000000000000000000000000000000000000000028152600401808273ffffffffffffffffffffffffffffffffffffffff1673ffffffffffffffffffffffffffffffffffffffff168152602001915050602060405180830381600087803b15801561121957600080fd5b505af115801561122d573d6000803e3d6000fd5b505050506040513d602081101561124357600080fd5b81019080805190602001909291905050505b151561126057600080fd5b6001600481111561126d57fe5b600860009054906101000a900460ff16600481111561128857fe5b1480156112965750600a5442115b156112f757600d546009541015156112d1576002600860006101000a81548160ff021916908360048111156112c757fe5b02179055506112f6565b6003600860006101000a81548160ff021916908360048111156112f057fe5b02179055505b5b6001600481111561130457fe5b600860009054906101000a900460ff16600481111561131f57fe5b11151561132b57600080fd5b565b60015481565b600042905090565b600f60009054906101000a900473ffffffffffffffffffffffffffffffffffffffff1673ffffffffffffffffffffffffffffffffffffffff163373ffffffffffffffffffffffffffffffffffffffff16148061148a57506000809054906101000a900473ffffffffffffffffffffffffffffffffffffffff1673ffffffffffffffffffffffffffffffffffffffff166324d7806c336040518263ffffffff167c0100000000000000000000000000000000000000000000000000000000028152600401808273ffffffffffffffffffffffffffffffffffffffff1673ffffffffffffffffffffffffffffffffffffffff168152602001915050602060405180830381600087803b15801561144e57600080fd5b505af1158015611462573d6000803e3d6000fd5b505050506040513d602081101561147857600080fd5b81019080805190602001909291905050505b151561149557600080fd5b600160048111156114a257fe5b600860009054906101000a900460ff1660048111156114bd57fe5b1480156114cb5750600a5442115b1561152c57600d54600954101515611506576002600860006101000a81548160ff021916908360048111156114fc57fe5b021790555061152b565b6003600860006101000a81548160ff0219169083600481111561152557fe5b02179055505b5b6001600481111561153957fe5b600860009054906101000a900460ff16600481111561155457fe5b1115151561156157600080fd5b6004600060146101000a81548160ff0219169083600481111561158057fe5b02179055506004600860006101000a81548160ff021916908360048111156115a457fe5b0217905550565b60116020528060005260406000206000915090505481565b6000809054906101000a900473ffffffffffffffffffffffffffffffffffffffff1673ffffffffffffffffffffffffffffffffffffffff166324d7806c336040518263ffffffff167c0100000000000000000000000000000000000000000000000000000000028152600401808273ffffffffffffffffffffffffffffffffffffffff1673ffffffffffffffffffffffffffffffffffffffff168152602001915050602060405180830381600087803b15801561167f57600080fd5b505af1158015611693573d6000803e3d6000fd5b505050506040513d60208110156116a957600080fd5b810190808051906020019092919050505015156116c557600080fd5b60008060048111156116d357fe5b600060149054906101000a900460ff1660048111156116ee57fe5b1415156116fa57600080fd5b81600560003373ffffffffffffffffffffffffffffffffffffffff1673ffffffffffffffffffffffffffffffffffffffff168152602001908152602001600020816000191690555060001515600660003373ffffffffffffffffffffffffffffffffffffffff1673ffffffffffffffffffffffffffffffffffffffff16815260200190815260200160002060009054906101000a900460ff1615151415611806576003600081548092919060010191905055506001600660003373ffffffffffffffffffffffffffffffffffffffff1673ffffffffffffffffffffffffffffffffffffffff16815260200190815260200160002060006101000a81548160ff0219169083151502179055505b600380541415611835576001600060146101000a81548160ff0219169083600481111561182f57fe5b02179055505b5050565b60056020528060005260406000206000915090505481565b6000809054906101000a900473ffffffffffffffffffffffffffffffffffffffff1681565b600b5481565b60076020528060005260406000206000915054906101000a900460ff1681565b60035481565b600a5481565b60095481565b600f60009054906101000a900473ffffffffffffffffffffffffffffffffffffffff1673ffffffffffffffffffffffffffffffffffffffff163373ffffffffffffffffffffffffffffffffffffffff161415151561190b57600080fd5b6001600481111561191857fe5b600860009054906101000a900460ff16600481111561193357fe5b1480156119415750600a5442115b156119a257600d5460095410151561197c576002600860006101000a81548160ff0219169083600481111561197257fe5b02179055506119a1565b6003600860006101000a81548160ff0219169083600481111561199b57fe5b02179055505b5b60018060048111156119b057fe5b600860009054906101000a900460ff1660048111156119cb57fe5b1415156119d757600080fd5b6000341115156119e657600080fd5b60095434600954011115156119fa57600080fd5b601160003373ffffffffffffffffffffffffffffffffffffffff1673ffffffffffffffffffffffffffffffffffffffff1681526020019081526020016000205434601160003373ffffffffffffffffffffffffffffffffffffffff1673ffffffffffffffffffffffffffffffffffffffff1681526020019081526020016000205401111515611a8857600080fd5b6001601260003373ffffffffffffffffffffffffffffffffffffffff1673ffffffffffffffffffffffffffffffffffffffff16815260200190815260200160002060006101000a81548160ff02191690831515021790555060106060604051908101604052803373ffffffffffffffffffffffffffffffffffffffff168152602001348152602001428152509080600181540180825580915050906001820390600052602060002090600302016000909192909190915060008201518160000160006101000a81548173ffffffffffffffffffffffffffffffffffffffff021916908373ffffffffffffffffffffffffffffffffffffffff160217905550602082015181600101556040820151816002015550505034601160003373ffffffffffffffffffffffffffffffffffffffff1673ffffffffffffffffffffffffffffffffffffffff168152602001908152602001600020600082825401925050819055503460096000828254019250508190555050565b6000601080549050905090565b600860009054906101000a900460ff1681565b60025481565b60045481565b600e544201600a819055506001600860006101000a81548160ff02191690836004811115611c5357fe5b0217905550565b6003600860006101000a81548160ff02191690836004811115611c7957fe5b02179055505600a165627a7a723058200ff8027800e5e9fc178010b7796d282a84fe21039ae3dbc42667f62cc423d4a40029",
  "source": "pragma solidity ^0.4.24;\n\nimport \"./EthFundMe.sol\";\n// import \"./Approvable.sol\";\n\n// It is a good practice to structure functions which interact\n// with other contracts (i.e. call functions or send Ether)\n// into three phases:\n// 1. check conditions\n// 2. perform actions (potentially change conditions)\n// 3. interact with other contracts\n// If these phases get mixed up, the other contract might call\n// back into the current contract and change the state or cause\n// effects (ether payout) to be done multiple times.\n// If functions that are called internally include interactions with external\n// contracts, they have to be considered interaction with\n// external contracts too.\n\ncontract Administrated {\n  EthFundMe public efm;\n  \n  constructor(address efmAddress) public {\n    efm = EthFundMe(efmAddress);\n  }\n\n  modifier onlyAdmin {\n    require(efm.isAdmin(msg.sender));\n    _;\n  }\n\n}\n\ncontract Approvable is Administrated {\n\n  /**\n    DATA STRUCTURES\n   */\n\n  enum ApprovalStates {\n    Commit,\n    Reveal,\n    Approved,\n    Rejected,\n    Cancelled\n  }\n\n  ApprovalStates public approvalState = ApprovalStates.Commit;\n\n  /**\n    STATE VARIABLES\n   */\n\n  uint public numApprovals;\n  uint public numRejections;\n\n  uint public numVoteSecrets;\n  uint public numVoteReveals;\n\n  mapping(address => bytes32) public voteSecrets;\n  mapping(address => bool) public hasVoted;\n  mapping(address => bool) public hasRevealed;\n\n  /**\n    CONSTRUCTOR\n   */\n\n  constructor(address efmAddress) Administrated(efmAddress) public {\n    \n  }\n\n  /**\n    ABSTRACT FUNCTIONS\n   */\n\n  function onApproval() internal;\n  function onRejection() internal;\n\n  /**\n    MODIFIERS\n   */\n\n  // ACCESS RESTRICTION\n\n  modifier onlyVotedAdmin() {\n    require(hasVoted[msg.sender] == true);\n    _;\n  }\n\n  modifier onlyNotRevealedAdmin() {\n    require(hasRevealed[msg.sender] == false);\n    _;\n  }\n\n  // STATE MANAGEMENT\n\n  modifier onlyDuringApprovalState(ApprovalStates _approvalState) {\n    require(approvalState == _approvalState);\n    _;\n  }\n\n  modifier endCommit() {\n    _;\n    if (numVoteSecrets == 3) {\n      approvalState = ApprovalStates.Reveal;\n    }\n  }\n\n  // Doesn't require all votes to be revealed only enough.\n  modifier endReveal() {\n    _;\n    if (numApprovals >= 2) {\n      approvalState = ApprovalStates.Approved;\n      onApproval();\n    } \n    if (numRejections >= 2) {\n      approvalState = ApprovalStates.Rejected;\n      onRejection();\n    }\n  }\n\n  /**\n    INTERFACE\n   */\n\n  function vote(bytes32 secretVote) public \n    onlyAdmin \n    onlyDuringApprovalState(ApprovalStates.Commit) \n    endCommit {\n      voteSecrets[msg.sender] = secretVote;\n      if (hasVoted[msg.sender] == false) {\n        numVoteSecrets++;\n        hasVoted[msg.sender] = true;\n    }\n  }\n\n  function reveal(bool voteOption, uint salt) public \n    onlyVotedAdmin \n    onlyNotRevealedAdmin\n    onlyDuringApprovalState(ApprovalStates.Reveal) \n    endReveal {\n      require(keccak256(abi.encodePacked(voteOption, salt)) == voteSecrets[msg.sender]);\n\n      if (voteOption) {\n        numApprovals++;\n      } else {\n        numRejections++;\n      }\n\n      numVoteReveals++;\n      hasRevealed[msg.sender] = true;\n  }\n}\n\ncontract Campaign is Approvable {\n\n  /**\n    DATA STRUCTURES \n   */\n\n\n  enum CampaignStates {\n    Pending,\n    Active,\n    Successful,\n    Unsuccessful,\n    Cancelled\n  }\n\n  struct Contribution {\n    address addr;\n    uint amount;\n    uint timestamp;\n  }\n\n  /**\n    STATE VARIABLES\n   */\n\n  CampaignStates public campaignState = CampaignStates.Pending;\n  uint public funds = address(this).balance;\n  uint public endDate;\n\n  uint public id;\n  string public title;\n  uint public goal;\n  uint public duration;\n  address public manager;\n\n  Contribution[] public contributions;\n  mapping (address => uint) public totalContributed;\n  mapping (address => bool) public hasContributed;\n  mapping (address => bool) hasWithdrawn;\n\n\n  /**\n    CONSTRUCTOR\n   */\n\n  constructor(\n    uint _id, \n    string _title, \n    uint _goal,  \n    uint _duration, \n    address _manager, \n    address efmAddress\n  ) Approvable(efmAddress) public {\n    id = _id;\n    title = _title;\n    goal = _goal;\n    duration = _duration * 1 days;\n    manager = _manager;\n  }\n\n  // STATE TRANSITION/RESTRICTION\n\n  modifier onlyDuringCampaignState(CampaignStates _campaignState) {\n    require(campaignState == _campaignState);\n    _;\n  }\n\n  modifier onlyBeforeCampaignEnd() {\n    require(campaignState <= CampaignStates.Active);\n    _;\n  }\n\n  modifier onlyAfterCampaignEnd() {\n    require(campaignState > CampaignStates.Active);\n    _;\n  }\n\n  // FIXME: Could be renamed to endCampaign\n  modifier transitionState() {\n    if (campaignState == CampaignStates.Active && block.timestamp > endDate\n    ) {\n      \n      if (funds >= goal) {\n        campaignState = CampaignStates.Successful;\n      } else {\n        campaignState = CampaignStates.Unsuccessful;\n      }\n\n    }\n    _;\n  }\n\n  // ACCESS RESTRICTION\n\n  modifier notManager() {\n    require(msg.sender != manager);\n    _;\n  }\n\n  modifier onlyManagerOrAdmin() {\n    require(msg.sender == manager || efm.isAdmin(msg.sender));\n    _;\n  }\n\n  modifier hasNotWithdrawn() {\n    require(hasWithdrawn[msg.sender] == false);\n    _;\n  }\n\n  // INPUT VALIDATION\n\n  modifier validateContribution() {\n    //No Zero Contributions\n    require(msg.value > 0); \n     //Integer Overflow Protection\n    require(funds + msg.value > funds);\n    require(totalContributed[msg.sender] + msg.value > totalContributed[msg.sender]);\n    _;\n  }\n  \n  /**\n    FUNCTIONS\n   */\n\n  // INTERNAL FUNCTIONS\n\n  function onApproval() internal {\n    endDate = now + duration;\n    campaignState = CampaignStates.Active;\n  }\n\n  function onRejection() internal {\n    campaignState = CampaignStates.Unsuccessful;\n  }\n\n  // INTERFACE\n\n  function contribute() public payable \n    notManager \n    transitionState\n    onlyDuringCampaignState(CampaignStates.Active)\n    validateContribution {\n      hasContributed[msg.sender] = true;\n      contributions.push(Contribution(msg.sender, msg.value, now));\n      totalContributed[msg.sender] += msg.value;\n      funds += msg.value;\n    }\n  \n  function cancelCampaign() public\n    onlyManagerOrAdmin\n    transitionState\n    onlyBeforeCampaignEnd\n    {\n      approvalState = ApprovalStates.Cancelled;\n      campaignState = CampaignStates.Cancelled;\n    }\n\n  // FIXME: Consider removing this function. It's essentially unnecessary since withdraw will end the campaign\n  // but it exists as a formal way of ending the campaign.\n  function endCampaign() public \n    onlyManagerOrAdmin\n    transitionState\n    onlyAfterCampaignEnd\n    {\n    }\n\n  function withdraw() public \n    hasNotWithdrawn\n    transitionState \n    onlyAfterCampaignEnd {\n      if (campaignState == CampaignStates.Successful) {\n        require(msg.sender == manager);\n        hasWithdrawn[msg.sender] = true;\n        funds = 0;\n        msg.sender.transfer(funds);\n      }\n\n      if(campaignState == CampaignStates.Unsuccessful || campaignState == CampaignStates.Cancelled) {\n        require(hasContributed[msg.sender] == true);\n        hasWithdrawn[msg.sender] = true;\n        funds -= totalContributed[msg.sender];\n        msg.sender.transfer(totalContributed[msg.sender]);\n      }\n  }\n\n  // GETTERS\n  // FIXME: Should the getters transition state?\n  // Decide this when building the frontend. If it can help update state correctly in the frontend it\n  // might be a good idea, otherwise it's unneccessary.\n\n  function getNumContributions() public view returns(uint numContributions) {\n    return contributions.length;\n  }\n\n  // HELPERS\n\n  function isActive() public view returns(bool) {\n    return (block.timestamp < endDate);\n  }\n\n  function getBlockTimestamp() public view returns(uint) {\n    return block.timestamp;\n  }\n\n}",
  "sourcePath": "C:\\Users\\jalal\\GitHub\\EthFundMe\\contracts\\Campaign.sol",
  "compiler": {
    "name": "solc",
    "version": "0.4.24+commit.e67f0147.Emscripten.clang"
  },
  "schemaVersion": "2.0.1",
  "updatedAt": "2018-08-09T11:53:54.852Z"
}