{
  "contractName": "Campaign",
  "abi": [
    {
      "constant": true,
      "inputs": [
        {
          "name": "",
          "type": "address"
        }
      ],
      "name": "hasVoted",
      "outputs": [
        {
          "name": "",
          "type": "bool"
        }
      ],
      "payable": false,
      "stateMutability": "view",
      "type": "function"
    },
    {
      "constant": true,
      "inputs": [],
      "name": "duration",
      "outputs": [
        {
          "name": "",
          "type": "uint256"
        }
      ],
      "payable": false,
      "stateMutability": "view",
      "type": "function"
    },
    {
      "constant": false,
      "inputs": [],
      "name": "stopContract",
      "outputs": [],
      "payable": false,
      "stateMutability": "nonpayable",
      "type": "function"
    },
    {
      "constant": true,
      "inputs": [],
      "name": "approvalState",
      "outputs": [
        {
          "name": "",
          "type": "uint8"
        }
      ],
      "payable": false,
      "stateMutability": "view",
      "type": "function"
    },
    {
      "constant": true,
      "inputs": [
        {
          "name": "",
          "type": "uint256"
        }
      ],
      "name": "contributions",
      "outputs": [
        {
          "name": "addr",
          "type": "address"
        },
        {
          "name": "amount",
          "type": "uint256"
        },
        {
          "name": "timestamp",
          "type": "uint256"
        }
      ],
      "payable": false,
      "stateMutability": "view",
      "type": "function"
    },
    {
      "constant": true,
      "inputs": [
        {
          "name": "",
          "type": "address"
        }
      ],
      "name": "hasContributed",
      "outputs": [
        {
          "name": "",
          "type": "bool"
        }
      ],
      "payable": false,
      "stateMutability": "view",
      "type": "function"
    },
    {
      "constant": false,
      "inputs": [
        {
          "name": "voteOption",
          "type": "bool"
        },
        {
          "name": "salt",
          "type": "uint256"
        }
      ],
      "name": "reveal",
      "outputs": [],
      "payable": false,
      "stateMutability": "nonpayable",
      "type": "function"
    },
    {
      "constant": true,
      "inputs": [],
      "name": "isStopped",
      "outputs": [
        {
          "name": "",
          "type": "bool"
        }
      ],
      "payable": false,
      "stateMutability": "view",
      "type": "function"
    },
    {
      "constant": true,
      "inputs": [],
      "name": "goal",
      "outputs": [
        {
          "name": "",
          "type": "uint256"
        }
      ],
      "payable": false,
      "stateMutability": "view",
      "type": "function"
    },
    {
      "constant": true,
      "inputs": [],
      "name": "manager",
      "outputs": [
        {
          "name": "",
          "type": "address"
        }
      ],
      "payable": false,
      "stateMutability": "view",
      "type": "function"
    },
    {
      "constant": true,
      "inputs": [],
      "name": "title",
      "outputs": [
        {
          "name": "",
          "type": "string"
        }
      ],
      "payable": false,
      "stateMutability": "view",
      "type": "function"
    },
    {
      "constant": true,
      "inputs": [
        {
          "name": "",
          "type": "address"
        }
      ],
      "name": "hasWithdrawn",
      "outputs": [
        {
          "name": "",
          "type": "bool"
        }
      ],
      "payable": false,
      "stateMutability": "view",
      "type": "function"
    },
    {
      "constant": true,
      "inputs": [],
      "name": "description",
      "outputs": [
        {
          "name": "",
          "type": "string"
        }
      ],
      "payable": false,
      "stateMutability": "view",
      "type": "function"
    },
    {
      "constant": true,
      "inputs": [],
      "name": "numApprovals",
      "outputs": [
        {
          "name": "",
          "type": "uint256"
        }
      ],
      "payable": false,
      "stateMutability": "view",
      "type": "function"
    },
    {
      "constant": true,
      "inputs": [
        {
          "name": "",
          "type": "address"
        }
      ],
      "name": "totalContributed",
      "outputs": [
        {
          "name": "",
          "type": "uint256"
        }
      ],
      "payable": false,
      "stateMutability": "view",
      "type": "function"
    },
    {
      "constant": false,
      "inputs": [
        {
          "name": "secretVote",
          "type": "bytes32"
        }
      ],
      "name": "vote",
      "outputs": [],
      "payable": false,
      "stateMutability": "nonpayable",
      "type": "function"
    },
    {
      "constant": true,
      "inputs": [
        {
          "name": "",
          "type": "address"
        }
      ],
      "name": "voteSecrets",
      "outputs": [
        {
          "name": "",
          "type": "bytes32"
        }
      ],
      "payable": false,
      "stateMutability": "view",
      "type": "function"
    },
    {
      "constant": true,
      "inputs": [],
      "name": "id",
      "outputs": [
        {
          "name": "",
          "type": "uint256"
        }
      ],
      "payable": false,
      "stateMutability": "view",
      "type": "function"
    },
    {
      "constant": true,
      "inputs": [
        {
          "name": "",
          "type": "address"
        }
      ],
      "name": "hasRevealed",
      "outputs": [
        {
          "name": "",
          "type": "bool"
        }
      ],
      "payable": false,
      "stateMutability": "view",
      "type": "function"
    },
    {
      "constant": true,
      "inputs": [],
      "name": "numVoteSecrets",
      "outputs": [
        {
          "name": "",
          "type": "uint256"
        }
      ],
      "payable": false,
      "stateMutability": "view",
      "type": "function"
    },
    {
      "constant": true,
      "inputs": [],
      "name": "endDate",
      "outputs": [
        {
          "name": "",
          "type": "uint256"
        }
      ],
      "payable": false,
      "stateMutability": "view",
      "type": "function"
    },
    {
      "constant": false,
      "inputs": [],
      "name": "resumeContract",
      "outputs": [],
      "payable": false,
      "stateMutability": "nonpayable",
      "type": "function"
    },
    {
      "constant": true,
      "inputs": [],
      "name": "funds",
      "outputs": [
        {
          "name": "",
          "type": "uint256"
        }
      ],
      "payable": false,
      "stateMutability": "view",
      "type": "function"
    },
    {
      "constant": true,
      "inputs": [],
      "name": "administrated",
      "outputs": [
        {
          "name": "",
          "type": "address"
        }
      ],
      "payable": false,
      "stateMutability": "view",
      "type": "function"
    },
    {
      "constant": true,
      "inputs": [],
      "name": "image",
      "outputs": [
        {
          "name": "",
          "type": "string"
        }
      ],
      "payable": false,
      "stateMutability": "view",
      "type": "function"
    },
    {
      "constant": true,
      "inputs": [],
      "name": "campaignState",
      "outputs": [
        {
          "name": "",
          "type": "uint8"
        }
      ],
      "payable": false,
      "stateMutability": "view",
      "type": "function"
    },
    {
      "constant": true,
      "inputs": [],
      "name": "numRejections",
      "outputs": [
        {
          "name": "",
          "type": "uint256"
        }
      ],
      "payable": false,
      "stateMutability": "view",
      "type": "function"
    },
    {
      "constant": true,
      "inputs": [],
      "name": "numVoteReveals",
      "outputs": [
        {
          "name": "",
          "type": "uint256"
        }
      ],
      "payable": false,
      "stateMutability": "view",
      "type": "function"
    },
    {
      "inputs": [
        {
          "name": "_id",
          "type": "uint256"
        },
        {
          "name": "_title",
          "type": "string"
        },
        {
          "name": "_goal",
          "type": "uint256"
        },
        {
          "name": "_duration",
          "type": "uint256"
        },
        {
          "name": "_description",
          "type": "string"
        },
        {
          "name": "_image",
          "type": "string"
        },
        {
          "name": "_manager",
          "type": "address"
        },
        {
          "name": "administratedAddress",
          "type": "address"
        }
      ],
      "payable": false,
      "stateMutability": "nonpayable",
      "type": "constructor"
    },
    {
      "anonymous": false,
      "inputs": [
        {
          "indexed": false,
          "name": "startDate",
          "type": "uint256"
        }
      ],
      "name": "campaignStarted",
      "type": "event"
    },
    {
      "anonymous": false,
      "inputs": [
        {
          "indexed": false,
          "name": "endDate",
          "type": "uint256"
        },
        {
          "indexed": false,
          "name": "isSuccessful",
          "type": "bool"
        }
      ],
      "name": "campaignEnded",
      "type": "event"
    },
    {
      "anonymous": false,
      "inputs": [
        {
          "indexed": false,
          "name": "cancelledDate",
          "type": "uint256"
        }
      ],
      "name": "campaignCancelled",
      "type": "event"
    },
    {
      "anonymous": false,
      "inputs": [
        {
          "indexed": false,
          "name": "contributor",
          "type": "address"
        },
        {
          "indexed": false,
          "name": "amount",
          "type": "uint256"
        }
      ],
      "name": "contributionMade",
      "type": "event"
    },
    {
      "anonymous": false,
      "inputs": [
        {
          "indexed": false,
          "name": "beneficiary",
          "type": "address"
        },
        {
          "indexed": false,
          "name": "amount",
          "type": "uint256"
        }
      ],
      "name": "withdrawlMade",
      "type": "event"
    },
    {
      "anonymous": false,
      "inputs": [
        {
          "indexed": true,
          "name": "voteCommiter",
          "type": "address"
        }
      ],
      "name": "voteCommitted",
      "type": "event"
    },
    {
      "anonymous": false,
      "inputs": [
        {
          "indexed": true,
          "name": "voteRevealer",
          "type": "address"
        }
      ],
      "name": "voteRevealed",
      "type": "event"
    },
    {
      "anonymous": false,
      "inputs": [],
      "name": "allVotesComitted",
      "type": "event"
    },
    {
      "anonymous": false,
      "inputs": [
        {
          "indexed": false,
          "name": "isApproved",
          "type": "bool"
        }
      ],
      "name": "votePassed",
      "type": "event"
    },
    {
      "constant": false,
      "inputs": [],
      "name": "contribute",
      "outputs": [],
      "payable": true,
      "stateMutability": "payable",
      "type": "function"
    },
    {
      "constant": false,
      "inputs": [],
      "name": "cancelCampaign",
      "outputs": [],
      "payable": false,
      "stateMutability": "nonpayable",
      "type": "function"
    },
    {
      "constant": false,
      "inputs": [],
      "name": "endCampaign",
      "outputs": [],
      "payable": false,
      "stateMutability": "nonpayable",
      "type": "function"
    },
    {
      "constant": false,
      "inputs": [],
      "name": "withdraw",
      "outputs": [],
      "payable": false,
      "stateMutability": "nonpayable",
      "type": "function"
    },
    {
      "constant": false,
      "inputs": [],
      "name": "emergencyWithdraw",
      "outputs": [],
      "payable": false,
      "stateMutability": "nonpayable",
      "type": "function"
    },
    {
      "constant": true,
      "inputs": [],
      "name": "getNumContributions",
      "outputs": [
        {
          "name": "numContributions",
          "type": "uint256"
        }
      ],
      "payable": false,
      "stateMutability": "view",
      "type": "function"
    },
    {
      "constant": true,
      "inputs": [],
      "name": "getTotalContributedFunds",
      "outputs": [
        {
          "name": "",
          "type": "uint256"
        }
      ],
      "payable": false,
      "stateMutability": "view",
      "type": "function"
    },
    {
      "constant": true,
      "inputs": [],
      "name": "isActive",
      "outputs": [
        {
          "name": "",
          "type": "bool"
        }
      ],
      "payable": false,
      "stateMutability": "view",
      "type": "function"
    },
    {
      "constant": true,
      "inputs": [],
      "name": "getBlockTimestamp",
      "outputs": [
        {
          "name": "",
          "type": "uint256"
        }
      ],
      "payable": false,
      "stateMutability": "view",
      "type": "function"
    },
    {
      "constant": false,
      "inputs": [],
      "name": "transitionCampaign",
      "outputs": [],
      "payable": false,
      "stateMutability": "nonpayable",
      "type": "function"
    },
    {
      "constant": true,
      "inputs": [],
      "name": "getCampaignState",
      "outputs": [
        {
          "name": "",
          "type": "uint256"
        }
      ],
      "payable": false,
      "stateMutability": "view",
      "type": "function"
    }
  ],
  "bytecode": "0x608060405260008060006101000a81548160ff0219169083151502179055506000600660006101000a81548160ff021916908360048111156200003e57fe5b021790555060016009556000600a60006101000a81548160ff021916908360048111156200006857fe5b02179055503073ffffffffffffffffffffffffffffffffffffffff1631600b553480156200009557600080fd5b50604051620036b2380380620036b2833981018060405281019080805190602001909291908051820192919060200180519060200190929190805190602001909291908051820192919060200180518201929190602001805190602001909291908051906020019092919050505087600d8190555086600e908051906020019062000122929190620001f8565b5085600f8190555062015180850260108190555083601190805190602001906200014e929190620001f8565b50826012908051906020019062000167929190620001f8565b5081601360006101000a81548173ffffffffffffffffffffffffffffffffffffffff021916908373ffffffffffffffffffffffffffffffffffffffff16021790555080600a60016101000a81548173ffffffffffffffffffffffffffffffffffffffff021916908373ffffffffffffffffffffffffffffffffffffffff1602179055505050505050505050620002a7565b828054600181600116156101000203166002900490600052602060002090601f016020900481019282601f106200023b57805160ff19168380011785556200026c565b828001600101855582156200026c579182015b828111156200026b5782518255916020019190600101906200024e565b5b5090506200027b91906200027f565b5090565b620002a491905b80821115620002a057600081600090555060010162000286565b5090565b90565b6133fb80620002b76000396000f3006080604052600436106101e3576000357c0100000000000000000000000000000000000000000000000000000000900463ffffffff16806309eef43e146101e85780630fb5a6b41461024357806312253a6c1461026e5780631afcf159146102855780631cee0700146102be578063205b19461461033957806322f3e2d41461039457806339f3027d146103c35780633ccfd60b146103fc5780633f683b6a146104135780634019388314610442578063481c6a751461046d5780634a79d50c146104c45780635e2c19db1461055457806365325386146105af57806371aac7f9146105da5780637284e416146105f15780637403c5e514610681578063796b89b9146106ac5780637fb3761e146106d7578063980e784414610702578063a0f243b814610719578063a69beaba14610770578063aac08345146107a1578063ab45be4214610800578063af640d0f14610817578063b9a5301314610842578063c17c5cf01461089d578063c24a0f8b146108c8578063c4bc5da5146108f3578063c89f2ce41461090a578063d7bb99ba14610935578063db2e21bc1461093f578063e2d3b70914610956578063e70ac62c146109ad578063f3ccaac0146109d8578063f4c9b1fd14610a68578063f81292c114610aa1578063facd493914610acc575b600080fd5b3480156101f457600080fd5b50610229600480360381019080803573ffffffffffffffffffffffffffffffffffffffff169060200190929190505050610af7565b604051808215151515815260200191505060405180910390f35b34801561024f57600080fd5b50610258610b17565b6040518082815260200191505060405180910390f35b34801561027a57600080fd5b50610283610b1d565b005b34801561029157600080fd5b5061029a610bb5565b604051808260048111156102aa57fe5b60ff16815260200191505060405180910390f35b3480156102ca57600080fd5b506102e960048036038101908080359060200190929190505050610bc8565b604051808473ffffffffffffffffffffffffffffffffffffffff1673ffffffffffffffffffffffffffffffffffffffff168152602001838152602001828152602001935050505060405180910390f35b34801561034557600080fd5b5061037a600480360381019080803573ffffffffffffffffffffffffffffffffffffffff169060200190929190505050610c21565b604051808215151515815260200191505060405180910390f35b3480156103a057600080fd5b506103a9610c41565b604051808215151515815260200191505060405180910390f35b3480156103cf57600080fd5b506103fa60048036038101908080351515906020019092919080359060200190929190505050610c4d565b005b34801561040857600080fd5b50610411611262565b005b34801561041f57600080fd5b506104286115a2565b604051808215151515815260200191505060405180910390f35b34801561044e57600080fd5b506104576115b4565b6040518082815260200191505060405180910390f35b34801561047957600080fd5b506104826115ba565b604051808273ffffffffffffffffffffffffffffffffffffffff1673ffffffffffffffffffffffffffffffffffffffff16815260200191505060405180910390f35b3480156104d057600080fd5b506104d96115e0565b6040518080602001828103825283818151815260200191508051906020019080838360005b838110156105195780820151818401526020810190506104fe565b50505050905090810190601f1680156105465780820380516001836020036101000a031916815260200191505b509250505060405180910390f35b34801561056057600080fd5b50610595600480360381019080803573ffffffffffffffffffffffffffffffffffffffff16906020019092919050505061167e565b604051808215151515815260200191505060405180910390f35b3480156105bb57600080fd5b506105c461169e565b6040518082815260200191505060405180910390f35b3480156105e657600080fd5b506105ef6116f2565b005b3480156105fd57600080fd5b50610606611b01565b6040518080602001828103825283818151815260200191508051906020019080838360005b8381101561064657808201518184015260208101905061062b565b50505050905090810190601f1680156106735780820380516001836020036101000a031916815260200191505b509250505060405180910390f35b34801561068d57600080fd5b50610696611b9f565b6040518082815260200191505060405180910390f35b3480156106b857600080fd5b506106c1611ba5565b6040518082815260200191505060405180910390f35b3480156106e357600080fd5b506106ec611bad565b6040518082815260200191505060405180910390f35b34801561070e57600080fd5b50610717611bcf565b005b34801561072557600080fd5b5061075a600480360381019080803573ffffffffffffffffffffffffffffffffffffffff169060200190929190505050611ece565b6040518082815260200191505060405180910390f35b34801561077c57600080fd5b5061079f6004803603810190808035600019169060200190929190505050611ee6565b005b3480156107ad57600080fd5b506107e2600480360381019080803573ffffffffffffffffffffffffffffffffffffffff169060200190929190505050612239565b60405180826000191660001916815260200191505060405180910390f35b34801561080c57600080fd5b50610815612251565b005b34801561082357600080fd5b5061082c61236e565b6040518082815260200191505060405180910390f35b34801561084e57600080fd5b50610883600480360381019080803573ffffffffffffffffffffffffffffffffffffffff169060200190929190505050612374565b604051808215151515815260200191505060405180910390f35b3480156108a957600080fd5b506108b2612394565b6040518082815260200191505060405180910390f35b3480156108d457600080fd5b506108dd61239a565b6040518082815260200191505060405180910390f35b3480156108ff57600080fd5b506109086123a0565b005b34801561091657600080fd5b5061091f612438565b6040518082815260200191505060405180910390f35b61093d61243e565b005b34801561094b57600080fd5b50610954612a46565b005b34801561096257600080fd5b5061096b612be2565b604051808273ffffffffffffffffffffffffffffffffffffffff1673ffffffffffffffffffffffffffffffffffffffff16815260200191505060405180910390f35b3480156109b957600080fd5b506109c2612c08565b6040518082815260200191505060405180910390f35b3480156109e457600080fd5b506109ed612c15565b6040518080602001828103825283818151815260200191508051906020019080838360005b83811015610a2d578082015181840152602081019050610a12565b50505050905090810190601f168015610a5a5780820380516001836020036101000a031916815260200191505b509250505060405180910390f35b348015610a7457600080fd5b50610a7d612cb3565b60405180826004811115610a8d57fe5b60ff16815260200191505060405180910390f35b348015610aad57600080fd5b50610ab6612cc6565b6040518082815260200191505060405180910390f35b348015610ad857600080fd5b50610ae1612ccc565b6040518082815260200191505060405180910390f35b60026020528060005260406000206000915054906101000a900460ff1681565b60105481565b610b25612cd2565b1515610b99576040517f08c379a000000000000000000000000000000000000000000000000000000000815260040180806020018281038252600f8152602001807f4f6e6c7920617574686f72697a6564000000000000000000000000000000000081525060200191505060405180910390fd5b60016000806101000a81548160ff021916908315150217905550565b600660009054906101000a900460ff1681565b601481815481101515610bd757fe5b90600052602060002090600302016000915090508060000160009054906101000a900473ffffffffffffffffffffffffffffffffffffffff16908060010154908060020154905083565b60166020528060005260406000206000915054906101000a900460ff1681565b6000600c544210905090565b6000809054906101000a900460ff16151515610cd1576040517f08c379a00000000000000000000000000000000000000000000000000000000081526004018080602001828103825260208152602001807f66756e6374696f6e2069732073746f7070656420696e20656d657267656e637981525060200191505060405180910390fd5b60011515600260003373ffffffffffffffffffffffffffffffffffffffff1673ffffffffffffffffffffffffffffffffffffffff16815260200190815260200160002060009054906101000a900460ff161515141515610d99576040517f08c379a00000000000000000000000000000000000000000000000000000000081526004018080602001828103825260158152602001807f4163636f756e7420686173206e6f7420766f746564000000000000000000000081525060200191505060405180910390fd5b60001515600360003373ffffffffffffffffffffffffffffffffffffffff1673ffffffffffffffffffffffffffffffffffffffff16815260200190815260200160002060009054906101000a900460ff161515141515610e61576040517f08c379a000000000000000000000000000000000000000000000000000000000815260040180806020018281038252601c8152602001807f4163636f756e742068617320616c72656164792072657665616c65640000000081525060200191505060405180910390fd5b6001806004811115610e6f57fe5b600660009054906101000a900460ff166004811115610e8a57fe5b141515610eff576040517f08c379a00000000000000000000000000000000000000000000000000000000081526004018080602001828103825260168152602001807f496e76616c696420617070726f76616c2073746174650000000000000000000081525060200191505060405180910390fd5b600080600160003373ffffffffffffffffffffffffffffffffffffffff1673ffffffffffffffffffffffffffffffffffffffff168152602001908152602001600020546000191685856040516020018083151515157f0100000000000000000000000000000000000000000000000000000000000000028152600101828152602001925050506040516020818303038152906040526040518082805190602001908083835b602083101515610fc95780518252602082019150602081019050602083039250610fa4565b6001836020036101000a03801982511681845116808217855250505050505090500191505060405180910390206000191614151561106f576040517f08c379a00000000000000000000000000000000000000000000000000000000081526004018080602001828103825260198152602001807f566f7465207365637265747320646f206e6f74206d617463680000000000000081525060200191505060405180910390fd5b841561108c5760076000815480929190600101919050555061109f565b6008600081548092919060010191905055505b6005600081548092919060010191905055506001600360003373ffffffffffffffffffffffffffffffffffffffff1673ffffffffffffffffffffffffffffffffffffffff16815260200190815260200160002060006101000a81548160ff0219169083151502179055503373ffffffffffffffffffffffffffffffffffffffff167faac607b7c8f3c85450600d535f6327d068a498f27ac0107b252c11e6f69afce460405160405180910390a2611154612dd1565b915060028281151561116257fe5b0660028381151561116f57fe5b04019050806007541015156111e7576002600660006101000a81548160ff0219169083600481111561119d57fe5b02179055506111aa612e99565b7f98788f3a438dcc998b20544951a23a4bbf522b2c4897ea44b2e3b696d3ea08cb6001604051808215151515815260200191505060405180910390a15b8060085410151561125b576003600660006101000a81548160ff0219169083600481111561121157fe5b021790555061121e612f01565b7f98788f3a438dcc998b20544951a23a4bbf522b2c4897ea44b2e3b696d3ea08cb6000604051808215151515815260200191505060405180910390a15b5050505050565b6000809054906101000a900460ff161515156112e6576040517f08c379a00000000000000000000000000000000000000000000000000000000081526004018080602001828103825260208152602001807f66756e6374696f6e2069732073746f7070656420696e20656d657267656e637981525060200191505060405180910390fd5b60016009541415156112f757600080fd5b600260098190555060001515601760003373ffffffffffffffffffffffffffffffffffffffff1673ffffffffffffffffffffffffffffffffffffffff16815260200190815260200160002060009054906101000a900460ff1615151415156113c7576040517f08c379a000000000000000000000000000000000000000000000000000000000815260040180806020018281038252601a8152602001807f557365722068617320616c72656164792077697468647261776e00000000000081525060200191505060405180910390fd5b600160048111156113d457fe5b600a60009054906101000a900460ff1660048111156113ef57fe5b1480156113fd5750600c5442115b1561145e57600f54600b54101515611438576002600a60006101000a81548160ff0219169083600481111561142e57fe5b021790555061145d565b6003600a60006101000a81548160ff0219169083600481111561145757fe5b02179055505b5b6001600481111561146b57fe5b600a60009054906101000a900460ff16600481111561148657fe5b1115156114fb576040517f08c379a00000000000000000000000000000000000000000000000000000000081526004018080602001828103825260188152602001807f43616d706169676e206d757374206861766520656e646564000000000000000081525060200191505060405180910390fd5b6002600481111561150857fe5b600a60009054906101000a900460ff16600481111561152357fe5b141561153257611531612f27565b5b6003600481111561153f57fe5b600a60009054906101000a900460ff16600481111561155a57fe5b148061158a575060048081111561156d57fe5b600a60009054906101000a900460ff16600481111561158857fe5b145b156115985761159761312e565b5b6001600981905550565b6000809054906101000a900460ff1681565b600f5481565b601360009054906101000a900473ffffffffffffffffffffffffffffffffffffffff1681565b600e8054600181600116156101000203166002900480601f0160208091040260200160405190810160405280929190818152602001828054600181600116156101000203166002900480156116765780601f1061164b57610100808354040283529160200191611676565b820191906000526020600020905b81548152906001019060200180831161165957829003601f168201915b505050505081565b60176020528060005260406000206000915054906101000a900460ff1681565b6000806000809150600090505b6014805490508110156116ea576014818154811015156116c757fe5b9060005260206000209060030201600101548201915080806001019150506116ab565b819250505090565b6000809054906101000a900460ff16151515611776576040517f08c379a00000000000000000000000000000000000000000000000000000000081526004018080602001828103825260208152602001807f66756e6374696f6e2069732073746f7070656420696e20656d657267656e637981525060200191505060405180910390fd5b601360009054906101000a900473ffffffffffffffffffffffffffffffffffffffff1673ffffffffffffffffffffffffffffffffffffffff163373ffffffffffffffffffffffffffffffffffffffff1614806118c65750600a60019054906101000a900473ffffffffffffffffffffffffffffffffffffffff1673ffffffffffffffffffffffffffffffffffffffff166324d7806c336040518263ffffffff167c0100000000000000000000000000000000000000000000000000000000028152600401808273ffffffffffffffffffffffffffffffffffffffff1673ffffffffffffffffffffffffffffffffffffffff168152602001915050602060405180830381600087803b15801561188a57600080fd5b505af115801561189e573d6000803e3d6000fd5b505050506040513d60208110156118b457600080fd5b81019080805190602001909291905050505b1515611960576040517f08c379a00000000000000000000000000000000000000000000000000000000081526004018080602001828103825260298152602001807f4f6e6c792063616d706169676e206d616e61676572206f722061646d696e206181526020017f7574686f72697a6564000000000000000000000000000000000000000000000081525060400191505060405180910390fd5b6001600481111561196d57fe5b600a60009054906101000a900460ff16600481111561198857fe5b1480156119965750600c5442115b156119f757600f54600b541015156119d1576002600a60006101000a81548160ff021916908360048111156119c757fe5b02179055506119f6565b6003600a60006101000a81548160ff021916908360048111156119f057fe5b02179055505b5b60016004811115611a0457fe5b600a60009054906101000a900460ff166004811115611a1f57fe5b111515611a94576040517f08c379a00000000000000000000000000000000000000000000000000000000081526004018080602001828103825260188152602001807f43616d706169676e206d757374206861766520656e646564000000000000000081525060200191505060405180910390fd5b7f021049c8b5f373d2d98ff4dcef92b9028b544188c5adea38f2f11807afd5bff14260026004811115611ac357fe5b600a60009054906101000a900460ff166004811115611ade57fe5b1460405180838152602001821515151581526020019250505060405180910390a1565b60118054600181600116156101000203166002900480601f016020809104026020016040519081016040528092919081815260200182805460018160011615610100020316600290048015611b975780601f10611b6c57610100808354040283529160200191611b97565b820191906000526020600020905b815481529060010190602001808311611b7a57829003601f168201915b505050505081565b60075481565b600042905090565b6000600a60009054906101000a900460ff166004811115611bca57fe5b905090565b6000809054906101000a900460ff16151515611c53576040517f08c379a00000000000000000000000000000000000000000000000000000000081526004018080602001828103825260208152602001807f66756e6374696f6e2069732073746f7070656420696e20656d657267656e637981525060200191505060405180910390fd5b601360009054906101000a900473ffffffffffffffffffffffffffffffffffffffff1673ffffffffffffffffffffffffffffffffffffffff163373ffffffffffffffffffffffffffffffffffffffff16141515611d18576040517f08c379a00000000000000000000000000000000000000000000000000000000081526004018080602001828103825260208152602001807f4f6e6c792063616d706169676e206d616e6167657220617574686f72697a656481525060200191505060405180910390fd5b60016004811115611d2557fe5b600a60009054906101000a900460ff166004811115611d4057fe5b148015611d4e5750600c5442115b15611daf57600f54600b54101515611d89576002600a60006101000a81548160ff02191690836004811115611d7f57fe5b0217905550611dae565b6003600a60006101000a81548160ff02191690836004811115611da857fe5b02179055505b5b60016004811115611dbc57fe5b600a60009054906101000a900460ff166004811115611dd757fe5b11151515611e4d576040517f08c379a00000000000000000000000000000000000000000000000000000000081526004018080602001828103825260178152602001807f43616d706169676e206d7573742062652061637469766500000000000000000081525060200191505060405180910390fd5b6004600660006101000a81548160ff02191690836004811115611e6c57fe5b02179055506004600a60006101000a81548160ff02191690836004811115611e9057fe5b02179055507f2df224a1e39354bc368dbab322c2a32a86a269a8a102b04e2ce16a803f3394bb426040518082815260200191505060405180910390a1565b60156020528060005260406000206000915090505481565b6000809054906101000a900460ff16151515611f6a576040517f08c379a00000000000000000000000000000000000000000000000000000000081526004018080602001828103825260208152602001807f66756e6374696f6e2069732073746f7070656420696e20656d657267656e637981525060200191505060405180910390fd5b611f72612cd2565b1515611fe6576040517f08c379a000000000000000000000000000000000000000000000000000000000815260040180806020018281038252600f8152602001807f4f6e6c7920617574686f72697a6564000000000000000000000000000000000081525060200191505060405180910390fd5b6000806004811115611ff457fe5b600660009054906101000a900460ff16600481111561200f57fe5b141515612084576040517f08c379a00000000000000000000000000000000000000000000000000000000081526004018080602001828103825260168152602001807f496e76616c696420617070726f76616c2073746174650000000000000000000081525060200191505060405180910390fd5b81600160003373ffffffffffffffffffffffffffffffffffffffff1673ffffffffffffffffffffffffffffffffffffffff168152602001908152602001600020816000191690555060001515600260003373ffffffffffffffffffffffffffffffffffffffff1673ffffffffffffffffffffffffffffffffffffffff16815260200190815260200160002060009054906101000a900460ff16151514156121d3576004600081548092919060010191905055506001600260003373ffffffffffffffffffffffffffffffffffffffff1673ffffffffffffffffffffffffffffffffffffffff16815260200190815260200160002060006101000a81548160ff0219169083151502179055503373ffffffffffffffffffffffffffffffffffffffff167f97ac9e720fea9facff2969705e902f0e93ea7846ed7184c381f4e909cc3fc1e160405160405180910390a25b6121db612dd1565b6004541415612235576001600660006101000a81548160ff0219169083600481111561220357fe5b02179055507f4c1eb757958b6e55f9b4841f2d3b5466b5148e9b8d47329710dc3594159b85f160405160405180910390a15b5050565b60016020528060005260406000206000915090505481565b6000809054906101000a900460ff161515156122d5576040517f08c379a00000000000000000000000000000000000000000000000000000000081526004018080602001828103825260208152602001807f66756e6374696f6e2069732073746f7070656420696e20656d657267656e637981525060200191505060405180910390fd5b600160048111156122e257fe5b600a60009054906101000a900460ff1660048111156122fd57fe5b14801561230b5750600c5442115b1561236c57600f54600b54101515612346576002600a60006101000a81548160ff0219169083600481111561233c57fe5b021790555061236b565b6003600a60006101000a81548160ff0219169083600481111561236557fe5b02179055505b5b565b600d5481565b60036020528060005260406000206000915054906101000a900460ff1681565b60045481565b600c5481565b6123a8612cd2565b151561241c576040517f08c379a000000000000000000000000000000000000000000000000000000000815260040180806020018281038252600f8152602001807f4f6e6c7920617574686f72697a6564000000000000000000000000000000000081525060200191505060405180910390fd5b60008060006101000a81548160ff021916908315150217905550565b600b5481565b6000809054906101000a900460ff161515156124c2576040517f08c379a00000000000000000000000000000000000000000000000000000000081526004018080602001828103825260208152602001807f66756e6374696f6e2069732073746f7070656420696e20656d657267656e637981525060200191505060405180910390fd5b601360009054906101000a900473ffffffffffffffffffffffffffffffffffffffff1673ffffffffffffffffffffffffffffffffffffffff163373ffffffffffffffffffffffffffffffffffffffff161415151561251f57600080fd5b6001600481111561252c57fe5b600a60009054906101000a900460ff16600481111561254757fe5b1480156125555750600c5442115b156125b657600f54600b54101515612590576002600a60006101000a81548160ff0219169083600481111561258657fe5b02179055506125b5565b6003600a60006101000a81548160ff021916908360048111156125af57fe5b02179055505b5b60018060048111156125c457fe5b600a60009054906101000a900460ff1660048111156125df57fe5b14151561267a576040517f08c379a00000000000000000000000000000000000000000000000000000000081526004018080602001828103825260248152602001807f496e636f72726563742063616d706169676e537461746520666f722066756e6381526020017f74696f6e0000000000000000000000000000000000000000000000000000000081525060400191505060405180910390fd5b6000341115156126f2576040517f08c379a00000000000000000000000000000000000000000000000000000000081526004018080602001828103825260158152602001807f4e6f207a65726f20636f6e747269627574696f6e73000000000000000000000081525060200191505060405180910390fd5b600b5434600b540111151561276f576040517f08c379a000000000000000000000000000000000000000000000000000000000815260040180806020018281038252601d8152602001807f496e7465676572206f766572666c6f7720636865636b206661696c656400000081525060200191505060405180910390fd5b601560003373ffffffffffffffffffffffffffffffffffffffff1673ffffffffffffffffffffffffffffffffffffffff1681526020019081526020016000205434601560003373ffffffffffffffffffffffffffffffffffffffff1673ffffffffffffffffffffffffffffffffffffffff1681526020019081526020016000205401111515612866576040517f08c379a000000000000000000000000000000000000000000000000000000000815260040180806020018281038252601d8152602001807f496e7465676572206f766572666c6f7720636865636b206661696c656400000081525060200191505060405180910390fd5b6001601660003373ffffffffffffffffffffffffffffffffffffffff1673ffffffffffffffffffffffffffffffffffffffff16815260200190815260200160002060006101000a81548160ff02191690831515021790555060146060604051908101604052803373ffffffffffffffffffffffffffffffffffffffff168152602001348152602001428152509080600181540180825580915050906001820390600052602060002090600302016000909192909190915060008201518160000160006101000a81548173ffffffffffffffffffffffffffffffffffffffff021916908373ffffffffffffffffffffffffffffffffffffffff160217905550602082015181600101556040820151816002015550505034601560003373ffffffffffffffffffffffffffffffffffffffff1673ffffffffffffffffffffffffffffffffffffffff1681526020019081526020016000206000828254019250508190555034600b600082825401925050819055507f80c4b1f63e4a6a1a36a9cad447cf9bc5fea26c44da551d6c4f060398adcb58723334604051808373ffffffffffffffffffffffffffffffffffffffff1673ffffffffffffffffffffffffffffffffffffffff1681526020018281526020019250505060405180910390a150565b6000809054906101000a900460ff161515612aef576040517f08c379a00000000000000000000000000000000000000000000000000000000081526004018080602001828103825260248152602001807f66756e6374696f6e206f6e6c7920617661696c61626c6520696e20656d65726781526020017f656e63790000000000000000000000000000000000000000000000000000000081525060400191505060405180910390fd5b6001600954141515612b0057600080fd5b600260098190555060001515601760003373ffffffffffffffffffffffffffffffffffffffff1673ffffffffffffffffffffffffffffffffffffffff16815260200190815260200160002060009054906101000a900460ff161515141515612bd0576040517f08c379a000000000000000000000000000000000000000000000000000000000815260040180806020018281038252601a8152602001807f557365722068617320616c72656164792077697468647261776e00000000000081525060200191505060405180910390fd5b612bd861312e565b6001600981905550565b600a60019054906101000a900473ffffffffffffffffffffffffffffffffffffffff1681565b6000601480549050905090565b60128054600181600116156101000203166002900480601f016020809104026020016040519081016040528092919081815260200182805460018160011615610100020316600290048015612cab5780601f10612c8057610100808354040283529160200191612cab565b820191906000526020600020905b815481529060010190602001808311612c8e57829003601f168201915b505050505081565b600a60009054906101000a900460ff1681565b60085481565b60055481565b6000600a60019054906101000a900473ffffffffffffffffffffffffffffffffffffffff1673ffffffffffffffffffffffffffffffffffffffff166324d7806c336040518263ffffffff167c0100000000000000000000000000000000000000000000000000000000028152600401808273ffffffffffffffffffffffffffffffffffffffff1673ffffffffffffffffffffffffffffffffffffffff168152602001915050602060405180830381600087803b158015612d9157600080fd5b505af1158015612da5573d6000803e3d6000fd5b505050506040513d6020811015612dbb57600080fd5b8101908080519060200190929190505050905090565b6000600a60019054906101000a900473ffffffffffffffffffffffffffffffffffffffff1673ffffffffffffffffffffffffffffffffffffffff16630efd49896040518163ffffffff167c0100000000000000000000000000000000000000000000000000000000028152600401602060405180830381600087803b158015612e5957600080fd5b505af1158015612e6d573d6000803e3d6000fd5b505050506040513d6020811015612e8357600080fd5b8101908080519060200190929190505050905090565b6010544201600c819055506001600a60006101000a81548160ff02191690836004811115612ec357fe5b02179055507fa675a32d451b185ce3e0f84447132de6e36dc5e2ea368ae22a9dcd7c5c3fc63f426040518082815260200191505060405180910390a1565b6003600a60006101000a81548160ff02191690836004811115612f2057fe5b0217905550565b601360009054906101000a900473ffffffffffffffffffffffffffffffffffffffff1673ffffffffffffffffffffffffffffffffffffffff163373ffffffffffffffffffffffffffffffffffffffff16141515612fec576040517f08c379a00000000000000000000000000000000000000000000000000000000081526004018080602001828103825260208152602001807f4f6e6c792063616d706169676e206d616e6167657220617574686f72697a656481525060200191505060405180910390fd5b6001601760003373ffffffffffffffffffffffffffffffffffffffff1673ffffffffffffffffffffffffffffffffffffffff16815260200190815260200160002060006101000a81548160ff0219169083151502179055506000600b819055507fbdd7a292298470c2ea820cea458f1d9ff5b5a16aaa2a2c6329128fceaa0a5187333073ffffffffffffffffffffffffffffffffffffffff1631604051808373ffffffffffffffffffffffffffffffffffffffff1673ffffffffffffffffffffffffffffffffffffffff1681526020018281526020019250505060405180910390a13373ffffffffffffffffffffffffffffffffffffffff166108fc3073ffffffffffffffffffffffffffffffffffffffff16319081150290604051600060405180830381858888f1935050505015801561312b573d6000803e3d6000fd5b50565b60011515601660003373ffffffffffffffffffffffffffffffffffffffff1673ffffffffffffffffffffffffffffffffffffffff16815260200190815260200160002060009054906101000a900460ff1615151415156131f6576040517f08c379a00000000000000000000000000000000000000000000000000000000081526004018080602001828103825260188152602001807f5573657220686173206e6f7420636f6e7472696275746564000000000000000081525060200191505060405180910390fd5b6001601760003373ffffffffffffffffffffffffffffffffffffffff1673ffffffffffffffffffffffffffffffffffffffff16815260200190815260200160002060006101000a81548160ff021916908315150217905550601560003373ffffffffffffffffffffffffffffffffffffffff1673ffffffffffffffffffffffffffffffffffffffff16815260200190815260200160002054600b600082825403925050819055507fbdd7a292298470c2ea820cea458f1d9ff5b5a16aaa2a2c6329128fceaa0a518733601560003373ffffffffffffffffffffffffffffffffffffffff1673ffffffffffffffffffffffffffffffffffffffff16815260200190815260200160002054604051808373ffffffffffffffffffffffffffffffffffffffff1673ffffffffffffffffffffffffffffffffffffffff1681526020018281526020019250505060405180910390a13373ffffffffffffffffffffffffffffffffffffffff166108fc601560003373ffffffffffffffffffffffffffffffffffffffff1673ffffffffffffffffffffffffffffffffffffffff168152602001908152602001600020549081150290604051600060405180830381858888f193505050501580156133cc573d6000803e3d6000fd5b505600a165627a7a72305820c05edcfd4911a2a3dc5098b5d6f0332cc5a160699512e62f9d070176bedc62a10029",
  "source": "pragma solidity ^0.4.24;\n\nimport \"./Administrated.sol\";\nimport \"./Approvable.sol\";\nimport \"./EmergencyStoppable.sol\";\nimport \"../node_modules/zeppelin-solidity/contracts/ReentrancyGuard.sol\";\n\n/**\n  @dev The Campaign Contract\n\n  Manages and holds data for a Crowd Funding Campaign\n  Produced by the CampaignFactory\n  extends Approvable Contract allowing an Approval State to be managed.\n  extends ReentrancyGaurd OpenZeppelin Library gaurding it against reentrancy attacks\n  (https://github.com/OpenZeppelin/openzeppelin-solidity/blob/v1.10.0/contracts/ReentrancyGuard.sol)\n  \n\n  The Campaign Contract start in a Pending state and must be approved by admins to become active.\n  \n  Campaigns have a fixed duration. At the end of the Campaign if contributed funds are greater or\n  equal to the goal the Campaign Manager will be allowed to withdraw all the Contract Funds via a \n  Pull Payment/Withdrawl pattern.\n\n  It funding fails to meet the goal Contributors will be allowed to retrieve their contributed funds,\n  again utilizing Pull Payment/Withdrawl pattern.\n\n  At any point the Campaign can be cancelled by the Campaign Manager, in which case contributors will \n  be allowed to withdraw contributed funds.\n\n  The Campaign is EmergencyStoppable and provides an EmergencyWithdraw function that will allow\n  Contributors to retrieve their contributed funds in the event of Emergency.\n */\ncontract Campaign is Approvable, ReentrancyGuard {\n  \n  /**\n    EVENTS\n   */\n  /**\n    @dev Event emitted when the Campaign has been\n    Approved and goes Campaign State changes to Active\n    payload is the startDate of the campaign\n   */   \n  event campaignStarted (\n    uint startDate\n  );\n\n  /**\n    @dev Event emitted when the Campaign ends and \n    campaign State cahnges to Successful or Unsuccessful\n    payload is the end date of the campaign and a boolean\n    denoting the campaign's success or failure\n   */     \n  event campaignEnded (\n    uint endDate,\n    bool isSuccessful\n  );\n\n  /**\n    @dev Event emitted when the Campaign is cancelled by the\n    Campaign manager\n    payload is the date the campaign was cancelled\n   */     \n  event campaignCancelled (\n    uint cancelledDate\n  );\n\n  /**\n    @dev Event emitted when a contribution is made to the Camapign\n    payload is the address of the contributor and the amount in eth\n    contributed\n   */     \n  event contributionMade (\n    address contributor,\n    uint amount\n  );\n\n  /**\n    @dev Event emitted when a withdrawl is made from the Campaign\n    payload is the address of the beneficiary and the amount withdrawn \n    in eth\n   */     \n  event withdrawlMade (\n    address beneficiary,\n    uint amount \n  );\n\n  /**\n    STATE VARIABLES\n   */\n\n  // DATA STRUCTURES\n\n  /**\n    Valid Campaign States.\n   */\n  enum CampaignStates {\n    Pending,\n    Active,\n    Successful,\n    Unsuccessful,\n    Cancelled\n  }\n\n  /**\n    Holds the details of a Contribution\n    addr The address of a Contributor\n    amount The amount contributed in eth\n    timestamp The time of the contribution\n   */\n  struct Contribution {\n    address addr;\n    uint amount;\n    uint timestamp;\n  }\n\n  // Initial Campaign State set to Pending\n  // This means it is Pending Approval from admins before going active\n  CampaignStates public campaignState = CampaignStates.Pending;\n\n  /**\n    Address of the Administrated Contract that will be used to determine \n    admin status of accounts.\n   */\n  Administrated public administrated;\n\n  // The current funds in the Campaign\n  // Initialized to Contract's balance in case the Contract is \n  // created with eth in the balance\n  uint public funds = address(this).balance;\n  \n  // The Campaign EndDate.\n  // Will be set once the Campaign is Approved.\n  uint public endDate;\n\n  // Campaign Details\n  uint public id;\n  string public title;\n  uint public goal;\n  uint public duration;\n  string public description;\n  string public image; // url to an associated image\n  address public manager;\n\n  // Contributions are sotred in an Array instead of a mapping (address=> Contribution)\n  // because we rarely need to retrieve Contributions individually but contributor but\n  // more often as a set on Contributions e.g. for a UI\n  Contribution[] public contributions;\n\n\n  // These mappins are used in Withdrawl Functions to restrict access and determine\n  // withdrawl amount for each contributor\n\n  // Keep track of the total Contributed for each contributor since a single contributor\n  mapping (address => uint) public totalContributed;\n  // Keeps track of whether an address has contributed\n  mapping (address => bool) public hasContributed;\n  // Keeps track of whether an address has withdrawn\n  mapping (address => bool) public hasWithdrawn;\n\n  /**\n    @dev constructor\n    @param _id The Campaign Id, corresponds to the index for the campaign address in the CampaignFactory\n    @param _title The title of the Campaign\n    @param _goal The funding goal in ether of the campaign\n    @param _duration The intended duration of the Active campaign in days\n    @param _description A description of the Campaign purposes\n    @param _image The url of an image for the campaign\n    @param _manager The Campaign Manager\n    @param administratedAddress the address of currently deployed adminstrated Contract with current \n    // admin management information/functionality\n   */\n\n  constructor(\n    uint _id, \n    string _title, \n    uint _goal,  \n    uint _duration, \n    string _description,\n    string _image,\n    address _manager,\n    address administratedAddress\n  ) public {\n    id = _id;\n    title = _title;\n    goal = _goal;\n    duration = _duration * 1 days;\n    description = _description;\n    image = _image;\n    manager = _manager;\n    administrated = Administrated(administratedAddress);\n  }\n\n  /**\n    MODIFIERS\n   */\n\n  // ACCESS RESTRICTION\n  /**\n    @dev modifier restricts access to only the Campaign Manager\n   */\n  modifier onlyManager() {\n    require(msg.sender == manager, \"Only campaign manager authorized\");\n    _;\n  }\n  \n  /**\n    @dev modifier restricts access to only not the Campaign Manager\n   */\n  modifier onlyNotManager() {\n    require(msg.sender != manager);\n    _;\n  }\n\n  /**\n    @dev modifier restricts access to only the Campaign Manager of an Admin\n   */\n  modifier onlyManagerOrAdmin() {\n    require(msg.sender == manager || administrated.isAdmin(msg.sender), \"Only campaign manager or admin authorized\");\n    _;\n  }\n\n\n  /**\n    @dev modifier restricts access to only accounts that have not made a withdrawl\n   */\n  modifier onlyHasNotWithdrawn() {\n    require(hasWithdrawn[msg.sender] == false, \"User has already withdrawn\");\n    _;\n  }\n\n  /**\n    @dev modifier restricts access to only accounts that have made a contribution\n   */\n  modifier onlyHasContributed() {\n    require(hasContributed[msg.sender] == true, \"User has not contributed\");\n    _;\n  }\n\n  // STATE MANAGEMENT\n  /**\n    @dev modifier restricts access to only during given campaign state\n   */\n  modifier onlyDuringCampaignState(CampaignStates _campaignState) {\n    require(campaignState == _campaignState, \"Incorrect campaignState for function\");\n    _;\n  }\n  \n  /**\n    @dev modifier restricts access to only before the campaign has ended\n   */\n  modifier onlyBeforeCampaignEnd() {\n    require(campaignState <= CampaignStates.Active, \"Campaign must be active\");\n    _;\n  }\n  \n  /**\n    @dev modifier restricts access to only after the campaign has ended\n   */\n  modifier onlyAfterCampaignEnd() {\n    require(campaignState > CampaignStates.Active, \"Campaign must have ended\");\n    _;\n  }\n\n  /**\n    @dev modifier transitions the campaign state before function execution\n    Will determine the success/failure of the campaign \n   */\n  modifier transitionState() {\n    if (campaignState == CampaignStates.Active && block.timestamp > endDate\n    ) {\n      \n      if (funds >= goal) {\n        campaignState = CampaignStates.Successful;\n      } else {\n        campaignState = CampaignStates.Unsuccessful;\n      }\n\n    }\n    _;\n  }\n\n  // INPUT VALIDATION\n  /**\n    @dev modifier validates contributions for interger overflow errors \n   */\n  modifier validateContribution() {\n    //No Zero Contributions\n    require(msg.value > 0, \"No zero contributions\"); \n     //Integer Overflow Protection\n    require(funds + msg.value > funds, \"Integer overflow check failed\");\n    require(totalContributed[msg.sender] + msg.value > totalContributed[msg.sender], \"Integer overflow check failed\");\n    _;\n  }\n\n  // FUNCTIONS\n\n  /**\n    @dev returns true if msg.sender has the admin role\n    This funstion is required to be implemented by the EmergencyStoppable and Approvable Interfaces.\n    It is used to determine if the calling user (msg.sender) has the authority to stop/start\n    the contract.\n  */\n  function isAuthorized() \n    internal \n    returns(bool)\n  {\n    return administrated.isAdmin(msg.sender);\n  }\n\n  /**\n    @dev returns the number of admins\n    This function is required by the Approvable interface to determine the number of voters\n   */\n   function numVoters()\n    internal\n    returns(uint)\n  {\n    return administrated.numAdmins();\n  }\n\n  /**\n    @dev implements the onApproval function from the Approvable Contract\n    Called by Approvable Contract once a Contract is Approved.\n    Transitions the Campaign into it's Active state and sets the endDate\n    for the Campaign\n   */\n  function onApproval() internal \n  {\n    endDate = block.timestamp + duration;\n    campaignState = CampaignStates.Active;\n    emit campaignStarted(block.timestamp);\n  }\n\n  /**\n    @dev Implements the onRejection function from the Approvable Contract\n    Called by the Approvable Contract once a Contract is Rejected\n    Transitions the Campaign into the Unsuccessful State\n   */\n  function onRejection() internal\n  {\n    campaignState = CampaignStates.Unsuccessful;\n  }\n\n  /**\n    @dev allows the Campaign Manager to withdraw all Contract Funds\n    utilizing the Withdrawl Pattern\n   */\n  function managerWithdrawl() private \n    onlyManager\n  {\n      hasWithdrawn[msg.sender] = true;\n      funds = 0;\n      emit withdrawlMade(msg.sender, address(this).balance);\n      msg.sender.transfer(address(this).balance);\n  }\n\n  /**\n    @dev allows a Campaign Contributor to withdraw their contributed\n    funds utilizing the Withdrawl Pattern\n   */\n  function contributorWithdrawl() private \n    onlyHasContributed\n  {\n    hasWithdrawn[msg.sender] = true;\n    funds -= totalContributed[msg.sender];\n    emit withdrawlMade(msg.sender, totalContributed[msg.sender]);\n    msg.sender.transfer(totalContributed[msg.sender]);\n  }\n\n  /**\n    INTERFACE\n   */\n  /**\n    @dev Allows a Contribution to be made\n    Disallowed during Emergency (Stopped State)\n    Restricted to not the Campaign Manager\n    Will transition state before executing. Will revert if Campaign has ended.\n    No Zero Contributions are allowed\n   */\n  function contribute() public payable \n    stoppedInEmergency\n    onlyNotManager \n    transitionState\n    onlyDuringCampaignState(CampaignStates.Active)\n    validateContribution \n  {\n    hasContributed[msg.sender] = true;\n    contributions.push(Contribution(msg.sender, msg.value, now));\n    totalContributed[msg.sender] += msg.value;\n    funds += msg.value;\n    emit contributionMade(msg.sender, msg.value);\n  }\n\n  /**\n    @dev Allows the Campaign Manager to Cancel the Campaign at any point\n    before the Campaign is Over.\n    If Contributions have been made Contributors will be allowed to retrieve their funds\n    Disallowed during Emergency (Stopped State)\n   */    \n  function cancelCampaign() public\n    stoppedInEmergency\n    onlyManager\n    transitionState\n    onlyBeforeCampaignEnd\n  {\n    approvalState = ApprovalStates.Cancelled;\n    campaignState = CampaignStates.Cancelled;\n    emit campaignCancelled(block.timestamp);\n  }\n\n  /**\n    @dev Allows the Campaign Manager or an Admin to transition Campaign state\n    if the end date has been reached.\n    Disallowed during Emergency (Stopped State)\n   */    \n  function endCampaign() public \n    stoppedInEmergency\n    onlyManagerOrAdmin\n    transitionState\n    onlyAfterCampaignEnd\n  {\n    emit campaignEnded(block.timestamp, (campaignState == CampaignStates.Successful));\n  }\n\n  // Wrapper to private function doing the actual work as described in ReentrancyGuard.sol\n  function withdraw() external\n    stoppedInEmergency\n    nonReentrant // modifier from ReentracyGuard OpenZeppelin Library protects against being called again\n    onlyHasNotWithdrawn\n    transitionState \n    onlyAfterCampaignEnd \n  {\n    // If the Campaign was Successful only the Campaign Manager is allowed to withdraw funds\n    if (campaignState == CampaignStates.Successful) {\n      managerWithdrawl();\n    }\n\n    // If the Campaign was Unsuccessful or Cancelled Contributors are allowed to withdraw their\n    // contributed funds\n    if(campaignState == CampaignStates.Unsuccessful || campaignState == CampaignStates.Cancelled) {\n      contributorWithdrawl();\n    }\n  }\n\n  /**\n    @dev Allows Contributors to withdraw their contributed funds if the Campaign is put into an\n    Emergency stopped state by an admin\n   */\n  function emergencyWithdraw() external\n    onlyInEmergency\n    nonReentrant\n    onlyHasNotWithdrawn\n  {\n    contributorWithdrawl();\n  }\n\n  // GETTERS\n\n  /**\n    @dev returns the number of contributions (length on contributions array)\n   */\n  function getNumContributions() public view returns(uint numContributions) {\n    return contributions.length;\n  }\n\n  /**\n    @dev calculates and returns the total contributed funds\n    Useful because funds state variable tracks current funds and can change when a \n    withdrawl is made\n    Could be replaced by another state variable 'totalContributedFunds' that is incremented\n    with funds but not decremented during withdrawls\n   */\n  function getTotalContributedFunds() public view returns(uint) {\n    uint result = 0;\n    for (uint i = 0; i < contributions.length; i++) {\n      result += contributions[i].amount;\n    }\n    return result;\n  }\n\n  // TESTING/UI HELPERS\n  // These functions are not crucial to contract functionality but useful for \n  // testing and UI \n\n  /**\n    @dev calculates whether or not the Campaign is Active\n    Will not return false positive on Pending state becuase endDate will be 0\n   */\n  function isActive() public view returns(bool) {\n    return (block.timestamp < endDate);\n  }\n\n  /**\n    @dev returns the current block timestamp\n    Used in testing.\n   */\n  function getBlockTimestamp() public view returns(uint) {\n    return block.timestamp;\n  }\n\n  /**\n    @dev triggers the transtionCampaign modifier\n   */\n  function transitionCampaign() public\n    stoppedInEmergency\n    transitionState \n  {\n    \n  }\n\n  /**\n    @dev Returns uint representation of campaignState\n    Only used in TestEthFundMe Solidity Test since we can't check enum returns\n */\n  function getCampaignState() public view returns(uint) {\n    return uint(campaignState);\n  }\n\n}",
  "sourcePath": "/mnt/c/Users/jalal/Github/EthFundMe/contracts/Campaign.sol",
  "compiler": {
    "name": "solc",
    "version": "0.4.24+commit.e67f0147.Emscripten.clang"
  },
  "schemaVersion": "2.0.1",
  "updatedAt": "2018-08-19T00:45:56.511Z"
}