{
  "contractName": "Campaign",
  "abi": [
    {
      "constant": true,
      "inputs": [
        {
          "name": "",
          "type": "address"
        }
      ],
      "name": "hasVoted",
      "outputs": [
        {
          "name": "",
          "type": "bool"
        }
      ],
      "payable": false,
      "stateMutability": "view",
      "type": "function"
    },
    {
      "constant": true,
      "inputs": [],
      "name": "duration",
      "outputs": [
        {
          "name": "",
          "type": "uint256"
        }
      ],
      "payable": false,
      "stateMutability": "view",
      "type": "function"
    },
    {
      "constant": true,
      "inputs": [],
      "name": "approvalState",
      "outputs": [
        {
          "name": "",
          "type": "uint8"
        }
      ],
      "payable": false,
      "stateMutability": "view",
      "type": "function"
    },
    {
      "constant": true,
      "inputs": [
        {
          "name": "",
          "type": "uint256"
        }
      ],
      "name": "contributions",
      "outputs": [
        {
          "name": "addr",
          "type": "address"
        },
        {
          "name": "amount",
          "type": "uint256"
        },
        {
          "name": "timestamp",
          "type": "uint256"
        }
      ],
      "payable": false,
      "stateMutability": "view",
      "type": "function"
    },
    {
      "constant": true,
      "inputs": [
        {
          "name": "",
          "type": "address"
        }
      ],
      "name": "hasContributed",
      "outputs": [
        {
          "name": "",
          "type": "bool"
        }
      ],
      "payable": false,
      "stateMutability": "view",
      "type": "function"
    },
    {
      "constant": true,
      "inputs": [],
      "name": "goal",
      "outputs": [
        {
          "name": "",
          "type": "uint256"
        }
      ],
      "payable": false,
      "stateMutability": "view",
      "type": "function"
    },
    {
      "constant": true,
      "inputs": [],
      "name": "manager",
      "outputs": [
        {
          "name": "",
          "type": "address"
        }
      ],
      "payable": false,
      "stateMutability": "view",
      "type": "function"
    },
    {
      "constant": true,
      "inputs": [],
      "name": "title",
      "outputs": [
        {
          "name": "",
          "type": "string"
        }
      ],
      "payable": false,
      "stateMutability": "view",
      "type": "function"
    },
    {
      "constant": true,
      "inputs": [
        {
          "name": "",
          "type": "address"
        }
      ],
      "name": "hasWithdrawn",
      "outputs": [
        {
          "name": "",
          "type": "bool"
        }
      ],
      "payable": false,
      "stateMutability": "view",
      "type": "function"
    },
    {
      "constant": true,
      "inputs": [],
      "name": "description",
      "outputs": [
        {
          "name": "",
          "type": "string"
        }
      ],
      "payable": false,
      "stateMutability": "view",
      "type": "function"
    },
    {
      "constant": true,
      "inputs": [],
      "name": "numApprovals",
      "outputs": [
        {
          "name": "",
          "type": "uint256"
        }
      ],
      "payable": false,
      "stateMutability": "view",
      "type": "function"
    },
    {
      "constant": true,
      "inputs": [
        {
          "name": "",
          "type": "address"
        }
      ],
      "name": "totalContributed",
      "outputs": [
        {
          "name": "",
          "type": "uint256"
        }
      ],
      "payable": false,
      "stateMutability": "view",
      "type": "function"
    },
    {
      "constant": true,
      "inputs": [
        {
          "name": "",
          "type": "address"
        }
      ],
      "name": "voteSecrets",
      "outputs": [
        {
          "name": "",
          "type": "bytes32"
        }
      ],
      "payable": false,
      "stateMutability": "view",
      "type": "function"
    },
    {
      "constant": true,
      "inputs": [],
      "name": "efm",
      "outputs": [
        {
          "name": "",
          "type": "address"
        }
      ],
      "payable": false,
      "stateMutability": "view",
      "type": "function"
    },
    {
      "constant": true,
      "inputs": [],
      "name": "id",
      "outputs": [
        {
          "name": "",
          "type": "uint256"
        }
      ],
      "payable": false,
      "stateMutability": "view",
      "type": "function"
    },
    {
      "constant": true,
      "inputs": [
        {
          "name": "",
          "type": "address"
        }
      ],
      "name": "hasRevealed",
      "outputs": [
        {
          "name": "",
          "type": "bool"
        }
      ],
      "payable": false,
      "stateMutability": "view",
      "type": "function"
    },
    {
      "constant": true,
      "inputs": [],
      "name": "numVoteSecrets",
      "outputs": [
        {
          "name": "",
          "type": "uint256"
        }
      ],
      "payable": false,
      "stateMutability": "view",
      "type": "function"
    },
    {
      "constant": true,
      "inputs": [],
      "name": "endDate",
      "outputs": [
        {
          "name": "",
          "type": "uint256"
        }
      ],
      "payable": false,
      "stateMutability": "view",
      "type": "function"
    },
    {
      "constant": true,
      "inputs": [],
      "name": "funds",
      "outputs": [
        {
          "name": "",
          "type": "uint256"
        }
      ],
      "payable": false,
      "stateMutability": "view",
      "type": "function"
    },
    {
      "constant": true,
      "inputs": [],
      "name": "image",
      "outputs": [
        {
          "name": "",
          "type": "string"
        }
      ],
      "payable": false,
      "stateMutability": "view",
      "type": "function"
    },
    {
      "constant": true,
      "inputs": [],
      "name": "campaignState",
      "outputs": [
        {
          "name": "",
          "type": "uint8"
        }
      ],
      "payable": false,
      "stateMutability": "view",
      "type": "function"
    },
    {
      "constant": true,
      "inputs": [],
      "name": "numRejections",
      "outputs": [
        {
          "name": "",
          "type": "uint256"
        }
      ],
      "payable": false,
      "stateMutability": "view",
      "type": "function"
    },
    {
      "constant": true,
      "inputs": [],
      "name": "numVoteReveals",
      "outputs": [
        {
          "name": "",
          "type": "uint256"
        }
      ],
      "payable": false,
      "stateMutability": "view",
      "type": "function"
    },
    {
      "inputs": [
        {
          "name": "_id",
          "type": "uint256"
        },
        {
          "name": "_title",
          "type": "string"
        },
        {
          "name": "_goal",
          "type": "uint256"
        },
        {
          "name": "_duration",
          "type": "uint256"
        },
        {
          "name": "_description",
          "type": "string"
        },
        {
          "name": "_image",
          "type": "string"
        },
        {
          "name": "_manager",
          "type": "address"
        },
        {
          "name": "efmAddress",
          "type": "address"
        }
      ],
      "payable": false,
      "stateMutability": "nonpayable",
      "type": "constructor"
    },
    {
      "constant": false,
      "inputs": [
        {
          "name": "secretVote",
          "type": "bytes32"
        }
      ],
      "name": "vote",
      "outputs": [],
      "payable": false,
      "stateMutability": "nonpayable",
      "type": "function"
    },
    {
      "constant": false,
      "inputs": [
        {
          "name": "voteOption",
          "type": "bool"
        },
        {
          "name": "salt",
          "type": "uint256"
        }
      ],
      "name": "reveal",
      "outputs": [],
      "payable": false,
      "stateMutability": "nonpayable",
      "type": "function"
    },
    {
      "constant": false,
      "inputs": [],
      "name": "contribute",
      "outputs": [],
      "payable": true,
      "stateMutability": "payable",
      "type": "function"
    },
    {
      "constant": false,
      "inputs": [],
      "name": "cancelCampaign",
      "outputs": [],
      "payable": false,
      "stateMutability": "nonpayable",
      "type": "function"
    },
    {
      "constant": false,
      "inputs": [],
      "name": "endCampaign",
      "outputs": [],
      "payable": false,
      "stateMutability": "nonpayable",
      "type": "function"
    },
    {
      "constant": false,
      "inputs": [],
      "name": "withdraw",
      "outputs": [],
      "payable": false,
      "stateMutability": "nonpayable",
      "type": "function"
    },
    {
      "constant": false,
      "inputs": [],
      "name": "emergencyWithdraw",
      "outputs": [],
      "payable": false,
      "stateMutability": "nonpayable",
      "type": "function"
    },
    {
      "constant": true,
      "inputs": [],
      "name": "getNumContributions",
      "outputs": [
        {
          "name": "numContributions",
          "type": "uint256"
        }
      ],
      "payable": false,
      "stateMutability": "view",
      "type": "function"
    },
    {
      "constant": true,
      "inputs": [],
      "name": "isActive",
      "outputs": [
        {
          "name": "",
          "type": "bool"
        }
      ],
      "payable": false,
      "stateMutability": "view",
      "type": "function"
    },
    {
      "constant": true,
      "inputs": [],
      "name": "getBlockTimestamp",
      "outputs": [
        {
          "name": "",
          "type": "uint256"
        }
      ],
      "payable": false,
      "stateMutability": "view",
      "type": "function"
    },
    {
      "constant": false,
      "inputs": [],
      "name": "transitionCampaign",
      "outputs": [],
      "payable": false,
      "stateMutability": "nonpayable",
      "type": "function"
    },
    {
      "constant": true,
      "inputs": [],
      "name": "getTotalContributedFunds",
      "outputs": [
        {
          "name": "",
          "type": "uint256"
        }
      ],
      "payable": false,
      "stateMutability": "view",
      "type": "function"
    }
  ],
  "bytecode": "0x608060405260016000556000600160006101000a81548160ff021916908360048111156200002957fe5b02179055506000600960146101000a81548160ff021916908360048111156200004e57fe5b02179055503073ffffffffffffffffffffffffffffffffffffffff1631600a553480156200007b57600080fd5b506040516200228238038062002282833981018060405281019080805190602001909291908051820192919060200180519060200190929190805190602001909291908051820192919060200180518201929190602001805190602001909291908051906020019092919050505087600c8190555086600d908051906020019062000108929190620001de565b5085600e81905550620151808502600f81905550836010908051906020019062000134929190620001de565b5082601190805190602001906200014d929190620001de565b5081601260006101000a81548173ffffffffffffffffffffffffffffffffffffffff021916908373ffffffffffffffffffffffffffffffffffffffff16021790555080600960006101000a81548173ffffffffffffffffffffffffffffffffffffffff021916908373ffffffffffffffffffffffffffffffffffffffff16021790555050505050505050506200028d565b828054600181600116156101000203166002900490600052602060002090601f016020900481019282601f106200022157805160ff191683800117855562000252565b8280016001018555821562000252579182015b828111156200025157825182559160200191906001019062000234565b5b50905062000261919062000265565b5090565b6200028a91905b80821115620002865760008160009055506001016200026c565b5090565b90565b611fe5806200029d6000396000f3006080604052600436106101b7576000357c0100000000000000000000000000000000000000000000000000000000900463ffffffff16806309eef43e146101bc5780630fb5a6b4146102175780631afcf159146102425780631cee07001461027b578063205b1946146102f657806322f3e2d41461035157806339f3027d146103805780633ccfd60b146103b957806340193883146103d0578063481c6a75146103fb5780634a79d50c146104525780635e2c19db146104e2578063653253861461053d57806371aac7f9146105685780637284e4161461057f5780637403c5e51461060f578063796b89b91461063a578063980e784414610665578063a0f243b81461067c578063a69beaba146106d3578063aac0834514610704578063ab45be4214610763578063aedbf4091461077a578063af640d0f146107d1578063b9a53013146107fc578063c17c5cf014610857578063c24a0f8b14610882578063c89f2ce4146108ad578063d7bb99ba146108d8578063db2e21bc146108e2578063e70ac62c146108f9578063f3ccaac014610924578063f4c9b1fd146109b4578063f81292c1146109ed578063facd493914610a18575b600080fd5b3480156101c857600080fd5b506101fd600480360381019080803573ffffffffffffffffffffffffffffffffffffffff169060200190929190505050610a43565b604051808215151515815260200191505060405180910390f35b34801561022357600080fd5b5061022c610a63565b6040518082815260200191505060405180910390f35b34801561024e57600080fd5b50610257610a69565b6040518082600481111561026757fe5b60ff16815260200191505060405180910390f35b34801561028757600080fd5b506102a660048036038101908080359060200190929190505050610a7c565b604051808473ffffffffffffffffffffffffffffffffffffffff1673ffffffffffffffffffffffffffffffffffffffff168152602001838152602001828152602001935050505060405180910390f35b34801561030257600080fd5b50610337600480360381019080803573ffffffffffffffffffffffffffffffffffffffff169060200190929190505050610ad5565b604051808215151515815260200191505060405180910390f35b34801561035d57600080fd5b50610366610af5565b604051808215151515815260200191505060405180910390f35b34801561038c57600080fd5b506103b760048036038101908080351515906020019092919080359060200190929190505050610b01565b005b3480156103c557600080fd5b506103ce610e08565b005b3480156103dc57600080fd5b506103e5610ff2565b6040518082815260200191505060405180910390f35b34801561040757600080fd5b50610410610ff8565b604051808273ffffffffffffffffffffffffffffffffffffffff1673ffffffffffffffffffffffffffffffffffffffff16815260200191505060405180910390f35b34801561045e57600080fd5b5061046761101e565b6040518080602001828103825283818151815260200191508051906020019080838360005b838110156104a757808201518184015260208101905061048c565b50505050905090810190601f1680156104d45780820380516001836020036101000a031916815260200191505b509250505060405180910390f35b3480156104ee57600080fd5b50610523600480360381019080803573ffffffffffffffffffffffffffffffffffffffff1690602001909291905050506110bc565b604051808215151515815260200191505060405180910390f35b34801561054957600080fd5b506105526110dc565b6040518082815260200191505060405180910390f35b34801561057457600080fd5b5061057d611130565b005b34801561058b57600080fd5b50610594611259565b6040518080602001828103825283818151815260200191508051906020019080838360005b838110156105d45780820151818401526020810190506105b9565b50505050905090810190601f1680156106015780820380516001836020036101000a031916815260200191505b509250505060405180910390f35b34801561061b57600080fd5b506106246112f7565b6040518082815260200191505060405180910390f35b34801561064657600080fd5b5061064f6112fd565b6040518082815260200191505060405180910390f35b34801561067157600080fd5b5061067a611305565b005b34801561068857600080fd5b506106bd600480360381019080803573ffffffffffffffffffffffffffffffffffffffff169060200190929190505050611477565b6040518082815260200191505060405180910390f35b3480156106df57600080fd5b50610702600480360381019080803560001916906020019092919050505061148f565b005b34801561071057600080fd5b50610745600480360381019080803573ffffffffffffffffffffffffffffffffffffffff169060200190929190505050611706565b60405180826000191660001916815260200191505060405180910390f35b34801561076f57600080fd5b5061077861171e565b005b34801561078657600080fd5b5061078f6117b7565b604051808273ffffffffffffffffffffffffffffffffffffffff1673ffffffffffffffffffffffffffffffffffffffff16815260200191505060405180910390f35b3480156107dd57600080fd5b506107e66117dd565b6040518082815260200191505060405180910390f35b34801561080857600080fd5b5061083d600480360381019080803573ffffffffffffffffffffffffffffffffffffffff1690602001909291905050506117e3565b604051808215151515815260200191505060405180910390f35b34801561086357600080fd5b5061086c611803565b6040518082815260200191505060405180910390f35b34801561088e57600080fd5b50610897611809565b6040518082815260200191505060405180910390f35b3480156108b957600080fd5b506108c261180f565b6040518082815260200191505060405180910390f35b6108e0611815565b005b3480156108ee57600080fd5b506108f7611b64565b005b34801561090557600080fd5b5061090e611bee565b6040518082815260200191505060405180910390f35b34801561093057600080fd5b50610939611bfb565b6040518080602001828103825283818151815260200191508051906020019080838360005b8381101561097957808201518184015260208101905061095e565b50505050905090810190601f1680156109a65780820380516001836020036101000a031916815260200191505b509250505060405180910390f35b3480156109c057600080fd5b506109c9611c99565b604051808260048111156109d957fe5b60ff16815260200191505060405180910390f35b3480156109f957600080fd5b50610a02611cac565b6040518082815260200191505060405180910390f35b348015610a2457600080fd5b50610a2d611cb2565b6040518082815260200191505060405180910390f35b60076020528060005260406000206000915054906101000a900460ff1681565b600f5481565b600160009054906101000a900460ff1681565b601381815481101515610a8b57fe5b90600052602060002090600302016000915090508060000160009054906101000a900473ffffffffffffffffffffffffffffffffffffffff16908060010154908060020154905083565b60156020528060005260406000206000915054906101000a900460ff1681565b6000600b544210905090565b60011515600760003373ffffffffffffffffffffffffffffffffffffffff1673ffffffffffffffffffffffffffffffffffffffff16815260200190815260200160002060009054906101000a900460ff161515141515610b6057600080fd5b60001515600860003373ffffffffffffffffffffffffffffffffffffffff1673ffffffffffffffffffffffffffffffffffffffff16815260200190815260200160002060009054906101000a900460ff161515141515610bbf57600080fd5b6001806004811115610bcd57fe5b600160009054906101000a900460ff166004811115610be857fe5b141515610bf457600080fd5b600660003373ffffffffffffffffffffffffffffffffffffffff1673ffffffffffffffffffffffffffffffffffffffff168152602001908152602001600020546000191683836040516020018083151515157f0100000000000000000000000000000000000000000000000000000000000000028152600101828152602001925050506040516020818303038152906040526040518082805190602001908083835b602083101515610cbb5780518252602082019150602081019050602083039250610c96565b6001836020036101000a038019825116818451168082178552505050505050905001915050604051809103902060001916141515610cf857600080fd5b8215610d1557600260008154809291906001019190505550610d28565b6003600081548092919060010191905055505b6005600081548092919060010191905055506001600860003373ffffffffffffffffffffffffffffffffffffffff1673ffffffffffffffffffffffffffffffffffffffff16815260200190815260200160002060006101000a81548160ff02191690831515021790555060028054101515610dca576002600160006101000a81548160ff02191690836004811115610dbc57fe5b0217905550610dc9611cb8565b5b6002600354101515610e03576003600160006101000a81548160ff02191690836004811115610df557fe5b0217905550610e02611ce9565b5b505050565b6001600054141515610e1957600080fd5b600260008190555060001515601660003373ffffffffffffffffffffffffffffffffffffffff1673ffffffffffffffffffffffffffffffffffffffff16815260200190815260200160002060009054906101000a900460ff161515141515610e8057600080fd5b60016004811115610e8d57fe5b600960149054906101000a900460ff166004811115610ea857fe5b148015610eb65750600b5442115b15610f1757600e54600a54101515610ef1576002600960146101000a81548160ff02191690836004811115610ee757fe5b0217905550610f16565b6003600960146101000a81548160ff02191690836004811115610f1057fe5b02179055505b5b60016004811115610f2457fe5b600960149054906101000a900460ff166004811115610f3f57fe5b111515610f4b57600080fd5b60026004811115610f5857fe5b600960149054906101000a900460ff166004811115610f7357fe5b1415610f8257610f81611d0f565b5b60036004811115610f8f57fe5b600960149054906101000a900460ff166004811115610faa57fe5b1480610fda5750600480811115610fbd57fe5b600960149054906101000a900460ff166004811115610fd857fe5b145b15610fe857610fe7611e2b565b5b6001600081905550565b600e5481565b601260009054906101000a900473ffffffffffffffffffffffffffffffffffffffff1681565b600d8054600181600116156101000203166002900480601f0160208091040260200160405190810160405280929190818152602001828054600181600116156101000203166002900480156110b45780601f10611089576101008083540402835291602001916110b4565b820191906000526020600020905b81548152906001019060200180831161109757829003601f168201915b505050505081565b60166020528060005260406000206000915054906101000a900460ff1681565b6000806000809150600090505b6013805490508110156111285760138181548110151561110557fe5b9060005260206000209060030201600101548201915080806001019150506110e9565b819250505090565b601260009054906101000a900473ffffffffffffffffffffffffffffffffffffffff1673ffffffffffffffffffffffffffffffffffffffff163373ffffffffffffffffffffffffffffffffffffffff1614151561118c57600080fd5b6001600481111561119957fe5b600960149054906101000a900460ff1660048111156111b457fe5b1480156111c25750600b5442115b1561122357600e54600a541015156111fd576002600960146101000a81548160ff021916908360048111156111f357fe5b0217905550611222565b6003600960146101000a81548160ff0219169083600481111561121c57fe5b02179055505b5b6001600481111561123057fe5b600960149054906101000a900460ff16600481111561124b57fe5b11151561125757600080fd5b565b60108054600181600116156101000203166002900480601f0160208091040260200160405190810160405280929190818152602001828054600181600116156101000203166002900480156112ef5780601f106112c4576101008083540402835291602001916112ef565b820191906000526020600020905b8154815290600101906020018083116112d257829003601f168201915b505050505081565b60025481565b600042905090565b601260009054906101000a900473ffffffffffffffffffffffffffffffffffffffff1673ffffffffffffffffffffffffffffffffffffffff163373ffffffffffffffffffffffffffffffffffffffff1614151561136157600080fd5b6001600481111561136e57fe5b600960149054906101000a900460ff16600481111561138957fe5b1480156113975750600b5442115b156113f857600e54600a541015156113d2576002600960146101000a81548160ff021916908360048111156113c857fe5b02179055506113f7565b6003600960146101000a81548160ff021916908360048111156113f157fe5b02179055505b5b6001600481111561140557fe5b600960149054906101000a900460ff16600481111561142057fe5b1115151561142d57600080fd5b6004600160006101000a81548160ff0219169083600481111561144c57fe5b02179055506004600960146101000a81548160ff0219169083600481111561147057fe5b0217905550565b60146020528060005260406000206000915090505481565b600960009054906101000a900473ffffffffffffffffffffffffffffffffffffffff1673ffffffffffffffffffffffffffffffffffffffff166324d7806c336040518263ffffffff167c0100000000000000000000000000000000000000000000000000000000028152600401808273ffffffffffffffffffffffffffffffffffffffff1673ffffffffffffffffffffffffffffffffffffffff168152602001915050602060405180830381600087803b15801561154c57600080fd5b505af1158015611560573d6000803e3d6000fd5b505050506040513d602081101561157657600080fd5b8101908080519060200190929190505050151561159257600080fd5b60008060048111156115a057fe5b600160009054906101000a900460ff1660048111156115bb57fe5b1415156115c757600080fd5b81600660003373ffffffffffffffffffffffffffffffffffffffff1673ffffffffffffffffffffffffffffffffffffffff168152602001908152602001600020816000191690555060001515600760003373ffffffffffffffffffffffffffffffffffffffff1673ffffffffffffffffffffffffffffffffffffffff16815260200190815260200160002060009054906101000a900460ff16151514156116d3576004600081548092919060010191905055506001600760003373ffffffffffffffffffffffffffffffffffffffff1673ffffffffffffffffffffffffffffffffffffffff16815260200190815260200160002060006101000a81548160ff0219169083151502179055505b600360045414156117025760018060006101000a81548160ff021916908360048111156116fc57fe5b02179055505b5050565b60066020528060005260406000206000915090505481565b6001600481111561172b57fe5b600960149054906101000a900460ff16600481111561174657fe5b1480156117545750600b5442115b156117b557600e54600a5410151561178f576002600960146101000a81548160ff0219169083600481111561178557fe5b02179055506117b4565b6003600960146101000a81548160ff021916908360048111156117ae57fe5b02179055505b5b565b600960009054906101000a900473ffffffffffffffffffffffffffffffffffffffff1681565b600c5481565b60086020528060005260406000206000915054906101000a900460ff1681565b60045481565b600b5481565b600a5481565b601260009054906101000a900473ffffffffffffffffffffffffffffffffffffffff1673ffffffffffffffffffffffffffffffffffffffff163373ffffffffffffffffffffffffffffffffffffffff161415151561187257600080fd5b6001600481111561187f57fe5b600960149054906101000a900460ff16600481111561189a57fe5b1480156118a85750600b5442115b1561190957600e54600a541015156118e3576002600960146101000a81548160ff021916908360048111156118d957fe5b0217905550611908565b6003600960146101000a81548160ff0219169083600481111561190257fe5b02179055505b5b600180600481111561191757fe5b600960149054906101000a900460ff16600481111561193257fe5b14151561193e57600080fd5b60003411151561194d57600080fd5b600a5434600a540111151561196157600080fd5b601460003373ffffffffffffffffffffffffffffffffffffffff1673ffffffffffffffffffffffffffffffffffffffff1681526020019081526020016000205434601460003373ffffffffffffffffffffffffffffffffffffffff1673ffffffffffffffffffffffffffffffffffffffff16815260200190815260200160002054011115156119ef57600080fd5b6001601560003373ffffffffffffffffffffffffffffffffffffffff1673ffffffffffffffffffffffffffffffffffffffff16815260200190815260200160002060006101000a81548160ff02191690831515021790555060136060604051908101604052803373ffffffffffffffffffffffffffffffffffffffff168152602001348152602001428152509080600181540180825580915050906001820390600052602060002090600302016000909192909190915060008201518160000160006101000a81548173ffffffffffffffffffffffffffffffffffffffff021916908373ffffffffffffffffffffffffffffffffffffffff160217905550602082015181600101556040820151816002015550505034601460003373ffffffffffffffffffffffffffffffffffffffff1673ffffffffffffffffffffffffffffffffffffffff1681526020019081526020016000206000828254019250508190555034600a6000828254019250508190555050565b6001600054141515611b7557600080fd5b600260008190555060001515601660003373ffffffffffffffffffffffffffffffffffffffff1673ffffffffffffffffffffffffffffffffffffffff16815260200190815260200160002060009054906101000a900460ff161515141515611bdc57600080fd5b611be4611e2b565b6001600081905550565b6000601380549050905090565b60118054600181600116156101000203166002900480601f016020809104026020016040519081016040528092919081815260200182805460018160011615610100020316600290048015611c915780601f10611c6657610100808354040283529160200191611c91565b820191906000526020600020905b815481529060010190602001808311611c7457829003601f168201915b505050505081565b600960149054906101000a900460ff1681565b60035481565b60055481565b600f544201600b819055506001600960146101000a81548160ff02191690836004811115611ce257fe5b0217905550565b6003600960146101000a81548160ff02191690836004811115611d0857fe5b0217905550565b601260009054906101000a900473ffffffffffffffffffffffffffffffffffffffff1673ffffffffffffffffffffffffffffffffffffffff163373ffffffffffffffffffffffffffffffffffffffff16141515611d6b57600080fd5b6001601660003373ffffffffffffffffffffffffffffffffffffffff1673ffffffffffffffffffffffffffffffffffffffff16815260200190815260200160002060006101000a81548160ff0219169083151502179055506000600a819055503373ffffffffffffffffffffffffffffffffffffffff166108fc3073ffffffffffffffffffffffffffffffffffffffff16319081150290604051600060405180830381858888f19350505050158015611e28573d6000803e3d6000fd5b50565b60011515601560003373ffffffffffffffffffffffffffffffffffffffff1673ffffffffffffffffffffffffffffffffffffffff16815260200190815260200160002060009054906101000a900460ff161515141515611e8a57600080fd5b6001601660003373ffffffffffffffffffffffffffffffffffffffff1673ffffffffffffffffffffffffffffffffffffffff16815260200190815260200160002060006101000a81548160ff021916908315150217905550601460003373ffffffffffffffffffffffffffffffffffffffff1673ffffffffffffffffffffffffffffffffffffffff16815260200190815260200160002054600a600082825403925050819055503373ffffffffffffffffffffffffffffffffffffffff166108fc601460003373ffffffffffffffffffffffffffffffffffffffff1673ffffffffffffffffffffffffffffffffffffffff168152602001908152602001600020549081150290604051600060405180830381858888f19350505050158015611fb6573d6000803e3d6000fd5b505600a165627a7a7230582070cbcb94b6561a13381ab1b370fa3ec82a8abef1784d4d78a26aaa5cb0799f000029",
  "source": "pragma solidity ^0.4.24;\n\nimport \"./EthFundMe.sol\";\nimport \"./EmergencyStoppable.sol\";\nimport \"../node_modules/zeppelin-solidity/contracts/ReentrancyGuard.sol\";\n\ncontract Campaign is ReentrancyGuard {\n\n  // function testAdministrated() public returns(bool){\n  //   return Administrated.deployed().isAdmin(msg.sender);\n  // }\n\n  /**\n    Implement EmergencyStoppable Interface\n   */\n  function isAuthorized() \n    internal \n    view\n    returns(bool)\n  {\n    return efm.isAdmin(msg.sender);\n  }\n\n  /**\n    DATA STRUCTURES\n   */\n\n  enum ApprovalStates {\n    Commit,\n    Reveal,\n    Approved,\n    Rejected,\n    Cancelled\n  }\n\n  ApprovalStates public approvalState = ApprovalStates.Commit;\n\n  /**\n    STATE VARIABLES\n   */\n\n  uint public numApprovals;\n  uint public numRejections;\n\n  uint public numVoteSecrets;\n  uint public numVoteReveals;\n\n  mapping(address => bytes32) public voteSecrets;\n  mapping(address => bool) public hasVoted;\n  mapping(address => bool) public hasRevealed;\n\n  /**\n    MODIFIERS\n   */\n\n  // ACCESS RESTRICTION\n  modifier onlyAdmin() {\n    require(efm.isAdmin(msg.sender));\n    _;\n  }\n\n  modifier onlyVotedAdmin() {\n    require(hasVoted[msg.sender] == true);\n    _;\n  }\n\n  modifier onlyNotRevealedAdmin() {\n    require(hasRevealed[msg.sender] == false);\n    _;\n  }\n\n  // STATE MANAGEMENT\n\n  modifier onlyDuringApprovalState(ApprovalStates _approvalState) {\n    require(approvalState == _approvalState);\n    _;\n  }\n\n  modifier endCommit() {\n    _;\n    if (numVoteSecrets == 3) {\n      approvalState = ApprovalStates.Reveal;\n    }\n  }\n\n  // Doesn't require all votes to be revealed only enough.\n  modifier endReveal() {\n    _;\n    if (numApprovals >= 2) {\n      approvalState = ApprovalStates.Approved;\n      onApproval();\n    } \n    if (numRejections >= 2) {\n      approvalState = ApprovalStates.Rejected;\n      onRejection();\n    }\n  }\n\n  /**\n    INTERFACE\n   */\n\n  function vote(bytes32 secretVote) public \n    // stoppedInEmergency\n    onlyAdmin\n    onlyDuringApprovalState(ApprovalStates.Commit) \n    endCommit {\n      voteSecrets[msg.sender] = secretVote;\n      if (hasVoted[msg.sender] == false) {\n        numVoteSecrets++;\n        hasVoted[msg.sender] = true;\n    }\n  }\n\n  function reveal(bool voteOption, uint salt) public \n    // stoppedInEmergency\n    onlyVotedAdmin \n    onlyNotRevealedAdmin\n    onlyDuringApprovalState(ApprovalStates.Reveal) \n    endReveal {\n      require(keccak256(abi.encodePacked(voteOption, salt)) == voteSecrets[msg.sender]);\n\n      if (voteOption) {\n        numApprovals++;\n      } else {\n        numRejections++;\n      }\n\n      numVoteReveals++;\n      hasRevealed[msg.sender] = true;\n  }\n\n  /**\n    DATA STRUCTURES \n   */\n\n  enum CampaignStates {\n    Pending,\n    Active,\n    Successful,\n    Unsuccessful,\n    Cancelled\n  }\n\n  struct Contribution {\n    address addr;\n    uint amount;\n    uint timestamp;\n  }\n\n  /**\n    STATE VARIABLES\n   */\n\n  EthFundMe public efm;\n\n  CampaignStates public campaignState = CampaignStates.Pending;\n  uint public funds = address(this).balance;\n  uint public endDate;\n\n  uint public id;\n  string public title;\n  uint public goal;\n  uint public duration;\n  string public description;\n  string public image;\n  address public manager;\n\n  Contribution[] public contributions;\n  mapping (address => uint) public totalContributed;\n  mapping (address => bool) public hasContributed;\n  mapping (address => bool) public hasWithdrawn;\n\n\n  /**\n    CONSTRUCTOR\n   */\n\n  constructor(\n    uint _id, \n    string _title, \n    uint _goal,  \n    uint _duration, \n    string _description,\n    string _image,\n    address _manager,\n    address efmAddress\n  ) public {\n    id = _id;\n    title = _title;\n    goal = _goal;\n    duration = _duration * 1 days;\n    description = _description;\n    image = _image;\n    manager = _manager;\n    efm = EthFundMe(efmAddress);\n  }\n\n  // STATE TRANSITION/RESTRICTION\n\n  modifier onlyDuringCampaignState(CampaignStates _campaignState) {\n    require(campaignState == _campaignState);\n    _;\n  }\n\n  modifier onlyBeforeCampaignEnd() {\n    require(campaignState <= CampaignStates.Active);\n    _;\n  }\n\n  modifier onlyAfterCampaignEnd() {\n    require(campaignState > CampaignStates.Active);\n    _;\n  }\n\n  // FIXME: Could be renamed to endCampaign\n  modifier transitionState() {\n    if (campaignState == CampaignStates.Active && block.timestamp > endDate\n    ) {\n      \n      if (funds >= goal) {\n        campaignState = CampaignStates.Successful;\n      } else {\n        campaignState = CampaignStates.Unsuccessful;\n      }\n\n    }\n    _;\n  }\n\n  // ACCESS RESTRICTION\n\n  modifier onlyNotManager() {\n    require(msg.sender != manager);\n    _;\n  }\n\n  modifier onlyManager() {\n    require(msg.sender == manager);\n    _;\n  }\n\n  modifier onlyManagerOrAdmin() {\n    // FIXME: Not checking for admin\n    // FIXME: Is this modifier still used/required? \n    require(msg.sender == manager);\n    _;\n  }\n\n  modifier onlyHasNotWithdrawn() {\n    require(hasWithdrawn[msg.sender] == false);\n    _;\n  }\n\n  modifier onlyHasContributed() {\n    require(hasContributed[msg.sender] == true);\n    _;\n  }\n\n  // INPUT VALIDATION\n\n  modifier validateContribution() {\n    //No Zero Contributions\n    require(msg.value > 0); \n     //Integer Overflow Protection\n    require(funds + msg.value > funds);\n    require(totalContributed[msg.sender] + msg.value > totalContributed[msg.sender]);\n    _;\n  }\n  \n  /**\n    FUNCTIONS\n   */\n\n  // INTERNAL FUNCTIONS\n\n  function onApproval() internal {\n    endDate = now + duration;\n    campaignState = CampaignStates.Active;\n  }\n\n  function onRejection() internal {\n    campaignState = CampaignStates.Unsuccessful;\n  }\n\n  function managerWithdrawl() private \n    onlyManager\n  {\n      hasWithdrawn[msg.sender] = true;\n      funds = 0;\n      msg.sender.transfer(address(this).balance);\n  }\n\n  function contributorWithdrawl() private \n    onlyHasContributed\n  {\n    hasWithdrawn[msg.sender] = true;\n    funds -= totalContributed[msg.sender];\n    msg.sender.transfer(totalContributed[msg.sender]);\n  }\n\n  // INTERFACE\n\n  function contribute() public payable \n    // stoppedInEmergency\n    onlyNotManager \n    transitionState\n    onlyDuringCampaignState(CampaignStates.Active)\n    validateContribution {\n      hasContributed[msg.sender] = true;\n      contributions.push(Contribution(msg.sender, msg.value, now));\n      totalContributed[msg.sender] += msg.value;\n      funds += msg.value;\n    }\n  \n  // TODO: Might restrict this to only Managers\n  function cancelCampaign() public\n    // stoppedInEmergency\n    onlyManagerOrAdmin\n    transitionState\n    onlyBeforeCampaignEnd\n    {\n      approvalState = ApprovalStates.Cancelled;\n      campaignState = CampaignStates.Cancelled;\n    }\n\n  // FIXME: Consider removing this function. It's essentially unnecessary since withdraw will end the campaign\n  // but it exists as a formal way of ending the campaign.\n  function endCampaign() public \n    // stoppedInEmergency\n    onlyManagerOrAdmin\n    transitionState\n    onlyAfterCampaignEnd\n    {\n    }\n\n  // Wrapper to private function doing the actual work as described in ReentrancyGuard.sol\n  function withdraw() external\n    // stoppedInEmergency\n    nonReentrant // TODO: How do we test, need a reentrancy contract to call this function. \n    onlyHasNotWithdrawn\n    transitionState \n    onlyAfterCampaignEnd {\n      if (campaignState == CampaignStates.Successful) {\n        managerWithdrawl();\n      }\n\n      if(campaignState == CampaignStates.Unsuccessful || campaignState == CampaignStates.Cancelled) {\n        contributorWithdrawl();\n      }\n  }\n\n  function emergencyWithdraw() external\n    // onlyInEmergency\n    nonReentrant\n    onlyHasNotWithdrawn\n    {\n      contributorWithdrawl();\n    }\n\n  // GETTERS\n  // FIXME: Should the getters transition state?\n  // Decide this when building the frontend. If it can help update state correctly in the frontend it\n  // might be a good idea, otherwise it's unneccessary.\n\n  function getNumContributions() public view returns(uint numContributions) {\n    return contributions.length;\n  }\n\n  // HELPERS\n\n  function isActive() public view returns(bool) {\n    return (block.timestamp < endDate);\n  }\n\n  function getBlockTimestamp() public view returns(uint) {\n    return block.timestamp;\n  }\n\n  function transitionCampaign() public\n    // stoppedInEmergency\n    transitionState \n  {\n    \n  }\n\n  function getTotalContributedFunds() public view returns(uint) {\n    uint result = 0;\n    for (uint i = 0; i < contributions.length; i++) {\n      result += contributions[i].amount;\n    }\n    return result;\n  }\n\n}",
  "sourcePath": "C:\\Users\\jalal\\GitHub\\EthFundMe\\contracts\\Campaign.sol",
  "compiler": {
    "name": "solc",
    "version": "0.4.24+commit.e67f0147.Emscripten.clang"
  },
  "schemaVersion": "2.0.1",
  "updatedAt": "2018-08-16T15:45:04.428Z"
}