{
  "contractName": "Campaign",
  "abi": [
    {
      "constant": true,
      "inputs": [
        {
          "name": "",
          "type": "address"
        }
      ],
      "name": "hasVoted",
      "outputs": [
        {
          "name": "",
          "type": "bool"
        }
      ],
      "payable": false,
      "stateMutability": "view",
      "type": "function"
    },
    {
      "constant": true,
      "inputs": [],
      "name": "duration",
      "outputs": [
        {
          "name": "",
          "type": "uint256"
        }
      ],
      "payable": false,
      "stateMutability": "view",
      "type": "function"
    },
    {
      "constant": false,
      "inputs": [],
      "name": "stopContract",
      "outputs": [],
      "payable": false,
      "stateMutability": "nonpayable",
      "type": "function"
    },
    {
      "constant": true,
      "inputs": [],
      "name": "approvalState",
      "outputs": [
        {
          "name": "",
          "type": "uint8"
        }
      ],
      "payable": false,
      "stateMutability": "view",
      "type": "function"
    },
    {
      "constant": true,
      "inputs": [
        {
          "name": "",
          "type": "uint256"
        }
      ],
      "name": "contributions",
      "outputs": [
        {
          "name": "addr",
          "type": "address"
        },
        {
          "name": "amount",
          "type": "uint256"
        },
        {
          "name": "timestamp",
          "type": "uint256"
        }
      ],
      "payable": false,
      "stateMutability": "view",
      "type": "function"
    },
    {
      "constant": true,
      "inputs": [
        {
          "name": "",
          "type": "address"
        }
      ],
      "name": "hasContributed",
      "outputs": [
        {
          "name": "",
          "type": "bool"
        }
      ],
      "payable": false,
      "stateMutability": "view",
      "type": "function"
    },
    {
      "constant": false,
      "inputs": [
        {
          "name": "voteOption",
          "type": "bool"
        },
        {
          "name": "salt",
          "type": "uint256"
        }
      ],
      "name": "reveal",
      "outputs": [],
      "payable": false,
      "stateMutability": "nonpayable",
      "type": "function"
    },
    {
      "constant": true,
      "inputs": [],
      "name": "isStopped",
      "outputs": [
        {
          "name": "",
          "type": "bool"
        }
      ],
      "payable": false,
      "stateMutability": "view",
      "type": "function"
    },
    {
      "constant": true,
      "inputs": [],
      "name": "goal",
      "outputs": [
        {
          "name": "",
          "type": "uint256"
        }
      ],
      "payable": false,
      "stateMutability": "view",
      "type": "function"
    },
    {
      "constant": true,
      "inputs": [],
      "name": "manager",
      "outputs": [
        {
          "name": "",
          "type": "address"
        }
      ],
      "payable": false,
      "stateMutability": "view",
      "type": "function"
    },
    {
      "constant": true,
      "inputs": [],
      "name": "title",
      "outputs": [
        {
          "name": "",
          "type": "string"
        }
      ],
      "payable": false,
      "stateMutability": "view",
      "type": "function"
    },
    {
      "constant": true,
      "inputs": [
        {
          "name": "",
          "type": "address"
        }
      ],
      "name": "hasWithdrawn",
      "outputs": [
        {
          "name": "",
          "type": "bool"
        }
      ],
      "payable": false,
      "stateMutability": "view",
      "type": "function"
    },
    {
      "constant": true,
      "inputs": [],
      "name": "description",
      "outputs": [
        {
          "name": "",
          "type": "string"
        }
      ],
      "payable": false,
      "stateMutability": "view",
      "type": "function"
    },
    {
      "constant": true,
      "inputs": [],
      "name": "numApprovals",
      "outputs": [
        {
          "name": "",
          "type": "uint256"
        }
      ],
      "payable": false,
      "stateMutability": "view",
      "type": "function"
    },
    {
      "constant": true,
      "inputs": [
        {
          "name": "",
          "type": "address"
        }
      ],
      "name": "totalContributed",
      "outputs": [
        {
          "name": "",
          "type": "uint256"
        }
      ],
      "payable": false,
      "stateMutability": "view",
      "type": "function"
    },
    {
      "constant": false,
      "inputs": [
        {
          "name": "secretVote",
          "type": "bytes32"
        }
      ],
      "name": "vote",
      "outputs": [],
      "payable": false,
      "stateMutability": "nonpayable",
      "type": "function"
    },
    {
      "constant": true,
      "inputs": [
        {
          "name": "",
          "type": "address"
        }
      ],
      "name": "voteSecrets",
      "outputs": [
        {
          "name": "",
          "type": "bytes32"
        }
      ],
      "payable": false,
      "stateMutability": "view",
      "type": "function"
    },
    {
      "constant": true,
      "inputs": [],
      "name": "efm",
      "outputs": [
        {
          "name": "",
          "type": "address"
        }
      ],
      "payable": false,
      "stateMutability": "view",
      "type": "function"
    },
    {
      "constant": true,
      "inputs": [],
      "name": "id",
      "outputs": [
        {
          "name": "",
          "type": "uint256"
        }
      ],
      "payable": false,
      "stateMutability": "view",
      "type": "function"
    },
    {
      "constant": true,
      "inputs": [
        {
          "name": "",
          "type": "address"
        }
      ],
      "name": "hasRevealed",
      "outputs": [
        {
          "name": "",
          "type": "bool"
        }
      ],
      "payable": false,
      "stateMutability": "view",
      "type": "function"
    },
    {
      "constant": true,
      "inputs": [],
      "name": "numVoteSecrets",
      "outputs": [
        {
          "name": "",
          "type": "uint256"
        }
      ],
      "payable": false,
      "stateMutability": "view",
      "type": "function"
    },
    {
      "constant": true,
      "inputs": [],
      "name": "endDate",
      "outputs": [
        {
          "name": "",
          "type": "uint256"
        }
      ],
      "payable": false,
      "stateMutability": "view",
      "type": "function"
    },
    {
      "constant": false,
      "inputs": [],
      "name": "resumeContract",
      "outputs": [],
      "payable": false,
      "stateMutability": "nonpayable",
      "type": "function"
    },
    {
      "constant": true,
      "inputs": [],
      "name": "funds",
      "outputs": [
        {
          "name": "",
          "type": "uint256"
        }
      ],
      "payable": false,
      "stateMutability": "view",
      "type": "function"
    },
    {
      "constant": true,
      "inputs": [],
      "name": "image",
      "outputs": [
        {
          "name": "",
          "type": "string"
        }
      ],
      "payable": false,
      "stateMutability": "view",
      "type": "function"
    },
    {
      "constant": true,
      "inputs": [],
      "name": "campaignState",
      "outputs": [
        {
          "name": "",
          "type": "uint8"
        }
      ],
      "payable": false,
      "stateMutability": "view",
      "type": "function"
    },
    {
      "constant": true,
      "inputs": [],
      "name": "numRejections",
      "outputs": [
        {
          "name": "",
          "type": "uint256"
        }
      ],
      "payable": false,
      "stateMutability": "view",
      "type": "function"
    },
    {
      "constant": true,
      "inputs": [],
      "name": "numVoteReveals",
      "outputs": [
        {
          "name": "",
          "type": "uint256"
        }
      ],
      "payable": false,
      "stateMutability": "view",
      "type": "function"
    },
    {
      "inputs": [
        {
          "name": "_id",
          "type": "uint256"
        },
        {
          "name": "_title",
          "type": "string"
        },
        {
          "name": "_goal",
          "type": "uint256"
        },
        {
          "name": "_duration",
          "type": "uint256"
        },
        {
          "name": "_description",
          "type": "string"
        },
        {
          "name": "_image",
          "type": "string"
        },
        {
          "name": "_manager",
          "type": "address"
        },
        {
          "name": "efmAddress",
          "type": "address"
        }
      ],
      "payable": false,
      "stateMutability": "nonpayable",
      "type": "constructor"
    },
    {
      "constant": false,
      "inputs": [],
      "name": "contribute",
      "outputs": [],
      "payable": true,
      "stateMutability": "payable",
      "type": "function"
    },
    {
      "constant": false,
      "inputs": [],
      "name": "cancelCampaign",
      "outputs": [],
      "payable": false,
      "stateMutability": "nonpayable",
      "type": "function"
    },
    {
      "constant": false,
      "inputs": [],
      "name": "endCampaign",
      "outputs": [],
      "payable": false,
      "stateMutability": "nonpayable",
      "type": "function"
    },
    {
      "constant": false,
      "inputs": [],
      "name": "withdraw",
      "outputs": [],
      "payable": false,
      "stateMutability": "nonpayable",
      "type": "function"
    },
    {
      "constant": false,
      "inputs": [],
      "name": "emergencyWithdraw",
      "outputs": [],
      "payable": false,
      "stateMutability": "nonpayable",
      "type": "function"
    },
    {
      "constant": true,
      "inputs": [],
      "name": "getNumContributions",
      "outputs": [
        {
          "name": "numContributions",
          "type": "uint256"
        }
      ],
      "payable": false,
      "stateMutability": "view",
      "type": "function"
    },
    {
      "constant": true,
      "inputs": [],
      "name": "isActive",
      "outputs": [
        {
          "name": "",
          "type": "bool"
        }
      ],
      "payable": false,
      "stateMutability": "view",
      "type": "function"
    },
    {
      "constant": true,
      "inputs": [],
      "name": "getBlockTimestamp",
      "outputs": [
        {
          "name": "",
          "type": "uint256"
        }
      ],
      "payable": false,
      "stateMutability": "view",
      "type": "function"
    },
    {
      "constant": false,
      "inputs": [],
      "name": "transitionCampaign",
      "outputs": [],
      "payable": false,
      "stateMutability": "nonpayable",
      "type": "function"
    },
    {
      "constant": true,
      "inputs": [],
      "name": "getTotalContributedFunds",
      "outputs": [
        {
          "name": "",
          "type": "uint256"
        }
      ],
      "payable": false,
      "stateMutability": "view",
      "type": "function"
    }
  ],
  "bytecode": "0x608060405260008060146101000a81548160ff02191690831515021790555060008060156101000a81548160ff021916908360048111156200003d57fe5b02179055506000600860006101000a81548160ff0219169083151502179055506000600860016101000a81548160ff021916908360048111156200007d57fe5b02179055503073ffffffffffffffffffffffffffffffffffffffff1631600955348015620000aa57600080fd5b50604051620027ea380380620027ea83398101806040528101908080519060200190929190805182019291906020018051906020019092919080519060200190929190805182019291906020018051820192919060200180519060200190929190805190602001909291905050508080806000806101000a81548173ffffffffffffffffffffffffffffffffffffffff021916908373ffffffffffffffffffffffffffffffffffffffff160217905550505087600b8190555086600c90805190602001906200017b92919062000210565b5085600d81905550620151808502600e8190555083600f9080519060200190620001a792919062000210565b508260109080519060200190620001c092919062000210565b5081601160006101000a81548173ffffffffffffffffffffffffffffffffffffffff021916908373ffffffffffffffffffffffffffffffffffffffff1602179055505050505050505050620002bf565b828054600181600116156101000203166002900490600052602060002090601f016020900481019282601f106200025357805160ff191683800117855562000284565b8280016001018555821562000284579182015b828111156200028357825182559160200191906001019062000266565b5b50905062000293919062000297565b5090565b620002bc91905b80821115620002b85760008160009055506001016200029e565b5090565b90565b61251b80620002cf6000396000f3006080604052600436106101d8576000357c0100000000000000000000000000000000000000000000000000000000900463ffffffff16806309eef43e146101dd5780630fb5a6b41461023857806312253a6c146102635780631afcf1591461027a5780631cee0700146102b3578063205b19461461032e57806322f3e2d41461038957806339f3027d146103b85780633ccfd60b146103f15780633f683b6a146104085780634019388314610437578063481c6a75146104625780634a79d50c146104b95780635e2c19db1461054957806365325386146105a457806371aac7f9146105cf5780637284e416146105e65780637403c5e514610676578063796b89b9146106a1578063980e7844146106cc578063a0f243b8146106e3578063a69beaba1461073a578063aac083451461076b578063ab45be42146107ca578063aedbf409146107e1578063af640d0f14610838578063b9a5301314610863578063c17c5cf0146108be578063c24a0f8b146108e9578063c4bc5da514610914578063c89f2ce41461092b578063d7bb99ba14610956578063db2e21bc14610960578063e70ac62c14610977578063f3ccaac0146109a2578063f4c9b1fd14610a32578063f81292c114610a6b578063facd493914610a96575b600080fd5b3480156101e957600080fd5b5061021e600480360381019080803573ffffffffffffffffffffffffffffffffffffffff169060200190929190505050610ac1565b604051808215151515815260200191505060405180910390f35b34801561024457600080fd5b5061024d610ae1565b6040518082815260200191505060405180910390f35b34801561026f57600080fd5b50610278610ae7565b005b34801561028657600080fd5b5061028f610b17565b6040518082600481111561029f57fe5b60ff16815260200191505060405180910390f35b3480156102bf57600080fd5b506102de60048036038101908080359060200190929190505050610b2a565b604051808473ffffffffffffffffffffffffffffffffffffffff1673ffffffffffffffffffffffffffffffffffffffff168152602001838152602001828152602001935050505060405180910390f35b34801561033a57600080fd5b5061036f600480360381019080803573ffffffffffffffffffffffffffffffffffffffff169060200190929190505050610b83565b604051808215151515815260200191505060405180910390f35b34801561039557600080fd5b5061039e610ba3565b604051808215151515815260200191505060405180910390f35b3480156103c457600080fd5b506103ef60048036038101908080351515906020019092919080359060200190929190505050610baf565b005b3480156103fd57600080fd5b50610406610ed2565b005b34801561041457600080fd5b5061041d611109565b604051808215151515815260200191505060405180910390f35b34801561044357600080fd5b5061044c61111c565b6040518082815260200191505060405180910390f35b34801561046e57600080fd5b50610477611122565b604051808273ffffffffffffffffffffffffffffffffffffffff1673ffffffffffffffffffffffffffffffffffffffff16815260200191505060405180910390f35b3480156104c557600080fd5b506104ce611148565b6040518080602001828103825283818151815260200191508051906020019080838360005b8381101561050e5780820151818401526020810190506104f3565b50505050905090810190601f16801561053b5780820380516001836020036101000a031916815260200191505b509250505060405180910390f35b34801561055557600080fd5b5061058a600480360381019080803573ffffffffffffffffffffffffffffffffffffffff1690602001909291905050506111e6565b604051808215151515815260200191505060405180910390f35b3480156105b057600080fd5b506105b9611206565b6040518082815260200191505060405180910390f35b3480156105db57600080fd5b506105e461125a565b005b3480156105f257600080fd5b506105fb61149d565b6040518080602001828103825283818151815260200191508051906020019080838360005b8381101561063b578082015181840152602081019050610620565b50505050905090810190601f1680156106685780820380516001836020036101000a031916815260200191505b509250505060405180910390f35b34801561068257600080fd5b5061068b61153b565b6040518082815260200191505060405180910390f35b3480156106ad57600080fd5b506106b6611541565b6040518082815260200191505060405180910390f35b3480156106d857600080fd5b506106e1611549565b005b3480156106ef57600080fd5b50610724600480360381019080803573ffffffffffffffffffffffffffffffffffffffff1690602001909291905050506117d5565b6040518082815260200191505060405180910390f35b34801561074657600080fd5b5061076960048036038101908080356000191690602001909291905050506117ed565b005b34801561077757600080fd5b506107ac600480360381019080803573ffffffffffffffffffffffffffffffffffffffff169060200190929190505050611a7f565b60405180826000191660001916815260200191505060405180910390f35b3480156107d657600080fd5b506107df611a97565b005b3480156107ed57600080fd5b506107f6611b4c565b604051808273ffffffffffffffffffffffffffffffffffffffff1673ffffffffffffffffffffffffffffffffffffffff16815260200191505060405180910390f35b34801561084457600080fd5b5061084d611b71565b6040518082815260200191505060405180910390f35b34801561086f57600080fd5b506108a4600480360381019080803573ffffffffffffffffffffffffffffffffffffffff169060200190929190505050611b77565b604051808215151515815260200191505060405180910390f35b3480156108ca57600080fd5b506108d3611b97565b6040518082815260200191505060405180910390f35b3480156108f557600080fd5b506108fe611b9d565b6040518082815260200191505060405180910390f35b34801561092057600080fd5b50610929611ba3565b005b34801561093757600080fd5b50610940611bd2565b6040518082815260200191505060405180910390f35b61095e611bd8565b005b34801561096c57600080fd5b50610975611f43565b005b34801561098357600080fd5b5061098c612019565b6040518082815260200191505060405180910390f35b3480156109ae57600080fd5b506109b7612026565b6040518080602001828103825283818151815260200191508051906020019080838360005b838110156109f75780820151818401526020810190506109dc565b50505050905090810190601f168015610a245780820380516001836020036101000a031916815260200191505b509250505060405180910390f35b348015610a3e57600080fd5b50610a476120c4565b60405180826004811115610a5757fe5b60ff16815260200191505060405180910390f35b348015610a7757600080fd5b50610a806120d7565b6040518082815260200191505060405180910390f35b348015610aa257600080fd5b50610aab6120dd565b6040518082815260200191505060405180910390f35b60066020528060005260406000206000915054906101000a900460ff1681565b600e5481565b610aef6120e3565b1515610afa57600080fd5b6001600060146101000a81548160ff021916908315150217905550565b600060159054906101000a900460ff1681565b601281815481101515610b3957fe5b90600052602060002090600302016000915090508060000160009054906101000a900473ffffffffffffffffffffffffffffffffffffffff16908060010154908060020154905083565b60146020528060005260406000206000915054906101000a900460ff1681565b6000600a544210905090565b600060149054906101000a900460ff16151515610bcb57600080fd5b60011515600660003373ffffffffffffffffffffffffffffffffffffffff1673ffffffffffffffffffffffffffffffffffffffff16815260200190815260200160002060009054906101000a900460ff161515141515610c2a57600080fd5b60001515600760003373ffffffffffffffffffffffffffffffffffffffff1673ffffffffffffffffffffffffffffffffffffffff16815260200190815260200160002060009054906101000a900460ff161515141515610c8957600080fd5b6001806004811115610c9757fe5b600060159054906101000a900460ff166004811115610cb257fe5b141515610cbe57600080fd5b600560003373ffffffffffffffffffffffffffffffffffffffff1673ffffffffffffffffffffffffffffffffffffffff168152602001908152602001600020546000191683836040516020018083151515157f0100000000000000000000000000000000000000000000000000000000000000028152600101828152602001925050506040516020818303038152906040526040518082805190602001908083835b602083101515610d855780518252602082019150602081019050602083039250610d60565b6001836020036101000a038019825116818451168082178552505050505050905001915050604051809103902060001916141515610dc257600080fd5b8215610ddf57600160008154809291906001019190505550610df2565b6002600081548092919060010191905055505b6004600081548092919060010191905055506001600760003373ffffffffffffffffffffffffffffffffffffffff1673ffffffffffffffffffffffffffffffffffffffff16815260200190815260200160002060006101000a81548160ff0219169083151502179055506002600154101515610e95576002600060156101000a81548160ff02191690836004811115610e8757fe5b0217905550610e946121ee565b5b60028054101515610ecd576003600060156101000a81548160ff02191690836004811115610ebf57fe5b0217905550610ecc61221f565b5b505050565b600060149054906101000a900460ff16151515610eee57600080fd5b600860009054906101000a900460ff16151515610f0a57600080fd5b6001600860006101000a81548160ff02191690831515021790555060001515601560003373ffffffffffffffffffffffffffffffffffffffff1673ffffffffffffffffffffffffffffffffffffffff16815260200190815260200160002060009054906101000a900460ff161515141515610f8457600080fd5b60016004811115610f9157fe5b600860019054906101000a900460ff166004811115610fac57fe5b148015610fba5750600a5442115b1561101b57600d54600954101515610ff5576002600860016101000a81548160ff02191690836004811115610feb57fe5b021790555061101a565b6003600860016101000a81548160ff0219169083600481111561101457fe5b02179055505b5b6001600481111561102857fe5b600860019054906101000a900460ff16600481111561104357fe5b11151561104f57600080fd5b6002600481111561105c57fe5b600860019054906101000a900460ff16600481111561107757fe5b141561108657611085612245565b5b6003600481111561109357fe5b600860019054906101000a900460ff1660048111156110ae57fe5b14806110de57506004808111156110c157fe5b600860019054906101000a900460ff1660048111156110dc57fe5b145b156110ec576110eb612361565b5b6000600860006101000a81548160ff021916908315150217905550565b600060149054906101000a900460ff1681565b600d5481565b601160009054906101000a900473ffffffffffffffffffffffffffffffffffffffff1681565b600c8054600181600116156101000203166002900480601f0160208091040260200160405190810160405280929190818152602001828054600181600116156101000203166002900480156111de5780601f106111b3576101008083540402835291602001916111de565b820191906000526020600020905b8154815290600101906020018083116111c157829003601f168201915b505050505081565b60156020528060005260406000206000915054906101000a900460ff1681565b6000806000809150600090505b6012805490508110156112525760128181548110151561122f57fe5b906000526020600020906003020160010154820191508080600101915050611213565b819250505090565b600060149054906101000a900460ff1615151561127657600080fd5b601160009054906101000a900473ffffffffffffffffffffffffffffffffffffffff1673ffffffffffffffffffffffffffffffffffffffff163373ffffffffffffffffffffffffffffffffffffffff1614806113c557506000809054906101000a900473ffffffffffffffffffffffffffffffffffffffff1673ffffffffffffffffffffffffffffffffffffffff166324d7806c336040518263ffffffff167c0100000000000000000000000000000000000000000000000000000000028152600401808273ffffffffffffffffffffffffffffffffffffffff1673ffffffffffffffffffffffffffffffffffffffff168152602001915050602060405180830381600087803b15801561138957600080fd5b505af115801561139d573d6000803e3d6000fd5b505050506040513d60208110156113b357600080fd5b81019080805190602001909291905050505b15156113d057600080fd5b600160048111156113dd57fe5b600860019054906101000a900460ff1660048111156113f857fe5b1480156114065750600a5442115b1561146757600d54600954101515611441576002600860016101000a81548160ff0219169083600481111561143757fe5b0217905550611466565b6003600860016101000a81548160ff0219169083600481111561146057fe5b02179055505b5b6001600481111561147457fe5b600860019054906101000a900460ff16600481111561148f57fe5b11151561149b57600080fd5b565b600f8054600181600116156101000203166002900480601f0160208091040260200160405190810160405280929190818152602001828054600181600116156101000203166002900480156115335780601f1061150857610100808354040283529160200191611533565b820191906000526020600020905b81548152906001019060200180831161151657829003601f168201915b505050505081565b60015481565b600042905090565b600060149054906101000a900460ff1615151561156557600080fd5b601160009054906101000a900473ffffffffffffffffffffffffffffffffffffffff1673ffffffffffffffffffffffffffffffffffffffff163373ffffffffffffffffffffffffffffffffffffffff1614806116b457506000809054906101000a900473ffffffffffffffffffffffffffffffffffffffff1673ffffffffffffffffffffffffffffffffffffffff166324d7806c336040518263ffffffff167c0100000000000000000000000000000000000000000000000000000000028152600401808273ffffffffffffffffffffffffffffffffffffffff1673ffffffffffffffffffffffffffffffffffffffff168152602001915050602060405180830381600087803b15801561167857600080fd5b505af115801561168c573d6000803e3d6000fd5b505050506040513d60208110156116a257600080fd5b81019080805190602001909291905050505b15156116bf57600080fd5b600160048111156116cc57fe5b600860019054906101000a900460ff1660048111156116e757fe5b1480156116f55750600a5442115b1561175657600d54600954101515611730576002600860016101000a81548160ff0219169083600481111561172657fe5b0217905550611755565b6003600860016101000a81548160ff0219169083600481111561174f57fe5b02179055505b5b6001600481111561176357fe5b600860019054906101000a900460ff16600481111561177e57fe5b1115151561178b57600080fd5b6004600060156101000a81548160ff021916908360048111156117aa57fe5b02179055506004600860016101000a81548160ff021916908360048111156117ce57fe5b0217905550565b60136020528060005260406000206000915090505481565b600060149054906101000a900460ff1615151561180957600080fd5b6000809054906101000a900473ffffffffffffffffffffffffffffffffffffffff1673ffffffffffffffffffffffffffffffffffffffff166324d7806c336040518263ffffffff167c0100000000000000000000000000000000000000000000000000000000028152600401808273ffffffffffffffffffffffffffffffffffffffff1673ffffffffffffffffffffffffffffffffffffffff168152602001915050602060405180830381600087803b1580156118c557600080fd5b505af11580156118d9573d6000803e3d6000fd5b505050506040513d60208110156118ef57600080fd5b8101908080519060200190929190505050151561190b57600080fd5b600080600481111561191957fe5b600060159054906101000a900460ff16600481111561193457fe5b14151561194057600080fd5b81600560003373ffffffffffffffffffffffffffffffffffffffff1673ffffffffffffffffffffffffffffffffffffffff168152602001908152602001600020816000191690555060001515600660003373ffffffffffffffffffffffffffffffffffffffff1673ffffffffffffffffffffffffffffffffffffffff16815260200190815260200160002060009054906101000a900460ff1615151415611a4c576003600081548092919060010191905055506001600660003373ffffffffffffffffffffffffffffffffffffffff1673ffffffffffffffffffffffffffffffffffffffff16815260200190815260200160002060006101000a81548160ff0219169083151502179055505b600380541415611a7b576001600060156101000a81548160ff02191690836004811115611a7557fe5b02179055505b5050565b60056020528060005260406000206000915090505481565b600060149054906101000a900460ff16151515611ab357600080fd5b60016004811115611ac057fe5b600860019054906101000a900460ff166004811115611adb57fe5b148015611ae95750600a5442115b15611b4a57600d54600954101515611b24576002600860016101000a81548160ff02191690836004811115611b1a57fe5b0217905550611b49565b6003600860016101000a81548160ff02191690836004811115611b4357fe5b02179055505b5b565b6000809054906101000a900473ffffffffffffffffffffffffffffffffffffffff1681565b600b5481565b60076020528060005260406000206000915054906101000a900460ff1681565b60035481565b600a5481565b611bab6120e3565b1515611bb657600080fd5b60008060146101000a81548160ff021916908315150217905550565b60095481565b600060149054906101000a900460ff16151515611bf457600080fd5b601160009054906101000a900473ffffffffffffffffffffffffffffffffffffffff1673ffffffffffffffffffffffffffffffffffffffff163373ffffffffffffffffffffffffffffffffffffffff1614151515611c5157600080fd5b60016004811115611c5e57fe5b600860019054906101000a900460ff166004811115611c7957fe5b148015611c875750600a5442115b15611ce857600d54600954101515611cc2576002600860016101000a81548160ff02191690836004811115611cb857fe5b0217905550611ce7565b6003600860016101000a81548160ff02191690836004811115611ce157fe5b02179055505b5b6001806004811115611cf657fe5b600860019054906101000a900460ff166004811115611d1157fe5b141515611d1d57600080fd5b600034111515611d2c57600080fd5b6009543460095401111515611d4057600080fd5b601360003373ffffffffffffffffffffffffffffffffffffffff1673ffffffffffffffffffffffffffffffffffffffff1681526020019081526020016000205434601360003373ffffffffffffffffffffffffffffffffffffffff1673ffffffffffffffffffffffffffffffffffffffff1681526020019081526020016000205401111515611dce57600080fd5b6001601460003373ffffffffffffffffffffffffffffffffffffffff1673ffffffffffffffffffffffffffffffffffffffff16815260200190815260200160002060006101000a81548160ff02191690831515021790555060126060604051908101604052803373ffffffffffffffffffffffffffffffffffffffff168152602001348152602001428152509080600181540180825580915050906001820390600052602060002090600302016000909192909190915060008201518160000160006101000a81548173ffffffffffffffffffffffffffffffffffffffff021916908373ffffffffffffffffffffffffffffffffffffffff160217905550602082015181600101556040820151816002015550505034601360003373ffffffffffffffffffffffffffffffffffffffff1673ffffffffffffffffffffffffffffffffffffffff168152602001908152602001600020600082825401925050819055503460096000828254019250508190555050565b600060149054906101000a900460ff161515611f5e57600080fd5b600860009054906101000a900460ff16151515611f7a57600080fd5b6001600860006101000a81548160ff02191690831515021790555060001515601560003373ffffffffffffffffffffffffffffffffffffffff1673ffffffffffffffffffffffffffffffffffffffff16815260200190815260200160002060009054906101000a900460ff161515141515611ff457600080fd5b611ffc612361565b6000600860006101000a81548160ff021916908315150217905550565b6000601280549050905090565b60108054600181600116156101000203166002900480601f0160208091040260200160405190810160405280929190818152602001828054600181600116156101000203166002900480156120bc5780601f10612091576101008083540402835291602001916120bc565b820191906000526020600020905b81548152906001019060200180831161209f57829003601f168201915b505050505081565b600860019054906101000a900460ff1681565b60025481565b60045481565b60008060009054906101000a900473ffffffffffffffffffffffffffffffffffffffff1673ffffffffffffffffffffffffffffffffffffffff166324d7806c336040518263ffffffff167c0100000000000000000000000000000000000000000000000000000000028152600401808273ffffffffffffffffffffffffffffffffffffffff1673ffffffffffffffffffffffffffffffffffffffff168152602001915050602060405180830381600087803b1580156121a157600080fd5b505af11580156121b5573d6000803e3d6000fd5b505050506040513d60208110156121cb57600080fd5b810190808051906020019092919050505015156121e757600080fd5b6001905090565b600e544201600a819055506001600860016101000a81548160ff0219169083600481111561221857fe5b0217905550565b6003600860016101000a81548160ff0219169083600481111561223e57fe5b0217905550565b601160009054906101000a900473ffffffffffffffffffffffffffffffffffffffff1673ffffffffffffffffffffffffffffffffffffffff163373ffffffffffffffffffffffffffffffffffffffff161415156122a157600080fd5b6001601560003373ffffffffffffffffffffffffffffffffffffffff1673ffffffffffffffffffffffffffffffffffffffff16815260200190815260200160002060006101000a81548160ff02191690831515021790555060006009819055503373ffffffffffffffffffffffffffffffffffffffff166108fc3073ffffffffffffffffffffffffffffffffffffffff16319081150290604051600060405180830381858888f1935050505015801561235e573d6000803e3d6000fd5b50565b60011515601460003373ffffffffffffffffffffffffffffffffffffffff1673ffffffffffffffffffffffffffffffffffffffff16815260200190815260200160002060009054906101000a900460ff1615151415156123c057600080fd5b6001601560003373ffffffffffffffffffffffffffffffffffffffff1673ffffffffffffffffffffffffffffffffffffffff16815260200190815260200160002060006101000a81548160ff021916908315150217905550601360003373ffffffffffffffffffffffffffffffffffffffff1673ffffffffffffffffffffffffffffffffffffffff168152602001908152602001600020546009600082825403925050819055503373ffffffffffffffffffffffffffffffffffffffff166108fc601360003373ffffffffffffffffffffffffffffffffffffffff1673ffffffffffffffffffffffffffffffffffffffff168152602001908152602001600020549081150290604051600060405180830381858888f193505050501580156124ec573d6000803e3d6000fd5b505600a165627a7a72305820f8d2ad9d21da8718c1e212153ea59a958fad1768a8c37d9ba34ac312fa5038470029",
  "source": "pragma solidity ^0.4.24;\n\nimport \"./EthFundMe.sol\";\nimport \"./EmergencyStoppable.sol\";\nimport \"../installed_contracts/zeppelin/contracts/ReentrancyGuard.sol\";\n\ncontract Administrated {\n  EthFundMe public efm;\n  \n  constructor(address efmAddress) public {\n    efm = EthFundMe(efmAddress);\n  }\n\n  modifier onlyAdmin {\n    require(efm.isAdmin(msg.sender));\n    _;\n  }\n\n}\n\ncontract Approvable is Administrated, EmergencyStoppable {\n\n  /**\n    IMPLEMENT EmergencyStoppable INTERFACE\n    \n   */\n  function isAuthorized() internal \n    onlyAdmin\n    returns(bool) \n  {\n    return true;\n  }\n\n  /**\n    DATA STRUCTURES\n   */\n\n  enum ApprovalStates {\n    Commit,\n    Reveal,\n    Approved,\n    Rejected,\n    Cancelled\n  }\n\n  ApprovalStates public approvalState = ApprovalStates.Commit;\n\n  /**\n    STATE VARIABLES\n   */\n\n  uint public numApprovals;\n  uint public numRejections;\n\n  uint public numVoteSecrets;\n  uint public numVoteReveals;\n\n  mapping(address => bytes32) public voteSecrets;\n  mapping(address => bool) public hasVoted;\n  mapping(address => bool) public hasRevealed;\n\n  /**\n    CONSTRUCTOR\n   */\n\n  constructor(address efmAddress) Administrated(efmAddress) public {\n    \n  }\n\n  /**\n    ABSTRACT FUNCTIONS\n   */\n\n  function onApproval() internal;\n  function onRejection() internal;\n\n  /**\n    MODIFIERS\n   */\n\n  // ACCESS RESTRICTION\n\n  modifier onlyVotedAdmin() {\n    require(hasVoted[msg.sender] == true);\n    _;\n  }\n\n  modifier onlyNotRevealedAdmin() {\n    require(hasRevealed[msg.sender] == false);\n    _;\n  }\n\n  // STATE MANAGEMENT\n\n  modifier onlyDuringApprovalState(ApprovalStates _approvalState) {\n    require(approvalState == _approvalState);\n    _;\n  }\n\n  modifier endCommit() {\n    _;\n    if (numVoteSecrets == 3) {\n      approvalState = ApprovalStates.Reveal;\n    }\n  }\n\n  // Doesn't require all votes to be revealed only enough.\n  modifier endReveal() {\n    _;\n    if (numApprovals >= 2) {\n      approvalState = ApprovalStates.Approved;\n      onApproval();\n    } \n    if (numRejections >= 2) {\n      approvalState = ApprovalStates.Rejected;\n      onRejection();\n    }\n  }\n\n  /**\n    INTERFACE\n   */\n\n  function vote(bytes32 secretVote) public \n    stoppedInEmergency\n    onlyAdmin \n    onlyDuringApprovalState(ApprovalStates.Commit) \n    endCommit {\n      voteSecrets[msg.sender] = secretVote;\n      if (hasVoted[msg.sender] == false) {\n        numVoteSecrets++;\n        hasVoted[msg.sender] = true;\n    }\n  }\n\n  function reveal(bool voteOption, uint salt) public \n    stoppedInEmergency\n    onlyVotedAdmin \n    onlyNotRevealedAdmin\n    onlyDuringApprovalState(ApprovalStates.Reveal) \n    endReveal {\n      require(keccak256(abi.encodePacked(voteOption, salt)) == voteSecrets[msg.sender]);\n\n      if (voteOption) {\n        numApprovals++;\n      } else {\n        numRejections++;\n      }\n\n      numVoteReveals++;\n      hasRevealed[msg.sender] = true;\n  }\n}\n\ncontract Campaign is Approvable, ReentrancyGuard {\n\n  /**\n    DATA STRUCTURES \n   */\n\n  enum CampaignStates {\n    Pending,\n    Active,\n    Successful,\n    Unsuccessful,\n    Cancelled\n  }\n\n  struct Contribution {\n    address addr;\n    uint amount;\n    uint timestamp;\n  }\n\n  /**\n    STATE VARIABLES\n   */\n\n  CampaignStates public campaignState = CampaignStates.Pending;\n  uint public funds = address(this).balance;\n  uint public endDate;\n\n  uint public id;\n  string public title;\n  uint public goal;\n  uint public duration;\n  string public description;\n  string public image;\n  address public manager;\n\n  Contribution[] public contributions;\n  mapping (address => uint) public totalContributed;\n  mapping (address => bool) public hasContributed;\n  mapping (address => bool) public hasWithdrawn;\n\n\n  /**\n    CONSTRUCTOR\n   */\n\n  constructor(\n    uint _id, \n    string _title, \n    uint _goal,  \n    uint _duration, \n    string _description,\n    string _image,\n    address _manager, \n    address efmAddress\n  ) Approvable(efmAddress) public {\n    id = _id;\n    title = _title;\n    goal = _goal;\n    duration = _duration * 1 days;\n    description = _description;\n    image = _image;\n    manager = _manager;\n  }\n\n  // STATE TRANSITION/RESTRICTION\n\n  modifier onlyDuringCampaignState(CampaignStates _campaignState) {\n    require(campaignState == _campaignState);\n    _;\n  }\n\n  modifier onlyBeforeCampaignEnd() {\n    require(campaignState <= CampaignStates.Active);\n    _;\n  }\n\n  modifier onlyAfterCampaignEnd() {\n    require(campaignState > CampaignStates.Active);\n    _;\n  }\n\n  // FIXME: Could be renamed to endCampaign\n  modifier transitionState() {\n    if (campaignState == CampaignStates.Active && block.timestamp > endDate\n    ) {\n      \n      if (funds >= goal) {\n        campaignState = CampaignStates.Successful;\n      } else {\n        campaignState = CampaignStates.Unsuccessful;\n      }\n\n    }\n    _;\n  }\n\n  // ACCESS RESTRICTION\n\n  modifier onlyNotManager() {\n    require(msg.sender != manager);\n    _;\n  }\n\n  modifier onlyManager() {\n    require(msg.sender == manager);\n    _;\n  }\n\n  modifier onlyManagerOrAdmin() {\n    require(msg.sender == manager || efm.isAdmin(msg.sender));\n    _;\n  }\n\n  modifier onlyHasNotWithdrawn() {\n    require(hasWithdrawn[msg.sender] == false);\n    _;\n  }\n\n  modifier onlyHasContributed() {\n    require(hasContributed[msg.sender] == true);\n    _;\n  }\n\n  // INPUT VALIDATION\n\n  modifier validateContribution() {\n    //No Zero Contributions\n    require(msg.value > 0); \n     //Integer Overflow Protection\n    require(funds + msg.value > funds);\n    require(totalContributed[msg.sender] + msg.value > totalContributed[msg.sender]);\n    _;\n  }\n  \n  /**\n    FUNCTIONS\n   */\n\n  // INTERNAL FUNCTIONS\n\n  function onApproval() internal {\n    endDate = now + duration;\n    campaignState = CampaignStates.Active;\n  }\n\n  function onRejection() internal {\n    campaignState = CampaignStates.Unsuccessful;\n  }\n\n  function managerWithdrawl() private \n    onlyManager\n  {\n      hasWithdrawn[msg.sender] = true;\n      funds = 0;\n      msg.sender.transfer(address(this).balance);\n  }\n\n  function contributorWithdrawl() private \n    onlyHasContributed\n  {\n    hasWithdrawn[msg.sender] = true;\n    funds -= totalContributed[msg.sender];\n    msg.sender.transfer(totalContributed[msg.sender]);\n  }\n\n  // INTERFACE\n\n  function contribute() public payable \n    stoppedInEmergency\n    onlyNotManager \n    transitionState\n    onlyDuringCampaignState(CampaignStates.Active)\n    validateContribution {\n      hasContributed[msg.sender] = true;\n      contributions.push(Contribution(msg.sender, msg.value, now));\n      totalContributed[msg.sender] += msg.value;\n      funds += msg.value;\n    }\n  \n  // TODO: Might restrict this to only Managers\n  function cancelCampaign() public\n    stoppedInEmergency\n    onlyManagerOrAdmin\n    transitionState\n    onlyBeforeCampaignEnd\n    {\n      approvalState = ApprovalStates.Cancelled;\n      campaignState = CampaignStates.Cancelled;\n    }\n\n  // FIXME: Consider removing this function. It's essentially unnecessary since withdraw will end the campaign\n  // but it exists as a formal way of ending the campaign.\n  function endCampaign() public \n    stoppedInEmergency\n    onlyManagerOrAdmin\n    transitionState\n    onlyAfterCampaignEnd\n    {\n    }\n\n  // Wrapper to private function doing the actual work as described in ReentrancyGuard.sol\n  function withdraw() external\n    stoppedInEmergency\n    nonReentrant // TODO: How do we test, need a reentrancy contract to call this function. \n    onlyHasNotWithdrawn\n    transitionState \n    onlyAfterCampaignEnd {\n      if (campaignState == CampaignStates.Successful) {\n        managerWithdrawl();\n      }\n\n      if(campaignState == CampaignStates.Unsuccessful || campaignState == CampaignStates.Cancelled) {\n        contributorWithdrawl();\n      }\n  }\n\n  function emergencyWithdraw() external\n    onlyInEmergency\n    nonReentrant\n    onlyHasNotWithdrawn\n    {\n      contributorWithdrawl();\n    }\n\n  // GETTERS\n  // FIXME: Should the getters transition state?\n  // Decide this when building the frontend. If it can help update state correctly in the frontend it\n  // might be a good idea, otherwise it's unneccessary.\n\n  function getNumContributions() public view returns(uint numContributions) {\n    return contributions.length;\n  }\n\n  // HELPERS\n\n  function isActive() public view returns(bool) {\n    return (block.timestamp < endDate);\n  }\n\n  function getBlockTimestamp() public view returns(uint) {\n    return block.timestamp;\n  }\n\n  function transitionCampaign() public\n    stoppedInEmergency\n    transitionState \n  {\n    \n  }\n\n  function getTotalContributedFunds() public view returns(uint) {\n    uint result = 0;\n    for (uint i = 0; i < contributions.length; i++) {\n      result += contributions[i].amount;\n    }\n    return result;\n  }\n\n}",
  "sourcePath": "/mnt/c/Users/jalal/Github/EthFundMe/contracts/Campaign.sol",
  "compiler": {
    "name": "solc",
    "version": "0.4.24+commit.e67f0147.Emscripten.clang"
  },
  "schemaVersion": "2.0.1",
  "updatedAt": "2018-08-16T06:40:10.467Z"
}