{
  "contractName": "CampaignFactory",
  "abi": [
    {
      "constant": true,
      "inputs": [
        {
          "name": "_operator",
          "type": "address"
        },
        {
          "name": "_role",
          "type": "string"
        }
      ],
      "name": "checkRole",
      "outputs": [],
      "payable": false,
      "stateMutability": "view",
      "type": "function"
    },
    {
      "constant": true,
      "inputs": [],
      "name": "numAdmins",
      "outputs": [
        {
          "name": "",
          "type": "uint256"
        }
      ],
      "payable": false,
      "stateMutability": "view",
      "type": "function"
    },
    {
      "constant": false,
      "inputs": [],
      "name": "stopContract",
      "outputs": [],
      "payable": false,
      "stateMutability": "nonpayable",
      "type": "function"
    },
    {
      "constant": true,
      "inputs": [
        {
          "name": "",
          "type": "uint256"
        }
      ],
      "name": "campaigns",
      "outputs": [
        {
          "name": "",
          "type": "address"
        }
      ],
      "payable": false,
      "stateMutability": "view",
      "type": "function"
    },
    {
      "constant": true,
      "inputs": [
        {
          "name": "_operator",
          "type": "address"
        },
        {
          "name": "_role",
          "type": "string"
        }
      ],
      "name": "hasRole",
      "outputs": [
        {
          "name": "",
          "type": "bool"
        }
      ],
      "payable": false,
      "stateMutability": "view",
      "type": "function"
    },
    {
      "constant": true,
      "inputs": [
        {
          "name": "_address",
          "type": "address"
        }
      ],
      "name": "isAdmin",
      "outputs": [
        {
          "name": "",
          "type": "bool"
        }
      ],
      "payable": false,
      "stateMutability": "view",
      "type": "function"
    },
    {
      "constant": true,
      "inputs": [],
      "name": "isStopped",
      "outputs": [
        {
          "name": "",
          "type": "bool"
        }
      ],
      "payable": false,
      "stateMutability": "view",
      "type": "function"
    },
    {
      "constant": false,
      "inputs": [
        {
          "name": "_account",
          "type": "address"
        }
      ],
      "name": "addAdminRole",
      "outputs": [],
      "payable": false,
      "stateMutability": "nonpayable",
      "type": "function"
    },
    {
      "constant": false,
      "inputs": [],
      "name": "resumeContract",
      "outputs": [],
      "payable": false,
      "stateMutability": "nonpayable",
      "type": "function"
    },
    {
      "constant": true,
      "inputs": [],
      "name": "ROLE_ADMIN",
      "outputs": [
        {
          "name": "",
          "type": "string"
        }
      ],
      "payable": false,
      "stateMutability": "view",
      "type": "function"
    },
    {
      "constant": false,
      "inputs": [
        {
          "name": "_account",
          "type": "address"
        }
      ],
      "name": "removeAdminRole",
      "outputs": [],
      "payable": false,
      "stateMutability": "nonpayable",
      "type": "function"
    },
    {
      "inputs": [],
      "payable": false,
      "stateMutability": "nonpayable",
      "type": "constructor"
    },
    {
      "anonymous": false,
      "inputs": [
        {
          "indexed": true,
          "name": "campaignAddress",
          "type": "address"
        }
      ],
      "name": "CampaignCreated",
      "type": "event"
    },
    {
      "anonymous": false,
      "inputs": [
        {
          "indexed": true,
          "name": "operator",
          "type": "address"
        },
        {
          "indexed": false,
          "name": "role",
          "type": "string"
        }
      ],
      "name": "RoleAdded",
      "type": "event"
    },
    {
      "anonymous": false,
      "inputs": [
        {
          "indexed": true,
          "name": "operator",
          "type": "address"
        },
        {
          "indexed": false,
          "name": "role",
          "type": "string"
        }
      ],
      "name": "RoleRemoved",
      "type": "event"
    },
    {
      "constant": false,
      "inputs": [],
      "name": "isAuthorized",
      "outputs": [
        {
          "name": "",
          "type": "bool"
        }
      ],
      "payable": false,
      "stateMutability": "nonpayable",
      "type": "function"
    },
    {
      "constant": false,
      "inputs": [
        {
          "name": "title",
          "type": "string"
        },
        {
          "name": "goal",
          "type": "uint256"
        },
        {
          "name": "duration",
          "type": "uint256"
        },
        {
          "name": "description",
          "type": "string"
        },
        {
          "name": "image",
          "type": "string"
        }
      ],
      "name": "createCampaign",
      "outputs": [
        {
          "name": "",
          "type": "address"
        }
      ],
      "payable": false,
      "stateMutability": "nonpayable",
      "type": "function"
    },
    {
      "constant": true,
      "inputs": [],
      "name": "getNumCampaigns",
      "outputs": [
        {
          "name": "",
          "type": "uint256"
        }
      ],
      "payable": false,
      "stateMutability": "view",
      "type": "function"
    }
  ],
  "bytecode": "0x60806040526000600260006101000a81548160ff02191690831515021790555034801561002b57600080fd5b5061007a336040805190810160405280600581526020017f61646d696e000000000000000000000000000000000000000000000000000000815250610086640100000000026401000000009004565b60018081905550610225565b610110826000836040518082805190602001908083835b6020831015156100c2578051825260208201915060208101905060208303925061009d565b6001836020036101000a03801982511681845116808217855250505050505090500191505090815260200160405180910390206101c764010000000002610ff4179091906401000000009004565b8173ffffffffffffffffffffffffffffffffffffffff167fbfec83d64eaa953f2708271a023ab9ee82057f8f3578d548c1a4ba0b5b700489826040518080602001828103825283818151815260200191508051906020019080838360005b8381101561018957808201518184015260208101905061016e565b50505050905090810190601f1680156101b65780820380516001836020036101000a031916815260200191505b509250505060405180910390a25050565b60018260000160008373ffffffffffffffffffffffffffffffffffffffff1673ffffffffffffffffffffffffffffffffffffffff16815260200190815260200160002060006101000a81548160ff0219169083151502179055505050565b61453880620002356000396000f300608060405260043610620000df576000357c0100000000000000000000000000000000000000000000000000000000900463ffffffff1680630988ca8c14620000e45780630efd4989146200017057806312253a6c146200019e578063141961bc14620001b8578063217fe6c6146200022857806324d7806c14620002cc5780633f683b6a146200032a5780634b2aafcc146200035c57806357e6c2f414620004a85780636595171c14620004da578063c4bc5da51462000520578063d391014b146200053a578063d9a9bb3e14620005d0578063dccfe31014620005fe575b600080fd5b348015620000f157600080fd5b506200016e600480360381019080803573ffffffffffffffffffffffffffffffffffffffff169060200190929190803590602001908201803590602001908080601f016020809104026020016040519081016040528093929190818152602001838380828437820191505050505050919291929050505062000644565b005b3480156200017d57600080fd5b5062000188620006c9565b6040518082815260200191505060405180910390f35b348015620001ab57600080fd5b50620001b6620006cf565b005b348015620001c557600080fd5b50620001e66004803603810190808035906020019092919050505062000702565b604051808273ffffffffffffffffffffffffffffffffffffffff1673ffffffffffffffffffffffffffffffffffffffff16815260200191505060405180910390f35b3480156200023557600080fd5b50620002b2600480360381019080803573ffffffffffffffffffffffffffffffffffffffff169060200190929190803590602001908201803590602001908080601f016020809104026020016040519081016040528093929190818152602001838380828437820191505050505050919291929050505062000741565b604051808215151515815260200191505060405180910390f35b348015620002d957600080fd5b5062000310600480360381019080803573ffffffffffffffffffffffffffffffffffffffff169060200190929190505050620007cc565b604051808215151515815260200191505060405180910390f35b3480156200033757600080fd5b506200034262000816565b604051808215151515815260200191505060405180910390f35b3480156200036957600080fd5b5062000466600480360381019080803590602001908201803590602001908080601f01602080910402602001604051908101604052809392919081815260200183838082843782019150505050505091929192908035906020019092919080359060200190929190803590602001908201803590602001908080601f0160208091040260200160405190810160405280939291908181526020018383808284378201915050505050509192919290803590602001908201803590602001908080601f016020809104026020016040519081016040528093929190818152602001838380828437820191505050505050919291929050505062000829565b604051808273ffffffffffffffffffffffffffffffffffffffff1673ffffffffffffffffffffffffffffffffffffffff16815260200191505060405180910390f35b348015620004b557600080fd5b50620004c062000b4f565b604051808215151515815260200191505060405180910390f35b348015620004e757600080fd5b506200051e600480360381019080803573ffffffffffffffffffffffffffffffffffffffff16906020019092919050505062000b61565b005b3480156200052d57600080fd5b506200053862000bf8565b005b3480156200054757600080fd5b506200055262000c2b565b6040518080602001828103825283818151815260200191508051906020019080838360005b838110156200059457808201518184015260208101905062000577565b50505050905090810190601f168015620005c25780820380516001836020036101000a031916815260200191505b509250505060405180910390f35b348015620005dd57600080fd5b50620005e862000c64565b6040518082815260200191505060405180910390f35b3480156200060b57600080fd5b5062000642600480360381019080803573ffffffffffffffffffffffffffffffffffffffff16906020019092919050505062000c71565b005b620006c5826000836040518082805190602001908083835b6020831015156200068357805182526020820191506020810190506020830392506200065c565b6001836020036101000a038019825116818451168082178552505050505050905001915050908152602001604051809103902062000d0990919063ffffffff16565b5050565b60015481565b620006d962000b4f565b1515620006e557600080fd5b6001600260006101000a81548160ff021916908315150217905550565b6003818154811015156200071257fe5b906000526020600020016000915054906101000a900473ffffffffffffffffffffffffffffffffffffffff1681565b6000620007c4836000846040518082805190602001908083835b6020831015156200078257805182526020820191506020810190506020830392506200075b565b6001836020036101000a038019825116818451168082178552505050505050905001915050908152602001604051809103902062000d2590919063ffffffff16565b905092915050565b60006200080f826040805190810160405280600581526020017f61646d696e00000000000000000000000000000000000000000000000000000081525062000741565b9050919050565b600260009054906101000a900460ff1681565b600080600260009054906101000a900460ff161515156200084957600080fd5b6200088a336040805190810160405280600581526020017f61646d696e00000000000000000000000000000000000000000000000000000081525062000741565b1515156200089757600080fd5b60038054905087878787873330620008ae620010b0565b808981526020018060200188815260200187815260200180602001806020018673ffffffffffffffffffffffffffffffffffffffff1673ffffffffffffffffffffffffffffffffffffffff1681526020018573ffffffffffffffffffffffffffffffffffffffff1673ffffffffffffffffffffffffffffffffffffffff16815260200184810384528b818151815260200191508051906020019080838360005b838110156200096b5780820151818401526020810190506200094e565b50505050905090810190601f168015620009995780820380516001836020036101000a031916815260200191505b50848103835288818151815260200191508051906020019080838360005b83811015620009d4578082015181840152602081019050620009b7565b50505050905090810190601f16801562000a025780820380516001836020036101000a031916815260200191505b50848103825287818151815260200191508051906020019080838360005b8381101562000a3d57808201518184015260208101905062000a20565b50505050905090810190601f16801562000a6b5780820380516001836020036101000a031916815260200191505b509b505050505050505050505050604051809103906000f08015801562000a96573d6000803e3d6000fd5b50905060038190806001815401808255809150509060018203906000526020600020016000909192909190916101000a81548173ffffffffffffffffffffffffffffffffffffffff021916908373ffffffffffffffffffffffffffffffffffffffff160217905550508073ffffffffffffffffffffffffffffffffffffffff167f07a9c134c6ed9c353773b355c69cbf65e34e3c3820554f5b8e1afdecdfb4029260405160405180910390a28091505095945050505050565b600062000b5c33620007cc565b905090565b62000ba2336040805190810160405280600581526020017f61646d696e00000000000000000000000000000000000000000000000000000081525062000644565b62000be3816040805190810160405280600581526020017f61646d696e00000000000000000000000000000000000000000000000000000081525062000d7e565b60016000815480929190600101919050555050565b62000c0262000b4f565b151562000c0e57600080fd5b6000600260006101000a81548160ff021916908315150217905550565b6040805190810160405280600581526020017f61646d696e00000000000000000000000000000000000000000000000000000081525081565b6000600380549050905090565b62000cb2336040805190810160405280600581526020017f61646d696e00000000000000000000000000000000000000000000000000000081525062000644565b62000cf3816040805190810160405280600581526020017f61646d696e00000000000000000000000000000000000000000000000000000081525062000eb9565b6001600081548092919060019003919050555050565b62000d15828262000d25565b151562000d2157600080fd5b5050565b60008260000160008373ffffffffffffffffffffffffffffffffffffffff1673ffffffffffffffffffffffffffffffffffffffff16815260200190815260200160002060009054906101000a900460ff16905092915050565b62000dff826000836040518082805190602001908083835b60208310151562000dbd578051825260208201915060208101905060208303925062000d96565b6001836020036101000a038019825116818451168082178552505050505050905001915050908152602001604051809103902062000ff490919063ffffffff16565b8173ffffffffffffffffffffffffffffffffffffffff167fbfec83d64eaa953f2708271a023ab9ee82057f8f3578d548c1a4ba0b5b700489826040518080602001828103825283818151815260200191508051906020019080838360005b8381101562000e7a57808201518184015260208101905062000e5d565b50505050905090810190601f16801562000ea85780820380516001836020036101000a031916815260200191505b509250505060405180910390a25050565b62000f3a826000836040518082805190602001908083835b60208310151562000ef8578051825260208201915060208101905060208303925062000ed1565b6001836020036101000a03801982511681845116808217855250505050505090500191505090815260200160405180910390206200105290919063ffffffff16565b8173ffffffffffffffffffffffffffffffffffffffff167fd211483f91fc6eff862467f8de606587a30c8fc9981056f051b897a418df803a826040518080602001828103825283818151815260200191508051906020019080838360005b8381101562000fb557808201518184015260208101905062000f98565b50505050905090810190601f16801562000fe35780820380516001836020036101000a031916815260200191505b509250505060405180910390a25050565b60018260000160008373ffffffffffffffffffffffffffffffffffffffff1673ffffffffffffffffffffffffffffffffffffffff16815260200190815260200160002060006101000a81548160ff0219169083151502179055505050565b60008260000160008373ffffffffffffffffffffffffffffffffffffffff1673ffffffffffffffffffffffffffffffffffffffff16815260200190815260200160002060006101000a81548160ff0219169083151502179055505050565b60405161344b80620010c2833901905600608060405260008060006101000a81548160ff0219169083151502179055506000600660006101000a81548160ff021916908360048111156200003e57fe5b021790555060016009556000600a60006101000a81548160ff021916908360048111156200006857fe5b02179055503073ffffffffffffffffffffffffffffffffffffffff1631600b553480156200009557600080fd5b506040516200344b3803806200344b833981018060405281019080805190602001909291908051820192919060200180519060200190929190805190602001909291908051820192919060200180518201929190602001805190602001909291908051906020019092919050505087600d8190555086600e908051906020019062000122929190620001f8565b5085600f8190555062015180850260108190555083601190805190602001906200014e929190620001f8565b50826012908051906020019062000167929190620001f8565b5081601360006101000a81548173ffffffffffffffffffffffffffffffffffffffff021916908373ffffffffffffffffffffffffffffffffffffffff16021790555080600a60016101000a81548173ffffffffffffffffffffffffffffffffffffffff021916908373ffffffffffffffffffffffffffffffffffffffff1602179055505050505050505050620002a7565b828054600181600116156101000203166002900490600052602060002090601f016020900481019282601f106200023b57805160ff19168380011785556200026c565b828001600101855582156200026c579182015b828111156200026b5782518255916020019190600101906200024e565b5b5090506200027b91906200027f565b5090565b620002a491905b80821115620002a057600081600090555060010162000286565b5090565b90565b61319480620002b76000396000f3006080604052600436106101ee576000357c0100000000000000000000000000000000000000000000000000000000900463ffffffff16806309eef43e146101f35780630fb5a6b41461024e57806312253a6c146102795780631afcf159146102905780631cee0700146102c9578063205b19461461034457806322f3e2d41461039f57806339f3027d146103ce5780633ccfd60b146104075780633f683b6a1461041e578063401938831461044d578063481c6a75146104785780634a79d50c146104cf57806357e6c2f41461055f5780635e2c19db1461058e57806365325386146105e957806371aac7f9146106145780637284e4161461062b5780637403c5e5146106bb578063796b89b9146106e65780637fb3761e14610711578063980e78441461073c578063a0f243b814610753578063a69beaba146107aa578063aac08345146107db578063ab45be421461083a578063af640d0f14610851578063b9a530131461087c578063c17c5cf0146108d7578063c24a0f8b14610902578063c4bc5da51461092d578063c89f2ce414610944578063d7bb99ba1461096f578063db2e21bc14610979578063e2d3b70914610990578063e70ac62c146109e7578063f3ccaac014610a12578063f4c9b1fd14610aa2578063f81292c114610adb578063facd493914610b06575b600080fd5b3480156101ff57600080fd5b50610234600480360381019080803573ffffffffffffffffffffffffffffffffffffffff169060200190929190505050610b31565b604051808215151515815260200191505060405180910390f35b34801561025a57600080fd5b50610263610b51565b6040518082815260200191505060405180910390f35b34801561028557600080fd5b5061028e610b57565b005b34801561029c57600080fd5b506102a5610bef565b604051808260048111156102b557fe5b60ff16815260200191505060405180910390f35b3480156102d557600080fd5b506102f460048036038101908080359060200190929190505050610c02565b604051808473ffffffffffffffffffffffffffffffffffffffff1673ffffffffffffffffffffffffffffffffffffffff168152602001838152602001828152602001935050505060405180910390f35b34801561035057600080fd5b50610385600480360381019080803573ffffffffffffffffffffffffffffffffffffffff169060200190929190505050610c5b565b604051808215151515815260200191505060405180910390f35b3480156103ab57600080fd5b506103b4610c7b565b604051808215151515815260200191505060405180910390f35b3480156103da57600080fd5b5061040560048036038101908080351515906020019092919080359060200190929190505050610c87565b005b34801561041357600080fd5b5061041c611233565b005b34801561042a57600080fd5b5061043361150a565b604051808215151515815260200191505060405180910390f35b34801561045957600080fd5b5061046261151c565b6040518082815260200191505060405180910390f35b34801561048457600080fd5b5061048d611522565b604051808273ffffffffffffffffffffffffffffffffffffffff1673ffffffffffffffffffffffffffffffffffffffff16815260200191505060405180910390f35b3480156104db57600080fd5b506104e4611548565b6040518080602001828103825283818151815260200191508051906020019080838360005b83811015610524578082015181840152602081019050610509565b50505050905090810190601f1680156105515780820380516001836020036101000a031916815260200191505b509250505060405180910390f35b34801561056b57600080fd5b506105746115e6565b604051808215151515815260200191505060405180910390f35b34801561059a57600080fd5b506105cf600480360381019080803573ffffffffffffffffffffffffffffffffffffffff1690602001909291905050506116e5565b604051808215151515815260200191505060405180910390f35b3480156105f557600080fd5b506105fe611705565b6040518082815260200191505060405180910390f35b34801561062057600080fd5b50610629611759565b005b34801561063757600080fd5b50610640611aff565b6040518080602001828103825283818151815260200191508051906020019080838360005b83811015610680578082015181840152602081019050610665565b50505050905090810190601f1680156106ad5780820380516001836020036101000a031916815260200191505b509250505060405180910390f35b3480156106c757600080fd5b506106d0611b9d565b6040518082815260200191505060405180910390f35b3480156106f257600080fd5b506106fb611ba3565b6040518082815260200191505060405180910390f35b34801561071d57600080fd5b50610726611bab565b6040518082815260200191505060405180910390f35b34801561074857600080fd5b50610751611c7f565b005b34801561075f57600080fd5b50610794600480360381019080803573ffffffffffffffffffffffffffffffffffffffff169060200190929190505050611f15565b6040518082815260200191505060405180910390f35b3480156107b657600080fd5b506107d96004803603810190808035600019169060200190929190505050611f2d565b005b3480156107e757600080fd5b5061081c600480360381019080803573ffffffffffffffffffffffffffffffffffffffff169060200190929190505050612217565b60405180826000191660001916815260200191505060405180910390f35b34801561084657600080fd5b5061084f61222f565b005b34801561085d57600080fd5b506108666122e3565b6040518082815260200191505060405180910390f35b34801561088857600080fd5b506108bd600480360381019080803573ffffffffffffffffffffffffffffffffffffffff1690602001909291905050506122e9565b604051808215151515815260200191505060405180910390f35b3480156108e357600080fd5b506108ec612309565b6040518082815260200191505060405180910390f35b34801561090e57600080fd5b5061091761230f565b6040518082815260200191505060405180910390f35b34801561093957600080fd5b50610942612315565b005b34801561095057600080fd5b506109596123ad565b6040518082815260200191505060405180910390f35b6109776123b3565b005b34801561098557600080fd5b5061098e61296d565b005b34801561099c57600080fd5b506109a5612a7a565b604051808273ffffffffffffffffffffffffffffffffffffffff1673ffffffffffffffffffffffffffffffffffffffff16815260200191505060405180910390f35b3480156109f357600080fd5b506109fc612aa0565b6040518082815260200191505060405180910390f35b348015610a1e57600080fd5b50610a27612aad565b6040518080602001828103825283818151815260200191508051906020019080838360005b83811015610a67578082015181840152602081019050610a4c565b50505050905090810190601f168015610a945780820380516001836020036101000a031916815260200191505b509250505060405180910390f35b348015610aae57600080fd5b50610ab7612b4b565b60405180826004811115610ac757fe5b60ff16815260200191505060405180910390f35b348015610ae757600080fd5b50610af0612b5e565b6040518082815260200191505060405180910390f35b348015610b1257600080fd5b50610b1b612b64565b6040518082815260200191505060405180910390f35b60026020528060005260406000206000915054906101000a900460ff1681565b60105481565b610b5f6115e6565b1515610bd3576040517f08c379a000000000000000000000000000000000000000000000000000000000815260040180806020018281038252600f8152602001807f4f6e6c7920617574686f72697a6564000000000000000000000000000000000081525060200191505060405180910390fd5b60016000806101000a81548160ff021916908315150217905550565b600660009054906101000a900460ff1681565b601481815481101515610c1157fe5b90600052602060002090600302016000915090508060000160009054906101000a900473ffffffffffffffffffffffffffffffffffffffff16908060010154908060020154905083565b60166020528060005260406000206000915054906101000a900460ff1681565b6000600c544210905090565b6000809054906101000a900460ff16151515610ca257600080fd5b60011515600260003373ffffffffffffffffffffffffffffffffffffffff1673ffffffffffffffffffffffffffffffffffffffff16815260200190815260200160002060009054906101000a900460ff161515141515610d6a576040517f08c379a00000000000000000000000000000000000000000000000000000000081526004018080602001828103825260158152602001807f4163636f756e7420686173206e6f7420766f746564000000000000000000000081525060200191505060405180910390fd5b60001515600360003373ffffffffffffffffffffffffffffffffffffffff1673ffffffffffffffffffffffffffffffffffffffff16815260200190815260200160002060009054906101000a900460ff161515141515610e32576040517f08c379a000000000000000000000000000000000000000000000000000000000815260040180806020018281038252601c8152602001807f4163636f756e742068617320616c72656164792072657665616c65640000000081525060200191505060405180910390fd5b6001806004811115610e4057fe5b600660009054906101000a900460ff166004811115610e5b57fe5b141515610ed0576040517f08c379a00000000000000000000000000000000000000000000000000000000081526004018080602001828103825260168152602001807f496e76616c696420617070726f76616c2073746174650000000000000000000081525060200191505060405180910390fd5b600080600160003373ffffffffffffffffffffffffffffffffffffffff1673ffffffffffffffffffffffffffffffffffffffff168152602001908152602001600020546000191685856040516020018083151515157f0100000000000000000000000000000000000000000000000000000000000000028152600101828152602001925050506040516020818303038152906040526040518082805190602001908083835b602083101515610f9a5780518252602082019150602081019050602083039250610f75565b6001836020036101000a038019825116818451168082178552505050505050905001915050604051809103902060001916141515611040576040517f08c379a00000000000000000000000000000000000000000000000000000000081526004018080602001828103825260198152602001807f566f7465207365637265747320646f206e6f74206d617463680000000000000081525060200191505060405180910390fd5b841561105d57600760008154809291906001019190505550611070565b6008600081548092919060010191905055505b6005600081548092919060010191905055506001600360003373ffffffffffffffffffffffffffffffffffffffff1673ffffffffffffffffffffffffffffffffffffffff16815260200190815260200160002060006101000a81548160ff0219169083151502179055503373ffffffffffffffffffffffffffffffffffffffff167faac607b7c8f3c85450600d535f6327d068a498f27ac0107b252c11e6f69afce460405160405180910390a2611125612b6a565b915060028281151561113357fe5b0660028381151561114057fe5b04019050806007541015156111b8576002600660006101000a81548160ff0219169083600481111561116e57fe5b021790555061117b612c32565b7f98788f3a438dcc998b20544951a23a4bbf522b2c4897ea44b2e3b696d3ea08cb6001604051808215151515815260200191505060405180910390a15b8060085410151561122c576003600660006101000a81548160ff021916908360048111156111e257fe5b02179055506111ef612c9a565b7f98788f3a438dcc998b20544951a23a4bbf522b2c4897ea44b2e3b696d3ea08cb6000604051808215151515815260200191505060405180910390a15b5050505050565b6000809054906101000a900460ff1615151561124e57600080fd5b600160095414151561125f57600080fd5b600260098190555060001515601760003373ffffffffffffffffffffffffffffffffffffffff1673ffffffffffffffffffffffffffffffffffffffff16815260200190815260200160002060009054906101000a900460ff16151514151561132f576040517f08c379a000000000000000000000000000000000000000000000000000000000815260040180806020018281038252601a8152602001807f557365722068617320616c72656164792077697468647261776e00000000000081525060200191505060405180910390fd5b6001600481111561133c57fe5b600a60009054906101000a900460ff16600481111561135757fe5b1480156113655750600c5442115b156113c657600f54600b541015156113a0576002600a60006101000a81548160ff0219169083600481111561139657fe5b02179055506113c5565b6003600a60006101000a81548160ff021916908360048111156113bf57fe5b02179055505b5b600160048111156113d357fe5b600a60009054906101000a900460ff1660048111156113ee57fe5b111515611463576040517f08c379a00000000000000000000000000000000000000000000000000000000081526004018080602001828103825260188152602001807f43616d706169676e206d757374206861766520656e646564000000000000000081525060200191505060405180910390fd5b6002600481111561147057fe5b600a60009054906101000a900460ff16600481111561148b57fe5b141561149a57611499612cc0565b5b600360048111156114a757fe5b600a60009054906101000a900460ff1660048111156114c257fe5b14806114f257506004808111156114d557fe5b600a60009054906101000a900460ff1660048111156114f057fe5b145b15611500576114ff612ec7565b5b6001600981905550565b6000809054906101000a900460ff1681565b600f5481565b601360009054906101000a900473ffffffffffffffffffffffffffffffffffffffff1681565b600e8054600181600116156101000203166002900480601f0160208091040260200160405190810160405280929190818152602001828054600181600116156101000203166002900480156115de5780601f106115b3576101008083540402835291602001916115de565b820191906000526020600020905b8154815290600101906020018083116115c157829003601f168201915b505050505081565b6000600a60019054906101000a900473ffffffffffffffffffffffffffffffffffffffff1673ffffffffffffffffffffffffffffffffffffffff166324d7806c336040518263ffffffff167c0100000000000000000000000000000000000000000000000000000000028152600401808273ffffffffffffffffffffffffffffffffffffffff1673ffffffffffffffffffffffffffffffffffffffff168152602001915050602060405180830381600087803b1580156116a557600080fd5b505af11580156116b9573d6000803e3d6000fd5b505050506040513d60208110156116cf57600080fd5b8101908080519060200190929190505050905090565b60176020528060005260406000206000915054906101000a900460ff1681565b6000806000809150600090505b6014805490508110156117515760148181548110151561172e57fe5b906000526020600020906003020160010154820191508080600101915050611712565b819250505090565b6000809054906101000a900460ff1615151561177457600080fd5b601360009054906101000a900473ffffffffffffffffffffffffffffffffffffffff1673ffffffffffffffffffffffffffffffffffffffff163373ffffffffffffffffffffffffffffffffffffffff1614806118c45750600a60019054906101000a900473ffffffffffffffffffffffffffffffffffffffff1673ffffffffffffffffffffffffffffffffffffffff166324d7806c336040518263ffffffff167c0100000000000000000000000000000000000000000000000000000000028152600401808273ffffffffffffffffffffffffffffffffffffffff1673ffffffffffffffffffffffffffffffffffffffff168152602001915050602060405180830381600087803b15801561188857600080fd5b505af115801561189c573d6000803e3d6000fd5b505050506040513d60208110156118b257600080fd5b81019080805190602001909291905050505b151561195e576040517f08c379a00000000000000000000000000000000000000000000000000000000081526004018080602001828103825260298152602001807f4f6e6c792063616d706169676e206d616e61676572206f722061646d696e206181526020017f7574686f72697a6564000000000000000000000000000000000000000000000081525060400191505060405180910390fd5b6001600481111561196b57fe5b600a60009054906101000a900460ff16600481111561198657fe5b1480156119945750600c5442115b156119f557600f54600b541015156119cf576002600a60006101000a81548160ff021916908360048111156119c557fe5b02179055506119f4565b6003600a60006101000a81548160ff021916908360048111156119ee57fe5b02179055505b5b60016004811115611a0257fe5b600a60009054906101000a900460ff166004811115611a1d57fe5b111515611a92576040517f08c379a00000000000000000000000000000000000000000000000000000000081526004018080602001828103825260188152602001807f43616d706169676e206d757374206861766520656e646564000000000000000081525060200191505060405180910390fd5b7f021049c8b5f373d2d98ff4dcef92b9028b544188c5adea38f2f11807afd5bff14260026004811115611ac157fe5b600a60009054906101000a900460ff166004811115611adc57fe5b1460405180838152602001821515151581526020019250505060405180910390a1565b60118054600181600116156101000203166002900480601f016020809104026020016040519081016040528092919081815260200182805460018160011615610100020316600290048015611b955780601f10611b6a57610100808354040283529160200191611b95565b820191906000526020600020905b815481529060010190602001808311611b7857829003601f168201915b505050505081565b60075481565b600042905090565b60008060009054906101000a900460ff16151515611bc857600080fd5b60016004811115611bd557fe5b600a60009054906101000a900460ff166004811115611bf057fe5b148015611bfe5750600c5442115b15611c5f57600f54600b54101515611c39576002600a60006101000a81548160ff02191690836004811115611c2f57fe5b0217905550611c5e565b6003600a60006101000a81548160ff02191690836004811115611c5857fe5b02179055505b5b600a60009054906101000a900460ff166004811115611c7a57fe5b905090565b6000809054906101000a900460ff16151515611c9a57600080fd5b601360009054906101000a900473ffffffffffffffffffffffffffffffffffffffff1673ffffffffffffffffffffffffffffffffffffffff163373ffffffffffffffffffffffffffffffffffffffff16141515611d5f576040517f08c379a00000000000000000000000000000000000000000000000000000000081526004018080602001828103825260208152602001807f4f6e6c792063616d706169676e206d616e6167657220617574686f72697a656481525060200191505060405180910390fd5b60016004811115611d6c57fe5b600a60009054906101000a900460ff166004811115611d8757fe5b148015611d955750600c5442115b15611df657600f54600b54101515611dd0576002600a60006101000a81548160ff02191690836004811115611dc657fe5b0217905550611df5565b6003600a60006101000a81548160ff02191690836004811115611def57fe5b02179055505b5b60016004811115611e0357fe5b600a60009054906101000a900460ff166004811115611e1e57fe5b11151515611e94576040517f08c379a00000000000000000000000000000000000000000000000000000000081526004018080602001828103825260178152602001807f43616d706169676e206d7573742062652061637469766500000000000000000081525060200191505060405180910390fd5b6004600660006101000a81548160ff02191690836004811115611eb357fe5b02179055506004600a60006101000a81548160ff02191690836004811115611ed757fe5b02179055507f2df224a1e39354bc368dbab322c2a32a86a269a8a102b04e2ce16a803f3394bb426040518082815260200191505060405180910390a1565b60156020528060005260406000206000915090505481565b6000809054906101000a900460ff16151515611f4857600080fd5b611f506115e6565b1515611fc4576040517f08c379a000000000000000000000000000000000000000000000000000000000815260040180806020018281038252600f8152602001807f4f6e6c7920617574686f72697a6564000000000000000000000000000000000081525060200191505060405180910390fd5b6000806004811115611fd257fe5b600660009054906101000a900460ff166004811115611fed57fe5b141515612062576040517f08c379a00000000000000000000000000000000000000000000000000000000081526004018080602001828103825260168152602001807f496e76616c696420617070726f76616c2073746174650000000000000000000081525060200191505060405180910390fd5b81600160003373ffffffffffffffffffffffffffffffffffffffff1673ffffffffffffffffffffffffffffffffffffffff168152602001908152602001600020816000191690555060001515600260003373ffffffffffffffffffffffffffffffffffffffff1673ffffffffffffffffffffffffffffffffffffffff16815260200190815260200160002060009054906101000a900460ff16151514156121b1576004600081548092919060010191905055506001600260003373ffffffffffffffffffffffffffffffffffffffff1673ffffffffffffffffffffffffffffffffffffffff16815260200190815260200160002060006101000a81548160ff0219169083151502179055503373ffffffffffffffffffffffffffffffffffffffff167f97ac9e720fea9facff2969705e902f0e93ea7846ed7184c381f4e909cc3fc1e160405160405180910390a25b6121b9612b6a565b6004541415612213576001600660006101000a81548160ff021916908360048111156121e157fe5b02179055507f4c1eb757958b6e55f9b4841f2d3b5466b5148e9b8d47329710dc3594159b85f160405160405180910390a15b5050565b60016020528060005260406000206000915090505481565b6000809054906101000a900460ff1615151561224a57600080fd5b6001600481111561225757fe5b600a60009054906101000a900460ff16600481111561227257fe5b1480156122805750600c5442115b156122e157600f54600b541015156122bb576002600a60006101000a81548160ff021916908360048111156122b157fe5b02179055506122e0565b6003600a60006101000a81548160ff021916908360048111156122da57fe5b02179055505b5b565b600d5481565b60036020528060005260406000206000915054906101000a900460ff1681565b60045481565b600c5481565b61231d6115e6565b1515612391576040517f08c379a000000000000000000000000000000000000000000000000000000000815260040180806020018281038252600f8152602001807f4f6e6c7920617574686f72697a6564000000000000000000000000000000000081525060200191505060405180910390fd5b60008060006101000a81548160ff021916908315150217905550565b600b5481565b6000809054906101000a900460ff161515156123ce57600080fd5b601360009054906101000a900473ffffffffffffffffffffffffffffffffffffffff1673ffffffffffffffffffffffffffffffffffffffff163373ffffffffffffffffffffffffffffffffffffffff161415151561242b57600080fd5b6001600481111561243857fe5b600a60009054906101000a900460ff16600481111561245357fe5b1480156124615750600c5442115b156124c257600f54600b5410151561249c576002600a60006101000a81548160ff0219169083600481111561249257fe5b02179055506124c1565b6003600a60006101000a81548160ff021916908360048111156124bb57fe5b02179055505b5b60018060048111156124d057fe5b600a60009054906101000a900460ff1660048111156124eb57fe5b141515612586576040517f08c379a00000000000000000000000000000000000000000000000000000000081526004018080602001828103825260248152602001807f496e636f72726563742063616d706169676e537461746520666f722066756e6381526020017f74696f6e0000000000000000000000000000000000000000000000000000000081525060400191505060405180910390fd5b6000341115156125fe576040517f08c379a00000000000000000000000000000000000000000000000000000000081526004018080602001828103825260158152602001807f4e6f207a65726f20636f6e747269627574696f6e73000000000000000000000081525060200191505060405180910390fd5b600b5434600b540111151561267b576040517f08c379a000000000000000000000000000000000000000000000000000000000815260040180806020018281038252601d8152602001807f496e7465676572206f766572666c6f7720636865636b206661696c656400000081525060200191505060405180910390fd5b601560003373ffffffffffffffffffffffffffffffffffffffff1673ffffffffffffffffffffffffffffffffffffffff1681526020019081526020016000205434601560003373ffffffffffffffffffffffffffffffffffffffff1673ffffffffffffffffffffffffffffffffffffffff1681526020019081526020016000205401111515612772576040517f08c379a000000000000000000000000000000000000000000000000000000000815260040180806020018281038252601d8152602001807f496e7465676572206f766572666c6f7720636865636b206661696c656400000081525060200191505060405180910390fd5b6000809054906101000a900460ff1615151561278d57600080fd5b6001601660003373ffffffffffffffffffffffffffffffffffffffff1673ffffffffffffffffffffffffffffffffffffffff16815260200190815260200160002060006101000a81548160ff02191690831515021790555060146060604051908101604052803373ffffffffffffffffffffffffffffffffffffffff168152602001348152602001428152509080600181540180825580915050906001820390600052602060002090600302016000909192909190915060008201518160000160006101000a81548173ffffffffffffffffffffffffffffffffffffffff021916908373ffffffffffffffffffffffffffffffffffffffff160217905550602082015181600101556040820151816002015550505034601560003373ffffffffffffffffffffffffffffffffffffffff1673ffffffffffffffffffffffffffffffffffffffff1681526020019081526020016000206000828254019250508190555034600b600082825401925050819055507f80c4b1f63e4a6a1a36a9cad447cf9bc5fea26c44da551d6c4f060398adcb58723334604051808373ffffffffffffffffffffffffffffffffffffffff1673ffffffffffffffffffffffffffffffffffffffff1681526020018281526020019250505060405180910390a150565b6000809054906101000a900460ff16151561298757600080fd5b600160095414151561299857600080fd5b600260098190555060001515601760003373ffffffffffffffffffffffffffffffffffffffff1673ffffffffffffffffffffffffffffffffffffffff16815260200190815260200160002060009054906101000a900460ff161515141515612a68576040517f08c379a000000000000000000000000000000000000000000000000000000000815260040180806020018281038252601a8152602001807f557365722068617320616c72656164792077697468647261776e00000000000081525060200191505060405180910390fd5b612a70612ec7565b6001600981905550565b600a60019054906101000a900473ffffffffffffffffffffffffffffffffffffffff1681565b6000601480549050905090565b60128054600181600116156101000203166002900480601f016020809104026020016040519081016040528092919081815260200182805460018160011615610100020316600290048015612b435780601f10612b1857610100808354040283529160200191612b43565b820191906000526020600020905b815481529060010190602001808311612b2657829003601f168201915b505050505081565b600a60009054906101000a900460ff1681565b60085481565b60055481565b6000600a60019054906101000a900473ffffffffffffffffffffffffffffffffffffffff1673ffffffffffffffffffffffffffffffffffffffff16630efd49896040518163ffffffff167c0100000000000000000000000000000000000000000000000000000000028152600401602060405180830381600087803b158015612bf257600080fd5b505af1158015612c06573d6000803e3d6000fd5b505050506040513d6020811015612c1c57600080fd5b8101908080519060200190929190505050905090565b6010544201600c819055506001600a60006101000a81548160ff02191690836004811115612c5c57fe5b02179055507fa675a32d451b185ce3e0f84447132de6e36dc5e2ea368ae22a9dcd7c5c3fc63f426040518082815260200191505060405180910390a1565b6003600a60006101000a81548160ff02191690836004811115612cb957fe5b0217905550565b601360009054906101000a900473ffffffffffffffffffffffffffffffffffffffff1673ffffffffffffffffffffffffffffffffffffffff163373ffffffffffffffffffffffffffffffffffffffff16141515612d85576040517f08c379a00000000000000000000000000000000000000000000000000000000081526004018080602001828103825260208152602001807f4f6e6c792063616d706169676e206d616e6167657220617574686f72697a656481525060200191505060405180910390fd5b6001601760003373ffffffffffffffffffffffffffffffffffffffff1673ffffffffffffffffffffffffffffffffffffffff16815260200190815260200160002060006101000a81548160ff0219169083151502179055506000600b819055507fbdd7a292298470c2ea820cea458f1d9ff5b5a16aaa2a2c6329128fceaa0a5187333073ffffffffffffffffffffffffffffffffffffffff1631604051808373ffffffffffffffffffffffffffffffffffffffff1673ffffffffffffffffffffffffffffffffffffffff1681526020018281526020019250505060405180910390a13373ffffffffffffffffffffffffffffffffffffffff166108fc3073ffffffffffffffffffffffffffffffffffffffff16319081150290604051600060405180830381858888f19350505050158015612ec4573d6000803e3d6000fd5b50565b60011515601660003373ffffffffffffffffffffffffffffffffffffffff1673ffffffffffffffffffffffffffffffffffffffff16815260200190815260200160002060009054906101000a900460ff161515141515612f8f576040517f08c379a00000000000000000000000000000000000000000000000000000000081526004018080602001828103825260188152602001807f5573657220686173206e6f7420636f6e7472696275746564000000000000000081525060200191505060405180910390fd5b6001601760003373ffffffffffffffffffffffffffffffffffffffff1673ffffffffffffffffffffffffffffffffffffffff16815260200190815260200160002060006101000a81548160ff021916908315150217905550601560003373ffffffffffffffffffffffffffffffffffffffff1673ffffffffffffffffffffffffffffffffffffffff16815260200190815260200160002054600b600082825403925050819055507fbdd7a292298470c2ea820cea458f1d9ff5b5a16aaa2a2c6329128fceaa0a518733601560003373ffffffffffffffffffffffffffffffffffffffff1673ffffffffffffffffffffffffffffffffffffffff16815260200190815260200160002054604051808373ffffffffffffffffffffffffffffffffffffffff1673ffffffffffffffffffffffffffffffffffffffff1681526020018281526020019250505060405180910390a13373ffffffffffffffffffffffffffffffffffffffff166108fc601560003373ffffffffffffffffffffffffffffffffffffffff1673ffffffffffffffffffffffffffffffffffffffff168152602001908152602001600020549081150290604051600060405180830381858888f19350505050158015613165573d6000803e3d6000fd5b505600a165627a7a72305820247904c066cacc97e3fecb42005f30fd81e5f92246608a824bd8aeeae74fce670029a165627a7a72305820e022a188dbe36c5a91b4a66d818e1b0c63acae6b8f50da9c36960f57fdb00a8f0029",
  "source": "// Contract Development 1\n// DONE: Timing campaigns\n// DONE: Ending Campaign and Payouts\n// DONE: Manager can cancel Campaign before approved\n// DONE: Rewrite state transition according to solidy state machine pattern\n\n// Contract Developement 2\n// DONE: Implement Circuit Breaker Pattern!\n// DONE: Use a Library\n  // DONE: -- Change tests to use new admin style (they must add admins)\n  // DONE:L -- setup script must add admins\n  // -- DONE: reveal logic must check num admins and take majority\n  // -- TASK: UI for stopping efm + tests (stop camapaign creation then resume)\n  // -- TASK: UI for adding admins\n  // -- DONE: Make Administerable/Administrated a super class of efm and campaign and put rbac stuff in it\n// DONE: Split Contract Files (Campaign/Approvable)\n// DONE: Events\n// DONE: Error messages for require statements\n// DONE: Write Solidity Tests\n// DONE: Comment Contracts\n// DONE: Review All variable/function etc Names\n// DONE: Review All variable/function etc accessibility\n// DONE: Review uint256s and restrict size if possible (at least make them uint256)\n// DONE: Use a library/Package to advance time in tests\n// TASK: Change CampaignFactory to CampaignFactory\n// TASK: Put all setup scripts into one, make more campaigns and time travel so that ~half are complete\n// TASK: Use OpenZeppelin Safemath - Use OpenZeppelin from EthPm\n// DONE: Approvable in its own file?\n\n// TESTS:\n// DONE: Make sure tests work on -b 3\n// DONE: use increaseTime from openzeppelin! Test \n// DONE: Put All Transactions into their own it statement\n// TASK: Comment Tests\n// DONE: Homogenize import statements\n// DONE: Number in test name\n// TASK: Reenable solidity test\n\n// TASK: Review Security Best Practices - writeup\n// TASK: Review Design Patterns - writeup\n// TASK: use increaseTime from openzeppelin! Setup\n// Frontend\n// DONE: Set up React Project and React Crash Course\n// DONE: Frontend\n// TASK: Listening for Events\n  // -- Check events in tests too\n\n// Submitable\n// TASK: Packaging and Other Documentation\n// TASK: Make sure it works on Ubuntu\n// TASK: Review Grading Rubric\n// TASK: Release on testnet\n\npragma solidity ^0.4.24;\n\nimport \"./Administrated.sol\";\nimport \"./EmergencyStoppable.sol\";\nimport \"./Campaign.sol\";\n\n/**\n  @title CampaignFactory\n  @dev The Initial Contract deployed by this project.\n  \n  CampaignFactory has a single function in it's interface, createCampaign that is intended\n  to be used by Users creating a new Crowd Funding Campaign.\n  \n  Create Campaign is the Campaign Factory function that will deploy a new instance of\n  the Campaign Contract.\n\n  CampaignFactory extends the Administrated and EmergencyStoppable Contracts. Allowing it to access\n  Admin verification and management functions and EmergencyStoppable behaviour.\n\n  It passes it's own address to the Campaign Contract constructor so that Campaigns can \n  access Administrated Admin verification functions through CampaignFactory.\n */\n\ncontract CampaignFactory is Administrated, EmergencyStoppable {\n\n  /**\n    Implement EmergencyStoppable Interface\n   */\n\n  /**\n    @dev returns true if msg.sender has the admin role\n    This funstion is required to be implemented by the EmergencyStoppable Interface.\n    It is used to determine if the calling user (msg.sender) has the authority to stop/start\n    the contract.\n   */\n  function isAuthorized() public \n    returns(bool)\n  {\n    return isAdmin(msg.sender);\n  }\n  \n  constructor() public {\n  }\n\n  /**\n    EVENTS\n   */\n\n  /**\n    @dev Event emitted when a Campaign is created from the Campaign Factory\n    The payload is the newly created Campaign's address\n   */\n  event CampaignCreated (\n    address indexed campaignAddress\n  );\n\n  /**\n    STATE VARIABLES\n  */\n\n  // array to hold addresses of campaigns\n  address[] public campaigns;\n\n  /**\n    INTERFACE\n   */\n  /**\n    @dev Creates a new Campaign Contract and deploys it.\n    @param title The title of the Campaign\n    @param goal The funding goal in ether of the campaign\n    @param duration The intended duration of the Active campaign in days\n    @param description A description of the Campaign purposes\n    @param image The url of an image for the campaign\n\n    The main interface function for this Contract. Creates and deploys and new Campaign Contract\n    It passes msg.sender as the campaign manager and the address of this contract so that Camapaign\n    Contracts can access Administrated functionality (verifying admins)\n   */\n  function createCampaign(string title, uint256 goal, uint256 duration, string description, string image) public \n    stoppedInEmergency\n    notAdmin\n    returns(address)\n  {\n    Campaign newCampaign = new Campaign(campaigns.length, title, goal, duration, description, image, msg.sender, address(this));\n    campaigns.push(address(newCampaign));\n    emit CampaignCreated(address(newCampaign));\n    return address(newCampaign);\n  }\n\n  /**\n    GETTERS\n   */\n\n  /**\n    @dev returns the number of campaigns created\n    Since we use an array to hold the campaigns we dont need a numCampaigns variable\n    like if we had used a mapping but we need a getter function if we want to get the \n    length of the array\n   */\n  function getNumCampaigns() public view returns (uint256) {\n    return campaigns.length;\n  }\n\n}\n\n",
  "sourcePath": "/mnt/c/Users/jalal/Github/EthFundMe/contracts/CampaignFactory.sol",
  "compiler": {
    "name": "solc",
    "version": "0.4.24+commit.e67f0147.Emscripten.clang"
  },
  "schemaVersion": "2.0.1",
  "updatedAt": "2018-08-19T07:31:48.241Z"
}