{
  "contractName": "Campaign",
  "abi": [
    {
      "constant": true,
      "inputs": [
        {
          "name": "",
          "type": "address"
        }
      ],
      "name": "hasVoted",
      "outputs": [
        {
          "name": "",
          "type": "bool"
        }
      ],
      "payable": false,
      "stateMutability": "view",
      "type": "function"
    },
    {
      "constant": true,
      "inputs": [],
      "name": "duration",
      "outputs": [
        {
          "name": "",
          "type": "uint256"
        }
      ],
      "payable": false,
      "stateMutability": "view",
      "type": "function"
    },
    {
      "constant": true,
      "inputs": [],
      "name": "approvalState",
      "outputs": [
        {
          "name": "",
          "type": "uint8"
        }
      ],
      "payable": false,
      "stateMutability": "view",
      "type": "function"
    },
    {
      "constant": true,
      "inputs": [
        {
          "name": "",
          "type": "address"
        }
      ],
      "name": "contributors",
      "outputs": [
        {
          "name": "addr",
          "type": "address"
        },
        {
          "name": "totalContributed",
          "type": "uint256"
        },
        {
          "name": "numContributions",
          "type": "uint256"
        }
      ],
      "payable": false,
      "stateMutability": "view",
      "type": "function"
    },
    {
      "constant": true,
      "inputs": [
        {
          "name": "",
          "type": "address"
        }
      ],
      "name": "hasContributed",
      "outputs": [
        {
          "name": "",
          "type": "bool"
        }
      ],
      "payable": false,
      "stateMutability": "view",
      "type": "function"
    },
    {
      "constant": false,
      "inputs": [
        {
          "name": "voteOption",
          "type": "bool"
        },
        {
          "name": "salt",
          "type": "uint256"
        }
      ],
      "name": "reveal",
      "outputs": [],
      "payable": false,
      "stateMutability": "nonpayable",
      "type": "function"
    },
    {
      "constant": true,
      "inputs": [],
      "name": "goal",
      "outputs": [
        {
          "name": "",
          "type": "uint256"
        }
      ],
      "payable": false,
      "stateMutability": "view",
      "type": "function"
    },
    {
      "constant": true,
      "inputs": [],
      "name": "manager",
      "outputs": [
        {
          "name": "",
          "type": "address"
        }
      ],
      "payable": false,
      "stateMutability": "view",
      "type": "function"
    },
    {
      "constant": true,
      "inputs": [],
      "name": "title",
      "outputs": [
        {
          "name": "",
          "type": "string"
        }
      ],
      "payable": false,
      "stateMutability": "view",
      "type": "function"
    },
    {
      "constant": true,
      "inputs": [],
      "name": "numApprovals",
      "outputs": [
        {
          "name": "",
          "type": "uint256"
        }
      ],
      "payable": false,
      "stateMutability": "view",
      "type": "function"
    },
    {
      "constant": true,
      "inputs": [],
      "name": "numContributors",
      "outputs": [
        {
          "name": "",
          "type": "uint256"
        }
      ],
      "payable": false,
      "stateMutability": "view",
      "type": "function"
    },
    {
      "constant": false,
      "inputs": [
        {
          "name": "secretVote",
          "type": "bytes32"
        }
      ],
      "name": "vote",
      "outputs": [],
      "payable": false,
      "stateMutability": "nonpayable",
      "type": "function"
    },
    {
      "constant": true,
      "inputs": [
        {
          "name": "",
          "type": "address"
        }
      ],
      "name": "voteSecrets",
      "outputs": [
        {
          "name": "",
          "type": "bytes32"
        }
      ],
      "payable": false,
      "stateMutability": "view",
      "type": "function"
    },
    {
      "constant": true,
      "inputs": [],
      "name": "efm",
      "outputs": [
        {
          "name": "",
          "type": "address"
        }
      ],
      "payable": false,
      "stateMutability": "view",
      "type": "function"
    },
    {
      "constant": true,
      "inputs": [],
      "name": "id",
      "outputs": [
        {
          "name": "",
          "type": "uint256"
        }
      ],
      "payable": false,
      "stateMutability": "view",
      "type": "function"
    },
    {
      "constant": true,
      "inputs": [
        {
          "name": "",
          "type": "address"
        }
      ],
      "name": "hasRevealed",
      "outputs": [
        {
          "name": "",
          "type": "bool"
        }
      ],
      "payable": false,
      "stateMutability": "view",
      "type": "function"
    },
    {
      "constant": true,
      "inputs": [],
      "name": "numVoteSecrets",
      "outputs": [
        {
          "name": "",
          "type": "uint256"
        }
      ],
      "payable": false,
      "stateMutability": "view",
      "type": "function"
    },
    {
      "constant": true,
      "inputs": [],
      "name": "endDate",
      "outputs": [
        {
          "name": "",
          "type": "uint256"
        }
      ],
      "payable": false,
      "stateMutability": "view",
      "type": "function"
    },
    {
      "constant": true,
      "inputs": [],
      "name": "funds",
      "outputs": [
        {
          "name": "",
          "type": "uint256"
        }
      ],
      "payable": false,
      "stateMutability": "view",
      "type": "function"
    },
    {
      "constant": true,
      "inputs": [],
      "name": "campaignState",
      "outputs": [
        {
          "name": "",
          "type": "uint8"
        }
      ],
      "payable": false,
      "stateMutability": "view",
      "type": "function"
    },
    {
      "constant": true,
      "inputs": [],
      "name": "numRejections",
      "outputs": [
        {
          "name": "",
          "type": "uint256"
        }
      ],
      "payable": false,
      "stateMutability": "view",
      "type": "function"
    },
    {
      "constant": true,
      "inputs": [],
      "name": "numVoteReveals",
      "outputs": [
        {
          "name": "",
          "type": "uint256"
        }
      ],
      "payable": false,
      "stateMutability": "view",
      "type": "function"
    },
    {
      "inputs": [
        {
          "name": "_id",
          "type": "uint256"
        },
        {
          "name": "_title",
          "type": "string"
        },
        {
          "name": "_goal",
          "type": "uint256"
        },
        {
          "name": "_duration",
          "type": "uint256"
        },
        {
          "name": "_manager",
          "type": "address"
        },
        {
          "name": "efmAddress",
          "type": "address"
        }
      ],
      "payable": false,
      "stateMutability": "nonpayable",
      "type": "constructor"
    },
    {
      "constant": false,
      "inputs": [],
      "name": "contribute",
      "outputs": [],
      "payable": true,
      "stateMutability": "payable",
      "type": "function"
    },
    {
      "constant": false,
      "inputs": [],
      "name": "cancelCampaign",
      "outputs": [],
      "payable": false,
      "stateMutability": "nonpayable",
      "type": "function"
    },
    {
      "constant": false,
      "inputs": [],
      "name": "endCampaign",
      "outputs": [],
      "payable": false,
      "stateMutability": "nonpayable",
      "type": "function"
    },
    {
      "constant": false,
      "inputs": [],
      "name": "withdraw",
      "outputs": [],
      "payable": false,
      "stateMutability": "nonpayable",
      "type": "function"
    },
    {
      "constant": true,
      "inputs": [
        {
          "name": "contributor",
          "type": "address"
        }
      ],
      "name": "getTotalContributed",
      "outputs": [
        {
          "name": "totalContributed",
          "type": "uint256"
        }
      ],
      "payable": false,
      "stateMutability": "view",
      "type": "function"
    },
    {
      "constant": true,
      "inputs": [
        {
          "name": "contributor",
          "type": "address"
        }
      ],
      "name": "getNumContributions",
      "outputs": [
        {
          "name": "numContributions",
          "type": "uint256"
        }
      ],
      "payable": false,
      "stateMutability": "view",
      "type": "function"
    },
    {
      "constant": true,
      "inputs": [
        {
          "name": "contributor",
          "type": "address"
        },
        {
          "name": "i",
          "type": "uint256"
        }
      ],
      "name": "getContribution",
      "outputs": [
        {
          "name": "amount",
          "type": "uint256"
        },
        {
          "name": "timestamp",
          "type": "uint256"
        }
      ],
      "payable": false,
      "stateMutability": "view",
      "type": "function"
    },
    {
      "constant": true,
      "inputs": [],
      "name": "isActive",
      "outputs": [
        {
          "name": "",
          "type": "bool"
        }
      ],
      "payable": false,
      "stateMutability": "view",
      "type": "function"
    },
    {
      "constant": true,
      "inputs": [],
      "name": "getBlockTimestamp",
      "outputs": [
        {
          "name": "",
          "type": "uint256"
        }
      ],
      "payable": false,
      "stateMutability": "view",
      "type": "function"
    }
  ],
  "bytecode": "0x608060405260008060146101000a81548160ff021916908360048111156200002357fe5b02179055506000600860006101000a81548160ff021916908360048111156200004857fe5b02179055503073ffffffffffffffffffffffffffffffffffffffff16316009553480156200007557600080fd5b50604051620022ab380380620022ab8339810180604052810190808051906020019092919080518201929190602001805190602001909291908051906020019092919080519060200190929190805190602001909291905050508080806000806101000a81548173ffffffffffffffffffffffffffffffffffffffff021916908373ffffffffffffffffffffffffffffffffffffffff160217905550505085600c8190555084600d90805190602001906200013292919062000193565b5083600e81905550620151808302600f8190555081601060006101000a81548173ffffffffffffffffffffffffffffffffffffffff021916908373ffffffffffffffffffffffffffffffffffffffff16021790555050505050505062000242565b828054600181600116156101000203166002900490600052602060002090601f016020900481019282601f10620001d657805160ff191683800117855562000207565b8280016001018555821562000207579182015b8281111562000206578251825591602001919060010190620001e9565b5b5090506200021691906200021a565b5090565b6200023f91905b808211156200023b57600081600090555060010162000221565b5090565b90565b61205980620002526000396000f30060806040526004361061018b576000357c0100000000000000000000000000000000000000000000000000000000900463ffffffff16806309eef43e146101905780630fb5a6b4146101eb5780631afcf159146102165780631f6d49421461024f578063205b1946146102e057806322f3e2d41461033b5780632fef5ab01461036a57806339f3027d146103c15780633ccfd60b146103fa5780634019388314610411578063481c6a751461043c5780634a79d50c14610493578063653c95b81461052357806371aac7f91461058b5780637403c5e5146105a2578063796b89b9146105cd5780638f03850b146105f8578063980e784414610623578063a69beaba1461063a578063aac083451461066b578063aedbf409146106ca578063af640d0f14610721578063b9a530131461074c578063c17c5cf0146107a7578063c24a0f8b146107d2578063c89f2ce4146107fd578063d27290c514610828578063d7bb99ba1461087f578063f4c9b1fd14610889578063f81292c1146108c2578063facd4939146108ed575b600080fd5b34801561019c57600080fd5b506101d1600480360381019080803573ffffffffffffffffffffffffffffffffffffffff169060200190929190505050610918565b604051808215151515815260200191505060405180910390f35b3480156101f757600080fd5b50610200610938565b6040518082815260200191505060405180910390f35b34801561022257600080fd5b5061022b61093e565b6040518082600481111561023b57fe5b60ff16815260200191505060405180910390f35b34801561025b57600080fd5b50610290600480360381019080803573ffffffffffffffffffffffffffffffffffffffff169060200190929190505050610951565b604051808473ffffffffffffffffffffffffffffffffffffffff1673ffffffffffffffffffffffffffffffffffffffff168152602001838152602001828152602001935050505060405180910390f35b3480156102ec57600080fd5b50610321600480360381019080803573ffffffffffffffffffffffffffffffffffffffff16906020019092919050505061099b565b604051808215151515815260200191505060405180910390f35b34801561034757600080fd5b506103506109bb565b604051808215151515815260200191505060405180910390f35b34801561037657600080fd5b506103ab600480360381019080803573ffffffffffffffffffffffffffffffffffffffff1690602001909291905050506109c7565b6040518082815260200191505060405180910390f35b3480156103cd57600080fd5b506103f860048036038101908080351515906020019092919080359060200190929190505050610a13565b005b34801561040657600080fd5b5061040f610d1a565b005b34801561041d57600080fd5b5061042661116a565b6040518082815260200191505060405180910390f35b34801561044857600080fd5b50610451611170565b604051808273ffffffffffffffffffffffffffffffffffffffff1673ffffffffffffffffffffffffffffffffffffffff16815260200191505060405180910390f35b34801561049f57600080fd5b506104a8611196565b6040518080602001828103825283818151815260200191508051906020019080838360005b838110156104e85780820151818401526020810190506104cd565b50505050905090810190601f1680156105155780820380516001836020036101000a031916815260200191505b509250505060405180910390f35b34801561052f57600080fd5b5061056e600480360381019080803573ffffffffffffffffffffffffffffffffffffffff16906020019092919080359060200190929190505050611234565b604051808381526020018281526020019250505060405180910390f35b34801561059757600080fd5b506105a06112f0565b005b3480156105ae57600080fd5b506105b7611517565b6040518082815260200191505060405180910390f35b3480156105d957600080fd5b506105e261151d565b6040518082815260200191505060405180910390f35b34801561060457600080fd5b5061060d611525565b6040518082815260200191505060405180910390f35b34801561062f57600080fd5b5061063861152b565b005b34801561064657600080fd5b50610669600480360381019080803560001916906020019092919050505061179b565b005b34801561067757600080fd5b506106ac600480360381019080803573ffffffffffffffffffffffffffffffffffffffff169060200190929190505050611a11565b60405180826000191660001916815260200191505060405180910390f35b3480156106d657600080fd5b506106df611a29565b604051808273ffffffffffffffffffffffffffffffffffffffff1673ffffffffffffffffffffffffffffffffffffffff16815260200191505060405180910390f35b34801561072d57600080fd5b50610736611a4e565b6040518082815260200191505060405180910390f35b34801561075857600080fd5b5061078d600480360381019080803573ffffffffffffffffffffffffffffffffffffffff169060200190929190505050611a54565b604051808215151515815260200191505060405180910390f35b3480156107b357600080fd5b506107bc611a74565b6040518082815260200191505060405180910390f35b3480156107de57600080fd5b506107e7611a7a565b6040518082815260200191505060405180910390f35b34801561080957600080fd5b50610812611a80565b6040518082815260200191505060405180910390f35b34801561083457600080fd5b50610869600480360381019080803573ffffffffffffffffffffffffffffffffffffffff169060200190929190505050611a86565b6040518082815260200191505060405180910390f35b610887611ad2565b005b34801561089557600080fd5b5061089e611fb7565b604051808260048111156108ae57fe5b60ff16815260200191505060405180910390f35b3480156108ce57600080fd5b506108d7611fca565b6040518082815260200191505060405180910390f35b3480156108f957600080fd5b50610902611fd0565b6040518082815260200191505060405180910390f35b60066020528060005260406000206000915054906101000a900460ff1681565b600f5481565b600060149054906101000a900460ff1681565b60126020528060005260406000206000915090508060000160009054906101000a900473ffffffffffffffffffffffffffffffffffffffff16908060010154908060020154905083565b60136020528060005260406000206000915054906101000a900460ff1681565b6000600a544210905090565b6000601260008373ffffffffffffffffffffffffffffffffffffffff1673ffffffffffffffffffffffffffffffffffffffff168152602001908152602001600020600101549050919050565b60011515600660003373ffffffffffffffffffffffffffffffffffffffff1673ffffffffffffffffffffffffffffffffffffffff16815260200190815260200160002060009054906101000a900460ff161515141515610a7257600080fd5b60001515600760003373ffffffffffffffffffffffffffffffffffffffff1673ffffffffffffffffffffffffffffffffffffffff16815260200190815260200160002060009054906101000a900460ff161515141515610ad157600080fd5b6001806004811115610adf57fe5b600060149054906101000a900460ff166004811115610afa57fe5b141515610b0657600080fd5b600560003373ffffffffffffffffffffffffffffffffffffffff1673ffffffffffffffffffffffffffffffffffffffff168152602001908152602001600020546000191683836040516020018083151515157f0100000000000000000000000000000000000000000000000000000000000000028152600101828152602001925050506040516020818303038152906040526040518082805190602001908083835b602083101515610bcd5780518252602082019150602081019050602083039250610ba8565b6001836020036101000a038019825116818451168082178552505050505050905001915050604051809103902060001916141515610c0a57600080fd5b8215610c2757600160008154809291906001019190505550610c3a565b6002600081548092919060010191905055505b6004600081548092919060010191905055506001600760003373ffffffffffffffffffffffffffffffffffffffff1673ffffffffffffffffffffffffffffffffffffffff16815260200190815260200160002060006101000a81548160ff0219169083151502179055506002600154101515610cdd576002600060146101000a81548160ff02191690836004811115610ccf57fe5b0217905550610cdc611fd6565b5b60028054101515610d15576003600060146101000a81548160ff02191690836004811115610d0757fe5b0217905550610d14612007565b5b505050565b60001515600b60003373ffffffffffffffffffffffffffffffffffffffff1673ffffffffffffffffffffffffffffffffffffffff16815260200190815260200160002060009054906101000a900460ff161515141515610d7957600080fd5b60016004811115610d8657fe5b600860009054906101000a900460ff166004811115610da157fe5b148015610daf5750600a5442115b15610e1057600e54600954101515610dea576002600860006101000a81548160ff02191690836004811115610de057fe5b0217905550610e0f565b6003600860006101000a81548160ff02191690836004811115610e0957fe5b02179055505b5b60016004811115610e1d57fe5b600860009054906101000a900460ff166004811115610e3857fe5b111515610e4457600080fd5b60026004811115610e5157fe5b600860009054906101000a900460ff166004811115610e6c57fe5b1415610f7857601060009054906101000a900473ffffffffffffffffffffffffffffffffffffffff1673ffffffffffffffffffffffffffffffffffffffff163373ffffffffffffffffffffffffffffffffffffffff16141515610ece57600080fd5b6001600b60003373ffffffffffffffffffffffffffffffffffffffff1673ffffffffffffffffffffffffffffffffffffffff16815260200190815260200160002060006101000a81548160ff02191690831515021790555060006009819055503373ffffffffffffffffffffffffffffffffffffffff166108fc6009549081150290604051600060405180830381858888f19350505050158015610f76573d6000803e3d6000fd5b505b60036004811115610f8557fe5b600860009054906101000a900460ff166004811115610fa057fe5b1480610fd05750600480811115610fb357fe5b600860009054906101000a900460ff166004811115610fce57fe5b145b156111685760011515601360003373ffffffffffffffffffffffffffffffffffffffff1673ffffffffffffffffffffffffffffffffffffffff16815260200190815260200160002060009054906101000a900460ff16151514151561103457600080fd5b6001600b60003373ffffffffffffffffffffffffffffffffffffffff1673ffffffffffffffffffffffffffffffffffffffff16815260200190815260200160002060006101000a81548160ff021916908315150217905550601260003373ffffffffffffffffffffffffffffffffffffffff1673ffffffffffffffffffffffffffffffffffffffff168152602001908152602001600020600101546009600082825403925050819055503373ffffffffffffffffffffffffffffffffffffffff166108fc601260003373ffffffffffffffffffffffffffffffffffffffff1673ffffffffffffffffffffffffffffffffffffffff168152602001908152602001600020600101549081150290604051600060405180830381858888f19350505050158015611166573d6000803e3d6000fd5b505b565b600e5481565b601060009054906101000a900473ffffffffffffffffffffffffffffffffffffffff1681565b600d8054600181600116156101000203166002900480601f01602080910402602001604051908101604052809291908181526020018280546001816001161561010002031660029004801561122c5780601f106112015761010080835404028352916020019161122c565b820191906000526020600020905b81548152906001019060200180831161120f57829003601f168201915b505050505081565b600080601260008573ffffffffffffffffffffffffffffffffffffffff1673ffffffffffffffffffffffffffffffffffffffff1681526020019081526020016000206003016000848152602001908152602001600020600001549150601260008573ffffffffffffffffffffffffffffffffffffffff1673ffffffffffffffffffffffffffffffffffffffff16815260200190815260200160002060030160008481526020019081526020016000206001015490509250929050565b601060009054906101000a900473ffffffffffffffffffffffffffffffffffffffff1673ffffffffffffffffffffffffffffffffffffffff163373ffffffffffffffffffffffffffffffffffffffff16148061143f57506000809054906101000a900473ffffffffffffffffffffffffffffffffffffffff1673ffffffffffffffffffffffffffffffffffffffff166324d7806c336040518263ffffffff167c0100000000000000000000000000000000000000000000000000000000028152600401808273ffffffffffffffffffffffffffffffffffffffff1673ffffffffffffffffffffffffffffffffffffffff168152602001915050602060405180830381600087803b15801561140357600080fd5b505af1158015611417573d6000803e3d6000fd5b505050506040513d602081101561142d57600080fd5b81019080805190602001909291905050505b151561144a57600080fd5b6001600481111561145757fe5b600860009054906101000a900460ff16600481111561147257fe5b1480156114805750600a5442115b156114e157600e546009541015156114bb576002600860006101000a81548160ff021916908360048111156114b157fe5b02179055506114e0565b6003600860006101000a81548160ff021916908360048111156114da57fe5b02179055505b5b600160048111156114ee57fe5b600860009054906101000a900460ff16600481111561150957fe5b11151561151557600080fd5b565b60015481565b600042905090565b60115481565b601060009054906101000a900473ffffffffffffffffffffffffffffffffffffffff1673ffffffffffffffffffffffffffffffffffffffff163373ffffffffffffffffffffffffffffffffffffffff16148061167a57506000809054906101000a900473ffffffffffffffffffffffffffffffffffffffff1673ffffffffffffffffffffffffffffffffffffffff166324d7806c336040518263ffffffff167c0100000000000000000000000000000000000000000000000000000000028152600401808273ffffffffffffffffffffffffffffffffffffffff1673ffffffffffffffffffffffffffffffffffffffff168152602001915050602060405180830381600087803b15801561163e57600080fd5b505af1158015611652573d6000803e3d6000fd5b505050506040513d602081101561166857600080fd5b81019080805190602001909291905050505b151561168557600080fd5b6001600481111561169257fe5b600860009054906101000a900460ff1660048111156116ad57fe5b1480156116bb5750600a5442115b1561171c57600e546009541015156116f6576002600860006101000a81548160ff021916908360048111156116ec57fe5b021790555061171b565b6003600860006101000a81548160ff0219169083600481111561171557fe5b02179055505b5b6001600481111561172957fe5b600860009054906101000a900460ff16600481111561174457fe5b1115151561175157600080fd5b6004600060146101000a81548160ff0219169083600481111561177057fe5b02179055506004600860006101000a81548160ff0219169083600481111561179457fe5b0217905550565b6000809054906101000a900473ffffffffffffffffffffffffffffffffffffffff1673ffffffffffffffffffffffffffffffffffffffff166324d7806c336040518263ffffffff167c0100000000000000000000000000000000000000000000000000000000028152600401808273ffffffffffffffffffffffffffffffffffffffff1673ffffffffffffffffffffffffffffffffffffffff168152602001915050602060405180830381600087803b15801561185757600080fd5b505af115801561186b573d6000803e3d6000fd5b505050506040513d602081101561188157600080fd5b8101908080519060200190929190505050151561189d57600080fd5b60008060048111156118ab57fe5b600060149054906101000a900460ff1660048111156118c657fe5b1415156118d257600080fd5b81600560003373ffffffffffffffffffffffffffffffffffffffff1673ffffffffffffffffffffffffffffffffffffffff168152602001908152602001600020816000191690555060001515600660003373ffffffffffffffffffffffffffffffffffffffff1673ffffffffffffffffffffffffffffffffffffffff16815260200190815260200160002060009054906101000a900460ff16151514156119de576003600081548092919060010191905055506001600660003373ffffffffffffffffffffffffffffffffffffffff1673ffffffffffffffffffffffffffffffffffffffff16815260200190815260200160002060006101000a81548160ff0219169083151502179055505b600380541415611a0d576001600060146101000a81548160ff02191690836004811115611a0757fe5b02179055505b5050565b60056020528060005260406000206000915090505481565b6000809054906101000a900473ffffffffffffffffffffffffffffffffffffffff1681565b600c5481565b60076020528060005260406000206000915054906101000a900460ff1681565b60035481565b600a5481565b60095481565b6000601260008373ffffffffffffffffffffffffffffffffffffffff1673ffffffffffffffffffffffffffffffffffffffff168152602001908152602001600020600201549050919050565b601060009054906101000a900473ffffffffffffffffffffffffffffffffffffffff1673ffffffffffffffffffffffffffffffffffffffff163373ffffffffffffffffffffffffffffffffffffffff1614151515611b2f57600080fd5b60016004811115611b3c57fe5b600860009054906101000a900460ff166004811115611b5757fe5b148015611b655750600a5442115b15611bc657600e54600954101515611ba0576002600860006101000a81548160ff02191690836004811115611b9657fe5b0217905550611bc5565b6003600860006101000a81548160ff02191690836004811115611bbf57fe5b02179055505b5b6001806004811115611bd457fe5b600860009054906101000a900460ff166004811115611bef57fe5b141515611bfb57600080fd5b601360003373ffffffffffffffffffffffffffffffffffffffff1673ffffffffffffffffffffffffffffffffffffffff16815260200190815260200160002060009054906101000a900460ff161515611d8a576060604051908101604052803373ffffffffffffffffffffffffffffffffffffffff168152602001600081526020016000815250601260003373ffffffffffffffffffffffffffffffffffffffff1673ffffffffffffffffffffffffffffffffffffffff16815260200190815260200160002060008201518160000160006101000a81548173ffffffffffffffffffffffffffffffffffffffff021916908373ffffffffffffffffffffffffffffffffffffffff16021790555060208201518160010155604082015181600201559050506001601360003373ffffffffffffffffffffffffffffffffffffffff1673ffffffffffffffffffffffffffffffffffffffff16815260200190815260200160002060006101000a81548160ff0219169083151502179055506011600081548092919060010191905055505b600034111515611d9957600080fd5b6009543460095401111515611dad57600080fd5b601260003373ffffffffffffffffffffffffffffffffffffffff1673ffffffffffffffffffffffffffffffffffffffff1681526020019081526020016000206001015434601260003373ffffffffffffffffffffffffffffffffffffffff1673ffffffffffffffffffffffffffffffffffffffff1681526020019081526020016000206001015401111515611e4157600080fd5b604080519081016040528034815260200142815250601260003373ffffffffffffffffffffffffffffffffffffffff1673ffffffffffffffffffffffffffffffffffffffff1681526020019081526020016000206003016000601260003373ffffffffffffffffffffffffffffffffffffffff1673ffffffffffffffffffffffffffffffffffffffff1681526020019081526020016000206002015481526020019081526020016000206000820151816000015560208201518160010155905050601260003373ffffffffffffffffffffffffffffffffffffffff1673ffffffffffffffffffffffffffffffffffffffff1681526020019081526020016000206002016000815480929190600101919050555034601260003373ffffffffffffffffffffffffffffffffffffffff1673ffffffffffffffffffffffffffffffffffffffff168152602001908152602001600020600101600082825401925050819055503460096000828254019250508190555050565b600860009054906101000a900460ff1681565b60025481565b60045481565b600f544201600a819055506001600860006101000a81548160ff0219169083600481111561200057fe5b0217905550565b6003600860006101000a81548160ff0219169083600481111561202657fe5b02179055505600a165627a7a7230582099eba5567907c800b467d95220e67b26b5289e38e2c8a0683cdce538d85b3c830029",
  "source": "pragma solidity ^0.4.24;\n\nimport \"./EthFundMe.sol\";\n// import \"./Approvable.sol\";\n\n// It is a good practice to structure functions which interact\n// with other contracts (i.e. call functions or send Ether)\n// into three phases:\n// 1. check conditions\n// 2. perform actions (potentially change conditions)\n// 3. interact with other contracts\n// If these phases get mixed up, the other contract might call\n// back into the current contract and change the state or cause\n// effects (ether payout) to be done multiple times.\n// If functions that are called internally include interactions with external\n// contracts, they have to be considered interaction with\n// external contracts too.\n\ncontract Administrated {\n  EthFundMe public efm;\n  \n  constructor(address efmAddress) public {\n    efm = EthFundMe(efmAddress);\n  }\n\n  modifier onlyAdmin {\n    require(efm.isAdmin(msg.sender));\n    _;\n  }\n\n}\n\ncontract Approvable is Administrated {\n\n  /**\n    DATA STRUCTURES\n   */\n\n  enum ApprovalStates {\n    Commit,\n    Reveal,\n    Approved,\n    Rejected,\n    Cancelled\n  }\n\n  ApprovalStates public approvalState = ApprovalStates.Commit;\n\n  /**\n    STATE VARIABLES\n   */\n\n  uint public numApprovals;\n  uint public numRejections;\n\n  uint public numVoteSecrets;\n  uint public numVoteReveals;\n\n  mapping(address => bytes32) public voteSecrets;\n  mapping(address => bool) public hasVoted;\n  mapping(address => bool) public hasRevealed;\n\n  /**\n    CONSTRUCTOR\n   */\n\n  constructor(address efmAddress) Administrated(efmAddress) public {\n    \n  }\n\n  /**\n    ABSTRACT FUNCTIONS\n   */\n\n  function onApproval() internal;\n  function onRejection() internal;\n\n  /**\n    MODIFIERS\n   */\n\n  // ACCESS RESTRICTION\n\n  modifier onlyVotedAdmin() {\n    require(hasVoted[msg.sender] == true);\n    _;\n  }\n\n  modifier onlyNotRevealedAdmin() {\n    require(hasRevealed[msg.sender] == false);\n    _;\n  }\n\n  // STATE MANAGEMENT\n\n  modifier onlyDuringApprovalState(ApprovalStates _approvalState) {\n    require(approvalState == _approvalState);\n    _;\n  }\n\n  modifier endCommit() {\n    _;\n    if (numVoteSecrets == 3) {\n      approvalState = ApprovalStates.Reveal;\n    }\n  }\n\n  // Doesn't require all votes to be revealed only enough.\n  modifier endReveal() {\n    _;\n    if (numApprovals >= 2) {\n      approvalState = ApprovalStates.Approved;\n      onApproval();\n    } \n    if (numRejections >= 2) {\n      approvalState = ApprovalStates.Rejected;\n      onRejection();\n    }\n  }\n\n  /**\n    INTERFACE\n   */\n\n  function vote(bytes32 secretVote) public \n    onlyAdmin \n    onlyDuringApprovalState(ApprovalStates.Commit) \n    endCommit {\n      voteSecrets[msg.sender] = secretVote;\n      if (hasVoted[msg.sender] == false) {\n        numVoteSecrets++;\n        hasVoted[msg.sender] = true;\n    }\n  }\n\n  function reveal(bool voteOption, uint salt) public \n    onlyVotedAdmin \n    onlyNotRevealedAdmin\n    onlyDuringApprovalState(ApprovalStates.Reveal) \n    endReveal {\n      require(keccak256(abi.encodePacked(voteOption, salt)) == voteSecrets[msg.sender]);\n\n      if (voteOption) {\n        numApprovals++;\n      } else {\n        numRejections++;\n      }\n\n      numVoteReveals++;\n      hasRevealed[msg.sender] = true;\n  }\n}\n\ncontract Campaign is Approvable {\n\n  /**\n    DATA STRUCTURES \n   */\n\n\n  enum CampaignStates {\n    Pending,\n    Active,\n    Successful,\n    Unsuccessful,\n    Cancelled\n  }\n\n  struct Contribution {\n    uint amount;\n    uint timestamp;\n  }\n\n  struct Contributor {\n    address addr;\n    uint totalContributed;\n    uint numContributions;\n    mapping (uint => Contribution) contributions;\n  }\n\n  /**\n    STATE VARIABLES\n   */\n\n  CampaignStates public campaignState = CampaignStates.Pending;\n  uint public funds = address(this).balance;\n  uint public endDate;\n  mapping (address => bool) hasWithdrawn;\n\n  uint public id;\n  string public title;\n  uint public goal;\n  uint public duration;\n  address public manager;\n\n  uint public numContributors;\n  mapping (address => Contributor) public contributors;\n  mapping (address => bool) public hasContributed;\n\n  /**\n    CONSTRUCTOR\n   */\n\n  constructor(\n    uint _id, \n    string _title, \n    uint _goal,  \n    uint _duration, \n    address _manager, \n    address efmAddress\n  ) Approvable(efmAddress) public {\n    id = _id;\n    title = _title;\n    goal = _goal;\n    duration = _duration * 1 days;\n    manager = _manager;\n  }\n\n  // STATE TRANSITION/RESTRICTION\n\n  modifier onlyDuringCampaignState(CampaignStates _campaignState) {\n    require(campaignState == _campaignState);\n    _;\n  }\n\n  modifier onlyBeforeCampaignEnd() {\n    require(campaignState <= CampaignStates.Active);\n    _;\n  }\n\n  modifier onlyAfterCampaignEnd() {\n    require(campaignState > CampaignStates.Active);\n    _;\n  }\n\n  // FIXME: Could be renamed to endCampaign\n  modifier transitionState() {\n    if (campaignState == CampaignStates.Active && block.timestamp > endDate\n    ) {\n      \n      if (funds >= goal) {\n        campaignState = CampaignStates.Successful;\n      } else {\n        campaignState = CampaignStates.Unsuccessful;\n      }\n\n    }\n    _;\n  }\n\n  // ACCESS RESTRICTION\n\n  modifier notManager() {\n    require(msg.sender != manager);\n    _;\n  }\n\n  modifier onlyManagerOrAdmin() {\n    require(msg.sender == manager || efm.isAdmin(msg.sender));\n    _;\n  }\n\n  modifier hasNotWithdrawn() {\n    require(hasWithdrawn[msg.sender] == false);\n    _;\n  }\n\n  // INPUT VALIDATION\n\n  modifier validateContribution() {\n    //No Zero Contributions\n    require(msg.value > 0); \n     //Integer Overflow Protection\n    require(funds + msg.value > funds);\n    require(contributors[msg.sender].totalContributed + msg.value > contributors[msg.sender].totalContributed);\n    _;\n  }\n  \n  //FIXME: Logic in this modifier doesn't belong in a modifier.\n  modifier newContributor() {\n    if (!hasContributed[msg.sender]) {\n      contributors[msg.sender] = Contributor({\n        addr: msg.sender,\n        totalContributed: 0,\n        numContributions: 0\n      });\n      hasContributed[msg.sender] = true;\n      numContributors++;\n    }\n    _;\n  }\n\n  /**\n    FUNCTIONS\n   */\n\n  // INTERNAL FUNCTIONS\n\n  function onApproval() internal {\n    endDate = now + duration;\n    campaignState = CampaignStates.Active;\n  }\n\n  function onRejection() internal {\n    campaignState = CampaignStates.Unsuccessful;\n  }\n\n  // INTERFACE\n\n  function contribute() public payable \n    notManager \n    transitionState\n    onlyDuringCampaignState(CampaignStates.Active)\n    newContributor \n    validateContribution {\n      contributors[msg.sender].contributions[contributors[msg.sender].numContributions] = Contribution(msg.value, now);\n      contributors[msg.sender].numContributions++;\n      contributors[msg.sender].totalContributed += msg.value;\n      funds += msg.value;\n    }\n  \n  function cancelCampaign() public\n    onlyManagerOrAdmin\n    transitionState\n    onlyBeforeCampaignEnd\n    {\n      approvalState = ApprovalStates.Cancelled;\n      campaignState = CampaignStates.Cancelled;\n    }\n\n  // FIXME: Consider removing this function. It's essentially unnecessary since withdraw will end the campaign\n  // but it exists as a formal way of ending the campaign.\n  function endCampaign() public \n    onlyManagerOrAdmin\n    transitionState\n    onlyAfterCampaignEnd\n    {\n    }\n\n  function withdraw() public \n    hasNotWithdrawn\n    transitionState \n    onlyAfterCampaignEnd {\n      if (campaignState == CampaignStates.Successful) {\n        require(msg.sender == manager);\n        hasWithdrawn[msg.sender] = true;\n        funds = 0;\n        msg.sender.transfer(funds);\n      }\n\n      if(campaignState == CampaignStates.Unsuccessful || campaignState == CampaignStates.Cancelled) {\n        require(hasContributed[msg.sender] == true);\n        hasWithdrawn[msg.sender] = true;\n        funds -= contributors[msg.sender].totalContributed;\n        msg.sender.transfer(contributors[msg.sender].totalContributed);\n      }\n  }\n\n  // GETTERS\n  // FIXME: Should the getters transition state?\n  // Decide this when building the frontend. If it can help update state correctly in the frontend it\n  // might be a good idea, otherwise it's unneccessary.\n\n\n  function getTotalContributed(address contributor) public view returns(uint totalContributed) {\n    totalContributed = contributors[contributor].totalContributed;\n  }\n  \n  function getNumContributions(address contributor) public view returns(uint numContributions) {\n    numContributions = contributors[contributor].numContributions;\n  }\n\n  function getContribution(address contributor, uint i) public view returns(uint amount, uint timestamp) {\n    amount = contributors[contributor].contributions[i].amount;\n    timestamp = contributors[contributor].contributions[i].timestamp;\n  }\n\n  // HELPERS\n\n  function isActive() public view returns(bool) {\n    return (block.timestamp < endDate);\n  }\n\n  function getBlockTimestamp() public view returns(uint) {\n    return block.timestamp;\n  }\n\n}",
  "sourcePath": "C:\\Users\\jalal\\GitHub\\EthFundMe\\contracts\\Campaign.sol",
  "compiler": {
    "name": "solc",
    "version": "0.4.24+commit.e67f0147.Emscripten.clang"
  },
  "schemaVersion": "2.0.1",
  "updatedAt": "2018-07-29T12:15:01.421Z"
}