{
  "contractName": "Campaign",
  "abi": [
    {
      "constant": true,
      "inputs": [
        {
          "name": "",
          "type": "address"
        }
      ],
      "name": "hasVoted",
      "outputs": [
        {
          "name": "",
          "type": "bool"
        }
      ],
      "payable": false,
      "stateMutability": "view",
      "type": "function"
    },
    {
      "constant": true,
      "inputs": [],
      "name": "duration",
      "outputs": [
        {
          "name": "",
          "type": "uint256"
        }
      ],
      "payable": false,
      "stateMutability": "view",
      "type": "function"
    },
    {
      "constant": false,
      "inputs": [],
      "name": "stopContract",
      "outputs": [],
      "payable": false,
      "stateMutability": "nonpayable",
      "type": "function"
    },
    {
      "constant": true,
      "inputs": [],
      "name": "approvalState",
      "outputs": [
        {
          "name": "",
          "type": "uint8"
        }
      ],
      "payable": false,
      "stateMutability": "view",
      "type": "function"
    },
    {
      "constant": true,
      "inputs": [
        {
          "name": "",
          "type": "uint256"
        }
      ],
      "name": "contributions",
      "outputs": [
        {
          "name": "addr",
          "type": "address"
        },
        {
          "name": "amount",
          "type": "uint256"
        },
        {
          "name": "timestamp",
          "type": "uint256"
        }
      ],
      "payable": false,
      "stateMutability": "view",
      "type": "function"
    },
    {
      "constant": true,
      "inputs": [
        {
          "name": "",
          "type": "address"
        }
      ],
      "name": "hasContributed",
      "outputs": [
        {
          "name": "",
          "type": "bool"
        }
      ],
      "payable": false,
      "stateMutability": "view",
      "type": "function"
    },
    {
      "constant": false,
      "inputs": [
        {
          "name": "voteOption",
          "type": "bool"
        },
        {
          "name": "salt",
          "type": "uint256"
        }
      ],
      "name": "reveal",
      "outputs": [],
      "payable": false,
      "stateMutability": "nonpayable",
      "type": "function"
    },
    {
      "constant": true,
      "inputs": [],
      "name": "isStopped",
      "outputs": [
        {
          "name": "",
          "type": "bool"
        }
      ],
      "payable": false,
      "stateMutability": "view",
      "type": "function"
    },
    {
      "constant": true,
      "inputs": [],
      "name": "goal",
      "outputs": [
        {
          "name": "",
          "type": "uint256"
        }
      ],
      "payable": false,
      "stateMutability": "view",
      "type": "function"
    },
    {
      "constant": true,
      "inputs": [],
      "name": "manager",
      "outputs": [
        {
          "name": "",
          "type": "address"
        }
      ],
      "payable": false,
      "stateMutability": "view",
      "type": "function"
    },
    {
      "constant": true,
      "inputs": [],
      "name": "title",
      "outputs": [
        {
          "name": "",
          "type": "string"
        }
      ],
      "payable": false,
      "stateMutability": "view",
      "type": "function"
    },
    {
      "constant": true,
      "inputs": [
        {
          "name": "",
          "type": "address"
        }
      ],
      "name": "hasWithdrawn",
      "outputs": [
        {
          "name": "",
          "type": "bool"
        }
      ],
      "payable": false,
      "stateMutability": "view",
      "type": "function"
    },
    {
      "constant": true,
      "inputs": [],
      "name": "description",
      "outputs": [
        {
          "name": "",
          "type": "string"
        }
      ],
      "payable": false,
      "stateMutability": "view",
      "type": "function"
    },
    {
      "constant": true,
      "inputs": [],
      "name": "numApprovals",
      "outputs": [
        {
          "name": "",
          "type": "uint256"
        }
      ],
      "payable": false,
      "stateMutability": "view",
      "type": "function"
    },
    {
      "constant": true,
      "inputs": [
        {
          "name": "",
          "type": "address"
        }
      ],
      "name": "totalContributed",
      "outputs": [
        {
          "name": "",
          "type": "uint256"
        }
      ],
      "payable": false,
      "stateMutability": "view",
      "type": "function"
    },
    {
      "constant": false,
      "inputs": [
        {
          "name": "secretVote",
          "type": "bytes32"
        }
      ],
      "name": "vote",
      "outputs": [],
      "payable": false,
      "stateMutability": "nonpayable",
      "type": "function"
    },
    {
      "constant": true,
      "inputs": [
        {
          "name": "",
          "type": "address"
        }
      ],
      "name": "voteSecrets",
      "outputs": [
        {
          "name": "",
          "type": "bytes32"
        }
      ],
      "payable": false,
      "stateMutability": "view",
      "type": "function"
    },
    {
      "constant": true,
      "inputs": [],
      "name": "id",
      "outputs": [
        {
          "name": "",
          "type": "uint256"
        }
      ],
      "payable": false,
      "stateMutability": "view",
      "type": "function"
    },
    {
      "constant": true,
      "inputs": [
        {
          "name": "",
          "type": "address"
        }
      ],
      "name": "hasRevealed",
      "outputs": [
        {
          "name": "",
          "type": "bool"
        }
      ],
      "payable": false,
      "stateMutability": "view",
      "type": "function"
    },
    {
      "constant": true,
      "inputs": [],
      "name": "numVoteSecrets",
      "outputs": [
        {
          "name": "",
          "type": "uint256"
        }
      ],
      "payable": false,
      "stateMutability": "view",
      "type": "function"
    },
    {
      "constant": true,
      "inputs": [],
      "name": "endDate",
      "outputs": [
        {
          "name": "",
          "type": "uint256"
        }
      ],
      "payable": false,
      "stateMutability": "view",
      "type": "function"
    },
    {
      "constant": false,
      "inputs": [],
      "name": "resumeContract",
      "outputs": [],
      "payable": false,
      "stateMutability": "nonpayable",
      "type": "function"
    },
    {
      "constant": true,
      "inputs": [],
      "name": "funds",
      "outputs": [
        {
          "name": "",
          "type": "uint256"
        }
      ],
      "payable": false,
      "stateMutability": "view",
      "type": "function"
    },
    {
      "constant": true,
      "inputs": [],
      "name": "administrated",
      "outputs": [
        {
          "name": "",
          "type": "address"
        }
      ],
      "payable": false,
      "stateMutability": "view",
      "type": "function"
    },
    {
      "constant": true,
      "inputs": [],
      "name": "image",
      "outputs": [
        {
          "name": "",
          "type": "string"
        }
      ],
      "payable": false,
      "stateMutability": "view",
      "type": "function"
    },
    {
      "constant": true,
      "inputs": [],
      "name": "campaignState",
      "outputs": [
        {
          "name": "",
          "type": "uint8"
        }
      ],
      "payable": false,
      "stateMutability": "view",
      "type": "function"
    },
    {
      "constant": true,
      "inputs": [],
      "name": "numRejections",
      "outputs": [
        {
          "name": "",
          "type": "uint256"
        }
      ],
      "payable": false,
      "stateMutability": "view",
      "type": "function"
    },
    {
      "constant": true,
      "inputs": [],
      "name": "numVoteReveals",
      "outputs": [
        {
          "name": "",
          "type": "uint256"
        }
      ],
      "payable": false,
      "stateMutability": "view",
      "type": "function"
    },
    {
      "inputs": [
        {
          "name": "_id",
          "type": "uint256"
        },
        {
          "name": "_title",
          "type": "string"
        },
        {
          "name": "_goal",
          "type": "uint256"
        },
        {
          "name": "_duration",
          "type": "uint256"
        },
        {
          "name": "_description",
          "type": "string"
        },
        {
          "name": "_image",
          "type": "string"
        },
        {
          "name": "_manager",
          "type": "address"
        },
        {
          "name": "efmAddress",
          "type": "address"
        }
      ],
      "payable": false,
      "stateMutability": "nonpayable",
      "type": "constructor"
    },
    {
      "anonymous": false,
      "inputs": [
        {
          "indexed": false,
          "name": "startDate",
          "type": "uint256"
        }
      ],
      "name": "campaignStarted",
      "type": "event"
    },
    {
      "anonymous": false,
      "inputs": [
        {
          "indexed": false,
          "name": "endDate",
          "type": "uint256"
        }
      ],
      "name": "campaignEnded",
      "type": "event"
    },
    {
      "anonymous": false,
      "inputs": [
        {
          "indexed": false,
          "name": "cancelledDate",
          "type": "uint256"
        }
      ],
      "name": "campaignCancelled",
      "type": "event"
    },
    {
      "anonymous": false,
      "inputs": [
        {
          "indexed": false,
          "name": "contributor",
          "type": "address"
        },
        {
          "indexed": false,
          "name": "amount",
          "type": "uint256"
        }
      ],
      "name": "contributionMade",
      "type": "event"
    },
    {
      "anonymous": false,
      "inputs": [
        {
          "indexed": false,
          "name": "beneficiary",
          "type": "address"
        },
        {
          "indexed": false,
          "name": "amount",
          "type": "uint256"
        }
      ],
      "name": "withdrawlMade",
      "type": "event"
    },
    {
      "anonymous": false,
      "inputs": [
        {
          "indexed": true,
          "name": "voteCommiter",
          "type": "address"
        }
      ],
      "name": "voteCommitted",
      "type": "event"
    },
    {
      "anonymous": false,
      "inputs": [
        {
          "indexed": true,
          "name": "voteRevealer",
          "type": "address"
        }
      ],
      "name": "voteRevealed",
      "type": "event"
    },
    {
      "anonymous": false,
      "inputs": [],
      "name": "allVotesComitted",
      "type": "event"
    },
    {
      "anonymous": false,
      "inputs": [
        {
          "indexed": false,
          "name": "isApproved",
          "type": "bool"
        }
      ],
      "name": "votePassed",
      "type": "event"
    },
    {
      "constant": false,
      "inputs": [],
      "name": "contribute",
      "outputs": [],
      "payable": true,
      "stateMutability": "payable",
      "type": "function"
    },
    {
      "constant": false,
      "inputs": [],
      "name": "cancelCampaign",
      "outputs": [],
      "payable": false,
      "stateMutability": "nonpayable",
      "type": "function"
    },
    {
      "constant": false,
      "inputs": [],
      "name": "endCampaign",
      "outputs": [],
      "payable": false,
      "stateMutability": "nonpayable",
      "type": "function"
    },
    {
      "constant": false,
      "inputs": [],
      "name": "withdraw",
      "outputs": [],
      "payable": false,
      "stateMutability": "nonpayable",
      "type": "function"
    },
    {
      "constant": false,
      "inputs": [],
      "name": "emergencyWithdraw",
      "outputs": [],
      "payable": false,
      "stateMutability": "nonpayable",
      "type": "function"
    },
    {
      "constant": true,
      "inputs": [],
      "name": "getNumContributions",
      "outputs": [
        {
          "name": "numContributions",
          "type": "uint256"
        }
      ],
      "payable": false,
      "stateMutability": "view",
      "type": "function"
    },
    {
      "constant": true,
      "inputs": [],
      "name": "getTotalContributedFunds",
      "outputs": [
        {
          "name": "",
          "type": "uint256"
        }
      ],
      "payable": false,
      "stateMutability": "view",
      "type": "function"
    },
    {
      "constant": true,
      "inputs": [],
      "name": "isActive",
      "outputs": [
        {
          "name": "",
          "type": "bool"
        }
      ],
      "payable": false,
      "stateMutability": "view",
      "type": "function"
    },
    {
      "constant": true,
      "inputs": [],
      "name": "getBlockTimestamp",
      "outputs": [
        {
          "name": "",
          "type": "uint256"
        }
      ],
      "payable": false,
      "stateMutability": "view",
      "type": "function"
    },
    {
      "constant": false,
      "inputs": [],
      "name": "transitionCampaign",
      "outputs": [],
      "payable": false,
      "stateMutability": "nonpayable",
      "type": "function"
    }
  ],
  "bytecode": "0x608060405260008060006101000a81548160ff02191690831515021790555060008060156101000a81548160ff021916908360048111156200003d57fe5b021790555060016008556000600960006101000a81548160ff021916908360048111156200006757fe5b02179055503073ffffffffffffffffffffffffffffffffffffffff1631600a553480156200009457600080fd5b506040516200379a3803806200379a83398101806040528101908080519060200190929190805182019291906020018051906020019092919080519060200190929190805182019291906020018051820192919060200180519060200190929190805190602001909291905050508080600060016101000a81548173ffffffffffffffffffffffffffffffffffffffff021916908373ffffffffffffffffffffffffffffffffffffffff1602179055505087600c8190555086600d908051906020019062000164929190620001f9565b5085600e81905550620151808502600f81905550836010908051906020019062000190929190620001f9565b508260119080519060200190620001a9929190620001f9565b5081601260006101000a81548173ffffffffffffffffffffffffffffffffffffffff021916908373ffffffffffffffffffffffffffffffffffffffff1602179055505050505050505050620002a8565b828054600181600116156101000203166002900490600052602060002090601f016020900481019282601f106200023c57805160ff19168380011785556200026d565b828001600101855582156200026d579182015b828111156200026c5782518255916020019190600101906200024f565b5b5090506200027c919062000280565b5090565b620002a591905b80821115620002a157600081600090555060010162000287565b5090565b90565b6134e280620002b86000396000f3006080604052600436106101d8576000357c0100000000000000000000000000000000000000000000000000000000900463ffffffff16806309eef43e146101dd5780630fb5a6b41461023857806312253a6c146102635780631afcf1591461027a5780631cee0700146102b3578063205b19461461032e57806322f3e2d41461038957806339f3027d146103b85780633ccfd60b146103f15780633f683b6a146104085780634019388314610437578063481c6a75146104625780634a79d50c146104b95780635e2c19db1461054957806365325386146105a457806371aac7f9146105cf5780637284e416146105e65780637403c5e514610676578063796b89b9146106a1578063980e7844146106cc578063a0f243b8146106e3578063a69beaba1461073a578063aac083451461076b578063ab45be42146107ca578063af640d0f146107e1578063b9a530131461080c578063c17c5cf014610867578063c24a0f8b14610892578063c4bc5da5146108bd578063c89f2ce4146108d4578063d7bb99ba146108ff578063db2e21bc14610909578063e2d3b70914610920578063e70ac62c14610977578063f3ccaac0146109a2578063f4c9b1fd14610a32578063f81292c114610a6b578063facd493914610a96575b600080fd5b3480156101e957600080fd5b5061021e600480360381019080803573ffffffffffffffffffffffffffffffffffffffff169060200190929190505050610ac1565b604051808215151515815260200191505060405180910390f35b34801561024457600080fd5b5061024d610ae1565b6040518082815260200191505060405180910390f35b34801561026f57600080fd5b50610278610ae7565b005b34801561028657600080fd5b5061028f610b7f565b6040518082600481111561029f57fe5b60ff16815260200191505060405180910390f35b3480156102bf57600080fd5b506102de60048036038101908080359060200190929190505050610b92565b604051808473ffffffffffffffffffffffffffffffffffffffff1673ffffffffffffffffffffffffffffffffffffffff168152602001838152602001828152602001935050505060405180910390f35b34801561033a57600080fd5b5061036f600480360381019080803573ffffffffffffffffffffffffffffffffffffffff169060200190929190505050610beb565b604051808215151515815260200191505060405180910390f35b34801561039557600080fd5b5061039e610c0b565b604051808215151515815260200191505060405180910390f35b3480156103c457600080fd5b506103ef60048036038101908080351515906020019092919080359060200190929190505050610c17565b005b3480156103fd57600080fd5b506104066112e5565b005b34801561041457600080fd5b5061041d611625565b604051808215151515815260200191505060405180910390f35b34801561044357600080fd5b5061044c611637565b6040518082815260200191505060405180910390f35b34801561046e57600080fd5b5061047761163d565b604051808273ffffffffffffffffffffffffffffffffffffffff1673ffffffffffffffffffffffffffffffffffffffff16815260200191505060405180910390f35b3480156104c557600080fd5b506104ce611663565b6040518080602001828103825283818151815260200191508051906020019080838360005b8381101561050e5780820151818401526020810190506104f3565b50505050905090810190601f16801561053b5780820380516001836020036101000a031916815260200191505b509250505060405180910390f35b34801561055557600080fd5b5061058a600480360381019080803573ffffffffffffffffffffffffffffffffffffffff169060200190929190505050611701565b604051808215151515815260200191505060405180910390f35b3480156105b057600080fd5b506105b9611721565b6040518082815260200191505060405180910390f35b3480156105db57600080fd5b506105e4611775565b005b3480156105f257600080fd5b506105fb611b50565b6040518080602001828103825283818151815260200191508051906020019080838360005b8381101561063b578082015181840152602081019050610620565b50505050905090810190601f1680156106685780820380516001836020036101000a031916815260200191505b509250505060405180910390f35b34801561068257600080fd5b5061068b611bee565b6040518082815260200191505060405180910390f35b3480156106ad57600080fd5b506106b6611bf4565b6040518082815260200191505060405180910390f35b3480156106d857600080fd5b506106e1611bfc565b005b3480156106ef57600080fd5b50610724600480360381019080803573ffffffffffffffffffffffffffffffffffffffff169060200190929190505050611efb565b6040518082815260200191505060405180910390f35b34801561074657600080fd5b506107696004803603810190808035600019169060200190929190505050611f13565b005b34801561077757600080fd5b506107ac600480360381019080803573ffffffffffffffffffffffffffffffffffffffff16906020019092919050505061240f565b60405180826000191660001916815260200191505060405180910390f35b3480156107d657600080fd5b506107df612427565b005b3480156107ed57600080fd5b506107f6612544565b6040518082815260200191505060405180910390f35b34801561081857600080fd5b5061084d600480360381019080803573ffffffffffffffffffffffffffffffffffffffff16906020019092919050505061254a565b604051808215151515815260200191505060405180910390f35b34801561087357600080fd5b5061087c61256a565b6040518082815260200191505060405180910390f35b34801561089e57600080fd5b506108a7612570565b6040518082815260200191505060405180910390f35b3480156108c957600080fd5b506108d2612576565b005b3480156108e057600080fd5b506108e961260e565b6040518082815260200191505060405180910390f35b610907612614565b005b34801561091557600080fd5b5061091e612c1c565b005b34801561092c57600080fd5b50610935612d92565b604051808273ffffffffffffffffffffffffffffffffffffffff1673ffffffffffffffffffffffffffffffffffffffff16815260200191505060405180910390f35b34801561098357600080fd5b5061098c612db8565b6040518082815260200191505060405180910390f35b3480156109ae57600080fd5b506109b7612dc5565b6040518080602001828103825283818151815260200191508051906020019080838360005b838110156109f75780820151818401526020810190506109dc565b50505050905090810190601f168015610a245780820380516001836020036101000a031916815260200191505b509250505060405180910390f35b348015610a3e57600080fd5b50610a47612e63565b60405180826004811115610a5757fe5b60ff16815260200191505060405180910390f35b348015610a7757600080fd5b50610a80612e76565b6040518082815260200191505060405180910390f35b348015610aa257600080fd5b50610aab612e7c565b6040518082815260200191505060405180910390f35b60066020528060005260406000206000915054906101000a900460ff1681565b600f5481565b610aef612e82565b1515610b63576040517f08c379a000000000000000000000000000000000000000000000000000000000815260040180806020018281038252601f8152602001807f6f6e6c7920617574686f72697a656420746f2073746f7020616c6c6f7765640081525060200191505060405180910390fd5b60016000806101000a81548160ff021916908315150217905550565b600060159054906101000a900460ff1681565b601381815481101515610ba157fe5b90600052602060002090600302016000915090508060000160009054906101000a900473ffffffffffffffffffffffffffffffffffffffff16908060010154908060020154905083565b60156020528060005260406000206000915054906101000a900460ff1681565b6000600b544210905090565b6000809054906101000a900460ff16151515610c9b576040517f08c379a000000000000000000000000000000000000000000000000000000000815260040180806020018281038252601c8152602001807f436f6e7472616374206d757374206e6f742062652073746f707065640000000081525060200191505060405180910390fd5b60011515600660003373ffffffffffffffffffffffffffffffffffffffff1673ffffffffffffffffffffffffffffffffffffffff16815260200190815260200160002060009054906101000a900460ff161515141515610d63576040517f08c379a00000000000000000000000000000000000000000000000000000000081526004018080602001828103825260138152602001807f41646d696e20686173206e6f7420766f7465640000000000000000000000000081525060200191505060405180910390fd5b60001515600760003373ffffffffffffffffffffffffffffffffffffffff1673ffffffffffffffffffffffffffffffffffffffff16815260200190815260200160002060009054906101000a900460ff161515141515610e2b576040517f08c379a000000000000000000000000000000000000000000000000000000000815260040180806020018281038252601a8152602001807f41646d696e2068617320616c72656164792072657665616c656400000000000081525060200191505060405180910390fd5b6001806004811115610e3957fe5b600060159054906101000a900460ff166004811115610e5457fe5b141515610ec9576040517f08c379a00000000000000000000000000000000000000000000000000000000081526004018080602001828103825260168152602001807f496e76616c696420617070726f76616c2073746174650000000000000000000081525060200191505060405180910390fd5b600080600560003373ffffffffffffffffffffffffffffffffffffffff1673ffffffffffffffffffffffffffffffffffffffff168152602001908152602001600020546000191685856040516020018083151515157f0100000000000000000000000000000000000000000000000000000000000000028152600101828152602001925050506040516020818303038152906040526040518082805190602001908083835b602083101515610f935780518252602082019150602081019050602083039250610f6e565b6001836020036101000a038019825116818451168082178552505050505050905001915050604051809103902060001916141515611039576040517f08c379a00000000000000000000000000000000000000000000000000000000081526004018080602001828103825260198152602001807f566f7465207365637265747320646f206e6f74206d617463680000000000000081525060200191505060405180910390fd5b841561105657600160008154809291906001019190505550611069565b6002600081548092919060010191905055505b6004600081548092919060010191905055506001600760003373ffffffffffffffffffffffffffffffffffffffff1673ffffffffffffffffffffffffffffffffffffffff16815260200190815260200160002060006101000a81548160ff0219169083151502179055503373ffffffffffffffffffffffffffffffffffffffff167faac607b7c8f3c85450600d535f6327d068a498f27ac0107b252c11e6f69afce460405160405180910390a2600060019054906101000a900473ffffffffffffffffffffffffffffffffffffffff1673ffffffffffffffffffffffffffffffffffffffff16630efd49896040518163ffffffff167c0100000000000000000000000000000000000000000000000000000000028152600401602060405180830381600087803b15801561119c57600080fd5b505af11580156111b0573d6000803e3d6000fd5b505050506040513d60208110156111c657600080fd5b810190808051906020019092919050505091506002828115156111e557fe5b066002838115156111f257fe5b040190508060015410151561126a576002600060156101000a81548160ff0219169083600481111561122057fe5b021790555061122d612f80565b7f98788f3a438dcc998b20544951a23a4bbf522b2c4897ea44b2e3b696d3ea08cb6001604051808215151515815260200191505060405180910390a15b806002541015156112de576003600060156101000a81548160ff0219169083600481111561129457fe5b02179055506112a1612fe8565b7f98788f3a438dcc998b20544951a23a4bbf522b2c4897ea44b2e3b696d3ea08cb6000604051808215151515815260200191505060405180910390a15b5050505050565b6000809054906101000a900460ff16151515611369576040517f08c379a000000000000000000000000000000000000000000000000000000000815260040180806020018281038252601c8152602001807f436f6e7472616374206d757374206e6f742062652073746f707065640000000081525060200191505060405180910390fd5b600160085414151561137a57600080fd5b600260088190555060001515601660003373ffffffffffffffffffffffffffffffffffffffff1673ffffffffffffffffffffffffffffffffffffffff16815260200190815260200160002060009054906101000a900460ff16151514151561144a576040517f08c379a000000000000000000000000000000000000000000000000000000000815260040180806020018281038252601a8152602001807f557365722068617320616c72656164792077697468647261776e00000000000081525060200191505060405180910390fd5b6001600481111561145757fe5b600960009054906101000a900460ff16600481111561147257fe5b1480156114805750600b5442115b156114e157600e54600a541015156114bb576002600960006101000a81548160ff021916908360048111156114b157fe5b02179055506114e0565b6003600960006101000a81548160ff021916908360048111156114da57fe5b02179055505b5b600160048111156114ee57fe5b600960009054906101000a900460ff16600481111561150957fe5b11151561157e576040517f08c379a00000000000000000000000000000000000000000000000000000000081526004018080602001828103825260188152602001807f43616d706169676e206d757374206861766520656e646564000000000000000081525060200191505060405180910390fd5b6002600481111561158b57fe5b600960009054906101000a900460ff1660048111156115a657fe5b14156115b5576115b461300e565b5b600360048111156115c257fe5b600960009054906101000a900460ff1660048111156115dd57fe5b148061160d57506004808111156115f057fe5b600960009054906101000a900460ff16600481111561160b57fe5b145b1561161b5761161a613215565b5b6001600881905550565b6000809054906101000a900460ff1681565b600e5481565b601260009054906101000a900473ffffffffffffffffffffffffffffffffffffffff1681565b600d8054600181600116156101000203166002900480601f0160208091040260200160405190810160405280929190818152602001828054600181600116156101000203166002900480156116f95780601f106116ce576101008083540402835291602001916116f9565b820191906000526020600020905b8154815290600101906020018083116116dc57829003601f168201915b505050505081565b60166020528060005260406000206000915054906101000a900460ff1681565b6000806000809150600090505b60138054905081101561176d5760138181548110151561174a57fe5b90600052602060002090600302016001015482019150808060010191505061172e565b819250505090565b6000809054906101000a900460ff161515156117f9576040517f08c379a000000000000000000000000000000000000000000000000000000000815260040180806020018281038252601c8152602001807f436f6e7472616374206d757374206e6f742062652073746f707065640000000081525060200191505060405180910390fd5b601260009054906101000a900473ffffffffffffffffffffffffffffffffffffffff1673ffffffffffffffffffffffffffffffffffffffff163373ffffffffffffffffffffffffffffffffffffffff1614806119495750600060019054906101000a900473ffffffffffffffffffffffffffffffffffffffff1673ffffffffffffffffffffffffffffffffffffffff166324d7806c336040518263ffffffff167c0100000000000000000000000000000000000000000000000000000000028152600401808273ffffffffffffffffffffffffffffffffffffffff1673ffffffffffffffffffffffffffffffffffffffff168152602001915050602060405180830381600087803b15801561190d57600080fd5b505af1158015611921573d6000803e3d6000fd5b505050506040513d602081101561193757600080fd5b81019080805190602001909291905050505b15156119e3576040517f08c379a00000000000000000000000000000000000000000000000000000000081526004018080602001828103825260298152602001807f4f6e6c792063616d706169676e206d616e61676572206f722061646d696e206181526020017f7574686f72697a6564000000000000000000000000000000000000000000000081525060400191505060405180910390fd5b600160048111156119f057fe5b600960009054906101000a900460ff166004811115611a0b57fe5b148015611a195750600b5442115b15611a7a57600e54600a54101515611a54576002600960006101000a81548160ff02191690836004811115611a4a57fe5b0217905550611a79565b6003600960006101000a81548160ff02191690836004811115611a7357fe5b02179055505b5b60016004811115611a8757fe5b600960009054906101000a900460ff166004811115611aa257fe5b111515611b17576040517f08c379a00000000000000000000000000000000000000000000000000000000081526004018080602001828103825260188152602001807f43616d706169676e206d757374206861766520656e646564000000000000000081525060200191505060405180910390fd5b7f8d0449d6fed7183f55f431e23867be7d8553beb7dc2e0844821c9c951a59ca52426040518082815260200191505060405180910390a1565b60108054600181600116156101000203166002900480601f016020809104026020016040519081016040528092919081815260200182805460018160011615610100020316600290048015611be65780601f10611bbb57610100808354040283529160200191611be6565b820191906000526020600020905b815481529060010190602001808311611bc957829003601f168201915b505050505081565b60015481565b600042905090565b6000809054906101000a900460ff16151515611c80576040517f08c379a000000000000000000000000000000000000000000000000000000000815260040180806020018281038252601c8152602001807f436f6e7472616374206d757374206e6f742062652073746f707065640000000081525060200191505060405180910390fd5b601260009054906101000a900473ffffffffffffffffffffffffffffffffffffffff1673ffffffffffffffffffffffffffffffffffffffff163373ffffffffffffffffffffffffffffffffffffffff16141515611d45576040517f08c379a00000000000000000000000000000000000000000000000000000000081526004018080602001828103825260208152602001807f4f6e6c792063616d706169676e206d616e6167657220617574686f72697a656481525060200191505060405180910390fd5b60016004811115611d5257fe5b600960009054906101000a900460ff166004811115611d6d57fe5b148015611d7b5750600b5442115b15611ddc57600e54600a54101515611db6576002600960006101000a81548160ff02191690836004811115611dac57fe5b0217905550611ddb565b6003600960006101000a81548160ff02191690836004811115611dd557fe5b02179055505b5b60016004811115611de957fe5b600960009054906101000a900460ff166004811115611e0457fe5b11151515611e7a576040517f08c379a00000000000000000000000000000000000000000000000000000000081526004018080602001828103825260178152602001807f43616d706169676e206d7573742062652061637469766500000000000000000081525060200191505060405180910390fd5b6004600060156101000a81548160ff02191690836004811115611e9957fe5b02179055506004600960006101000a81548160ff02191690836004811115611ebd57fe5b02179055507f2df224a1e39354bc368dbab322c2a32a86a269a8a102b04e2ce16a803f3394bb426040518082815260200191505060405180910390a1565b60146020528060005260406000206000915090505481565b6000809054906101000a900460ff16151515611f97576040517f08c379a000000000000000000000000000000000000000000000000000000000815260040180806020018281038252601c8152602001807f436f6e7472616374206d757374206e6f742062652073746f707065640000000081525060200191505060405180910390fd5b600060019054906101000a900473ffffffffffffffffffffffffffffffffffffffff1673ffffffffffffffffffffffffffffffffffffffff166324d7806c336040518263ffffffff167c0100000000000000000000000000000000000000000000000000000000028152600401808273ffffffffffffffffffffffffffffffffffffffff1673ffffffffffffffffffffffffffffffffffffffff168152602001915050602060405180830381600087803b15801561205457600080fd5b505af1158015612068573d6000803e3d6000fd5b505050506040513d602081101561207e57600080fd5b81019080805190602001909291905050501515612103576040517f08c379a00000000000000000000000000000000000000000000000000000000081526004018080602001828103825260158152602001807f6f6e6c792061646d696e20617574686f72697a6564000000000000000000000081525060200191505060405180910390fd5b600080600481111561211157fe5b600060159054906101000a900460ff16600481111561212c57fe5b1415156121a1576040517f08c379a00000000000000000000000000000000000000000000000000000000081526004018080602001828103825260168152602001807f496e76616c696420617070726f76616c2073746174650000000000000000000081525060200191505060405180910390fd5b81600560003373ffffffffffffffffffffffffffffffffffffffff1673ffffffffffffffffffffffffffffffffffffffff168152602001908152602001600020816000191690555060001515600660003373ffffffffffffffffffffffffffffffffffffffff1673ffffffffffffffffffffffffffffffffffffffff16815260200190815260200160002060009054906101000a900460ff16151514156122f0576003600081548092919060010191905055506001600660003373ffffffffffffffffffffffffffffffffffffffff1673ffffffffffffffffffffffffffffffffffffffff16815260200190815260200160002060006101000a81548160ff0219169083151502179055503373ffffffffffffffffffffffffffffffffffffffff167f97ac9e720fea9facff2969705e902f0e93ea7846ed7184c381f4e909cc3fc1e160405160405180910390a25b600060019054906101000a900473ffffffffffffffffffffffffffffffffffffffff1673ffffffffffffffffffffffffffffffffffffffff16630efd49896040518163ffffffff167c0100000000000000000000000000000000000000000000000000000000028152600401602060405180830381600087803b15801561237657600080fd5b505af115801561238a573d6000803e3d6000fd5b505050506040513d60208110156123a057600080fd5b8101908080519060200190929190505050600354141561240b576001600060156101000a81548160ff021916908360048111156123d957fe5b02179055507f4c1eb757958b6e55f9b4841f2d3b5466b5148e9b8d47329710dc3594159b85f160405160405180910390a15b5050565b60056020528060005260406000206000915090505481565b6000809054906101000a900460ff161515156124ab576040517f08c379a000000000000000000000000000000000000000000000000000000000815260040180806020018281038252601c8152602001807f436f6e7472616374206d757374206e6f742062652073746f707065640000000081525060200191505060405180910390fd5b600160048111156124b857fe5b600960009054906101000a900460ff1660048111156124d357fe5b1480156124e15750600b5442115b1561254257600e54600a5410151561251c576002600960006101000a81548160ff0219169083600481111561251257fe5b0217905550612541565b6003600960006101000a81548160ff0219169083600481111561253b57fe5b02179055505b5b565b600c5481565b60076020528060005260406000206000915054906101000a900460ff1681565b60035481565b600b5481565b61257e612e82565b15156125f2576040517f08c379a000000000000000000000000000000000000000000000000000000000815260040180806020018281038252601f8152602001807f6f6e6c7920617574686f72697a656420746f2073746f7020616c6c6f7765640081525060200191505060405180910390fd5b60008060006101000a81548160ff021916908315150217905550565b600a5481565b6000809054906101000a900460ff16151515612698576040517f08c379a000000000000000000000000000000000000000000000000000000000815260040180806020018281038252601c8152602001807f436f6e7472616374206d757374206e6f742062652073746f707065640000000081525060200191505060405180910390fd5b601260009054906101000a900473ffffffffffffffffffffffffffffffffffffffff1673ffffffffffffffffffffffffffffffffffffffff163373ffffffffffffffffffffffffffffffffffffffff16141515156126f557600080fd5b6001600481111561270257fe5b600960009054906101000a900460ff16600481111561271d57fe5b14801561272b5750600b5442115b1561278c57600e54600a54101515612766576002600960006101000a81548160ff0219169083600481111561275c57fe5b021790555061278b565b6003600960006101000a81548160ff0219169083600481111561278557fe5b02179055505b5b600180600481111561279a57fe5b600960009054906101000a900460ff1660048111156127b557fe5b141515612850576040517f08c379a00000000000000000000000000000000000000000000000000000000081526004018080602001828103825260248152602001807f496e636f72726563742063616d706169676e537461746520666f722066756e6381526020017f74696f6e0000000000000000000000000000000000000000000000000000000081525060400191505060405180910390fd5b6000341115156128c8576040517f08c379a00000000000000000000000000000000000000000000000000000000081526004018080602001828103825260158152602001807f4e6f207a65726f20636f6e747269627574696f6e73000000000000000000000081525060200191505060405180910390fd5b600a5434600a5401111515612945576040517f08c379a000000000000000000000000000000000000000000000000000000000815260040180806020018281038252601d8152602001807f496e7465676572206f766572666c6f7720636865636b206661696c656400000081525060200191505060405180910390fd5b601460003373ffffffffffffffffffffffffffffffffffffffff1673ffffffffffffffffffffffffffffffffffffffff1681526020019081526020016000205434601460003373ffffffffffffffffffffffffffffffffffffffff1673ffffffffffffffffffffffffffffffffffffffff1681526020019081526020016000205401111515612a3c576040517f08c379a000000000000000000000000000000000000000000000000000000000815260040180806020018281038252601d8152602001807f496e7465676572206f766572666c6f7720636865636b206661696c656400000081525060200191505060405180910390fd5b6001601560003373ffffffffffffffffffffffffffffffffffffffff1673ffffffffffffffffffffffffffffffffffffffff16815260200190815260200160002060006101000a81548160ff02191690831515021790555060136060604051908101604052803373ffffffffffffffffffffffffffffffffffffffff168152602001348152602001428152509080600181540180825580915050906001820390600052602060002090600302016000909192909190915060008201518160000160006101000a81548173ffffffffffffffffffffffffffffffffffffffff021916908373ffffffffffffffffffffffffffffffffffffffff160217905550602082015181600101556040820151816002015550505034601460003373ffffffffffffffffffffffffffffffffffffffff1673ffffffffffffffffffffffffffffffffffffffff1681526020019081526020016000206000828254019250508190555034600a600082825401925050819055507f80c4b1f63e4a6a1a36a9cad447cf9bc5fea26c44da551d6c4f060398adcb58723334604051808373ffffffffffffffffffffffffffffffffffffffff1673ffffffffffffffffffffffffffffffffffffffff1681526020018281526020019250505060405180910390a150565b6000809054906101000a900460ff161515612c9f576040517f08c379a00000000000000000000000000000000000000000000000000000000081526004018080602001828103825260188152602001807f436f6e7472616374206d7573742062652073746f70706564000000000000000081525060200191505060405180910390fd5b6001600854141515612cb057600080fd5b600260088190555060001515601660003373ffffffffffffffffffffffffffffffffffffffff1673ffffffffffffffffffffffffffffffffffffffff16815260200190815260200160002060009054906101000a900460ff161515141515612d80576040517f08c379a000000000000000000000000000000000000000000000000000000000815260040180806020018281038252601a8152602001807f557365722068617320616c72656164792077697468647261776e00000000000081525060200191505060405180910390fd5b612d88613215565b6001600881905550565b600060019054906101000a900473ffffffffffffffffffffffffffffffffffffffff1681565b6000601380549050905090565b60118054600181600116156101000203166002900480601f016020809104026020016040519081016040528092919081815260200182805460018160011615610100020316600290048015612e5b5780601f10612e3057610100808354040283529160200191612e5b565b820191906000526020600020905b815481529060010190602001808311612e3e57829003601f168201915b505050505081565b600960009054906101000a900460ff1681565b60025481565b60045481565b60008060019054906101000a900473ffffffffffffffffffffffffffffffffffffffff1673ffffffffffffffffffffffffffffffffffffffff166324d7806c336040518263ffffffff167c0100000000000000000000000000000000000000000000000000000000028152600401808273ffffffffffffffffffffffffffffffffffffffff1673ffffffffffffffffffffffffffffffffffffffff168152602001915050602060405180830381600087803b158015612f4057600080fd5b505af1158015612f54573d6000803e3d6000fd5b505050506040513d6020811015612f6a57600080fd5b8101908080519060200190929190505050905090565b600f544201600b819055506001600960006101000a81548160ff02191690836004811115612faa57fe5b02179055507fa675a32d451b185ce3e0f84447132de6e36dc5e2ea368ae22a9dcd7c5c3fc63f426040518082815260200191505060405180910390a1565b6003600960006101000a81548160ff0219169083600481111561300757fe5b0217905550565b601260009054906101000a900473ffffffffffffffffffffffffffffffffffffffff1673ffffffffffffffffffffffffffffffffffffffff163373ffffffffffffffffffffffffffffffffffffffff161415156130d3576040517f08c379a00000000000000000000000000000000000000000000000000000000081526004018080602001828103825260208152602001807f4f6e6c792063616d706169676e206d616e6167657220617574686f72697a656481525060200191505060405180910390fd5b6001601660003373ffffffffffffffffffffffffffffffffffffffff1673ffffffffffffffffffffffffffffffffffffffff16815260200190815260200160002060006101000a81548160ff0219169083151502179055506000600a819055507fbdd7a292298470c2ea820cea458f1d9ff5b5a16aaa2a2c6329128fceaa0a5187333073ffffffffffffffffffffffffffffffffffffffff1631604051808373ffffffffffffffffffffffffffffffffffffffff1673ffffffffffffffffffffffffffffffffffffffff1681526020018281526020019250505060405180910390a13373ffffffffffffffffffffffffffffffffffffffff166108fc3073ffffffffffffffffffffffffffffffffffffffff16319081150290604051600060405180830381858888f19350505050158015613212573d6000803e3d6000fd5b50565b60011515601560003373ffffffffffffffffffffffffffffffffffffffff1673ffffffffffffffffffffffffffffffffffffffff16815260200190815260200160002060009054906101000a900460ff1615151415156132dd576040517f08c379a00000000000000000000000000000000000000000000000000000000081526004018080602001828103825260188152602001807f5573657220686173206e6f7420636f6e7472696275746564000000000000000081525060200191505060405180910390fd5b6001601660003373ffffffffffffffffffffffffffffffffffffffff1673ffffffffffffffffffffffffffffffffffffffff16815260200190815260200160002060006101000a81548160ff021916908315150217905550601460003373ffffffffffffffffffffffffffffffffffffffff1673ffffffffffffffffffffffffffffffffffffffff16815260200190815260200160002054600a600082825403925050819055507fbdd7a292298470c2ea820cea458f1d9ff5b5a16aaa2a2c6329128fceaa0a518733601460003373ffffffffffffffffffffffffffffffffffffffff1673ffffffffffffffffffffffffffffffffffffffff16815260200190815260200160002054604051808373ffffffffffffffffffffffffffffffffffffffff1673ffffffffffffffffffffffffffffffffffffffff1681526020018281526020019250505060405180910390a13373ffffffffffffffffffffffffffffffffffffffff166108fc601460003373ffffffffffffffffffffffffffffffffffffffff1673ffffffffffffffffffffffffffffffffffffffff168152602001908152602001600020549081150290604051600060405180830381858888f193505050501580156134b3573d6000803e3d6000fd5b505600a165627a7a7230582024e68f225c2c3115e5c44ad5aa2e02b33220c92ea1310398b3a6331634d5e14d0029",
  "source": "pragma solidity ^0.4.24;\n\nimport \"./EthFundMe.sol\";\nimport \"./EmergencyStoppable.sol\";\nimport \"../node_modules/zeppelin-solidity/contracts/ReentrancyGuard.sol\";\n\ncontract Approvable is EmergencyStoppable {\n  /**\n    Implement EmergencyStoppable Interface\n   */\n  function isAuthorized() \n    internal \n    returns(bool)\n  {\n    return administrated.isAdmin(msg.sender);\n  }\n\n  /**\n    Events\n  */\n  event voteCommitted (address indexed voteCommiter);\n  event voteRevealed (address indexed voteRevealer);\n  event allVotesComitted();\n  event votePassed (bool isApproved);\n\n\n\n  /**\n    DATA STRUCTURES\n   */\n  enum ApprovalStates {\n    Commit,\n    Reveal,\n    Approved,\n    Rejected,\n    Cancelled\n  }\n\n  /**\n    STATE VARIABLES\n   */\n\n  Administrated public administrated;\n\n  ApprovalStates public approvalState = ApprovalStates.Commit;\n  \n  uint public numApprovals;\n  uint public numRejections;\n\n  uint public numVoteSecrets;\n  uint public numVoteReveals;\n\n  mapping(address => bytes32) public voteSecrets;\n  mapping(address => bool) public hasVoted;\n  mapping(address => bool) public hasRevealed;\n\n  /**\n    CONSTRUCTOR\n   */\n   constructor (address administeredAddress) public\n   {\n     administrated = Administrated(administeredAddress);\n   }\n\n  /**\n    MODIFIERS\n   */\n\n  // ACCESS RESTRICTION\n  modifier onlyAdmin() {\n    require(administrated.isAdmin(msg.sender), \"only admin authorized\");\n    _;\n  }\n\n  modifier onlyVotedAdmin() {\n    require(hasVoted[msg.sender] == true, \"Admin has not voted\");\n    _;\n  }\n\n  modifier onlyNotRevealedAdmin() {\n    require(hasRevealed[msg.sender] == false, \"Admin has already revealed\");\n    _;\n  }\n\n  // STATE MANAGEMENT\n  modifier onlyDuringApprovalState(ApprovalStates _approvalState) {\n    require(approvalState == _approvalState, \"Invalid approval state\");\n    _;\n  }\n\n  modifier endCommit() {\n    _;\n    if (numVoteSecrets == administrated.numAdmins()) {\n      approvalState = ApprovalStates.Reveal;\n      emit allVotesComitted();\n    }\n  }\n\n  // Doesn't require all votes to be revealed only enough.\n  modifier endReveal() {\n    _;\n    // number of reveals required to pass the vote\n    uint numAdmins = administrated.numAdmins();\n    uint required = numAdmins / 2 + numAdmins % 2;\n\n    if (numApprovals >= required) {\n      approvalState = ApprovalStates.Approved;\n      onApproval();\n      emit votePassed(true);\n    }\n    if (numRejections >= required) {\n      approvalState = ApprovalStates.Rejected;\n      onRejection();\n      emit votePassed(false);\n    }\n  }\n\n  /**\n    INTERFACE\n   */\n\n  // ABSTRACT FUNCTIONS\n  function onApproval() internal;\n  function onRejection() internal;\n\n  // INTERFACE\n function vote(bytes32 secretVote) public \n    stoppedInEmergency\n    onlyAdmin\n    onlyDuringApprovalState(ApprovalStates.Commit) \n    endCommit {\n      voteSecrets[msg.sender] = secretVote;\n      if (hasVoted[msg.sender] == false) {\n        numVoteSecrets++;\n        hasVoted[msg.sender] = true;\n        emit voteCommitted(msg.sender);\n    }\n  }\n\n  function reveal(bool voteOption, uint salt) public \n    stoppedInEmergency\n    onlyVotedAdmin \n    onlyNotRevealedAdmin\n    onlyDuringApprovalState(ApprovalStates.Reveal) \n    endReveal {\n      require(keccak256(abi.encodePacked(voteOption, salt)) == voteSecrets[msg.sender], \"Vote secrets do not match\");\n\n      if (voteOption) {\n        numApprovals++;\n      } else {\n        numRejections++;\n      }\n\n      numVoteReveals++;\n      hasRevealed[msg.sender] = true;\n      emit voteRevealed(msg.sender);\n  }\n\n}\n\ncontract Campaign is Approvable, ReentrancyGuard {\n  \n  /**\n    EVENTS\n   */\n  event campaignStarted (\n    uint startDate\n  );\n  \n  event campaignEnded (\n    uint endDate\n  );\n\n  event campaignCancelled (\n    uint cancelledDate\n  );\n\n  event contributionMade (\n    address contributor,\n    uint amount\n  );\n\n  event withdrawlMade (\n    address beneficiary,\n    uint amount \n  );\n\n  /**\n    DATA STRUCTURES\n   */\n\n  enum CampaignStates {\n    Pending,\n    Active,\n    Successful,\n    Unsuccessful,\n    Cancelled\n  }\n\n  struct Contribution {\n    address addr;\n    uint amount;\n    uint timestamp;\n  }\n\n  /**\n    STATE VARIABLES\n   */\n\n  CampaignStates public campaignState = CampaignStates.Pending;\n\n\n  uint public funds = address(this).balance;\n  uint public endDate;\n\n  uint public id;\n  string public title;\n  uint public goal;\n  uint public duration;\n  string public description;\n  string public image;\n  address public manager;\n\n  Contribution[] public contributions;\n  mapping (address => uint) public totalContributed;\n  mapping (address => bool) public hasContributed;\n  mapping (address => bool) public hasWithdrawn;\n\n  /**\n    CONSTRUCTOR\n   */\n\n  constructor(\n    uint _id, \n    string _title, \n    uint _goal,  \n    uint _duration, \n    string _description,\n    string _image,\n    address _manager,\n    address efmAddress\n  ) Approvable(efmAddress) public {\n    id = _id;\n    title = _title;\n    goal = _goal;\n    duration = _duration * 1 days;\n    description = _description;\n    image = _image;\n    manager = _manager;\n  }\n\n  /**\n    MODIFIERS\n   */\n\n  // ACCESS RESTRICTION\n  modifier onlyManager() {\n    require(msg.sender == manager, \"Only campaign manager authorized\");\n    _;\n  }\n\n  modifier onlyNotManager() {\n    require(msg.sender != manager);\n    _;\n  }\n\n  modifier onlyManagerOrAdmin() {\n    // FIXME: Is this modifier still used/required? \n    require(msg.sender == manager || administrated.isAdmin(msg.sender), \"Only campaign manager or admin authorized\");\n    _;\n  }\n\n  modifier onlyHasNotWithdrawn() {\n    require(hasWithdrawn[msg.sender] == false, \"User has already withdrawn\");\n    _;\n  }\n\n  modifier onlyHasContributed() {\n    require(hasContributed[msg.sender] == true, \"User has not contributed\");\n    _;\n  }\n\n  // STATE MANAGEMENT\n\n  modifier onlyDuringCampaignState(CampaignStates _campaignState) {\n    require(campaignState == _campaignState, \"Incorrect campaignState for function\");\n    _;\n  }\n\n  modifier onlyBeforeCampaignEnd() {\n    require(campaignState <= CampaignStates.Active, \"Campaign must be active\");\n    _;\n  }\n\n  modifier onlyAfterCampaignEnd() {\n    require(campaignState > CampaignStates.Active, \"Campaign must have ended\");\n    _;\n  }\n\n  // FIXME: Could be renamed to endCampaign\n  modifier transitionState() {\n    if (campaignState == CampaignStates.Active && block.timestamp > endDate\n    ) {\n      \n      if (funds >= goal) {\n        campaignState = CampaignStates.Successful;\n      } else {\n        campaignState = CampaignStates.Unsuccessful;\n      }\n\n    }\n    _;\n  }\n\n\n\n  // INPUT VALIDATION\n\n  modifier validateContribution() {\n    //No Zero Contributions\n    require(msg.value > 0, \"No zero contributions\"); \n     //Integer Overflow Protection\n    require(funds + msg.value > funds, \"Integer overflow check failed\");\n    require(totalContributed[msg.sender] + msg.value > totalContributed[msg.sender], \"Integer overflow check failed\");\n    _;\n  }\n\n  // PRIVATE FUNCTIONS\n\n  function onApproval() internal \n  {\n    endDate = block.timestamp + duration;\n    campaignState = CampaignStates.Active;\n    emit campaignStarted(block.timestamp);\n  }\n\n  function onRejection() internal\n  {\n    campaignState = CampaignStates.Unsuccessful;\n  }\n\n  function managerWithdrawl() internal \n    onlyManager\n  {\n      hasWithdrawn[msg.sender] = true;\n      funds = 0;\n      emit withdrawlMade(msg.sender, address(this).balance);\n      msg.sender.transfer(address(this).balance);\n  }\n\n  function contributorWithdrawl() private \n    onlyHasContributed\n  {\n    hasWithdrawn[msg.sender] = true;\n    funds -= totalContributed[msg.sender];\n    emit withdrawlMade(msg.sender, totalContributed[msg.sender]);\n    msg.sender.transfer(totalContributed[msg.sender]);\n  }\n\n  /**\n    INTERFACE\n   */\n\n\n\n  function contribute() public payable \n    stoppedInEmergency\n    onlyNotManager \n    transitionState\n    onlyDuringCampaignState(CampaignStates.Active)\n    validateContribution \n  {\n    hasContributed[msg.sender] = true;\n    contributions.push(Contribution(msg.sender, msg.value, now));\n    totalContributed[msg.sender] += msg.value;\n    funds += msg.value;\n    emit contributionMade(msg.sender, msg.value);\n  }\n  \n  function cancelCampaign() public\n    stoppedInEmergency\n    onlyManager\n    transitionState\n    onlyBeforeCampaignEnd\n  {\n    approvalState = ApprovalStates.Cancelled;\n    campaignState = CampaignStates.Cancelled;\n    emit campaignCancelled(block.timestamp);\n  }\n\n  // FIXME: Consider removing this function. It's essentially unnecessary since withdraw will end the campaign\n  // but it exists as a formal way of ending the campaign.\n  function endCampaign() public \n    stoppedInEmergency\n    onlyManagerOrAdmin\n    transitionState\n    onlyAfterCampaignEnd\n  {\n    emit campaignEnded(block.timestamp);\n  }\n\n  // Wrapper to private function doing the actual work as described in ReentrancyGuard.sol\n  function withdraw() external\n    stoppedInEmergency\n    nonReentrant // TODO: How do we test, need a reentrancy contract to call this function.\n    onlyHasNotWithdrawn\n    transitionState \n    onlyAfterCampaignEnd \n  {\n    if (campaignState == CampaignStates.Successful) {\n      managerWithdrawl();\n    }\n\n    if(campaignState == CampaignStates.Unsuccessful || campaignState == CampaignStates.Cancelled) {\n      contributorWithdrawl();\n    }\n  }\n\n  function emergencyWithdraw() external\n    onlyInEmergency\n    nonReentrant\n    onlyHasNotWithdrawn\n  {\n    contributorWithdrawl();\n  }\n\n  // GETTERS\n\n  function getNumContributions() public view returns(uint numContributions) {\n    return contributions.length;\n  }\n\n    function getTotalContributedFunds() public view returns(uint) {\n    uint result = 0;\n    for (uint i = 0; i < contributions.length; i++) {\n      result += contributions[i].amount;\n    }\n    return result;\n  }\n\n  // UI HELPERS\n\n  function isActive() public view returns(bool) {\n    return (block.timestamp < endDate);\n  }\n\n  function getBlockTimestamp() public view returns(uint) {\n    return block.timestamp;\n  }\n\n  function transitionCampaign() public\n    stoppedInEmergency\n    transitionState \n  {\n    \n  }\n\n}",
  "sourcePath": "/mnt/c/Users/jalal/Github/EthFundMe/contracts/Campaign.sol",
  "compiler": {
    "name": "solc",
    "version": "0.4.24+commit.e67f0147.Emscripten.clang"
  },
  "schemaVersion": "2.0.1",
  "updatedAt": "2018-08-17T17:19:00.379Z"
}