{
  "contractName": "Campaign",
  "abi": [
    {
      "constant": true,
      "inputs": [
        {
          "name": "",
          "type": "uint256"
        }
      ],
      "name": "contributors",
      "outputs": [
        {
          "name": "contributorAddress",
          "type": "address"
        },
        {
          "name": "totalContributed",
          "type": "uint256"
        }
      ],
      "payable": false,
      "stateMutability": "view",
      "type": "function"
    },
    {
      "constant": true,
      "inputs": [],
      "name": "goal",
      "outputs": [
        {
          "name": "",
          "type": "uint256"
        }
      ],
      "payable": false,
      "stateMutability": "view",
      "type": "function"
    },
    {
      "constant": true,
      "inputs": [],
      "name": "manager",
      "outputs": [
        {
          "name": "",
          "type": "address"
        }
      ],
      "payable": false,
      "stateMutability": "view",
      "type": "function"
    },
    {
      "constant": true,
      "inputs": [],
      "name": "title",
      "outputs": [
        {
          "name": "",
          "type": "string"
        }
      ],
      "payable": false,
      "stateMutability": "view",
      "type": "function"
    },
    {
      "constant": true,
      "inputs": [],
      "name": "id",
      "outputs": [
        {
          "name": "",
          "type": "uint256"
        }
      ],
      "payable": false,
      "stateMutability": "view",
      "type": "function"
    },
    {
      "constant": true,
      "inputs": [],
      "name": "state",
      "outputs": [
        {
          "name": "",
          "type": "uint8"
        }
      ],
      "payable": false,
      "stateMutability": "view",
      "type": "function"
    },
    {
      "constant": true,
      "inputs": [],
      "name": "funds",
      "outputs": [
        {
          "name": "",
          "type": "uint256"
        }
      ],
      "payable": false,
      "stateMutability": "view",
      "type": "function"
    },
    {
      "inputs": [
        {
          "name": "_id",
          "type": "uint256"
        },
        {
          "name": "_title",
          "type": "string"
        },
        {
          "name": "_goal",
          "type": "uint256"
        }
      ],
      "payable": false,
      "stateMutability": "nonpayable",
      "type": "constructor"
    }
  ],
  "bytecode": "0x608060405234801561001057600080fd5b506040516105843803806105848339810180604052810190808051906020019092919080518201929190602001805190602001909291905050508260018190555081600290805190602001906100679291906100db565b508060038190555033600460006101000a81548173ffffffffffffffffffffffffffffffffffffffff021916908373ffffffffffffffffffffffffffffffffffffffff16021790555060008060006101000a81548160ff021916908360038111156100ce57fe5b0217905550505050610180565b828054600181600116156101000203166002900490600052602060002090601f016020900481019282601f1061011c57805160ff191683800117855561014a565b8280016001018555821561014a579182015b8281111561014957825182559160200191906001019061012e565b5b509050610157919061015b565b5090565b61017d91905b80821115610179576000816000905550600101610161565b5090565b90565b6103f58061018f6000396000f300608060405260043610610083576000357c0100000000000000000000000000000000000000000000000000000000900463ffffffff1680633cb5d1001461008857806340193883146100fc578063481c6a75146101275780634a79d50c1461017e578063af640d0f1461020e578063c19d93fb14610239578063c89f2ce414610272575b600080fd5b34801561009457600080fd5b506100b36004803603810190808035906020019092919050505061029d565b604051808373ffffffffffffffffffffffffffffffffffffffff1673ffffffffffffffffffffffffffffffffffffffff1681526020018281526020019250505060405180910390f35b34801561010857600080fd5b506101116102e1565b6040518082815260200191505060405180910390f35b34801561013357600080fd5b5061013c6102e7565b604051808273ffffffffffffffffffffffffffffffffffffffff1673ffffffffffffffffffffffffffffffffffffffff16815260200191505060405180910390f35b34801561018a57600080fd5b5061019361030d565b6040518080602001828103825283818151815260200191508051906020019080838360005b838110156101d35780820151818401526020810190506101b8565b50505050905090810190601f1680156102005780820380516001836020036101000a031916815260200191505b509250505060405180910390f35b34801561021a57600080fd5b506102236103ab565b6040518082815260200191505060405180910390f35b34801561024557600080fd5b5061024e6103b1565b6040518082600381111561025e57fe5b60ff16815260200191505060405180910390f35b34801561027e57600080fd5b506102876103c3565b6040518082815260200191505060405180910390f35b60056020528060005260406000206000915090508060000160009054906101000a900473ffffffffffffffffffffffffffffffffffffffff16908060010154905082565b60035481565b600460009054906101000a900473ffffffffffffffffffffffffffffffffffffffff1681565b60028054600181600116156101000203166002900480601f0160208091040260200160405190810160405280929190818152602001828054600181600116156101000203166002900480156103a35780601f10610378576101008083540402835291602001916103a3565b820191906000526020600020905b81548152906001019060200180831161038657829003601f168201915b505050505081565b60015481565b6000809054906101000a900460ff1681565b600654815600a165627a7a72305820654080aa54b8e44ceb362afa75c49e83411db5fabe0a06412aca0980b13882da0029",
  "source": "pragma solidity ^0.4.24;\n\ncontract EthFundMe {\n  address[] public admins;\n  uint public numCampaigns;\n  mapping(uint => address) campaigns;\n\n  constructor(address[] _admins) public {\n    admins = _admins;\n  }\n\n  function getNumAdmins() public view returns(uint) {\n    return admins.length;\n  }\n\n  function getAdmins() public view returns(address[]) {\n    return admins;\n  }\n\n  function createContract(string title, uint goal) public returns(address) {\n    Campaign newCampaign = new Campaign(numCampaigns++, title, goal);\n    campaigns[numCampaigns] = address(newCampaign);\n    return address(newCampaign);\n  }\n\n}\n\ncontract Campaign {\n  enum States {\n    Pending, \n    Open, \n    Closed, \n    Rejected\n  }\n\n  struct Contribution {\n    uint amount;\n  }\n\n  struct Contributor {\n    address contributorAddress;\n    uint totalContributed;\n    mapping (uint => Contribution) contributions;\n  }\n\n  States public state;\n  uint public id;\n  string public title;\n  uint public goal;\n  address public manager;\n  mapping (uint => Contributor) public contributors;\n  uint public funds;\n\n  constructor(uint _id, string _title, uint _goal) public {\n    id = _id;\n    title = _title;\n    goal = _goal;\n    manager = msg.sender;\n    state = States.Pending;\n  }\n\n}",
  "sourcePath": "C:\\Users\\jalal\\GitHub\\EthFundMe\\contracts\\EthFundMe.sol",
  "compiler": {
    "name": "solc",
    "version": "0.4.24+commit.e67f0147.Emscripten.clang"
  },
  "schemaVersion": "2.0.1",
  "updatedAt": "2018-07-12T15:54:28.913Z"
}