{
  "contractName": "Campaign",
  "abi": [
    {
      "constant": true,
      "inputs": [
        {
          "name": "",
          "type": "address"
        }
      ],
      "name": "hasVoted",
      "outputs": [
        {
          "name": "",
          "type": "bool"
        }
      ],
      "payable": false,
      "stateMutability": "view",
      "type": "function"
    },
    {
      "constant": true,
      "inputs": [],
      "name": "duration",
      "outputs": [
        {
          "name": "",
          "type": "uint256"
        }
      ],
      "payable": false,
      "stateMutability": "view",
      "type": "function"
    },
    {
      "constant": false,
      "inputs": [],
      "name": "stopContract",
      "outputs": [],
      "payable": false,
      "stateMutability": "nonpayable",
      "type": "function"
    },
    {
      "constant": true,
      "inputs": [],
      "name": "approvalState",
      "outputs": [
        {
          "name": "",
          "type": "uint8"
        }
      ],
      "payable": false,
      "stateMutability": "view",
      "type": "function"
    },
    {
      "constant": true,
      "inputs": [
        {
          "name": "",
          "type": "uint256"
        }
      ],
      "name": "contributions",
      "outputs": [
        {
          "name": "addr",
          "type": "address"
        },
        {
          "name": "amount",
          "type": "uint256"
        },
        {
          "name": "timestamp",
          "type": "uint256"
        }
      ],
      "payable": false,
      "stateMutability": "view",
      "type": "function"
    },
    {
      "constant": true,
      "inputs": [
        {
          "name": "",
          "type": "address"
        }
      ],
      "name": "hasContributed",
      "outputs": [
        {
          "name": "",
          "type": "bool"
        }
      ],
      "payable": false,
      "stateMutability": "view",
      "type": "function"
    },
    {
      "constant": false,
      "inputs": [
        {
          "name": "voteOption",
          "type": "bool"
        },
        {
          "name": "salt",
          "type": "uint256"
        }
      ],
      "name": "reveal",
      "outputs": [],
      "payable": false,
      "stateMutability": "nonpayable",
      "type": "function"
    },
    {
      "constant": true,
      "inputs": [],
      "name": "isStopped",
      "outputs": [
        {
          "name": "",
          "type": "bool"
        }
      ],
      "payable": false,
      "stateMutability": "view",
      "type": "function"
    },
    {
      "constant": true,
      "inputs": [],
      "name": "goal",
      "outputs": [
        {
          "name": "",
          "type": "uint256"
        }
      ],
      "payable": false,
      "stateMutability": "view",
      "type": "function"
    },
    {
      "constant": true,
      "inputs": [],
      "name": "manager",
      "outputs": [
        {
          "name": "",
          "type": "address"
        }
      ],
      "payable": false,
      "stateMutability": "view",
      "type": "function"
    },
    {
      "constant": true,
      "inputs": [],
      "name": "title",
      "outputs": [
        {
          "name": "",
          "type": "string"
        }
      ],
      "payable": false,
      "stateMutability": "view",
      "type": "function"
    },
    {
      "constant": true,
      "inputs": [
        {
          "name": "",
          "type": "address"
        }
      ],
      "name": "hasWithdrawn",
      "outputs": [
        {
          "name": "",
          "type": "bool"
        }
      ],
      "payable": false,
      "stateMutability": "view",
      "type": "function"
    },
    {
      "constant": true,
      "inputs": [],
      "name": "description",
      "outputs": [
        {
          "name": "",
          "type": "string"
        }
      ],
      "payable": false,
      "stateMutability": "view",
      "type": "function"
    },
    {
      "constant": true,
      "inputs": [],
      "name": "numApprovals",
      "outputs": [
        {
          "name": "",
          "type": "uint256"
        }
      ],
      "payable": false,
      "stateMutability": "view",
      "type": "function"
    },
    {
      "constant": true,
      "inputs": [
        {
          "name": "",
          "type": "address"
        }
      ],
      "name": "totalContributed",
      "outputs": [
        {
          "name": "",
          "type": "uint256"
        }
      ],
      "payable": false,
      "stateMutability": "view",
      "type": "function"
    },
    {
      "constant": false,
      "inputs": [
        {
          "name": "secretVote",
          "type": "bytes32"
        }
      ],
      "name": "vote",
      "outputs": [],
      "payable": false,
      "stateMutability": "nonpayable",
      "type": "function"
    },
    {
      "constant": true,
      "inputs": [
        {
          "name": "",
          "type": "address"
        }
      ],
      "name": "voteSecrets",
      "outputs": [
        {
          "name": "",
          "type": "bytes32"
        }
      ],
      "payable": false,
      "stateMutability": "view",
      "type": "function"
    },
    {
      "constant": true,
      "inputs": [],
      "name": "efm",
      "outputs": [
        {
          "name": "",
          "type": "address"
        }
      ],
      "payable": false,
      "stateMutability": "view",
      "type": "function"
    },
    {
      "constant": true,
      "inputs": [],
      "name": "id",
      "outputs": [
        {
          "name": "",
          "type": "uint256"
        }
      ],
      "payable": false,
      "stateMutability": "view",
      "type": "function"
    },
    {
      "constant": true,
      "inputs": [
        {
          "name": "",
          "type": "address"
        }
      ],
      "name": "hasRevealed",
      "outputs": [
        {
          "name": "",
          "type": "bool"
        }
      ],
      "payable": false,
      "stateMutability": "view",
      "type": "function"
    },
    {
      "constant": true,
      "inputs": [],
      "name": "numVoteSecrets",
      "outputs": [
        {
          "name": "",
          "type": "uint256"
        }
      ],
      "payable": false,
      "stateMutability": "view",
      "type": "function"
    },
    {
      "constant": true,
      "inputs": [],
      "name": "endDate",
      "outputs": [
        {
          "name": "",
          "type": "uint256"
        }
      ],
      "payable": false,
      "stateMutability": "view",
      "type": "function"
    },
    {
      "constant": false,
      "inputs": [],
      "name": "resumeContract",
      "outputs": [],
      "payable": false,
      "stateMutability": "nonpayable",
      "type": "function"
    },
    {
      "constant": true,
      "inputs": [],
      "name": "funds",
      "outputs": [
        {
          "name": "",
          "type": "uint256"
        }
      ],
      "payable": false,
      "stateMutability": "view",
      "type": "function"
    },
    {
      "constant": true,
      "inputs": [],
      "name": "image",
      "outputs": [
        {
          "name": "",
          "type": "string"
        }
      ],
      "payable": false,
      "stateMutability": "view",
      "type": "function"
    },
    {
      "constant": true,
      "inputs": [],
      "name": "campaignState",
      "outputs": [
        {
          "name": "",
          "type": "uint8"
        }
      ],
      "payable": false,
      "stateMutability": "view",
      "type": "function"
    },
    {
      "constant": true,
      "inputs": [],
      "name": "numRejections",
      "outputs": [
        {
          "name": "",
          "type": "uint256"
        }
      ],
      "payable": false,
      "stateMutability": "view",
      "type": "function"
    },
    {
      "constant": true,
      "inputs": [],
      "name": "numVoteReveals",
      "outputs": [
        {
          "name": "",
          "type": "uint256"
        }
      ],
      "payable": false,
      "stateMutability": "view",
      "type": "function"
    },
    {
      "inputs": [
        {
          "name": "_id",
          "type": "uint256"
        },
        {
          "name": "_title",
          "type": "string"
        },
        {
          "name": "_goal",
          "type": "uint256"
        },
        {
          "name": "_duration",
          "type": "uint256"
        },
        {
          "name": "_description",
          "type": "string"
        },
        {
          "name": "_image",
          "type": "string"
        },
        {
          "name": "_manager",
          "type": "address"
        },
        {
          "name": "efmAddress",
          "type": "address"
        }
      ],
      "payable": false,
      "stateMutability": "nonpayable",
      "type": "constructor"
    },
    {
      "constant": false,
      "inputs": [],
      "name": "contribute",
      "outputs": [],
      "payable": true,
      "stateMutability": "payable",
      "type": "function"
    },
    {
      "constant": false,
      "inputs": [],
      "name": "cancelCampaign",
      "outputs": [],
      "payable": false,
      "stateMutability": "nonpayable",
      "type": "function"
    },
    {
      "constant": false,
      "inputs": [],
      "name": "endCampaign",
      "outputs": [],
      "payable": false,
      "stateMutability": "nonpayable",
      "type": "function"
    },
    {
      "constant": false,
      "inputs": [],
      "name": "withdraw",
      "outputs": [],
      "payable": false,
      "stateMutability": "nonpayable",
      "type": "function"
    },
    {
      "constant": false,
      "inputs": [],
      "name": "emergencyWithdraw",
      "outputs": [],
      "payable": false,
      "stateMutability": "nonpayable",
      "type": "function"
    },
    {
      "constant": true,
      "inputs": [],
      "name": "getNumContributions",
      "outputs": [
        {
          "name": "numContributions",
          "type": "uint256"
        }
      ],
      "payable": false,
      "stateMutability": "view",
      "type": "function"
    },
    {
      "constant": true,
      "inputs": [],
      "name": "isActive",
      "outputs": [
        {
          "name": "",
          "type": "bool"
        }
      ],
      "payable": false,
      "stateMutability": "view",
      "type": "function"
    },
    {
      "constant": true,
      "inputs": [],
      "name": "getBlockTimestamp",
      "outputs": [
        {
          "name": "",
          "type": "uint256"
        }
      ],
      "payable": false,
      "stateMutability": "view",
      "type": "function"
    },
    {
      "constant": false,
      "inputs": [],
      "name": "transitionCampaign",
      "outputs": [],
      "payable": false,
      "stateMutability": "nonpayable",
      "type": "function"
    },
    {
      "constant": true,
      "inputs": [],
      "name": "getTotalContributedFunds",
      "outputs": [
        {
          "name": "",
          "type": "uint256"
        }
      ],
      "payable": false,
      "stateMutability": "view",
      "type": "function"
    }
  ],
  "bytecode": "0x608060405260008060146101000a81548160ff02191690831515021790555060008060156101000a81548160ff021916908360048111156200003d57fe5b02179055506000600860006101000a81548160ff021916908360048111156200006257fe5b02179055503073ffffffffffffffffffffffffffffffffffffffff16316009553480156200008f57600080fd5b506040516200272b3803806200272b83398101806040528101908080519060200190929190805182019291906020018051906020019092919080519060200190929190805182019291906020018051820192919060200180519060200190929190805190602001909291905050508080806000806101000a81548173ffffffffffffffffffffffffffffffffffffffff021916908373ffffffffffffffffffffffffffffffffffffffff160217905550505087600b8190555086600c908051906020019062000160929190620001f5565b5085600d81905550620151808502600e8190555083600f90805190602001906200018c929190620001f5565b508260109080519060200190620001a5929190620001f5565b5081601160006101000a81548173ffffffffffffffffffffffffffffffffffffffff021916908373ffffffffffffffffffffffffffffffffffffffff1602179055505050505050505050620002a4565b828054600181600116156101000203166002900490600052602060002090601f016020900481019282601f106200023857805160ff191683800117855562000269565b8280016001018555821562000269579182015b82811115620002685782518255916020019190600101906200024b565b5b5090506200027891906200027c565b5090565b620002a191905b808211156200029d57600081600090555060010162000283565b5090565b90565b61247780620002b46000396000f3006080604052600436106101d8576000357c0100000000000000000000000000000000000000000000000000000000900463ffffffff16806309eef43e146101dd5780630fb5a6b41461023857806312253a6c146102635780631afcf1591461027a5780631cee0700146102b3578063205b19461461032e57806322f3e2d41461038957806339f3027d146103b85780633ccfd60b146103f15780633f683b6a146104085780634019388314610437578063481c6a75146104625780634a79d50c146104b95780635e2c19db1461054957806365325386146105a457806371aac7f9146105cf5780637284e416146105e65780637403c5e514610676578063796b89b9146106a1578063980e7844146106cc578063a0f243b8146106e3578063a69beaba1461073a578063aac083451461076b578063ab45be42146107ca578063aedbf409146107e1578063af640d0f14610838578063b9a5301314610863578063c17c5cf0146108be578063c24a0f8b146108e9578063c4bc5da514610914578063c89f2ce41461092b578063d7bb99ba14610956578063db2e21bc14610960578063e70ac62c14610977578063f3ccaac0146109a2578063f4c9b1fd14610a32578063f81292c114610a6b578063facd493914610a96575b600080fd5b3480156101e957600080fd5b5061021e600480360381019080803573ffffffffffffffffffffffffffffffffffffffff169060200190929190505050610ac1565b604051808215151515815260200191505060405180910390f35b34801561024457600080fd5b5061024d610ae1565b6040518082815260200191505060405180910390f35b34801561026f57600080fd5b50610278610ae7565b005b34801561028657600080fd5b5061028f610b17565b6040518082600481111561029f57fe5b60ff16815260200191505060405180910390f35b3480156102bf57600080fd5b506102de60048036038101908080359060200190929190505050610b2a565b604051808473ffffffffffffffffffffffffffffffffffffffff1673ffffffffffffffffffffffffffffffffffffffff168152602001838152602001828152602001935050505060405180910390f35b34801561033a57600080fd5b5061036f600480360381019080803573ffffffffffffffffffffffffffffffffffffffff169060200190929190505050610b83565b604051808215151515815260200191505060405180910390f35b34801561039557600080fd5b5061039e610ba3565b604051808215151515815260200191505060405180910390f35b3480156103c457600080fd5b506103ef60048036038101908080351515906020019092919080359060200190929190505050610baf565b005b3480156103fd57600080fd5b50610406610ed2565b005b34801561041457600080fd5b5061041d6110b7565b604051808215151515815260200191505060405180910390f35b34801561044357600080fd5b5061044c6110ca565b6040518082815260200191505060405180910390f35b34801561046e57600080fd5b506104776110d0565b604051808273ffffffffffffffffffffffffffffffffffffffff1673ffffffffffffffffffffffffffffffffffffffff16815260200191505060405180910390f35b3480156104c557600080fd5b506104ce6110f6565b6040518080602001828103825283818151815260200191508051906020019080838360005b8381101561050e5780820151818401526020810190506104f3565b50505050905090810190601f16801561053b5780820380516001836020036101000a031916815260200191505b509250505060405180910390f35b34801561055557600080fd5b5061058a600480360381019080803573ffffffffffffffffffffffffffffffffffffffff169060200190929190505050611194565b604051808215151515815260200191505060405180910390f35b3480156105b057600080fd5b506105b96111b4565b6040518082815260200191505060405180910390f35b3480156105db57600080fd5b506105e4611208565b005b3480156105f257600080fd5b506105fb61144b565b6040518080602001828103825283818151815260200191508051906020019080838360005b8381101561063b578082015181840152602081019050610620565b50505050905090810190601f1680156106685780820380516001836020036101000a031916815260200191505b509250505060405180910390f35b34801561068257600080fd5b5061068b6114e9565b6040518082815260200191505060405180910390f35b3480156106ad57600080fd5b506106b66114ef565b6040518082815260200191505060405180910390f35b3480156106d857600080fd5b506106e16114f7565b005b3480156106ef57600080fd5b50610724600480360381019080803573ffffffffffffffffffffffffffffffffffffffff169060200190929190505050611783565b6040518082815260200191505060405180910390f35b34801561074657600080fd5b50610769600480360381019080803560001916906020019092919050505061179b565b005b34801561077757600080fd5b506107ac600480360381019080803573ffffffffffffffffffffffffffffffffffffffff169060200190929190505050611a2d565b60405180826000191660001916815260200191505060405180910390f35b3480156107d657600080fd5b506107df611a45565b005b3480156107ed57600080fd5b506107f6611afa565b604051808273ffffffffffffffffffffffffffffffffffffffff1673ffffffffffffffffffffffffffffffffffffffff16815260200191505060405180910390f35b34801561084457600080fd5b5061084d611b1f565b6040518082815260200191505060405180910390f35b34801561086f57600080fd5b506108a4600480360381019080803573ffffffffffffffffffffffffffffffffffffffff169060200190929190505050611b25565b604051808215151515815260200191505060405180910390f35b3480156108ca57600080fd5b506108d3611b45565b6040518082815260200191505060405180910390f35b3480156108f557600080fd5b506108fe611b4b565b6040518082815260200191505060405180910390f35b34801561092057600080fd5b50610929611b51565b005b34801561093757600080fd5b50610940611b80565b6040518082815260200191505060405180910390f35b61095e611b86565b005b34801561096c57600080fd5b50610975611ef1565b005b34801561098357600080fd5b5061098c611f75565b6040518082815260200191505060405180910390f35b3480156109ae57600080fd5b506109b7611f82565b6040518080602001828103825283818151815260200191508051906020019080838360005b838110156109f75780820151818401526020810190506109dc565b50505050905090810190601f168015610a245780820380516001836020036101000a031916815260200191505b509250505060405180910390f35b348015610a3e57600080fd5b50610a47612020565b60405180826004811115610a5757fe5b60ff16815260200191505060405180910390f35b348015610a7757600080fd5b50610a80612033565b6040518082815260200191505060405180910390f35b348015610aa257600080fd5b50610aab612039565b6040518082815260200191505060405180910390f35b60066020528060005260406000206000915054906101000a900460ff1681565b600e5481565b610aef61203f565b1515610afa57600080fd5b6001600060146101000a81548160ff021916908315150217905550565b600060159054906101000a900460ff1681565b601281815481101515610b3957fe5b90600052602060002090600302016000915090508060000160009054906101000a900473ffffffffffffffffffffffffffffffffffffffff16908060010154908060020154905083565b60146020528060005260406000206000915054906101000a900460ff1681565b6000600a544210905090565b600060149054906101000a900460ff16151515610bcb57600080fd5b60011515600660003373ffffffffffffffffffffffffffffffffffffffff1673ffffffffffffffffffffffffffffffffffffffff16815260200190815260200160002060009054906101000a900460ff161515141515610c2a57600080fd5b60001515600760003373ffffffffffffffffffffffffffffffffffffffff1673ffffffffffffffffffffffffffffffffffffffff16815260200190815260200160002060009054906101000a900460ff161515141515610c8957600080fd5b6001806004811115610c9757fe5b600060159054906101000a900460ff166004811115610cb257fe5b141515610cbe57600080fd5b600560003373ffffffffffffffffffffffffffffffffffffffff1673ffffffffffffffffffffffffffffffffffffffff168152602001908152602001600020546000191683836040516020018083151515157f0100000000000000000000000000000000000000000000000000000000000000028152600101828152602001925050506040516020818303038152906040526040518082805190602001908083835b602083101515610d855780518252602082019150602081019050602083039250610d60565b6001836020036101000a038019825116818451168082178552505050505050905001915050604051809103902060001916141515610dc257600080fd5b8215610ddf57600160008154809291906001019190505550610df2565b6002600081548092919060010191905055505b6004600081548092919060010191905055506001600760003373ffffffffffffffffffffffffffffffffffffffff1673ffffffffffffffffffffffffffffffffffffffff16815260200190815260200160002060006101000a81548160ff0219169083151502179055506002600154101515610e95576002600060156101000a81548160ff02191690836004811115610e8757fe5b0217905550610e9461214a565b5b60028054101515610ecd576003600060156101000a81548160ff02191690836004811115610ebf57fe5b0217905550610ecc61217b565b5b505050565b600060149054906101000a900460ff16151515610eee57600080fd5b60001515601560003373ffffffffffffffffffffffffffffffffffffffff1673ffffffffffffffffffffffffffffffffffffffff16815260200190815260200160002060009054906101000a900460ff161515141515610f4d57600080fd5b60016004811115610f5a57fe5b600860009054906101000a900460ff166004811115610f7557fe5b148015610f835750600a5442115b15610fe457600d54600954101515610fbe576002600860006101000a81548160ff02191690836004811115610fb457fe5b0217905550610fe3565b6003600860006101000a81548160ff02191690836004811115610fdd57fe5b02179055505b5b60016004811115610ff157fe5b600860009054906101000a900460ff16600481111561100c57fe5b11151561101857600080fd5b6002600481111561102557fe5b600860009054906101000a900460ff16600481111561104057fe5b141561104f5761104e6121a1565b5b6003600481111561105c57fe5b600860009054906101000a900460ff16600481111561107757fe5b14806110a7575060048081111561108a57fe5b600860009054906101000a900460ff1660048111156110a557fe5b145b156110b5576110b46122bd565b5b565b600060149054906101000a900460ff1681565b600d5481565b601160009054906101000a900473ffffffffffffffffffffffffffffffffffffffff1681565b600c8054600181600116156101000203166002900480601f01602080910402602001604051908101604052809291908181526020018280546001816001161561010002031660029004801561118c5780601f106111615761010080835404028352916020019161118c565b820191906000526020600020905b81548152906001019060200180831161116f57829003601f168201915b505050505081565b60156020528060005260406000206000915054906101000a900460ff1681565b6000806000809150600090505b601280549050811015611200576012818154811015156111dd57fe5b9060005260206000209060030201600101548201915080806001019150506111c1565b819250505090565b600060149054906101000a900460ff1615151561122457600080fd5b601160009054906101000a900473ffffffffffffffffffffffffffffffffffffffff1673ffffffffffffffffffffffffffffffffffffffff163373ffffffffffffffffffffffffffffffffffffffff16148061137357506000809054906101000a900473ffffffffffffffffffffffffffffffffffffffff1673ffffffffffffffffffffffffffffffffffffffff166324d7806c336040518263ffffffff167c0100000000000000000000000000000000000000000000000000000000028152600401808273ffffffffffffffffffffffffffffffffffffffff1673ffffffffffffffffffffffffffffffffffffffff168152602001915050602060405180830381600087803b15801561133757600080fd5b505af115801561134b573d6000803e3d6000fd5b505050506040513d602081101561136157600080fd5b81019080805190602001909291905050505b151561137e57600080fd5b6001600481111561138b57fe5b600860009054906101000a900460ff1660048111156113a657fe5b1480156113b45750600a5442115b1561141557600d546009541015156113ef576002600860006101000a81548160ff021916908360048111156113e557fe5b0217905550611414565b6003600860006101000a81548160ff0219169083600481111561140e57fe5b02179055505b5b6001600481111561142257fe5b600860009054906101000a900460ff16600481111561143d57fe5b11151561144957600080fd5b565b600f8054600181600116156101000203166002900480601f0160208091040260200160405190810160405280929190818152602001828054600181600116156101000203166002900480156114e15780601f106114b6576101008083540402835291602001916114e1565b820191906000526020600020905b8154815290600101906020018083116114c457829003601f168201915b505050505081565b60015481565b600042905090565b600060149054906101000a900460ff1615151561151357600080fd5b601160009054906101000a900473ffffffffffffffffffffffffffffffffffffffff1673ffffffffffffffffffffffffffffffffffffffff163373ffffffffffffffffffffffffffffffffffffffff16148061166257506000809054906101000a900473ffffffffffffffffffffffffffffffffffffffff1673ffffffffffffffffffffffffffffffffffffffff166324d7806c336040518263ffffffff167c0100000000000000000000000000000000000000000000000000000000028152600401808273ffffffffffffffffffffffffffffffffffffffff1673ffffffffffffffffffffffffffffffffffffffff168152602001915050602060405180830381600087803b15801561162657600080fd5b505af115801561163a573d6000803e3d6000fd5b505050506040513d602081101561165057600080fd5b81019080805190602001909291905050505b151561166d57600080fd5b6001600481111561167a57fe5b600860009054906101000a900460ff16600481111561169557fe5b1480156116a35750600a5442115b1561170457600d546009541015156116de576002600860006101000a81548160ff021916908360048111156116d457fe5b0217905550611703565b6003600860006101000a81548160ff021916908360048111156116fd57fe5b02179055505b5b6001600481111561171157fe5b600860009054906101000a900460ff16600481111561172c57fe5b1115151561173957600080fd5b6004600060156101000a81548160ff0219169083600481111561175857fe5b02179055506004600860006101000a81548160ff0219169083600481111561177c57fe5b0217905550565b60136020528060005260406000206000915090505481565b600060149054906101000a900460ff161515156117b757600080fd5b6000809054906101000a900473ffffffffffffffffffffffffffffffffffffffff1673ffffffffffffffffffffffffffffffffffffffff166324d7806c336040518263ffffffff167c0100000000000000000000000000000000000000000000000000000000028152600401808273ffffffffffffffffffffffffffffffffffffffff1673ffffffffffffffffffffffffffffffffffffffff168152602001915050602060405180830381600087803b15801561187357600080fd5b505af1158015611887573d6000803e3d6000fd5b505050506040513d602081101561189d57600080fd5b810190808051906020019092919050505015156118b957600080fd5b60008060048111156118c757fe5b600060159054906101000a900460ff1660048111156118e257fe5b1415156118ee57600080fd5b81600560003373ffffffffffffffffffffffffffffffffffffffff1673ffffffffffffffffffffffffffffffffffffffff168152602001908152602001600020816000191690555060001515600660003373ffffffffffffffffffffffffffffffffffffffff1673ffffffffffffffffffffffffffffffffffffffff16815260200190815260200160002060009054906101000a900460ff16151514156119fa576003600081548092919060010191905055506001600660003373ffffffffffffffffffffffffffffffffffffffff1673ffffffffffffffffffffffffffffffffffffffff16815260200190815260200160002060006101000a81548160ff0219169083151502179055505b600380541415611a29576001600060156101000a81548160ff02191690836004811115611a2357fe5b02179055505b5050565b60056020528060005260406000206000915090505481565b600060149054906101000a900460ff16151515611a6157600080fd5b60016004811115611a6e57fe5b600860009054906101000a900460ff166004811115611a8957fe5b148015611a975750600a5442115b15611af857600d54600954101515611ad2576002600860006101000a81548160ff02191690836004811115611ac857fe5b0217905550611af7565b6003600860006101000a81548160ff02191690836004811115611af157fe5b02179055505b5b565b6000809054906101000a900473ffffffffffffffffffffffffffffffffffffffff1681565b600b5481565b60076020528060005260406000206000915054906101000a900460ff1681565b60035481565b600a5481565b611b5961203f565b1515611b6457600080fd5b60008060146101000a81548160ff021916908315150217905550565b60095481565b600060149054906101000a900460ff16151515611ba257600080fd5b601160009054906101000a900473ffffffffffffffffffffffffffffffffffffffff1673ffffffffffffffffffffffffffffffffffffffff163373ffffffffffffffffffffffffffffffffffffffff1614151515611bff57600080fd5b60016004811115611c0c57fe5b600860009054906101000a900460ff166004811115611c2757fe5b148015611c355750600a5442115b15611c9657600d54600954101515611c70576002600860006101000a81548160ff02191690836004811115611c6657fe5b0217905550611c95565b6003600860006101000a81548160ff02191690836004811115611c8f57fe5b02179055505b5b6001806004811115611ca457fe5b600860009054906101000a900460ff166004811115611cbf57fe5b141515611ccb57600080fd5b600034111515611cda57600080fd5b6009543460095401111515611cee57600080fd5b601360003373ffffffffffffffffffffffffffffffffffffffff1673ffffffffffffffffffffffffffffffffffffffff1681526020019081526020016000205434601360003373ffffffffffffffffffffffffffffffffffffffff1673ffffffffffffffffffffffffffffffffffffffff1681526020019081526020016000205401111515611d7c57600080fd5b6001601460003373ffffffffffffffffffffffffffffffffffffffff1673ffffffffffffffffffffffffffffffffffffffff16815260200190815260200160002060006101000a81548160ff02191690831515021790555060126060604051908101604052803373ffffffffffffffffffffffffffffffffffffffff168152602001348152602001428152509080600181540180825580915050906001820390600052602060002090600302016000909192909190915060008201518160000160006101000a81548173ffffffffffffffffffffffffffffffffffffffff021916908373ffffffffffffffffffffffffffffffffffffffff160217905550602082015181600101556040820151816002015550505034601360003373ffffffffffffffffffffffffffffffffffffffff1673ffffffffffffffffffffffffffffffffffffffff168152602001908152602001600020600082825401925050819055503460096000828254019250508190555050565b600060149054906101000a900460ff161515611f0c57600080fd5b60001515601560003373ffffffffffffffffffffffffffffffffffffffff1673ffffffffffffffffffffffffffffffffffffffff16815260200190815260200160002060009054906101000a900460ff161515141515611f6b57600080fd5b611f736122bd565b565b6000601280549050905090565b60108054600181600116156101000203166002900480601f0160208091040260200160405190810160405280929190818152602001828054600181600116156101000203166002900480156120185780601f10611fed57610100808354040283529160200191612018565b820191906000526020600020905b815481529060010190602001808311611ffb57829003601f168201915b505050505081565b600860009054906101000a900460ff1681565b60025481565b60045481565b60008060009054906101000a900473ffffffffffffffffffffffffffffffffffffffff1673ffffffffffffffffffffffffffffffffffffffff166324d7806c336040518263ffffffff167c0100000000000000000000000000000000000000000000000000000000028152600401808273ffffffffffffffffffffffffffffffffffffffff1673ffffffffffffffffffffffffffffffffffffffff168152602001915050602060405180830381600087803b1580156120fd57600080fd5b505af1158015612111573d6000803e3d6000fd5b505050506040513d602081101561212757600080fd5b8101908080519060200190929190505050151561214357600080fd5b6001905090565b600e544201600a819055506001600860006101000a81548160ff0219169083600481111561217457fe5b0217905550565b6003600860006101000a81548160ff0219169083600481111561219a57fe5b0217905550565b601160009054906101000a900473ffffffffffffffffffffffffffffffffffffffff1673ffffffffffffffffffffffffffffffffffffffff163373ffffffffffffffffffffffffffffffffffffffff161415156121fd57600080fd5b6001601560003373ffffffffffffffffffffffffffffffffffffffff1673ffffffffffffffffffffffffffffffffffffffff16815260200190815260200160002060006101000a81548160ff02191690831515021790555060006009819055503373ffffffffffffffffffffffffffffffffffffffff166108fc3073ffffffffffffffffffffffffffffffffffffffff16319081150290604051600060405180830381858888f193505050501580156122ba573d6000803e3d6000fd5b50565b60011515601460003373ffffffffffffffffffffffffffffffffffffffff1673ffffffffffffffffffffffffffffffffffffffff16815260200190815260200160002060009054906101000a900460ff16151514151561231c57600080fd5b6001601560003373ffffffffffffffffffffffffffffffffffffffff1673ffffffffffffffffffffffffffffffffffffffff16815260200190815260200160002060006101000a81548160ff021916908315150217905550601360003373ffffffffffffffffffffffffffffffffffffffff1673ffffffffffffffffffffffffffffffffffffffff168152602001908152602001600020546009600082825403925050819055503373ffffffffffffffffffffffffffffffffffffffff166108fc601360003373ffffffffffffffffffffffffffffffffffffffff1673ffffffffffffffffffffffffffffffffffffffff168152602001908152602001600020549081150290604051600060405180830381858888f19350505050158015612448573d6000803e3d6000fd5b505600a165627a7a72305820a25f35f16b52bf802709aeace686c7b07889e96a1b0895d3911fd3c7d79dfade0029",
  "source": "pragma solidity ^0.4.24;\n\nimport \"./EthFundMe.sol\";\nimport \"./EmergencyStoppable.sol\";\n// import \"./Approvable.sol\";\n\ncontract Administrated {\n  EthFundMe public efm;\n  \n  constructor(address efmAddress) public {\n    efm = EthFundMe(efmAddress);\n  }\n\n  modifier onlyAdmin {\n    require(efm.isAdmin(msg.sender));\n    _;\n  }\n\n}\n\ncontract Approvable is Administrated, EmergencyStoppable {\n\n  /**\n    IMPLEMENT EmergencyStoppable INTERFACE\n    \n   */\n  function isAuthorized() internal \n    onlyAdmin\n    returns(bool) \n  {\n    return true;\n  }\n\n  /**\n    DATA STRUCTURES\n   */\n\n  enum ApprovalStates {\n    Commit,\n    Reveal,\n    Approved,\n    Rejected,\n    Cancelled\n  }\n\n  ApprovalStates public approvalState = ApprovalStates.Commit;\n\n  /**\n    STATE VARIABLES\n   */\n\n  uint public numApprovals;\n  uint public numRejections;\n\n  uint public numVoteSecrets;\n  uint public numVoteReveals;\n\n  mapping(address => bytes32) public voteSecrets;\n  mapping(address => bool) public hasVoted;\n  mapping(address => bool) public hasRevealed;\n\n  /**\n    CONSTRUCTOR\n   */\n\n  constructor(address efmAddress) Administrated(efmAddress) public {\n    \n  }\n\n  /**\n    ABSTRACT FUNCTIONS\n   */\n\n  function onApproval() internal;\n  function onRejection() internal;\n\n  /**\n    MODIFIERS\n   */\n\n  // ACCESS RESTRICTION\n\n  modifier onlyVotedAdmin() {\n    require(hasVoted[msg.sender] == true);\n    _;\n  }\n\n  modifier onlyNotRevealedAdmin() {\n    require(hasRevealed[msg.sender] == false);\n    _;\n  }\n\n  // STATE MANAGEMENT\n\n  modifier onlyDuringApprovalState(ApprovalStates _approvalState) {\n    require(approvalState == _approvalState);\n    _;\n  }\n\n  modifier endCommit() {\n    _;\n    if (numVoteSecrets == 3) {\n      approvalState = ApprovalStates.Reveal;\n    }\n  }\n\n  // Doesn't require all votes to be revealed only enough.\n  modifier endReveal() {\n    _;\n    if (numApprovals >= 2) {\n      approvalState = ApprovalStates.Approved;\n      onApproval();\n    } \n    if (numRejections >= 2) {\n      approvalState = ApprovalStates.Rejected;\n      onRejection();\n    }\n  }\n\n  /**\n    INTERFACE\n   */\n\n  function vote(bytes32 secretVote) public \n    stoppedInEmergency\n    onlyAdmin \n    onlyDuringApprovalState(ApprovalStates.Commit) \n    endCommit {\n      voteSecrets[msg.sender] = secretVote;\n      if (hasVoted[msg.sender] == false) {\n        numVoteSecrets++;\n        hasVoted[msg.sender] = true;\n    }\n  }\n\n  function reveal(bool voteOption, uint salt) public \n    stoppedInEmergency\n    onlyVotedAdmin \n    onlyNotRevealedAdmin\n    onlyDuringApprovalState(ApprovalStates.Reveal) \n    endReveal {\n      require(keccak256(abi.encodePacked(voteOption, salt)) == voteSecrets[msg.sender]);\n\n      if (voteOption) {\n        numApprovals++;\n      } else {\n        numRejections++;\n      }\n\n      numVoteReveals++;\n      hasRevealed[msg.sender] = true;\n  }\n}\n\ncontract Campaign is Approvable {\n\n  /**\n    DATA STRUCTURES \n   */\n\n  enum CampaignStates {\n    Pending,\n    Active,\n    Successful,\n    Unsuccessful,\n    Cancelled\n  }\n\n  struct Contribution {\n    address addr;\n    uint amount;\n    uint timestamp;\n  }\n\n  /**\n    STATE VARIABLES\n   */\n\n  CampaignStates public campaignState = CampaignStates.Pending;\n  uint public funds = address(this).balance;\n  uint public endDate;\n\n  uint public id;\n  string public title;\n  uint public goal;\n  uint public duration;\n  string public description;\n  string public image;\n  address public manager;\n\n  Contribution[] public contributions;\n  mapping (address => uint) public totalContributed;\n  mapping (address => bool) public hasContributed;\n  mapping (address => bool) public hasWithdrawn;\n\n\n  /**\n    CONSTRUCTOR\n   */\n\n  constructor(\n    uint _id, \n    string _title, \n    uint _goal,  \n    uint _duration, \n    string _description,\n    string _image,\n    address _manager, \n    address efmAddress\n  ) Approvable(efmAddress) public {\n    id = _id;\n    title = _title;\n    goal = _goal;\n    duration = _duration * 1 days;\n    description = _description;\n    image = _image;\n    manager = _manager;\n  }\n\n  // STATE TRANSITION/RESTRICTION\n\n  modifier onlyDuringCampaignState(CampaignStates _campaignState) {\n    require(campaignState == _campaignState);\n    _;\n  }\n\n  modifier onlyBeforeCampaignEnd() {\n    require(campaignState <= CampaignStates.Active);\n    _;\n  }\n\n  modifier onlyAfterCampaignEnd() {\n    require(campaignState > CampaignStates.Active);\n    _;\n  }\n\n  // FIXME: Could be renamed to endCampaign\n  modifier transitionState() {\n    if (campaignState == CampaignStates.Active && block.timestamp > endDate\n    ) {\n      \n      if (funds >= goal) {\n        campaignState = CampaignStates.Successful;\n      } else {\n        campaignState = CampaignStates.Unsuccessful;\n      }\n\n    }\n    _;\n  }\n\n  // ACCESS RESTRICTION\n\n  modifier onlyNotManager() {\n    require(msg.sender != manager);\n    _;\n  }\n\n  modifier onlyManager() {\n    require(msg.sender == manager);\n    _;\n  }\n\n  modifier onlyManagerOrAdmin() {\n    require(msg.sender == manager || efm.isAdmin(msg.sender));\n    _;\n  }\n\n  modifier onlyHasNotWithdrawn() {\n    require(hasWithdrawn[msg.sender] == false);\n    _;\n  }\n\n  modifier onlyHasContributed() {\n    require(hasContributed[msg.sender] == true);\n    _;\n  }\n\n  // INPUT VALIDATION\n\n  modifier validateContribution() {\n    //No Zero Contributions\n    require(msg.value > 0); \n     //Integer Overflow Protection\n    require(funds + msg.value > funds);\n    require(totalContributed[msg.sender] + msg.value > totalContributed[msg.sender]);\n    _;\n  }\n  \n  /**\n    FUNCTIONS\n   */\n\n  // INTERNAL FUNCTIONS\n\n  function onApproval() internal {\n    endDate = now + duration;\n    campaignState = CampaignStates.Active;\n  }\n\n  function onRejection() internal {\n    campaignState = CampaignStates.Unsuccessful;\n  }\n\n  function managerWithdrawl() private \n    onlyManager\n  {\n      hasWithdrawn[msg.sender] = true;\n      funds = 0;\n      msg.sender.transfer(address(this).balance);\n  }\n\n  function contributorWithdrawl() private \n    onlyHasContributed\n  {\n    hasWithdrawn[msg.sender] = true;\n    funds -= totalContributed[msg.sender];\n    msg.sender.transfer(totalContributed[msg.sender]);\n  }\n\n  // INTERFACE\n\n  function contribute() public payable \n    stoppedInEmergency\n    onlyNotManager \n    transitionState\n    onlyDuringCampaignState(CampaignStates.Active)\n    validateContribution {\n      hasContributed[msg.sender] = true;\n      contributions.push(Contribution(msg.sender, msg.value, now));\n      totalContributed[msg.sender] += msg.value;\n      funds += msg.value;\n    }\n  \n  // TODO: Might restrict this to only Managers\n  function cancelCampaign() public\n    stoppedInEmergency\n    onlyManagerOrAdmin\n    transitionState\n    onlyBeforeCampaignEnd\n    {\n      approvalState = ApprovalStates.Cancelled;\n      campaignState = CampaignStates.Cancelled;\n    }\n\n  // FIXME: Consider removing this function. It's essentially unnecessary since withdraw will end the campaign\n  // but it exists as a formal way of ending the campaign.\n  function endCampaign() public \n    stoppedInEmergency\n    onlyManagerOrAdmin\n    transitionState\n    onlyAfterCampaignEnd\n    {\n    }\n\n  function withdraw() public\n    stoppedInEmergency \n    onlyHasNotWithdrawn //TODO: Rename onlyonlyHasNotWithdrawn\n    transitionState \n    onlyAfterCampaignEnd {\n      if (campaignState == CampaignStates.Successful) {\n        managerWithdrawl();\n      }\n\n      if(campaignState == CampaignStates.Unsuccessful || campaignState == CampaignStates.Cancelled) {\n        contributorWithdrawl();\n      }\n  }\n\n  function emergencyWithdraw() public\n    onlyInEmergency\n    onlyHasNotWithdrawn\n    {\n      contributorWithdrawl();\n    }\n\n  // GETTERS\n  // FIXME: Should the getters transition state?\n  // Decide this when building the frontend. If it can help update state correctly in the frontend it\n  // might be a good idea, otherwise it's unneccessary.\n\n  function getNumContributions() public view returns(uint numContributions) {\n    return contributions.length;\n  }\n\n  // HELPERS\n\n  function isActive() public view returns(bool) {\n    return (block.timestamp < endDate);\n  }\n\n  function getBlockTimestamp() public view returns(uint) {\n    return block.timestamp;\n  }\n\n  function transitionCampaign() public\n    stoppedInEmergency\n    transitionState \n  {\n    \n  }\n\n  function getTotalContributedFunds() public view returns(uint) {\n    uint result = 0;\n    for (uint i = 0; i < contributions.length; i++) {\n      result += contributions[i].amount;\n    }\n    return result;\n  }\n\n}",
  "sourcePath": "/mnt/c/Users/jalal/Github/EthFundMe/contracts/Campaign.sol",
  "compiler": {
    "name": "solc",
    "version": "0.4.24+commit.e67f0147.Emscripten.clang"
  },
  "schemaVersion": "2.0.1",
  "updatedAt": "2018-08-16T04:28:33.331Z"
}