{
  "contractName": "EmergencyStoppable",
  "abi": [
    {
      "constant": true,
      "inputs": [
        {
          "name": "_operator",
          "type": "address"
        },
        {
          "name": "_role",
          "type": "string"
        }
      ],
      "name": "checkRole",
      "outputs": [],
      "payable": false,
      "stateMutability": "view",
      "type": "function"
    },
    {
      "constant": true,
      "inputs": [],
      "name": "numAdmins",
      "outputs": [
        {
          "name": "",
          "type": "uint256"
        }
      ],
      "payable": false,
      "stateMutability": "view",
      "type": "function"
    },
    {
      "constant": true,
      "inputs": [
        {
          "name": "_operator",
          "type": "address"
        },
        {
          "name": "_role",
          "type": "string"
        }
      ],
      "name": "hasRole",
      "outputs": [
        {
          "name": "",
          "type": "bool"
        }
      ],
      "payable": false,
      "stateMutability": "view",
      "type": "function"
    },
    {
      "constant": true,
      "inputs": [
        {
          "name": "_address",
          "type": "address"
        }
      ],
      "name": "isAdmin",
      "outputs": [
        {
          "name": "",
          "type": "bool"
        }
      ],
      "payable": false,
      "stateMutability": "view",
      "type": "function"
    },
    {
      "constant": true,
      "inputs": [],
      "name": "isStopped",
      "outputs": [
        {
          "name": "",
          "type": "bool"
        }
      ],
      "payable": false,
      "stateMutability": "view",
      "type": "function"
    },
    {
      "constant": false,
      "inputs": [
        {
          "name": "_account",
          "type": "address"
        }
      ],
      "name": "addAdminRole",
      "outputs": [],
      "payable": false,
      "stateMutability": "nonpayable",
      "type": "function"
    },
    {
      "constant": true,
      "inputs": [],
      "name": "ROLE_ADMIN",
      "outputs": [
        {
          "name": "",
          "type": "string"
        }
      ],
      "payable": false,
      "stateMutability": "view",
      "type": "function"
    },
    {
      "constant": false,
      "inputs": [
        {
          "name": "_account",
          "type": "address"
        }
      ],
      "name": "removeAdminRole",
      "outputs": [],
      "payable": false,
      "stateMutability": "nonpayable",
      "type": "function"
    },
    {
      "anonymous": false,
      "inputs": [
        {
          "indexed": true,
          "name": "operator",
          "type": "address"
        },
        {
          "indexed": false,
          "name": "role",
          "type": "string"
        }
      ],
      "name": "RoleAdded",
      "type": "event"
    },
    {
      "anonymous": false,
      "inputs": [
        {
          "indexed": true,
          "name": "operator",
          "type": "address"
        },
        {
          "indexed": false,
          "name": "role",
          "type": "string"
        }
      ],
      "name": "RoleRemoved",
      "type": "event"
    },
    {
      "constant": false,
      "inputs": [],
      "name": "stopContract",
      "outputs": [],
      "payable": false,
      "stateMutability": "nonpayable",
      "type": "function"
    },
    {
      "constant": false,
      "inputs": [],
      "name": "resumeContract",
      "outputs": [],
      "payable": false,
      "stateMutability": "nonpayable",
      "type": "function"
    }
  ],
  "bytecode": "0x6080604052600180556000600260006101000a81548160ff021916908315150217905550610071336040805190810160405280600581526020017f61646d696e000000000000000000000000000000000000000000000000000000815250610076640100000000026401000000009004565b610215565b610100826000836040518082805190602001908083835b6020831015156100b2578051825260208201915060208101905060208303925061008d565b6001836020036101000a03801982511681845116808217855250505050505090500191505090815260200160405180910390206101b764010000000002610a27179091906401000000009004565b8173ffffffffffffffffffffffffffffffffffffffff167fbfec83d64eaa953f2708271a023ab9ee82057f8f3578d548c1a4ba0b5b700489826040518080602001828103825283818151815260200191508051906020019080838360005b8381101561017957808201518184015260208101905061015e565b50505050905090810190601f1680156101a65780820380516001836020036101000a031916815260200191505b509250505060405180910390a25050565b60018260000160008373ffffffffffffffffffffffffffffffffffffffff1673ffffffffffffffffffffffffffffffffffffffff16815260200190815260200160002060006101000a81548160ff0219169083151502179055505050565b610b0f806102246000396000f3006080604052600436106100a4576000357c0100000000000000000000000000000000000000000000000000000000900463ffffffff1680630988ca8c146100a95780630efd49891461013257806312253a6c1461015d578063217fe6c61461017457806324d7806c146102155780633f683b6a146102705780636595171c1461029f578063c4bc5da5146102e2578063d391014b146102f9578063dccfe31014610389575b600080fd5b3480156100b557600080fd5b50610130600480360381019080803573ffffffffffffffffffffffffffffffffffffffff169060200190929190803590602001908201803590602001908080601f01602080910402602001604051908101604052809392919081815260200183838082843782019150505050505091929192905050506103cc565b005b34801561013e57600080fd5b5061014761044d565b6040518082815260200191505060405180910390f35b34801561016957600080fd5b50610172610453565b005b34801561018057600080fd5b506101fb600480360381019080803573ffffffffffffffffffffffffffffffffffffffff169060200190929190803590602001908201803590602001908080601f01602080910402602001604051908101604052809392919081815260200183838082843782019150505050505091929192905050506104af565b604051808215151515815260200191505060405180910390f35b34801561022157600080fd5b50610256600480360381019080803573ffffffffffffffffffffffffffffffffffffffff169060200190929190505050610536565b604051808215151515815260200191505060405180910390f35b34801561027c57600080fd5b5061028561057e565b604051808215151515815260200191505060405180910390f35b3480156102ab57600080fd5b506102e0600480360381019080803573ffffffffffffffffffffffffffffffffffffffff169060200190929190505050610591565b005b3480156102ee57600080fd5b506102f7610624565b005b34801561030557600080fd5b5061030e610680565b6040518080602001828103825283818151815260200191508051906020019080838360005b8381101561034e578082015181840152602081019050610333565b50505050905090810190601f16801561037b5780820380516001836020036101000a031916815260200191505b509250505060405180910390f35b34801561039557600080fd5b506103ca600480360381019080803573ffffffffffffffffffffffffffffffffffffffff1690602001909291905050506106b9565b005b610449826000836040518082805190602001908083835b60208310151561040857805182526020820191506020810190506020830392506103e3565b6001836020036101000a038019825116818451168082178552505050505050905001915050908152602001604051809103902061074d90919063ffffffff16565b5050565b60015481565b610492336040805190810160405280600581526020017f61646d696e0000000000000000000000000000000000000000000000000000008152506103cc565b6001600260006101000a81548160ff021916908315150217905550565b600061052e836000846040518082805190602001908083835b6020831015156104ed57805182526020820191506020810190506020830392506104c8565b6001836020036101000a038019825116818451168082178552505050505050905001915050908152602001604051809103902061076690919063ffffffff16565b905092915050565b6000610577826040805190810160405280600581526020017f61646d696e0000000000000000000000000000000000000000000000000000008152506104af565b9050919050565b600260009054906101000a900460ff1681565b6105d0336040805190810160405280600581526020017f61646d696e0000000000000000000000000000000000000000000000000000008152506103cc565b61060f816040805190810160405280600581526020017f61646d696e0000000000000000000000000000000000000000000000000000008152506107bf565b60016000815480929190600101919050555050565b610663336040805190810160405280600581526020017f61646d696e0000000000000000000000000000000000000000000000000000008152506103cc565b6000600260006101000a81548160ff021916908315150217905550565b6040805190810160405280600581526020017f61646d696e00000000000000000000000000000000000000000000000000000081525081565b6106f8336040805190810160405280600581526020017f61646d696e0000000000000000000000000000000000000000000000000000008152506103cc565b610737816040805190810160405280600581526020017f61646d696e0000000000000000000000000000000000000000000000000000008152506108f3565b6001600081548092919060019003919050555050565b6107578282610766565b151561076257600080fd5b5050565b60008260000160008373ffffffffffffffffffffffffffffffffffffffff1673ffffffffffffffffffffffffffffffffffffffff16815260200190815260200160002060009054906101000a900460ff16905092915050565b61083c826000836040518082805190602001908083835b6020831015156107fb57805182526020820191506020810190506020830392506107d6565b6001836020036101000a0380198251168184511680821785525050505050509050019150509081526020016040518091039020610a2790919063ffffffff16565b8173ffffffffffffffffffffffffffffffffffffffff167fbfec83d64eaa953f2708271a023ab9ee82057f8f3578d548c1a4ba0b5b700489826040518080602001828103825283818151815260200191508051906020019080838360005b838110156108b557808201518184015260208101905061089a565b50505050905090810190601f1680156108e25780820380516001836020036101000a031916815260200191505b509250505060405180910390a25050565b610970826000836040518082805190602001908083835b60208310151561092f578051825260208201915060208101905060208303925061090a565b6001836020036101000a0380198251168184511680821785525050505050509050019150509081526020016040518091039020610a8590919063ffffffff16565b8173ffffffffffffffffffffffffffffffffffffffff167fd211483f91fc6eff862467f8de606587a30c8fc9981056f051b897a418df803a826040518080602001828103825283818151815260200191508051906020019080838360005b838110156109e95780820151818401526020810190506109ce565b50505050905090810190601f168015610a165780820380516001836020036101000a031916815260200191505b509250505060405180910390a25050565b60018260000160008373ffffffffffffffffffffffffffffffffffffffff1673ffffffffffffffffffffffffffffffffffffffff16815260200190815260200160002060006101000a81548160ff0219169083151502179055505050565b60008260000160008373ffffffffffffffffffffffffffffffffffffffff1673ffffffffffffffffffffffffffffffffffffffff16815260200190815260200160002060006101000a81548160ff02191690831515021790555050505600a165627a7a72305820354b85d64e79ab3e12cc59ecc58115e089920847cb08d84efa8a9f48874a0c580029",
  "source": "pragma solidity ^0.4.24;\n\nimport \"./Administrated.sol\";\n\ncontract EmergencyStoppable is Administrated {\n  bool public isStopped = false;\n\n    modifier stoppedInEmergency {\n        require(!isStopped);\n        _;\n    }\n\n    modifier onlyInEmergency {\n        require(isStopped);\n        _;\n    }\n\n    function stopContract() public \n      onlyAdmin\n    {\n        isStopped = true;\n    }\n\n    function resumeContract() public \n      onlyAdmin \n    {\n        isStopped = false;\n    }\n}\n",
  "sourcePath": "/mnt/c/Users/jalal/Github/EthFundMe/contracts/EmergencyStoppable.sol",
  "compiler": {
    "name": "solc",
    "version": "0.4.24+commit.e67f0147.Emscripten.clang"
  },
  "schemaVersion": "2.0.1",
  "updatedAt": "2018-08-16T08:44:01.513Z"
}