{
  "contractName": "EthFundMe",
  "abi": [
    {
      "constant": true,
      "inputs": [
        {
          "name": "",
          "type": "uint256"
        }
      ],
      "name": "campaigns",
      "outputs": [
        {
          "name": "",
          "type": "address"
        }
      ],
      "payable": false,
      "stateMutability": "view",
      "type": "function"
    },
    {
      "constant": true,
      "inputs": [
        {
          "name": "",
          "type": "uint256"
        }
      ],
      "name": "admins",
      "outputs": [
        {
          "name": "",
          "type": "address"
        }
      ],
      "payable": false,
      "stateMutability": "view",
      "type": "function"
    },
    {
      "constant": true,
      "inputs": [
        {
          "name": "",
          "type": "address"
        }
      ],
      "name": "isAdmin",
      "outputs": [
        {
          "name": "",
          "type": "bool"
        }
      ],
      "payable": false,
      "stateMutability": "view",
      "type": "function"
    },
    {
      "inputs": [
        {
          "name": "_admins",
          "type": "address[]"
        }
      ],
      "payable": false,
      "stateMutability": "nonpayable",
      "type": "constructor"
    },
    {
      "anonymous": false,
      "inputs": [
        {
          "indexed": true,
          "name": "campaignAddress",
          "type": "address"
        }
      ],
      "name": "CampaignCreated",
      "type": "event"
    },
    {
      "constant": true,
      "inputs": [],
      "name": "getNumAdmins",
      "outputs": [
        {
          "name": "",
          "type": "uint256"
        }
      ],
      "payable": false,
      "stateMutability": "view",
      "type": "function"
    },
    {
      "constant": true,
      "inputs": [],
      "name": "getNumCampaigns",
      "outputs": [
        {
          "name": "",
          "type": "uint256"
        }
      ],
      "payable": false,
      "stateMutability": "view",
      "type": "function"
    },
    {
      "constant": false,
      "inputs": [
        {
          "name": "title",
          "type": "string"
        },
        {
          "name": "goal",
          "type": "uint256"
        },
        {
          "name": "duration",
          "type": "uint256"
        }
      ],
      "name": "createCampaign",
      "outputs": [
        {
          "name": "",
          "type": "address"
        }
      ],
      "payable": false,
      "stateMutability": "nonpayable",
      "type": "function"
    }
  ],
  "bytecode": "0x608060405234801561001057600080fd5b50604051612817380380612817833981018060405281019080805182019291905050506000600382511115151561004657600080fd5b816000908051906020019061005c929190610112565b50600090505b60008054905081101561010b576001806000808481548110151561008257fe5b9060005260206000200160009054906101000a900473ffffffffffffffffffffffffffffffffffffffff1673ffffffffffffffffffffffffffffffffffffffff1673ffffffffffffffffffffffffffffffffffffffff16815260200190815260200160002060006101000a81548160ff0219169083151502179055508080600101915050610062565b50506101df565b82805482825590600052602060002090810192821561018b579160200282015b8281111561018a5782518260006101000a81548173ffffffffffffffffffffffffffffffffffffffff021916908373ffffffffffffffffffffffffffffffffffffffff16021790555091602001919060010190610132565b5b509050610198919061019c565b5090565b6101dc91905b808211156101d857600081816101000a81549073ffffffffffffffffffffffffffffffffffffffff0219169055506001016101a2565b5090565b90565b612629806101ee6000396000f300608060405260043610610078576000357c0100000000000000000000000000000000000000000000000000000000900463ffffffff168063141961bc1461007d57806314bfd6d0146100ea57806324d7806c146101575780633020580b146101b2578063581cb2dc1461026f578063d9a9bb3e1461029a575b600080fd5b34801561008957600080fd5b506100a8600480360381019080803590602001909291905050506102c5565b604051808273ffffffffffffffffffffffffffffffffffffffff1673ffffffffffffffffffffffffffffffffffffffff16815260200191505060405180910390f35b3480156100f657600080fd5b5061011560048036038101908080359060200190929190505050610303565b604051808273ffffffffffffffffffffffffffffffffffffffff1673ffffffffffffffffffffffffffffffffffffffff16815260200191505060405180910390f35b34801561016357600080fd5b50610198600480360381019080803573ffffffffffffffffffffffffffffffffffffffff169060200190929190505050610341565b604051808215151515815260200191505060405180910390f35b3480156101be57600080fd5b5061022d600480360381019080803590602001908201803590602001908080601f01602080910402602001604051908101604052809392919081815260200183838082843782019150505050505091929192908035906020019092919080359060200190929190505050610361565b604051808273ffffffffffffffffffffffffffffffffffffffff1673ffffffffffffffffffffffffffffffffffffffff16815260200191505060405180910390f35b34801561027b57600080fd5b506102846105fc565b6040518082815260200191505060405180910390f35b3480156102a657600080fd5b506102af610608565b6040518082815260200191505060405180910390f35b6002818154811015156102d457fe5b906000526020600020016000915054906101000a900473ffffffffffffffffffffffffffffffffffffffff1681565b60008181548110151561031257fe5b906000526020600020016000915054906101000a900473ffffffffffffffffffffffffffffffffffffffff1681565b60016020528060005260406000206000915054906101000a900460ff1681565b60008060001515600160003373ffffffffffffffffffffffffffffffffffffffff1673ffffffffffffffffffffffffffffffffffffffff16815260200190815260200160002060009054906101000a900460ff16151514151561042c576040517f08c379a000000000000000000000000000000000000000000000000000000000815260040180806020018281038252601e8152602001807f41646d696e732063616e6e6f74206372656174652063616d706169676e73000081525060200191505060405180910390fd5b600280549050858585333061043f610615565b80878152602001806020018681526020018581526020018473ffffffffffffffffffffffffffffffffffffffff1673ffffffffffffffffffffffffffffffffffffffff1681526020018373ffffffffffffffffffffffffffffffffffffffff1673ffffffffffffffffffffffffffffffffffffffff168152602001828103825287818151815260200191508051906020019080838360005b838110156104f25780820151818401526020810190506104d7565b50505050905090810190601f16801561051f5780820380516001836020036101000a031916815260200191505b50975050505050505050604051809103906000f080158015610545573d6000803e3d6000fd5b50905060028190806001815401808255809150509060018203906000526020600020016000909192909190916101000a81548173ffffffffffffffffffffffffffffffffffffffff021916908373ffffffffffffffffffffffffffffffffffffffff160217905550508073ffffffffffffffffffffffffffffffffffffffff167f07a9c134c6ed9c353773b355c69cbf65e34e3c3820554f5b8e1afdecdfb4029260405160405180910390a2809150509392505050565b60008080549050905090565b6000600280549050905090565b604051611fd880610626833901905600608060405260008060146101000a81548160ff021916908360048111156200002357fe5b02179055506000600860006101000a81548160ff021916908360048111156200004857fe5b02179055503073ffffffffffffffffffffffffffffffffffffffff16316009553480156200007557600080fd5b5060405162001fd838038062001fd88339810180604052810190808051906020019092919080518201929190602001805190602001909291908051906020019092919080519060200190929190805190602001909291905050508080806000806101000a81548173ffffffffffffffffffffffffffffffffffffffff021916908373ffffffffffffffffffffffffffffffffffffffff160217905550505085600b8190555084600c90805190602001906200013292919062000193565b5083600d81905550620151808302600e8190555081600f60006101000a81548173ffffffffffffffffffffffffffffffffffffffff021916908373ffffffffffffffffffffffffffffffffffffffff16021790555050505050505062000242565b828054600181600116156101000203166002900490600052602060002090601f016020900481019282601f10620001d657805160ff191683800117855562000207565b8280016001018555821562000207579182015b8281111562000206578251825591602001919060010190620001e9565b5b5090506200021691906200021a565b5090565b6200023f91905b808211156200023b57600081600090555060010162000221565b5090565b90565b611d8680620002526000396000f300608060405260043610610180576000357c0100000000000000000000000000000000000000000000000000000000900463ffffffff16806309eef43e146101855780630fb5a6b4146101e05780631afcf1591461020b5780631cee070014610244578063205b1946146102bf57806322f3e2d41461031a57806339f3027d146103495780633ccfd60b146103825780634019388314610399578063481c6a75146103c45780634a79d50c1461041b57806371aac7f9146104ab5780637403c5e5146104c2578063796b89b9146104ed578063980e784414610518578063a0f243b81461052f578063a69beaba14610586578063aac08345146105b7578063ab45be4214610616578063aedbf40914610645578063af640d0f1461069c578063b9a53013146106c7578063c17c5cf014610722578063c24a0f8b1461074d578063c89f2ce414610778578063d7bb99ba146107a3578063e70ac62c146107ad578063f4c9b1fd146107d8578063f81292c114610811578063facd49391461083c575b600080fd5b34801561019157600080fd5b506101c6600480360381019080803573ffffffffffffffffffffffffffffffffffffffff169060200190929190505050610867565b604051808215151515815260200191505060405180910390f35b3480156101ec57600080fd5b506101f5610887565b6040518082815260200191505060405180910390f35b34801561021757600080fd5b5061022061088d565b6040518082600481111561023057fe5b60ff16815260200191505060405180910390f35b34801561025057600080fd5b5061026f600480360381019080803590602001909291905050506108a0565b604051808473ffffffffffffffffffffffffffffffffffffffff1673ffffffffffffffffffffffffffffffffffffffff168152602001838152602001828152602001935050505060405180910390f35b3480156102cb57600080fd5b50610300600480360381019080803573ffffffffffffffffffffffffffffffffffffffff1690602001909291905050506108f9565b604051808215151515815260200191505060405180910390f35b34801561032657600080fd5b5061032f610919565b604051808215151515815260200191505060405180910390f35b34801561035557600080fd5b5061038060048036038101908080351515906020019092919080359060200190929190505050610925565b005b34801561038e57600080fd5b50610397610c2c565b005b3480156103a557600080fd5b506103ae611076565b6040518082815260200191505060405180910390f35b3480156103d057600080fd5b506103d961107c565b604051808273ffffffffffffffffffffffffffffffffffffffff1673ffffffffffffffffffffffffffffffffffffffff16815260200191505060405180910390f35b34801561042757600080fd5b506104306110a2565b6040518080602001828103825283818151815260200191508051906020019080838360005b83811015610470578082015181840152602081019050610455565b50505050905090810190601f16801561049d5780820380516001836020036101000a031916815260200191505b509250505060405180910390f35b3480156104b757600080fd5b506104c0611140565b005b3480156104ce57600080fd5b506104d7611367565b6040518082815260200191505060405180910390f35b3480156104f957600080fd5b5061050261136d565b6040518082815260200191505060405180910390f35b34801561052457600080fd5b5061052d611375565b005b34801561053b57600080fd5b50610570600480360381019080803573ffffffffffffffffffffffffffffffffffffffff1690602001909291905050506115e5565b6040518082815260200191505060405180910390f35b34801561059257600080fd5b506105b560048036038101908080356000191690602001909291905050506115fd565b005b3480156105c357600080fd5b506105f8600480360381019080803573ffffffffffffffffffffffffffffffffffffffff169060200190929190505050611873565b60405180826000191660001916815260200191505060405180910390f35b34801561062257600080fd5b5061062b61188b565b604051808215151515815260200191505060405180910390f35b34801561065157600080fd5b5061065a61192b565b604051808273ffffffffffffffffffffffffffffffffffffffff1673ffffffffffffffffffffffffffffffffffffffff16815260200191505060405180910390f35b3480156106a857600080fd5b506106b1611950565b6040518082815260200191505060405180910390f35b3480156106d357600080fd5b50610708600480360381019080803573ffffffffffffffffffffffffffffffffffffffff169060200190929190505050611956565b604051808215151515815260200191505060405180910390f35b34801561072e57600080fd5b50610737611976565b6040518082815260200191505060405180910390f35b34801561075957600080fd5b5061076261197c565b6040518082815260200191505060405180910390f35b34801561078457600080fd5b5061078d611982565b6040518082815260200191505060405180910390f35b6107ab611988565b005b3480156107b957600080fd5b506107c2611cd7565b6040518082815260200191505060405180910390f35b3480156107e457600080fd5b506107ed611ce4565b604051808260048111156107fd57fe5b60ff16815260200191505060405180910390f35b34801561081d57600080fd5b50610826611cf7565b6040518082815260200191505060405180910390f35b34801561084857600080fd5b50610851611cfd565b6040518082815260200191505060405180910390f35b60066020528060005260406000206000915054906101000a900460ff1681565b600e5481565b600060149054906101000a900460ff1681565b6010818154811015156108af57fe5b90600052602060002090600302016000915090508060000160009054906101000a900473ffffffffffffffffffffffffffffffffffffffff16908060010154908060020154905083565b60126020528060005260406000206000915054906101000a900460ff1681565b6000600a544210905090565b60011515600660003373ffffffffffffffffffffffffffffffffffffffff1673ffffffffffffffffffffffffffffffffffffffff16815260200190815260200160002060009054906101000a900460ff16151514151561098457600080fd5b60001515600760003373ffffffffffffffffffffffffffffffffffffffff1673ffffffffffffffffffffffffffffffffffffffff16815260200190815260200160002060009054906101000a900460ff1615151415156109e357600080fd5b60018060048111156109f157fe5b600060149054906101000a900460ff166004811115610a0c57fe5b141515610a1857600080fd5b600560003373ffffffffffffffffffffffffffffffffffffffff1673ffffffffffffffffffffffffffffffffffffffff168152602001908152602001600020546000191683836040516020018083151515157f0100000000000000000000000000000000000000000000000000000000000000028152600101828152602001925050506040516020818303038152906040526040518082805190602001908083835b602083101515610adf5780518252602082019150602081019050602083039250610aba565b6001836020036101000a038019825116818451168082178552505050505050905001915050604051809103902060001916141515610b1c57600080fd5b8215610b3957600160008154809291906001019190505550610b4c565b6002600081548092919060010191905055505b6004600081548092919060010191905055506001600760003373ffffffffffffffffffffffffffffffffffffffff1673ffffffffffffffffffffffffffffffffffffffff16815260200190815260200160002060006101000a81548160ff0219169083151502179055506002600154101515610bef576002600060146101000a81548160ff02191690836004811115610be157fe5b0217905550610bee611d03565b5b60028054101515610c27576003600060146101000a81548160ff02191690836004811115610c1957fe5b0217905550610c26611d34565b5b505050565b60001515601360003373ffffffffffffffffffffffffffffffffffffffff1673ffffffffffffffffffffffffffffffffffffffff16815260200190815260200160002060009054906101000a900460ff161515141515610c8b57600080fd5b60016004811115610c9857fe5b600860009054906101000a900460ff166004811115610cb357fe5b148015610cc15750600a5442115b15610d2257600d54600954101515610cfc576002600860006101000a81548160ff02191690836004811115610cf257fe5b0217905550610d21565b6003600860006101000a81548160ff02191690836004811115610d1b57fe5b02179055505b5b60016004811115610d2f57fe5b600860009054906101000a900460ff166004811115610d4a57fe5b111515610d5657600080fd5b60026004811115610d6357fe5b600860009054906101000a900460ff166004811115610d7e57fe5b1415610e8a57600f60009054906101000a900473ffffffffffffffffffffffffffffffffffffffff1673ffffffffffffffffffffffffffffffffffffffff163373ffffffffffffffffffffffffffffffffffffffff16141515610de057600080fd5b6001601360003373ffffffffffffffffffffffffffffffffffffffff1673ffffffffffffffffffffffffffffffffffffffff16815260200190815260200160002060006101000a81548160ff02191690831515021790555060006009819055503373ffffffffffffffffffffffffffffffffffffffff166108fc6009549081150290604051600060405180830381858888f19350505050158015610e88573d6000803e3d6000fd5b505b60036004811115610e9757fe5b600860009054906101000a900460ff166004811115610eb257fe5b1480610ee25750600480811115610ec557fe5b600860009054906101000a900460ff166004811115610ee057fe5b145b156110745760011515601260003373ffffffffffffffffffffffffffffffffffffffff1673ffffffffffffffffffffffffffffffffffffffff16815260200190815260200160002060009054906101000a900460ff161515141515610f4657600080fd5b6001601360003373ffffffffffffffffffffffffffffffffffffffff1673ffffffffffffffffffffffffffffffffffffffff16815260200190815260200160002060006101000a81548160ff021916908315150217905550601160003373ffffffffffffffffffffffffffffffffffffffff1673ffffffffffffffffffffffffffffffffffffffff168152602001908152602001600020546009600082825403925050819055503373ffffffffffffffffffffffffffffffffffffffff166108fc601160003373ffffffffffffffffffffffffffffffffffffffff1673ffffffffffffffffffffffffffffffffffffffff168152602001908152602001600020549081150290604051600060405180830381858888f19350505050158015611072573d6000803e3d6000fd5b505b565b600d5481565b600f60009054906101000a900473ffffffffffffffffffffffffffffffffffffffff1681565b600c8054600181600116156101000203166002900480601f0160208091040260200160405190810160405280929190818152602001828054600181600116156101000203166002900480156111385780601f1061110d57610100808354040283529160200191611138565b820191906000526020600020905b81548152906001019060200180831161111b57829003601f168201915b505050505081565b600f60009054906101000a900473ffffffffffffffffffffffffffffffffffffffff1673ffffffffffffffffffffffffffffffffffffffff163373ffffffffffffffffffffffffffffffffffffffff16148061128f57506000809054906101000a900473ffffffffffffffffffffffffffffffffffffffff1673ffffffffffffffffffffffffffffffffffffffff166324d7806c336040518263ffffffff167c0100000000000000000000000000000000000000000000000000000000028152600401808273ffffffffffffffffffffffffffffffffffffffff1673ffffffffffffffffffffffffffffffffffffffff168152602001915050602060405180830381600087803b15801561125357600080fd5b505af1158015611267573d6000803e3d6000fd5b505050506040513d602081101561127d57600080fd5b81019080805190602001909291905050505b151561129a57600080fd5b600160048111156112a757fe5b600860009054906101000a900460ff1660048111156112c257fe5b1480156112d05750600a5442115b1561133157600d5460095410151561130b576002600860006101000a81548160ff0219169083600481111561130157fe5b0217905550611330565b6003600860006101000a81548160ff0219169083600481111561132a57fe5b02179055505b5b6001600481111561133e57fe5b600860009054906101000a900460ff16600481111561135957fe5b11151561136557600080fd5b565b60015481565b600042905090565b600f60009054906101000a900473ffffffffffffffffffffffffffffffffffffffff1673ffffffffffffffffffffffffffffffffffffffff163373ffffffffffffffffffffffffffffffffffffffff1614806114c457506000809054906101000a900473ffffffffffffffffffffffffffffffffffffffff1673ffffffffffffffffffffffffffffffffffffffff166324d7806c336040518263ffffffff167c0100000000000000000000000000000000000000000000000000000000028152600401808273ffffffffffffffffffffffffffffffffffffffff1673ffffffffffffffffffffffffffffffffffffffff168152602001915050602060405180830381600087803b15801561148857600080fd5b505af115801561149c573d6000803e3d6000fd5b505050506040513d60208110156114b257600080fd5b81019080805190602001909291905050505b15156114cf57600080fd5b600160048111156114dc57fe5b600860009054906101000a900460ff1660048111156114f757fe5b1480156115055750600a5442115b1561156657600d54600954101515611540576002600860006101000a81548160ff0219169083600481111561153657fe5b0217905550611565565b6003600860006101000a81548160ff0219169083600481111561155f57fe5b02179055505b5b6001600481111561157357fe5b600860009054906101000a900460ff16600481111561158e57fe5b1115151561159b57600080fd5b6004600060146101000a81548160ff021916908360048111156115ba57fe5b02179055506004600860006101000a81548160ff021916908360048111156115de57fe5b0217905550565b60116020528060005260406000206000915090505481565b6000809054906101000a900473ffffffffffffffffffffffffffffffffffffffff1673ffffffffffffffffffffffffffffffffffffffff166324d7806c336040518263ffffffff167c0100000000000000000000000000000000000000000000000000000000028152600401808273ffffffffffffffffffffffffffffffffffffffff1673ffffffffffffffffffffffffffffffffffffffff168152602001915050602060405180830381600087803b1580156116b957600080fd5b505af11580156116cd573d6000803e3d6000fd5b505050506040513d60208110156116e357600080fd5b810190808051906020019092919050505015156116ff57600080fd5b600080600481111561170d57fe5b600060149054906101000a900460ff16600481111561172857fe5b14151561173457600080fd5b81600560003373ffffffffffffffffffffffffffffffffffffffff1673ffffffffffffffffffffffffffffffffffffffff168152602001908152602001600020816000191690555060001515600660003373ffffffffffffffffffffffffffffffffffffffff1673ffffffffffffffffffffffffffffffffffffffff16815260200190815260200160002060009054906101000a900460ff1615151415611840576003600081548092919060010191905055506001600660003373ffffffffffffffffffffffffffffffffffffffff1673ffffffffffffffffffffffffffffffffffffffff16815260200190815260200160002060006101000a81548160ff0219169083151502179055505b60038054141561186f576001600060146101000a81548160ff0219169083600481111561186957fe5b02179055505b5050565b60056020528060005260406000206000915090505481565b60006001600481111561189a57fe5b600860009054906101000a900460ff1660048111156118b557fe5b1480156118c35750600a5442115b1561192457600d546009541015156118fe576002600860006101000a81548160ff021916908360048111156118f457fe5b0217905550611923565b6003600860006101000a81548160ff0219169083600481111561191d57fe5b02179055505b5b6001905090565b6000809054906101000a900473ffffffffffffffffffffffffffffffffffffffff1681565b600b5481565b60076020528060005260406000206000915054906101000a900460ff1681565b60035481565b600a5481565b60095481565b600f60009054906101000a900473ffffffffffffffffffffffffffffffffffffffff1673ffffffffffffffffffffffffffffffffffffffff163373ffffffffffffffffffffffffffffffffffffffff16141515156119e557600080fd5b600160048111156119f257fe5b600860009054906101000a900460ff166004811115611a0d57fe5b148015611a1b5750600a5442115b15611a7c57600d54600954101515611a56576002600860006101000a81548160ff02191690836004811115611a4c57fe5b0217905550611a7b565b6003600860006101000a81548160ff02191690836004811115611a7557fe5b02179055505b5b6001806004811115611a8a57fe5b600860009054906101000a900460ff166004811115611aa557fe5b141515611ab157600080fd5b600034111515611ac057600080fd5b6009543460095401111515611ad457600080fd5b601160003373ffffffffffffffffffffffffffffffffffffffff1673ffffffffffffffffffffffffffffffffffffffff1681526020019081526020016000205434601160003373ffffffffffffffffffffffffffffffffffffffff1673ffffffffffffffffffffffffffffffffffffffff1681526020019081526020016000205401111515611b6257600080fd5b6001601260003373ffffffffffffffffffffffffffffffffffffffff1673ffffffffffffffffffffffffffffffffffffffff16815260200190815260200160002060006101000a81548160ff02191690831515021790555060106060604051908101604052803373ffffffffffffffffffffffffffffffffffffffff168152602001348152602001428152509080600181540180825580915050906001820390600052602060002090600302016000909192909190915060008201518160000160006101000a81548173ffffffffffffffffffffffffffffffffffffffff021916908373ffffffffffffffffffffffffffffffffffffffff160217905550602082015181600101556040820151816002015550505034601160003373ffffffffffffffffffffffffffffffffffffffff1673ffffffffffffffffffffffffffffffffffffffff168152602001908152602001600020600082825401925050819055503460096000828254019250508190555050565b6000601080549050905090565b600860009054906101000a900460ff1681565b60025481565b60045481565b600e544201600a819055506001600860006101000a81548160ff02191690836004811115611d2d57fe5b0217905550565b6003600860006101000a81548160ff02191690836004811115611d5357fe5b02179055505600a165627a7a723058200916192c41b19ecf86cb81ffb8c3cfb84fb0755716e91fc11b5e1bc3db06ea250029a165627a7a723058206d868b5d223fa4a9bb1834ec02ec6e12c2f2625a51a8007f616f7ff9b48e2c490029",
  "source": "pragma solidity ^0.4.24;\n\n// import \"./Approvable.sol\";\nimport \"./Campaign.sol\";\n\n// Contract Development 1\n// DONE: Timing campaigns\n// DONE: Ending Campaign and Payouts\n// DONE: Manager can cancel Campaign before approved\n// DONE: Rewrite state transition according to solidy state machine pattern\n\n// Contract Developement 2\n// TASK: Implement Circuit Breaker Pattern!\n// TASK: Comment Contracts and Tests\n// TASK: Review All variable/function etc Names\n// TASK: Review All variable/function etc accessibility\n// TASK: Split Contract Files\n// TASK: Write Solidity Tests\n// TASK: Review uints and restrict size if possible\n// DONE: Use a library/Package to advance time in tests\n// TASK: Review Security Best Practices\n// TASK: Review Design Patterns\n// TASK: Error messages for require statements\n// TASK: Campaign Factory Contract\n// TASK: Use a Library\n\n// Frontend\n// TASK: Set up React Project and React Crash Course\n// TASK: Frontend\n// TASK: Events + Listening for them\n\n// Submitable\n// TASK: Packaging and Other Documentation\n// TASK: Make sure it works on Ubuntu\n// TASK: Review Grading Rubric\n// TASK: Release on testnet\n\n// EXTRAS\n// TASK: Adding Admin\n// TASK: Approval Quorum Support Adding Admin\n// TASK: Timing Approvals\n\n// STRETCH GOALS\n// TASK: Upgradable Contract\n// TASK: Check out the SafeMath library\n// TASK: Full PLCR Approval\n// TASK: Other Stretch Goals\n// TASK: ERC20 Token Acceptance\n// TASK: Multisig Contract Management for Admins\n\ncontract EthFundMe {\n\n  /**\n    EVENTS\n   */\n  event CampaignCreated (\n    address indexed campaignAddress\n  );\n  \n\n  /**\n    ADMINS\n   */\n  address[] public admins;\n  mapping (address=> bool) public isAdmin;\n\n  // TODO: Adding an\n  /**\n    Allows initialization of the contract with up to 3 admins\n   */\n  constructor(address[] _admins) public {\n    //FIXME: Can I put a require statement in a contructor? What happens if it fails?\n    require(_admins.length <= 3);\n    \n    admins = _admins;\n    for (uint i = 0; i < admins.length; i++) {\n      isAdmin[admins[i]] = true;\n    }\n  }\n\n  function getNumAdmins() public view returns (uint) {\n    return admins.length;\n  }\n\n  /**\n    CAMPAIGNS\n  */\n  address[] public campaigns;\n\n  function getNumCampaigns() public view returns (uint) {\n    return campaigns.length;\n  }\n  \n  modifier notAdmin() {\n    require(isAdmin[msg.sender] == false, \"Admins cannot create campaigns\");\n    _;\n  }\n\n  function createCampaign(string title, uint goal, uint duration) public \n    notAdmin\n    returns(address) {\n    Campaign newCampaign = new Campaign(campaigns.length, title, goal, duration, msg.sender, address(this));\n    campaigns.push(address(newCampaign));\n    emit CampaignCreated(address(newCampaign));\n    return address(newCampaign);\n  }\n\n}\n\n",
  "sourcePath": "C:\\Users\\jalal\\GitHub\\EthFundMe\\contracts\\EthFundMe.sol",
  "compiler": {
    "name": "solc",
    "version": "0.4.24+commit.e67f0147.Emscripten.clang"
  },
  "schemaVersion": "2.0.1",
  "updatedAt": "2018-08-13T03:07:44.216Z"
}