{
  "contractName": "EthFundMe",
  "abi": [
    {
      "constant": true,
      "inputs": [
        {
          "name": "",
          "type": "uint256"
        }
      ],
      "name": "campaigns",
      "outputs": [
        {
          "name": "",
          "type": "address"
        }
      ],
      "payable": false,
      "stateMutability": "view",
      "type": "function"
    },
    {
      "constant": true,
      "inputs": [
        {
          "name": "",
          "type": "uint256"
        }
      ],
      "name": "admins",
      "outputs": [
        {
          "name": "",
          "type": "address"
        }
      ],
      "payable": false,
      "stateMutability": "view",
      "type": "function"
    },
    {
      "constant": true,
      "inputs": [
        {
          "name": "",
          "type": "address"
        }
      ],
      "name": "isAdmin",
      "outputs": [
        {
          "name": "",
          "type": "bool"
        }
      ],
      "payable": false,
      "stateMutability": "view",
      "type": "function"
    },
    {
      "constant": true,
      "inputs": [],
      "name": "num",
      "outputs": [
        {
          "name": "",
          "type": "uint256"
        }
      ],
      "payable": false,
      "stateMutability": "view",
      "type": "function"
    },
    {
      "inputs": [
        {
          "name": "_admins",
          "type": "address[]"
        }
      ],
      "payable": false,
      "stateMutability": "nonpayable",
      "type": "constructor"
    },
    {
      "constant": true,
      "inputs": [],
      "name": "getNumAdmins",
      "outputs": [
        {
          "name": "",
          "type": "uint256"
        }
      ],
      "payable": false,
      "stateMutability": "view",
      "type": "function"
    },
    {
      "constant": true,
      "inputs": [],
      "name": "getNumCampaigns",
      "outputs": [
        {
          "name": "",
          "type": "uint256"
        }
      ],
      "payable": false,
      "stateMutability": "view",
      "type": "function"
    },
    {
      "constant": false,
      "inputs": [
        {
          "name": "title",
          "type": "string"
        },
        {
          "name": "goal",
          "type": "uint256"
        },
        {
          "name": "duration",
          "type": "uint256"
        }
      ],
      "name": "createCampaign",
      "outputs": [
        {
          "name": "",
          "type": "address"
        }
      ],
      "payable": false,
      "stateMutability": "nonpayable",
      "type": "function"
    }
  ],
  "bytecode": "0x6080604052600060035534801561001557600080fd5b50604051612a32380380612a32833981018060405281019080805182019291905050506000600382511115151561004b57600080fd5b8160009080519060200190610061929190610117565b50600090505b600080549050811015610110576001806000808481548110151561008757fe5b9060005260206000200160009054906101000a900473ffffffffffffffffffffffffffffffffffffffff1673ffffffffffffffffffffffffffffffffffffffff1673ffffffffffffffffffffffffffffffffffffffff16815260200190815260200160002060006101000a81548160ff0219169083151502179055508080600101915050610067565b50506101e4565b828054828255906000526020600020908101928215610190579160200282015b8281111561018f5782518260006101000a81548173ffffffffffffffffffffffffffffffffffffffff021916908373ffffffffffffffffffffffffffffffffffffffff16021790555091602001919060010190610137565b5b50905061019d91906101a1565b5090565b6101e191905b808211156101dd57600081816101000a81549073ffffffffffffffffffffffffffffffffffffffff0219169055506001016101a7565b5090565b90565b61283f806101f36000396000f300608060405260043610610083576000357c0100000000000000000000000000000000000000000000000000000000900463ffffffff168063141961bc1461008857806314bfd6d0146100f557806324d7806c146101625780633020580b146101bd5780634e70b1dc1461027a578063581cb2dc146102a5578063d9a9bb3e146102d0575b600080fd5b34801561009457600080fd5b506100b3600480360381019080803590602001909291905050506102fb565b604051808273ffffffffffffffffffffffffffffffffffffffff1673ffffffffffffffffffffffffffffffffffffffff16815260200191505060405180910390f35b34801561010157600080fd5b5061012060048036038101908080359060200190929190505050610339565b604051808273ffffffffffffffffffffffffffffffffffffffff1673ffffffffffffffffffffffffffffffffffffffff16815260200191505060405180910390f35b34801561016e57600080fd5b506101a3600480360381019080803573ffffffffffffffffffffffffffffffffffffffff169060200190929190505050610377565b604051808215151515815260200191505060405180910390f35b3480156101c957600080fd5b50610238600480360381019080803590602001908201803590602001908080601f01602080910402602001604051908101604052809392919081815260200183838082843782019150505050505091929192908035906020019092919080359060200190929190505050610397565b604051808273ffffffffffffffffffffffffffffffffffffffff1673ffffffffffffffffffffffffffffffffffffffff16815260200191505060405180910390f35b34801561028657600080fd5b5061028f610539565b6040518082815260200191505060405180910390f35b3480156102b157600080fd5b506102ba61053f565b6040518082815260200191505060405180910390f35b3480156102dc57600080fd5b506102e561054b565b6040518082815260200191505060405180910390f35b60028181548110151561030a57fe5b906000526020600020016000915054906101000a900473ffffffffffffffffffffffffffffffffffffffff1681565b60008181548110151561034857fe5b906000526020600020016000915054906101000a900473ffffffffffffffffffffffffffffffffffffffff1681565b60016020528060005260406000206000915054906101000a900460ff1681565b60008060028054905085858533306103ad610558565b80878152602001806020018681526020018581526020018473ffffffffffffffffffffffffffffffffffffffff1673ffffffffffffffffffffffffffffffffffffffff1681526020018373ffffffffffffffffffffffffffffffffffffffff1673ffffffffffffffffffffffffffffffffffffffff168152602001828103825287818151815260200191508051906020019080838360005b83811015610460578082015181840152602081019050610445565b50505050905090810190601f16801561048d5780820380516001836020036101000a031916815260200191505b50975050505050505050604051809103906000f0801580156104b3573d6000803e3d6000fd5b50905060028190806001815401808255809150509060018203906000526020600020016000909192909190916101000a81548173ffffffffffffffffffffffffffffffffffffffff021916908373ffffffffffffffffffffffffffffffffffffffff16021790555050600360008154809291906001019190505550809150509392505050565b60035481565b60008080549050905090565b6000600280549050905090565b6040516122ab80610569833901905600608060405260008060146101000a81548160ff021916908360048111156200002357fe5b02179055506000600860006101000a81548160ff021916908360048111156200004857fe5b02179055503073ffffffffffffffffffffffffffffffffffffffff16316009553480156200007557600080fd5b50604051620022ab380380620022ab8339810180604052810190808051906020019092919080518201929190602001805190602001909291908051906020019092919080519060200190929190805190602001909291905050508080806000806101000a81548173ffffffffffffffffffffffffffffffffffffffff021916908373ffffffffffffffffffffffffffffffffffffffff160217905550505085600c8190555084600d90805190602001906200013292919062000193565b5083600e81905550620151808302600f8190555081601060006101000a81548173ffffffffffffffffffffffffffffffffffffffff021916908373ffffffffffffffffffffffffffffffffffffffff16021790555050505050505062000242565b828054600181600116156101000203166002900490600052602060002090601f016020900481019282601f10620001d657805160ff191683800117855562000207565b8280016001018555821562000207579182015b8281111562000206578251825591602001919060010190620001e9565b5b5090506200021691906200021a565b5090565b6200023f91905b808211156200023b57600081600090555060010162000221565b5090565b90565b61205980620002526000396000f30060806040526004361061018b576000357c0100000000000000000000000000000000000000000000000000000000900463ffffffff16806309eef43e146101905780630fb5a6b4146101eb5780631afcf159146102165780631f6d49421461024f578063205b1946146102e057806322f3e2d41461033b5780632fef5ab01461036a57806339f3027d146103c15780633ccfd60b146103fa5780634019388314610411578063481c6a751461043c5780634a79d50c14610493578063653c95b81461052357806371aac7f91461058b5780637403c5e5146105a2578063796b89b9146105cd5780638f03850b146105f8578063980e784414610623578063a69beaba1461063a578063aac083451461066b578063aedbf409146106ca578063af640d0f14610721578063b9a530131461074c578063c17c5cf0146107a7578063c24a0f8b146107d2578063c89f2ce4146107fd578063d27290c514610828578063d7bb99ba1461087f578063f4c9b1fd14610889578063f81292c1146108c2578063facd4939146108ed575b600080fd5b34801561019c57600080fd5b506101d1600480360381019080803573ffffffffffffffffffffffffffffffffffffffff169060200190929190505050610918565b604051808215151515815260200191505060405180910390f35b3480156101f757600080fd5b50610200610938565b6040518082815260200191505060405180910390f35b34801561022257600080fd5b5061022b61093e565b6040518082600481111561023b57fe5b60ff16815260200191505060405180910390f35b34801561025b57600080fd5b50610290600480360381019080803573ffffffffffffffffffffffffffffffffffffffff169060200190929190505050610951565b604051808473ffffffffffffffffffffffffffffffffffffffff1673ffffffffffffffffffffffffffffffffffffffff168152602001838152602001828152602001935050505060405180910390f35b3480156102ec57600080fd5b50610321600480360381019080803573ffffffffffffffffffffffffffffffffffffffff16906020019092919050505061099b565b604051808215151515815260200191505060405180910390f35b34801561034757600080fd5b506103506109bb565b604051808215151515815260200191505060405180910390f35b34801561037657600080fd5b506103ab600480360381019080803573ffffffffffffffffffffffffffffffffffffffff1690602001909291905050506109c7565b6040518082815260200191505060405180910390f35b3480156103cd57600080fd5b506103f860048036038101908080351515906020019092919080359060200190929190505050610a13565b005b34801561040657600080fd5b5061040f610d1a565b005b34801561041d57600080fd5b5061042661116a565b6040518082815260200191505060405180910390f35b34801561044857600080fd5b50610451611170565b604051808273ffffffffffffffffffffffffffffffffffffffff1673ffffffffffffffffffffffffffffffffffffffff16815260200191505060405180910390f35b34801561049f57600080fd5b506104a8611196565b6040518080602001828103825283818151815260200191508051906020019080838360005b838110156104e85780820151818401526020810190506104cd565b50505050905090810190601f1680156105155780820380516001836020036101000a031916815260200191505b509250505060405180910390f35b34801561052f57600080fd5b5061056e600480360381019080803573ffffffffffffffffffffffffffffffffffffffff16906020019092919080359060200190929190505050611234565b604051808381526020018281526020019250505060405180910390f35b34801561059757600080fd5b506105a06112f0565b005b3480156105ae57600080fd5b506105b7611517565b6040518082815260200191505060405180910390f35b3480156105d957600080fd5b506105e261151d565b6040518082815260200191505060405180910390f35b34801561060457600080fd5b5061060d611525565b6040518082815260200191505060405180910390f35b34801561062f57600080fd5b5061063861152b565b005b34801561064657600080fd5b50610669600480360381019080803560001916906020019092919050505061179b565b005b34801561067757600080fd5b506106ac600480360381019080803573ffffffffffffffffffffffffffffffffffffffff169060200190929190505050611a11565b60405180826000191660001916815260200191505060405180910390f35b3480156106d657600080fd5b506106df611a29565b604051808273ffffffffffffffffffffffffffffffffffffffff1673ffffffffffffffffffffffffffffffffffffffff16815260200191505060405180910390f35b34801561072d57600080fd5b50610736611a4e565b6040518082815260200191505060405180910390f35b34801561075857600080fd5b5061078d600480360381019080803573ffffffffffffffffffffffffffffffffffffffff169060200190929190505050611a54565b604051808215151515815260200191505060405180910390f35b3480156107b357600080fd5b506107bc611a74565b6040518082815260200191505060405180910390f35b3480156107de57600080fd5b506107e7611a7a565b6040518082815260200191505060405180910390f35b34801561080957600080fd5b50610812611a80565b6040518082815260200191505060405180910390f35b34801561083457600080fd5b50610869600480360381019080803573ffffffffffffffffffffffffffffffffffffffff169060200190929190505050611a86565b6040518082815260200191505060405180910390f35b610887611ad2565b005b34801561089557600080fd5b5061089e611fb7565b604051808260048111156108ae57fe5b60ff16815260200191505060405180910390f35b3480156108ce57600080fd5b506108d7611fca565b6040518082815260200191505060405180910390f35b3480156108f957600080fd5b50610902611fd0565b6040518082815260200191505060405180910390f35b60066020528060005260406000206000915054906101000a900460ff1681565b600f5481565b600060149054906101000a900460ff1681565b60126020528060005260406000206000915090508060000160009054906101000a900473ffffffffffffffffffffffffffffffffffffffff16908060010154908060020154905083565b60136020528060005260406000206000915054906101000a900460ff1681565b6000600a544210905090565b6000601260008373ffffffffffffffffffffffffffffffffffffffff1673ffffffffffffffffffffffffffffffffffffffff168152602001908152602001600020600101549050919050565b60011515600660003373ffffffffffffffffffffffffffffffffffffffff1673ffffffffffffffffffffffffffffffffffffffff16815260200190815260200160002060009054906101000a900460ff161515141515610a7257600080fd5b60001515600760003373ffffffffffffffffffffffffffffffffffffffff1673ffffffffffffffffffffffffffffffffffffffff16815260200190815260200160002060009054906101000a900460ff161515141515610ad157600080fd5b6001806004811115610adf57fe5b600060149054906101000a900460ff166004811115610afa57fe5b141515610b0657600080fd5b600560003373ffffffffffffffffffffffffffffffffffffffff1673ffffffffffffffffffffffffffffffffffffffff168152602001908152602001600020546000191683836040516020018083151515157f0100000000000000000000000000000000000000000000000000000000000000028152600101828152602001925050506040516020818303038152906040526040518082805190602001908083835b602083101515610bcd5780518252602082019150602081019050602083039250610ba8565b6001836020036101000a038019825116818451168082178552505050505050905001915050604051809103902060001916141515610c0a57600080fd5b8215610c2757600160008154809291906001019190505550610c3a565b6002600081548092919060010191905055505b6004600081548092919060010191905055506001600760003373ffffffffffffffffffffffffffffffffffffffff1673ffffffffffffffffffffffffffffffffffffffff16815260200190815260200160002060006101000a81548160ff0219169083151502179055506002600154101515610cdd576002600060146101000a81548160ff02191690836004811115610ccf57fe5b0217905550610cdc611fd6565b5b60028054101515610d15576003600060146101000a81548160ff02191690836004811115610d0757fe5b0217905550610d14612007565b5b505050565b60001515600b60003373ffffffffffffffffffffffffffffffffffffffff1673ffffffffffffffffffffffffffffffffffffffff16815260200190815260200160002060009054906101000a900460ff161515141515610d7957600080fd5b60016004811115610d8657fe5b600860009054906101000a900460ff166004811115610da157fe5b148015610daf5750600a5442115b15610e1057600e54600954101515610dea576002600860006101000a81548160ff02191690836004811115610de057fe5b0217905550610e0f565b6003600860006101000a81548160ff02191690836004811115610e0957fe5b02179055505b5b60016004811115610e1d57fe5b600860009054906101000a900460ff166004811115610e3857fe5b111515610e4457600080fd5b60026004811115610e5157fe5b600860009054906101000a900460ff166004811115610e6c57fe5b1415610f7857601060009054906101000a900473ffffffffffffffffffffffffffffffffffffffff1673ffffffffffffffffffffffffffffffffffffffff163373ffffffffffffffffffffffffffffffffffffffff16141515610ece57600080fd5b6001600b60003373ffffffffffffffffffffffffffffffffffffffff1673ffffffffffffffffffffffffffffffffffffffff16815260200190815260200160002060006101000a81548160ff02191690831515021790555060006009819055503373ffffffffffffffffffffffffffffffffffffffff166108fc6009549081150290604051600060405180830381858888f19350505050158015610f76573d6000803e3d6000fd5b505b60036004811115610f8557fe5b600860009054906101000a900460ff166004811115610fa057fe5b1480610fd05750600480811115610fb357fe5b600860009054906101000a900460ff166004811115610fce57fe5b145b156111685760011515601360003373ffffffffffffffffffffffffffffffffffffffff1673ffffffffffffffffffffffffffffffffffffffff16815260200190815260200160002060009054906101000a900460ff16151514151561103457600080fd5b6001600b60003373ffffffffffffffffffffffffffffffffffffffff1673ffffffffffffffffffffffffffffffffffffffff16815260200190815260200160002060006101000a81548160ff021916908315150217905550601260003373ffffffffffffffffffffffffffffffffffffffff1673ffffffffffffffffffffffffffffffffffffffff168152602001908152602001600020600101546009600082825403925050819055503373ffffffffffffffffffffffffffffffffffffffff166108fc601260003373ffffffffffffffffffffffffffffffffffffffff1673ffffffffffffffffffffffffffffffffffffffff168152602001908152602001600020600101549081150290604051600060405180830381858888f19350505050158015611166573d6000803e3d6000fd5b505b565b600e5481565b601060009054906101000a900473ffffffffffffffffffffffffffffffffffffffff1681565b600d8054600181600116156101000203166002900480601f01602080910402602001604051908101604052809291908181526020018280546001816001161561010002031660029004801561122c5780601f106112015761010080835404028352916020019161122c565b820191906000526020600020905b81548152906001019060200180831161120f57829003601f168201915b505050505081565b600080601260008573ffffffffffffffffffffffffffffffffffffffff1673ffffffffffffffffffffffffffffffffffffffff1681526020019081526020016000206003016000848152602001908152602001600020600001549150601260008573ffffffffffffffffffffffffffffffffffffffff1673ffffffffffffffffffffffffffffffffffffffff16815260200190815260200160002060030160008481526020019081526020016000206001015490509250929050565b601060009054906101000a900473ffffffffffffffffffffffffffffffffffffffff1673ffffffffffffffffffffffffffffffffffffffff163373ffffffffffffffffffffffffffffffffffffffff16148061143f57506000809054906101000a900473ffffffffffffffffffffffffffffffffffffffff1673ffffffffffffffffffffffffffffffffffffffff166324d7806c336040518263ffffffff167c0100000000000000000000000000000000000000000000000000000000028152600401808273ffffffffffffffffffffffffffffffffffffffff1673ffffffffffffffffffffffffffffffffffffffff168152602001915050602060405180830381600087803b15801561140357600080fd5b505af1158015611417573d6000803e3d6000fd5b505050506040513d602081101561142d57600080fd5b81019080805190602001909291905050505b151561144a57600080fd5b6001600481111561145757fe5b600860009054906101000a900460ff16600481111561147257fe5b1480156114805750600a5442115b156114e157600e546009541015156114bb576002600860006101000a81548160ff021916908360048111156114b157fe5b02179055506114e0565b6003600860006101000a81548160ff021916908360048111156114da57fe5b02179055505b5b600160048111156114ee57fe5b600860009054906101000a900460ff16600481111561150957fe5b11151561151557600080fd5b565b60015481565b600042905090565b60115481565b601060009054906101000a900473ffffffffffffffffffffffffffffffffffffffff1673ffffffffffffffffffffffffffffffffffffffff163373ffffffffffffffffffffffffffffffffffffffff16148061167a57506000809054906101000a900473ffffffffffffffffffffffffffffffffffffffff1673ffffffffffffffffffffffffffffffffffffffff166324d7806c336040518263ffffffff167c0100000000000000000000000000000000000000000000000000000000028152600401808273ffffffffffffffffffffffffffffffffffffffff1673ffffffffffffffffffffffffffffffffffffffff168152602001915050602060405180830381600087803b15801561163e57600080fd5b505af1158015611652573d6000803e3d6000fd5b505050506040513d602081101561166857600080fd5b81019080805190602001909291905050505b151561168557600080fd5b6001600481111561169257fe5b600860009054906101000a900460ff1660048111156116ad57fe5b1480156116bb5750600a5442115b1561171c57600e546009541015156116f6576002600860006101000a81548160ff021916908360048111156116ec57fe5b021790555061171b565b6003600860006101000a81548160ff0219169083600481111561171557fe5b02179055505b5b6001600481111561172957fe5b600860009054906101000a900460ff16600481111561174457fe5b1115151561175157600080fd5b6004600060146101000a81548160ff0219169083600481111561177057fe5b02179055506004600860006101000a81548160ff0219169083600481111561179457fe5b0217905550565b6000809054906101000a900473ffffffffffffffffffffffffffffffffffffffff1673ffffffffffffffffffffffffffffffffffffffff166324d7806c336040518263ffffffff167c0100000000000000000000000000000000000000000000000000000000028152600401808273ffffffffffffffffffffffffffffffffffffffff1673ffffffffffffffffffffffffffffffffffffffff168152602001915050602060405180830381600087803b15801561185757600080fd5b505af115801561186b573d6000803e3d6000fd5b505050506040513d602081101561188157600080fd5b8101908080519060200190929190505050151561189d57600080fd5b60008060048111156118ab57fe5b600060149054906101000a900460ff1660048111156118c657fe5b1415156118d257600080fd5b81600560003373ffffffffffffffffffffffffffffffffffffffff1673ffffffffffffffffffffffffffffffffffffffff168152602001908152602001600020816000191690555060001515600660003373ffffffffffffffffffffffffffffffffffffffff1673ffffffffffffffffffffffffffffffffffffffff16815260200190815260200160002060009054906101000a900460ff16151514156119de576003600081548092919060010191905055506001600660003373ffffffffffffffffffffffffffffffffffffffff1673ffffffffffffffffffffffffffffffffffffffff16815260200190815260200160002060006101000a81548160ff0219169083151502179055505b600380541415611a0d576001600060146101000a81548160ff02191690836004811115611a0757fe5b02179055505b5050565b60056020528060005260406000206000915090505481565b6000809054906101000a900473ffffffffffffffffffffffffffffffffffffffff1681565b600c5481565b60076020528060005260406000206000915054906101000a900460ff1681565b60035481565b600a5481565b60095481565b6000601260008373ffffffffffffffffffffffffffffffffffffffff1673ffffffffffffffffffffffffffffffffffffffff168152602001908152602001600020600201549050919050565b601060009054906101000a900473ffffffffffffffffffffffffffffffffffffffff1673ffffffffffffffffffffffffffffffffffffffff163373ffffffffffffffffffffffffffffffffffffffff1614151515611b2f57600080fd5b60016004811115611b3c57fe5b600860009054906101000a900460ff166004811115611b5757fe5b148015611b655750600a5442115b15611bc657600e54600954101515611ba0576002600860006101000a81548160ff02191690836004811115611b9657fe5b0217905550611bc5565b6003600860006101000a81548160ff02191690836004811115611bbf57fe5b02179055505b5b6001806004811115611bd457fe5b600860009054906101000a900460ff166004811115611bef57fe5b141515611bfb57600080fd5b601360003373ffffffffffffffffffffffffffffffffffffffff1673ffffffffffffffffffffffffffffffffffffffff16815260200190815260200160002060009054906101000a900460ff161515611d8a576060604051908101604052803373ffffffffffffffffffffffffffffffffffffffff168152602001600081526020016000815250601260003373ffffffffffffffffffffffffffffffffffffffff1673ffffffffffffffffffffffffffffffffffffffff16815260200190815260200160002060008201518160000160006101000a81548173ffffffffffffffffffffffffffffffffffffffff021916908373ffffffffffffffffffffffffffffffffffffffff16021790555060208201518160010155604082015181600201559050506001601360003373ffffffffffffffffffffffffffffffffffffffff1673ffffffffffffffffffffffffffffffffffffffff16815260200190815260200160002060006101000a81548160ff0219169083151502179055506011600081548092919060010191905055505b600034111515611d9957600080fd5b6009543460095401111515611dad57600080fd5b601260003373ffffffffffffffffffffffffffffffffffffffff1673ffffffffffffffffffffffffffffffffffffffff1681526020019081526020016000206001015434601260003373ffffffffffffffffffffffffffffffffffffffff1673ffffffffffffffffffffffffffffffffffffffff1681526020019081526020016000206001015401111515611e4157600080fd5b604080519081016040528034815260200142815250601260003373ffffffffffffffffffffffffffffffffffffffff1673ffffffffffffffffffffffffffffffffffffffff1681526020019081526020016000206003016000601260003373ffffffffffffffffffffffffffffffffffffffff1673ffffffffffffffffffffffffffffffffffffffff1681526020019081526020016000206002015481526020019081526020016000206000820151816000015560208201518160010155905050601260003373ffffffffffffffffffffffffffffffffffffffff1673ffffffffffffffffffffffffffffffffffffffff1681526020019081526020016000206002016000815480929190600101919050555034601260003373ffffffffffffffffffffffffffffffffffffffff1673ffffffffffffffffffffffffffffffffffffffff168152602001908152602001600020600101600082825401925050819055503460096000828254019250508190555050565b600860009054906101000a900460ff1681565b60025481565b60045481565b600f544201600a819055506001600860006101000a81548160ff0219169083600481111561200057fe5b0217905550565b6003600860006101000a81548160ff0219169083600481111561202657fe5b02179055505600a165627a7a7230582099eba5567907c800b467d95220e67b26b5289e38e2c8a0683cdce538d85b3c830029a165627a7a72305820fcf7a6faedda55c0028ba30f663ca554fddbcfceb2b80a581509702cbe2bae4a0029",
  "source": "pragma solidity ^0.4.24;\n\n// import \"./Approvable.sol\";\nimport \"./Campaign.sol\";\n\n// Contract Development 1\n// DONE: Timing campaigns\n// DONE: Ending Campaign and Payouts\n// DONE: Manager can cancel Campaign before approved\n// DONE: Rewrite state transition according to solidy state machine pattern\n\n// Contract Developement 2\n// TASK: Comment Contracts and Tests\n// TASK: Review All variable/function etc Names\n// TASK: Review All variable/function etc accessibility\n// TASK: Split Contract Files\n// TASK: Write Solidity Tests\n// TASK: Review uints and restrict size if possible\n// TASK: Use a library/Package to advance time in tests\n// TASK: Review Security Best Practices\n// TASK: Review Design Patterns\n// TASK: Error messages for require statements\n// TASK: Campaign Factory Contract\n\n// Frontend\n// TASK: Set up React Project and React Crash Course\n// TASK: Frontend\n// TASK: Events + Listening for them\n\n// Submitable\n// TASK: Packaging and Other Documentation\n// TASK: Make sure it works on Ubuntu\n// TASK: Review Grading Rubric\n// TASK: Release on testnet\n\n// EXTRAS\n// TASK: Adding Admin\n// TASK: Approval Quorum Support Adding Admin\n// TASK: Timing Approvals\n\n// STRETCH GOALS\n// TASK: Upgradable Contract\n// TASK: Check out the SafeMath library\n// TASK: Full PLCR Approval\n// TASK: Other Stretch Goals\n// TASK: ERC20 Token Acceptance\n// TASK: Multisig Contract Management for Admins\n\ncontract EthFundMe {\n\n  /**\n    ADMINS\n   */\n  address[] public admins;\n  mapping (address=> bool) public isAdmin;\n\n  // TODO: Adding an\n  /**\n    Allows initialization of the contract with up to 3 admins\n   */\n  constructor(address[] _admins) public {\n    //FIXME: Can I put a require statement in a contructor? What happens if it fails?\n    require(_admins.length <= 3);\n    \n    admins = _admins;\n    for (uint i = 0; i < admins.length; i++) {\n      isAdmin[admins[i]] = true;\n    }\n  }\n\n  function getNumAdmins() public view returns (uint) {\n    return admins.length;\n  }\n\n  /**\n    CAMPAIGNS\n  */\n  address[] public campaigns;\n  uint public num = 0;\n\n  function getNumCampaigns() public view returns (uint) {\n    return campaigns.length;\n  }\n\n  function createCampaign(string title, uint goal, uint duration) public returns(address) {\n    Campaign newCampaign = new Campaign(campaigns.length, title, goal, duration, msg.sender, address(this));\n    campaigns.push(address(newCampaign));\n    num++;\n    return address(newCampaign);\n  }\n\n\n}\n\n",
  "sourcePath": "C:\\Users\\jalal\\GitHub\\EthFundMe\\contracts\\EthFundMe.sol",
  "compiler": {
    "name": "solc",
    "version": "0.4.24+commit.e67f0147.Emscripten.clang"
  },
  "schemaVersion": "2.0.1",
  "updatedAt": "2018-07-29T12:15:05.827Z"
}