{
  "contractName": "EthFundMe",
  "abi": [
    {
      "constant": true,
      "inputs": [
        {
          "name": "_operator",
          "type": "address"
        },
        {
          "name": "_role",
          "type": "string"
        }
      ],
      "name": "checkRole",
      "outputs": [],
      "payable": false,
      "stateMutability": "view",
      "type": "function"
    },
    {
      "constant": true,
      "inputs": [],
      "name": "numAdmins",
      "outputs": [
        {
          "name": "",
          "type": "uint256"
        }
      ],
      "payable": false,
      "stateMutability": "view",
      "type": "function"
    },
    {
      "constant": false,
      "inputs": [],
      "name": "stopContract",
      "outputs": [],
      "payable": false,
      "stateMutability": "nonpayable",
      "type": "function"
    },
    {
      "constant": true,
      "inputs": [
        {
          "name": "",
          "type": "uint256"
        }
      ],
      "name": "campaigns",
      "outputs": [
        {
          "name": "",
          "type": "address"
        }
      ],
      "payable": false,
      "stateMutability": "view",
      "type": "function"
    },
    {
      "constant": true,
      "inputs": [
        {
          "name": "_operator",
          "type": "address"
        },
        {
          "name": "_role",
          "type": "string"
        }
      ],
      "name": "hasRole",
      "outputs": [
        {
          "name": "",
          "type": "bool"
        }
      ],
      "payable": false,
      "stateMutability": "view",
      "type": "function"
    },
    {
      "constant": true,
      "inputs": [
        {
          "name": "_address",
          "type": "address"
        }
      ],
      "name": "isAdmin",
      "outputs": [
        {
          "name": "",
          "type": "bool"
        }
      ],
      "payable": false,
      "stateMutability": "view",
      "type": "function"
    },
    {
      "constant": true,
      "inputs": [],
      "name": "isStopped",
      "outputs": [
        {
          "name": "",
          "type": "bool"
        }
      ],
      "payable": false,
      "stateMutability": "view",
      "type": "function"
    },
    {
      "constant": false,
      "inputs": [
        {
          "name": "_account",
          "type": "address"
        }
      ],
      "name": "addAdminRole",
      "outputs": [],
      "payable": false,
      "stateMutability": "nonpayable",
      "type": "function"
    },
    {
      "constant": true,
      "inputs": [],
      "name": "echoAddress",
      "outputs": [
        {
          "name": "",
          "type": "address"
        }
      ],
      "payable": false,
      "stateMutability": "view",
      "type": "function"
    },
    {
      "constant": false,
      "inputs": [],
      "name": "resumeContract",
      "outputs": [],
      "payable": false,
      "stateMutability": "nonpayable",
      "type": "function"
    },
    {
      "constant": true,
      "inputs": [],
      "name": "ROLE_ADMIN",
      "outputs": [
        {
          "name": "",
          "type": "string"
        }
      ],
      "payable": false,
      "stateMutability": "view",
      "type": "function"
    },
    {
      "constant": false,
      "inputs": [
        {
          "name": "_account",
          "type": "address"
        }
      ],
      "name": "removeAdminRole",
      "outputs": [],
      "payable": false,
      "stateMutability": "nonpayable",
      "type": "function"
    },
    {
      "inputs": [],
      "payable": false,
      "stateMutability": "nonpayable",
      "type": "constructor"
    },
    {
      "anonymous": false,
      "inputs": [
        {
          "indexed": true,
          "name": "campaignAddress",
          "type": "address"
        }
      ],
      "name": "CampaignCreated",
      "type": "event"
    },
    {
      "anonymous": false,
      "inputs": [
        {
          "indexed": true,
          "name": "operator",
          "type": "address"
        },
        {
          "indexed": false,
          "name": "role",
          "type": "string"
        }
      ],
      "name": "RoleAdded",
      "type": "event"
    },
    {
      "anonymous": false,
      "inputs": [
        {
          "indexed": true,
          "name": "operator",
          "type": "address"
        },
        {
          "indexed": false,
          "name": "role",
          "type": "string"
        }
      ],
      "name": "RoleRemoved",
      "type": "event"
    },
    {
      "constant": true,
      "inputs": [],
      "name": "getNumCampaigns",
      "outputs": [
        {
          "name": "",
          "type": "uint256"
        }
      ],
      "payable": false,
      "stateMutability": "view",
      "type": "function"
    },
    {
      "constant": false,
      "inputs": [
        {
          "name": "title",
          "type": "string"
        },
        {
          "name": "goal",
          "type": "uint256"
        },
        {
          "name": "duration",
          "type": "uint256"
        },
        {
          "name": "description",
          "type": "string"
        },
        {
          "name": "image",
          "type": "string"
        }
      ],
      "name": "createCampaign",
      "outputs": [
        {
          "name": "",
          "type": "address"
        }
      ],
      "payable": false,
      "stateMutability": "nonpayable",
      "type": "function"
    }
  ],
  "bytecode": "0x60806040526000600260006101000a81548160ff02191690831515021790555034801561002b57600080fd5b5061007a336040805190810160405280600581526020017f61646d696e000000000000000000000000000000000000000000000000000000815250610086640100000000026401000000009004565b60018081905550610225565b610110826000836040518082805190602001908083835b6020831015156100c2578051825260208201915060208101905060208303925061009d565b6001836020036101000a03801982511681845116808217855250505050505090500191505090815260200160405180910390206101c76401000000000261115f179091906401000000009004565b8173ffffffffffffffffffffffffffffffffffffffff167fbfec83d64eaa953f2708271a023ab9ee82057f8f3578d548c1a4ba0b5b700489826040518080602001828103825283818151815260200191508051906020019080838360005b8381101561018957808201518184015260208101905061016e565b50505050905090810190601f1680156101b65780820380516001836020036101000a031916815260200191505b509250505060405180910390a25050565b60018260000160008373ffffffffffffffffffffffffffffffffffffffff1673ffffffffffffffffffffffffffffffffffffffff16815260200190815260200160002060006101000a81548160ff0219169083151502179055505050565b6149f280620002356000396000f300608060405260043610620000df576000357c0100000000000000000000000000000000000000000000000000000000900463ffffffff1680630988ca8c14620000e45780630efd4989146200017057806312253a6c146200019e578063141961bc14620001b8578063217fe6c6146200022857806324d7806c14620002cc5780633f683b6a146200032a5780634b2aafcc146200035c5780636595171c14620004a85780639cbf301c14620004ee578063c4bc5da51462000548578063d391014b1462000562578063d9a9bb3e14620005f8578063dccfe3101462000626575b600080fd5b348015620000f157600080fd5b506200016e600480360381019080803573ffffffffffffffffffffffffffffffffffffffff169060200190929190803590602001908201803590602001908080601f01602080910402602001604051908101604052809392919081815260200183838082843782019150505050505091929192905050506200066c565b005b3480156200017d57600080fd5b5062000188620006f1565b6040518082815260200191505060405180910390f35b348015620001ab57600080fd5b50620001b6620006f7565b005b348015620001c557600080fd5b50620001e66004803603810190808035906020019092919050505062000793565b604051808273ffffffffffffffffffffffffffffffffffffffff1673ffffffffffffffffffffffffffffffffffffffff16815260200191505060405180910390f35b3480156200023557600080fd5b50620002b2600480360381019080803573ffffffffffffffffffffffffffffffffffffffff169060200190929190803590602001908201803590602001908080601f0160208091040260200160405190810160405280939291908181526020018383808284378201915050505050509192919290505050620007d2565b604051808215151515815260200191505060405180910390f35b348015620002d957600080fd5b5062000310600480360381019080803573ffffffffffffffffffffffffffffffffffffffff1690602001909291905050506200085d565b604051808215151515815260200191505060405180910390f35b3480156200033757600080fd5b5062000342620008a7565b604051808215151515815260200191505060405180910390f35b3480156200036957600080fd5b5062000466600480360381019080803590602001908201803590602001908080601f01602080910402602001604051908101604052809392919081815260200183838082843782019150505050505091929192908035906020019092919080359060200190929190803590602001908201803590602001908080601f0160208091040260200160405190810160405280939291908181526020018383808284378201915050505050509192919290803590602001908201803590602001908080601f0160208091040260200160405190810160405280939291908181526020018383808284378201915050505050509192919290505050620008ba565b604051808273ffffffffffffffffffffffffffffffffffffffff1673ffffffffffffffffffffffffffffffffffffffff16815260200191505060405180910390f35b348015620004b557600080fd5b50620004ec600480360381019080803573ffffffffffffffffffffffffffffffffffffffff16906020019092919050505062000c49565b005b348015620004fb57600080fd5b506200050662000ce0565b604051808273ffffffffffffffffffffffffffffffffffffffff1673ffffffffffffffffffffffffffffffffffffffff16815260200191505060405180910390f35b3480156200055557600080fd5b506200056062000ce8565b005b3480156200056f57600080fd5b506200057a62000d84565b6040518080602001828103825283818151815260200191508051906020019080838360005b83811015620005bc5780820151818401526020810190506200059f565b50505050905090810190601f168015620005ea5780820380516001836020036101000a031916815260200191505b509250505060405180910390f35b3480156200060557600080fd5b506200061062000dbd565b6040518082815260200191505060405180910390f35b3480156200063357600080fd5b506200066a600480360381019080803573ffffffffffffffffffffffffffffffffffffffff16906020019092919050505062000dca565b005b620006ed826000836040518082805190602001908083835b602083101515620006ab578051825260208201915060208101905060208303925062000684565b6001836020036101000a038019825116818451168082178552505050505050905001915050908152602001604051809103902062000e6290919063ffffffff16565b5050565b60015481565b6200070162000e7e565b151562000776576040517f08c379a000000000000000000000000000000000000000000000000000000000815260040180806020018281038252601f8152602001807f6f6e6c7920617574686f72697a656420746f2073746f7020616c6c6f7765640081525060200191505060405180910390fd5b6001600260006101000a81548160ff021916908315150217905550565b600381815481101515620007a357fe5b906000526020600020016000915054906101000a900473ffffffffffffffffffffffffffffffffffffffff1681565b600062000855836000846040518082805190602001908083835b602083101515620008135780518252602082019150602081019050602083039250620007ec565b6001836020036101000a038019825116818451168082178552505050505050905001915050908152602001604051809103902062000e9090919063ffffffff16565b905092915050565b6000620008a0826040805190810160405280600581526020017f61646d696e000000000000000000000000000000000000000000000000000000815250620007d2565b9050919050565b600260009054906101000a900460ff1681565b600080600260009054906101000a900460ff1615151562000943576040517f08c379a000000000000000000000000000000000000000000000000000000000815260040180806020018281038252601c8152602001807f436f6e7472616374206d757374206e6f742062652073746f707065640000000081525060200191505060405180910390fd5b62000984336040805190810160405280600581526020017f61646d696e000000000000000000000000000000000000000000000000000000815250620007d2565b1515156200099157600080fd5b60038054905087878787873330620009a86200121b565b808981526020018060200188815260200187815260200180602001806020018673ffffffffffffffffffffffffffffffffffffffff1673ffffffffffffffffffffffffffffffffffffffff1681526020018573ffffffffffffffffffffffffffffffffffffffff1673ffffffffffffffffffffffffffffffffffffffff16815260200184810384528b818151815260200191508051906020019080838360005b8381101562000a6557808201518184015260208101905062000a48565b50505050905090810190601f16801562000a935780820380516001836020036101000a031916815260200191505b50848103835288818151815260200191508051906020019080838360005b8381101562000ace57808201518184015260208101905062000ab1565b50505050905090810190601f16801562000afc5780820380516001836020036101000a031916815260200191505b50848103825287818151815260200191508051906020019080838360005b8381101562000b3757808201518184015260208101905062000b1a565b50505050905090810190601f16801562000b655780820380516001836020036101000a031916815260200191505b509b505050505050505050505050604051809103906000f08015801562000b90573d6000803e3d6000fd5b50905060038190806001815401808255809150509060018203906000526020600020016000909192909190916101000a81548173ffffffffffffffffffffffffffffffffffffffff021916908373ffffffffffffffffffffffffffffffffffffffff160217905550508073ffffffffffffffffffffffffffffffffffffffff167f07a9c134c6ed9c353773b355c69cbf65e34e3c3820554f5b8e1afdecdfb4029260405160405180910390a28091505095945050505050565b62000c8a336040805190810160405280600581526020017f61646d696e0000000000000000000000000000000000000000000000000000008152506200066c565b62000ccb816040805190810160405280600581526020017f61646d696e00000000000000000000000000000000000000000000000000000081525062000ee9565b60016000815480929190600101919050555050565b600033905090565b62000cf262000e7e565b151562000d67576040517f08c379a000000000000000000000000000000000000000000000000000000000815260040180806020018281038252601f8152602001807f6f6e6c7920617574686f72697a656420746f2073746f7020616c6c6f7765640081525060200191505060405180910390fd5b6000600260006101000a81548160ff021916908315150217905550565b6040805190810160405280600581526020017f61646d696e00000000000000000000000000000000000000000000000000000081525081565b6000600380549050905090565b62000e0b336040805190810160405280600581526020017f61646d696e0000000000000000000000000000000000000000000000000000008152506200066c565b62000e4c816040805190810160405280600581526020017f61646d696e00000000000000000000000000000000000000000000000000000081525062001024565b6001600081548092919060019003919050555050565b62000e6e828262000e90565b151562000e7a57600080fd5b5050565b600062000e8b336200085d565b905090565b60008260000160008373ffffffffffffffffffffffffffffffffffffffff1673ffffffffffffffffffffffffffffffffffffffff16815260200190815260200160002060009054906101000a900460ff16905092915050565b62000f6a826000836040518082805190602001908083835b60208310151562000f28578051825260208201915060208101905060208303925062000f01565b6001836020036101000a03801982511681845116808217855250505050505090500191505090815260200160405180910390206200115f90919063ffffffff16565b8173ffffffffffffffffffffffffffffffffffffffff167fbfec83d64eaa953f2708271a023ab9ee82057f8f3578d548c1a4ba0b5b700489826040518080602001828103825283818151815260200191508051906020019080838360005b8381101562000fe557808201518184015260208101905062000fc8565b50505050905090810190601f168015620010135780820380516001836020036101000a031916815260200191505b509250505060405180910390a25050565b620010a5826000836040518082805190602001908083835b6020831015156200106357805182526020820191506020810190506020830392506200103c565b6001836020036101000a0380198251168184511680821785525050505050509050019150509081526020016040518091039020620011bd90919063ffffffff16565b8173ffffffffffffffffffffffffffffffffffffffff167fd211483f91fc6eff862467f8de606587a30c8fc9981056f051b897a418df803a826040518080602001828103825283818151815260200191508051906020019080838360005b838110156200112057808201518184015260208101905062001103565b50505050905090810190601f1680156200114e5780820380516001836020036101000a031916815260200191505b509250505060405180910390a25050565b60018260000160008373ffffffffffffffffffffffffffffffffffffffff1673ffffffffffffffffffffffffffffffffffffffff16815260200190815260200160002060006101000a81548160ff0219169083151502179055505050565b60008260000160008373ffffffffffffffffffffffffffffffffffffffff1673ffffffffffffffffffffffffffffffffffffffff16815260200190815260200160002060006101000a81548160ff0219169083151502179055505050565b60405161379a806200122d833901905600608060405260008060006101000a81548160ff02191690831515021790555060008060156101000a81548160ff021916908360048111156200003d57fe5b021790555060016008556000600960006101000a81548160ff021916908360048111156200006757fe5b02179055503073ffffffffffffffffffffffffffffffffffffffff1631600a553480156200009457600080fd5b506040516200379a3803806200379a83398101806040528101908080519060200190929190805182019291906020018051906020019092919080519060200190929190805182019291906020018051820192919060200180519060200190929190805190602001909291905050508080600060016101000a81548173ffffffffffffffffffffffffffffffffffffffff021916908373ffffffffffffffffffffffffffffffffffffffff1602179055505087600c8190555086600d908051906020019062000164929190620001f9565b5085600e81905550620151808502600f81905550836010908051906020019062000190929190620001f9565b508260119080519060200190620001a9929190620001f9565b5081601260006101000a81548173ffffffffffffffffffffffffffffffffffffffff021916908373ffffffffffffffffffffffffffffffffffffffff1602179055505050505050505050620002a8565b828054600181600116156101000203166002900490600052602060002090601f016020900481019282601f106200023c57805160ff19168380011785556200026d565b828001600101855582156200026d579182015b828111156200026c5782518255916020019190600101906200024f565b5b5090506200027c919062000280565b5090565b620002a591905b80821115620002a157600081600090555060010162000287565b5090565b90565b6134e280620002b86000396000f3006080604052600436106101d8576000357c0100000000000000000000000000000000000000000000000000000000900463ffffffff16806309eef43e146101dd5780630fb5a6b41461023857806312253a6c146102635780631afcf1591461027a5780631cee0700146102b3578063205b19461461032e57806322f3e2d41461038957806339f3027d146103b85780633ccfd60b146103f15780633f683b6a146104085780634019388314610437578063481c6a75146104625780634a79d50c146104b95780635e2c19db1461054957806365325386146105a457806371aac7f9146105cf5780637284e416146105e65780637403c5e514610676578063796b89b9146106a1578063980e7844146106cc578063a0f243b8146106e3578063a69beaba1461073a578063aac083451461076b578063ab45be42146107ca578063af640d0f146107e1578063b9a530131461080c578063c17c5cf014610867578063c24a0f8b14610892578063c4bc5da5146108bd578063c89f2ce4146108d4578063d7bb99ba146108ff578063db2e21bc14610909578063e2d3b70914610920578063e70ac62c14610977578063f3ccaac0146109a2578063f4c9b1fd14610a32578063f81292c114610a6b578063facd493914610a96575b600080fd5b3480156101e957600080fd5b5061021e600480360381019080803573ffffffffffffffffffffffffffffffffffffffff169060200190929190505050610ac1565b604051808215151515815260200191505060405180910390f35b34801561024457600080fd5b5061024d610ae1565b6040518082815260200191505060405180910390f35b34801561026f57600080fd5b50610278610ae7565b005b34801561028657600080fd5b5061028f610b7f565b6040518082600481111561029f57fe5b60ff16815260200191505060405180910390f35b3480156102bf57600080fd5b506102de60048036038101908080359060200190929190505050610b92565b604051808473ffffffffffffffffffffffffffffffffffffffff1673ffffffffffffffffffffffffffffffffffffffff168152602001838152602001828152602001935050505060405180910390f35b34801561033a57600080fd5b5061036f600480360381019080803573ffffffffffffffffffffffffffffffffffffffff169060200190929190505050610beb565b604051808215151515815260200191505060405180910390f35b34801561039557600080fd5b5061039e610c0b565b604051808215151515815260200191505060405180910390f35b3480156103c457600080fd5b506103ef60048036038101908080351515906020019092919080359060200190929190505050610c17565b005b3480156103fd57600080fd5b506104066112e5565b005b34801561041457600080fd5b5061041d611625565b604051808215151515815260200191505060405180910390f35b34801561044357600080fd5b5061044c611637565b6040518082815260200191505060405180910390f35b34801561046e57600080fd5b5061047761163d565b604051808273ffffffffffffffffffffffffffffffffffffffff1673ffffffffffffffffffffffffffffffffffffffff16815260200191505060405180910390f35b3480156104c557600080fd5b506104ce611663565b6040518080602001828103825283818151815260200191508051906020019080838360005b8381101561050e5780820151818401526020810190506104f3565b50505050905090810190601f16801561053b5780820380516001836020036101000a031916815260200191505b509250505060405180910390f35b34801561055557600080fd5b5061058a600480360381019080803573ffffffffffffffffffffffffffffffffffffffff169060200190929190505050611701565b604051808215151515815260200191505060405180910390f35b3480156105b057600080fd5b506105b9611721565b6040518082815260200191505060405180910390f35b3480156105db57600080fd5b506105e4611775565b005b3480156105f257600080fd5b506105fb611b50565b6040518080602001828103825283818151815260200191508051906020019080838360005b8381101561063b578082015181840152602081019050610620565b50505050905090810190601f1680156106685780820380516001836020036101000a031916815260200191505b509250505060405180910390f35b34801561068257600080fd5b5061068b611bee565b6040518082815260200191505060405180910390f35b3480156106ad57600080fd5b506106b6611bf4565b6040518082815260200191505060405180910390f35b3480156106d857600080fd5b506106e1611bfc565b005b3480156106ef57600080fd5b50610724600480360381019080803573ffffffffffffffffffffffffffffffffffffffff169060200190929190505050611efb565b6040518082815260200191505060405180910390f35b34801561074657600080fd5b506107696004803603810190808035600019169060200190929190505050611f13565b005b34801561077757600080fd5b506107ac600480360381019080803573ffffffffffffffffffffffffffffffffffffffff16906020019092919050505061240f565b60405180826000191660001916815260200191505060405180910390f35b3480156107d657600080fd5b506107df612427565b005b3480156107ed57600080fd5b506107f6612544565b6040518082815260200191505060405180910390f35b34801561081857600080fd5b5061084d600480360381019080803573ffffffffffffffffffffffffffffffffffffffff16906020019092919050505061254a565b604051808215151515815260200191505060405180910390f35b34801561087357600080fd5b5061087c61256a565b6040518082815260200191505060405180910390f35b34801561089e57600080fd5b506108a7612570565b6040518082815260200191505060405180910390f35b3480156108c957600080fd5b506108d2612576565b005b3480156108e057600080fd5b506108e961260e565b6040518082815260200191505060405180910390f35b610907612614565b005b34801561091557600080fd5b5061091e612c1c565b005b34801561092c57600080fd5b50610935612d92565b604051808273ffffffffffffffffffffffffffffffffffffffff1673ffffffffffffffffffffffffffffffffffffffff16815260200191505060405180910390f35b34801561098357600080fd5b5061098c612db8565b6040518082815260200191505060405180910390f35b3480156109ae57600080fd5b506109b7612dc5565b6040518080602001828103825283818151815260200191508051906020019080838360005b838110156109f75780820151818401526020810190506109dc565b50505050905090810190601f168015610a245780820380516001836020036101000a031916815260200191505b509250505060405180910390f35b348015610a3e57600080fd5b50610a47612e63565b60405180826004811115610a5757fe5b60ff16815260200191505060405180910390f35b348015610a7757600080fd5b50610a80612e76565b6040518082815260200191505060405180910390f35b348015610aa257600080fd5b50610aab612e7c565b6040518082815260200191505060405180910390f35b60066020528060005260406000206000915054906101000a900460ff1681565b600f5481565b610aef612e82565b1515610b63576040517f08c379a000000000000000000000000000000000000000000000000000000000815260040180806020018281038252601f8152602001807f6f6e6c7920617574686f72697a656420746f2073746f7020616c6c6f7765640081525060200191505060405180910390fd5b60016000806101000a81548160ff021916908315150217905550565b600060159054906101000a900460ff1681565b601381815481101515610ba157fe5b90600052602060002090600302016000915090508060000160009054906101000a900473ffffffffffffffffffffffffffffffffffffffff16908060010154908060020154905083565b60156020528060005260406000206000915054906101000a900460ff1681565b6000600b544210905090565b6000809054906101000a900460ff16151515610c9b576040517f08c379a000000000000000000000000000000000000000000000000000000000815260040180806020018281038252601c8152602001807f436f6e7472616374206d757374206e6f742062652073746f707065640000000081525060200191505060405180910390fd5b60011515600660003373ffffffffffffffffffffffffffffffffffffffff1673ffffffffffffffffffffffffffffffffffffffff16815260200190815260200160002060009054906101000a900460ff161515141515610d63576040517f08c379a00000000000000000000000000000000000000000000000000000000081526004018080602001828103825260138152602001807f41646d696e20686173206e6f7420766f7465640000000000000000000000000081525060200191505060405180910390fd5b60001515600760003373ffffffffffffffffffffffffffffffffffffffff1673ffffffffffffffffffffffffffffffffffffffff16815260200190815260200160002060009054906101000a900460ff161515141515610e2b576040517f08c379a000000000000000000000000000000000000000000000000000000000815260040180806020018281038252601a8152602001807f41646d696e2068617320616c72656164792072657665616c656400000000000081525060200191505060405180910390fd5b6001806004811115610e3957fe5b600060159054906101000a900460ff166004811115610e5457fe5b141515610ec9576040517f08c379a00000000000000000000000000000000000000000000000000000000081526004018080602001828103825260168152602001807f496e76616c696420617070726f76616c2073746174650000000000000000000081525060200191505060405180910390fd5b600080600560003373ffffffffffffffffffffffffffffffffffffffff1673ffffffffffffffffffffffffffffffffffffffff168152602001908152602001600020546000191685856040516020018083151515157f0100000000000000000000000000000000000000000000000000000000000000028152600101828152602001925050506040516020818303038152906040526040518082805190602001908083835b602083101515610f935780518252602082019150602081019050602083039250610f6e565b6001836020036101000a038019825116818451168082178552505050505050905001915050604051809103902060001916141515611039576040517f08c379a00000000000000000000000000000000000000000000000000000000081526004018080602001828103825260198152602001807f566f7465207365637265747320646f206e6f74206d617463680000000000000081525060200191505060405180910390fd5b841561105657600160008154809291906001019190505550611069565b6002600081548092919060010191905055505b6004600081548092919060010191905055506001600760003373ffffffffffffffffffffffffffffffffffffffff1673ffffffffffffffffffffffffffffffffffffffff16815260200190815260200160002060006101000a81548160ff0219169083151502179055503373ffffffffffffffffffffffffffffffffffffffff167faac607b7c8f3c85450600d535f6327d068a498f27ac0107b252c11e6f69afce460405160405180910390a2600060019054906101000a900473ffffffffffffffffffffffffffffffffffffffff1673ffffffffffffffffffffffffffffffffffffffff16630efd49896040518163ffffffff167c0100000000000000000000000000000000000000000000000000000000028152600401602060405180830381600087803b15801561119c57600080fd5b505af11580156111b0573d6000803e3d6000fd5b505050506040513d60208110156111c657600080fd5b810190808051906020019092919050505091506002828115156111e557fe5b066002838115156111f257fe5b040190508060015410151561126a576002600060156101000a81548160ff0219169083600481111561122057fe5b021790555061122d612f80565b7f98788f3a438dcc998b20544951a23a4bbf522b2c4897ea44b2e3b696d3ea08cb6001604051808215151515815260200191505060405180910390a15b806002541015156112de576003600060156101000a81548160ff0219169083600481111561129457fe5b02179055506112a1612fe8565b7f98788f3a438dcc998b20544951a23a4bbf522b2c4897ea44b2e3b696d3ea08cb6000604051808215151515815260200191505060405180910390a15b5050505050565b6000809054906101000a900460ff16151515611369576040517f08c379a000000000000000000000000000000000000000000000000000000000815260040180806020018281038252601c8152602001807f436f6e7472616374206d757374206e6f742062652073746f707065640000000081525060200191505060405180910390fd5b600160085414151561137a57600080fd5b600260088190555060001515601660003373ffffffffffffffffffffffffffffffffffffffff1673ffffffffffffffffffffffffffffffffffffffff16815260200190815260200160002060009054906101000a900460ff16151514151561144a576040517f08c379a000000000000000000000000000000000000000000000000000000000815260040180806020018281038252601a8152602001807f557365722068617320616c72656164792077697468647261776e00000000000081525060200191505060405180910390fd5b6001600481111561145757fe5b600960009054906101000a900460ff16600481111561147257fe5b1480156114805750600b5442115b156114e157600e54600a541015156114bb576002600960006101000a81548160ff021916908360048111156114b157fe5b02179055506114e0565b6003600960006101000a81548160ff021916908360048111156114da57fe5b02179055505b5b600160048111156114ee57fe5b600960009054906101000a900460ff16600481111561150957fe5b11151561157e576040517f08c379a00000000000000000000000000000000000000000000000000000000081526004018080602001828103825260188152602001807f43616d706169676e206d757374206861766520656e646564000000000000000081525060200191505060405180910390fd5b6002600481111561158b57fe5b600960009054906101000a900460ff1660048111156115a657fe5b14156115b5576115b461300e565b5b600360048111156115c257fe5b600960009054906101000a900460ff1660048111156115dd57fe5b148061160d57506004808111156115f057fe5b600960009054906101000a900460ff16600481111561160b57fe5b145b1561161b5761161a613215565b5b6001600881905550565b6000809054906101000a900460ff1681565b600e5481565b601260009054906101000a900473ffffffffffffffffffffffffffffffffffffffff1681565b600d8054600181600116156101000203166002900480601f0160208091040260200160405190810160405280929190818152602001828054600181600116156101000203166002900480156116f95780601f106116ce576101008083540402835291602001916116f9565b820191906000526020600020905b8154815290600101906020018083116116dc57829003601f168201915b505050505081565b60166020528060005260406000206000915054906101000a900460ff1681565b6000806000809150600090505b60138054905081101561176d5760138181548110151561174a57fe5b90600052602060002090600302016001015482019150808060010191505061172e565b819250505090565b6000809054906101000a900460ff161515156117f9576040517f08c379a000000000000000000000000000000000000000000000000000000000815260040180806020018281038252601c8152602001807f436f6e7472616374206d757374206e6f742062652073746f707065640000000081525060200191505060405180910390fd5b601260009054906101000a900473ffffffffffffffffffffffffffffffffffffffff1673ffffffffffffffffffffffffffffffffffffffff163373ffffffffffffffffffffffffffffffffffffffff1614806119495750600060019054906101000a900473ffffffffffffffffffffffffffffffffffffffff1673ffffffffffffffffffffffffffffffffffffffff166324d7806c336040518263ffffffff167c0100000000000000000000000000000000000000000000000000000000028152600401808273ffffffffffffffffffffffffffffffffffffffff1673ffffffffffffffffffffffffffffffffffffffff168152602001915050602060405180830381600087803b15801561190d57600080fd5b505af1158015611921573d6000803e3d6000fd5b505050506040513d602081101561193757600080fd5b81019080805190602001909291905050505b15156119e3576040517f08c379a00000000000000000000000000000000000000000000000000000000081526004018080602001828103825260298152602001807f4f6e6c792063616d706169676e206d616e61676572206f722061646d696e206181526020017f7574686f72697a6564000000000000000000000000000000000000000000000081525060400191505060405180910390fd5b600160048111156119f057fe5b600960009054906101000a900460ff166004811115611a0b57fe5b148015611a195750600b5442115b15611a7a57600e54600a54101515611a54576002600960006101000a81548160ff02191690836004811115611a4a57fe5b0217905550611a79565b6003600960006101000a81548160ff02191690836004811115611a7357fe5b02179055505b5b60016004811115611a8757fe5b600960009054906101000a900460ff166004811115611aa257fe5b111515611b17576040517f08c379a00000000000000000000000000000000000000000000000000000000081526004018080602001828103825260188152602001807f43616d706169676e206d757374206861766520656e646564000000000000000081525060200191505060405180910390fd5b7f8d0449d6fed7183f55f431e23867be7d8553beb7dc2e0844821c9c951a59ca52426040518082815260200191505060405180910390a1565b60108054600181600116156101000203166002900480601f016020809104026020016040519081016040528092919081815260200182805460018160011615610100020316600290048015611be65780601f10611bbb57610100808354040283529160200191611be6565b820191906000526020600020905b815481529060010190602001808311611bc957829003601f168201915b505050505081565b60015481565b600042905090565b6000809054906101000a900460ff16151515611c80576040517f08c379a000000000000000000000000000000000000000000000000000000000815260040180806020018281038252601c8152602001807f436f6e7472616374206d757374206e6f742062652073746f707065640000000081525060200191505060405180910390fd5b601260009054906101000a900473ffffffffffffffffffffffffffffffffffffffff1673ffffffffffffffffffffffffffffffffffffffff163373ffffffffffffffffffffffffffffffffffffffff16141515611d45576040517f08c379a00000000000000000000000000000000000000000000000000000000081526004018080602001828103825260208152602001807f4f6e6c792063616d706169676e206d616e6167657220617574686f72697a656481525060200191505060405180910390fd5b60016004811115611d5257fe5b600960009054906101000a900460ff166004811115611d6d57fe5b148015611d7b5750600b5442115b15611ddc57600e54600a54101515611db6576002600960006101000a81548160ff02191690836004811115611dac57fe5b0217905550611ddb565b6003600960006101000a81548160ff02191690836004811115611dd557fe5b02179055505b5b60016004811115611de957fe5b600960009054906101000a900460ff166004811115611e0457fe5b11151515611e7a576040517f08c379a00000000000000000000000000000000000000000000000000000000081526004018080602001828103825260178152602001807f43616d706169676e206d7573742062652061637469766500000000000000000081525060200191505060405180910390fd5b6004600060156101000a81548160ff02191690836004811115611e9957fe5b02179055506004600960006101000a81548160ff02191690836004811115611ebd57fe5b02179055507f2df224a1e39354bc368dbab322c2a32a86a269a8a102b04e2ce16a803f3394bb426040518082815260200191505060405180910390a1565b60146020528060005260406000206000915090505481565b6000809054906101000a900460ff16151515611f97576040517f08c379a000000000000000000000000000000000000000000000000000000000815260040180806020018281038252601c8152602001807f436f6e7472616374206d757374206e6f742062652073746f707065640000000081525060200191505060405180910390fd5b600060019054906101000a900473ffffffffffffffffffffffffffffffffffffffff1673ffffffffffffffffffffffffffffffffffffffff166324d7806c336040518263ffffffff167c0100000000000000000000000000000000000000000000000000000000028152600401808273ffffffffffffffffffffffffffffffffffffffff1673ffffffffffffffffffffffffffffffffffffffff168152602001915050602060405180830381600087803b15801561205457600080fd5b505af1158015612068573d6000803e3d6000fd5b505050506040513d602081101561207e57600080fd5b81019080805190602001909291905050501515612103576040517f08c379a00000000000000000000000000000000000000000000000000000000081526004018080602001828103825260158152602001807f6f6e6c792061646d696e20617574686f72697a6564000000000000000000000081525060200191505060405180910390fd5b600080600481111561211157fe5b600060159054906101000a900460ff16600481111561212c57fe5b1415156121a1576040517f08c379a00000000000000000000000000000000000000000000000000000000081526004018080602001828103825260168152602001807f496e76616c696420617070726f76616c2073746174650000000000000000000081525060200191505060405180910390fd5b81600560003373ffffffffffffffffffffffffffffffffffffffff1673ffffffffffffffffffffffffffffffffffffffff168152602001908152602001600020816000191690555060001515600660003373ffffffffffffffffffffffffffffffffffffffff1673ffffffffffffffffffffffffffffffffffffffff16815260200190815260200160002060009054906101000a900460ff16151514156122f0576003600081548092919060010191905055506001600660003373ffffffffffffffffffffffffffffffffffffffff1673ffffffffffffffffffffffffffffffffffffffff16815260200190815260200160002060006101000a81548160ff0219169083151502179055503373ffffffffffffffffffffffffffffffffffffffff167f97ac9e720fea9facff2969705e902f0e93ea7846ed7184c381f4e909cc3fc1e160405160405180910390a25b600060019054906101000a900473ffffffffffffffffffffffffffffffffffffffff1673ffffffffffffffffffffffffffffffffffffffff16630efd49896040518163ffffffff167c0100000000000000000000000000000000000000000000000000000000028152600401602060405180830381600087803b15801561237657600080fd5b505af115801561238a573d6000803e3d6000fd5b505050506040513d60208110156123a057600080fd5b8101908080519060200190929190505050600354141561240b576001600060156101000a81548160ff021916908360048111156123d957fe5b02179055507f4c1eb757958b6e55f9b4841f2d3b5466b5148e9b8d47329710dc3594159b85f160405160405180910390a15b5050565b60056020528060005260406000206000915090505481565b6000809054906101000a900460ff161515156124ab576040517f08c379a000000000000000000000000000000000000000000000000000000000815260040180806020018281038252601c8152602001807f436f6e7472616374206d757374206e6f742062652073746f707065640000000081525060200191505060405180910390fd5b600160048111156124b857fe5b600960009054906101000a900460ff1660048111156124d357fe5b1480156124e15750600b5442115b1561254257600e54600a5410151561251c576002600960006101000a81548160ff0219169083600481111561251257fe5b0217905550612541565b6003600960006101000a81548160ff0219169083600481111561253b57fe5b02179055505b5b565b600c5481565b60076020528060005260406000206000915054906101000a900460ff1681565b60035481565b600b5481565b61257e612e82565b15156125f2576040517f08c379a000000000000000000000000000000000000000000000000000000000815260040180806020018281038252601f8152602001807f6f6e6c7920617574686f72697a656420746f2073746f7020616c6c6f7765640081525060200191505060405180910390fd5b60008060006101000a81548160ff021916908315150217905550565b600a5481565b6000809054906101000a900460ff16151515612698576040517f08c379a000000000000000000000000000000000000000000000000000000000815260040180806020018281038252601c8152602001807f436f6e7472616374206d757374206e6f742062652073746f707065640000000081525060200191505060405180910390fd5b601260009054906101000a900473ffffffffffffffffffffffffffffffffffffffff1673ffffffffffffffffffffffffffffffffffffffff163373ffffffffffffffffffffffffffffffffffffffff16141515156126f557600080fd5b6001600481111561270257fe5b600960009054906101000a900460ff16600481111561271d57fe5b14801561272b5750600b5442115b1561278c57600e54600a54101515612766576002600960006101000a81548160ff0219169083600481111561275c57fe5b021790555061278b565b6003600960006101000a81548160ff0219169083600481111561278557fe5b02179055505b5b600180600481111561279a57fe5b600960009054906101000a900460ff1660048111156127b557fe5b141515612850576040517f08c379a00000000000000000000000000000000000000000000000000000000081526004018080602001828103825260248152602001807f496e636f72726563742063616d706169676e537461746520666f722066756e6381526020017f74696f6e0000000000000000000000000000000000000000000000000000000081525060400191505060405180910390fd5b6000341115156128c8576040517f08c379a00000000000000000000000000000000000000000000000000000000081526004018080602001828103825260158152602001807f4e6f207a65726f20636f6e747269627574696f6e73000000000000000000000081525060200191505060405180910390fd5b600a5434600a5401111515612945576040517f08c379a000000000000000000000000000000000000000000000000000000000815260040180806020018281038252601d8152602001807f496e7465676572206f766572666c6f7720636865636b206661696c656400000081525060200191505060405180910390fd5b601460003373ffffffffffffffffffffffffffffffffffffffff1673ffffffffffffffffffffffffffffffffffffffff1681526020019081526020016000205434601460003373ffffffffffffffffffffffffffffffffffffffff1673ffffffffffffffffffffffffffffffffffffffff1681526020019081526020016000205401111515612a3c576040517f08c379a000000000000000000000000000000000000000000000000000000000815260040180806020018281038252601d8152602001807f496e7465676572206f766572666c6f7720636865636b206661696c656400000081525060200191505060405180910390fd5b6001601560003373ffffffffffffffffffffffffffffffffffffffff1673ffffffffffffffffffffffffffffffffffffffff16815260200190815260200160002060006101000a81548160ff02191690831515021790555060136060604051908101604052803373ffffffffffffffffffffffffffffffffffffffff168152602001348152602001428152509080600181540180825580915050906001820390600052602060002090600302016000909192909190915060008201518160000160006101000a81548173ffffffffffffffffffffffffffffffffffffffff021916908373ffffffffffffffffffffffffffffffffffffffff160217905550602082015181600101556040820151816002015550505034601460003373ffffffffffffffffffffffffffffffffffffffff1673ffffffffffffffffffffffffffffffffffffffff1681526020019081526020016000206000828254019250508190555034600a600082825401925050819055507f80c4b1f63e4a6a1a36a9cad447cf9bc5fea26c44da551d6c4f060398adcb58723334604051808373ffffffffffffffffffffffffffffffffffffffff1673ffffffffffffffffffffffffffffffffffffffff1681526020018281526020019250505060405180910390a150565b6000809054906101000a900460ff161515612c9f576040517f08c379a00000000000000000000000000000000000000000000000000000000081526004018080602001828103825260188152602001807f436f6e7472616374206d7573742062652073746f70706564000000000000000081525060200191505060405180910390fd5b6001600854141515612cb057600080fd5b600260088190555060001515601660003373ffffffffffffffffffffffffffffffffffffffff1673ffffffffffffffffffffffffffffffffffffffff16815260200190815260200160002060009054906101000a900460ff161515141515612d80576040517f08c379a000000000000000000000000000000000000000000000000000000000815260040180806020018281038252601a8152602001807f557365722068617320616c72656164792077697468647261776e00000000000081525060200191505060405180910390fd5b612d88613215565b6001600881905550565b600060019054906101000a900473ffffffffffffffffffffffffffffffffffffffff1681565b6000601380549050905090565b60118054600181600116156101000203166002900480601f016020809104026020016040519081016040528092919081815260200182805460018160011615610100020316600290048015612e5b5780601f10612e3057610100808354040283529160200191612e5b565b820191906000526020600020905b815481529060010190602001808311612e3e57829003601f168201915b505050505081565b600960009054906101000a900460ff1681565b60025481565b60045481565b60008060019054906101000a900473ffffffffffffffffffffffffffffffffffffffff1673ffffffffffffffffffffffffffffffffffffffff166324d7806c336040518263ffffffff167c0100000000000000000000000000000000000000000000000000000000028152600401808273ffffffffffffffffffffffffffffffffffffffff1673ffffffffffffffffffffffffffffffffffffffff168152602001915050602060405180830381600087803b158015612f4057600080fd5b505af1158015612f54573d6000803e3d6000fd5b505050506040513d6020811015612f6a57600080fd5b8101908080519060200190929190505050905090565b600f544201600b819055506001600960006101000a81548160ff02191690836004811115612faa57fe5b02179055507fa675a32d451b185ce3e0f84447132de6e36dc5e2ea368ae22a9dcd7c5c3fc63f426040518082815260200191505060405180910390a1565b6003600960006101000a81548160ff0219169083600481111561300757fe5b0217905550565b601260009054906101000a900473ffffffffffffffffffffffffffffffffffffffff1673ffffffffffffffffffffffffffffffffffffffff163373ffffffffffffffffffffffffffffffffffffffff161415156130d3576040517f08c379a00000000000000000000000000000000000000000000000000000000081526004018080602001828103825260208152602001807f4f6e6c792063616d706169676e206d616e6167657220617574686f72697a656481525060200191505060405180910390fd5b6001601660003373ffffffffffffffffffffffffffffffffffffffff1673ffffffffffffffffffffffffffffffffffffffff16815260200190815260200160002060006101000a81548160ff0219169083151502179055506000600a819055507fbdd7a292298470c2ea820cea458f1d9ff5b5a16aaa2a2c6329128fceaa0a5187333073ffffffffffffffffffffffffffffffffffffffff1631604051808373ffffffffffffffffffffffffffffffffffffffff1673ffffffffffffffffffffffffffffffffffffffff1681526020018281526020019250505060405180910390a13373ffffffffffffffffffffffffffffffffffffffff166108fc3073ffffffffffffffffffffffffffffffffffffffff16319081150290604051600060405180830381858888f19350505050158015613212573d6000803e3d6000fd5b50565b60011515601560003373ffffffffffffffffffffffffffffffffffffffff1673ffffffffffffffffffffffffffffffffffffffff16815260200190815260200160002060009054906101000a900460ff1615151415156132dd576040517f08c379a00000000000000000000000000000000000000000000000000000000081526004018080602001828103825260188152602001807f5573657220686173206e6f7420636f6e7472696275746564000000000000000081525060200191505060405180910390fd5b6001601660003373ffffffffffffffffffffffffffffffffffffffff1673ffffffffffffffffffffffffffffffffffffffff16815260200190815260200160002060006101000a81548160ff021916908315150217905550601460003373ffffffffffffffffffffffffffffffffffffffff1673ffffffffffffffffffffffffffffffffffffffff16815260200190815260200160002054600a600082825403925050819055507fbdd7a292298470c2ea820cea458f1d9ff5b5a16aaa2a2c6329128fceaa0a518733601460003373ffffffffffffffffffffffffffffffffffffffff1673ffffffffffffffffffffffffffffffffffffffff16815260200190815260200160002054604051808373ffffffffffffffffffffffffffffffffffffffff1673ffffffffffffffffffffffffffffffffffffffff1681526020018281526020019250505060405180910390a13373ffffffffffffffffffffffffffffffffffffffff166108fc601460003373ffffffffffffffffffffffffffffffffffffffff1673ffffffffffffffffffffffffffffffffffffffff168152602001908152602001600020549081150290604051600060405180830381858888f193505050501580156134b3573d6000803e3d6000fd5b505600a165627a7a7230582024e68f225c2c3115e5c44ad5aa2e02b33220c92ea1310398b3a6331634d5e14d0029a165627a7a72305820e98bcb742f6cb89d45768e27ef3efe437d5c11673ecb5e2cb0af0dede93acf110029",
  "source": "// Contract Development 1\n// DONE: Timing campaigns\n// DONE: Ending Campaign and Payouts\n// DONE: Manager can cancel Campaign before approved\n// DONE: Rewrite state transition according to solidy state machine pattern\n\n// Contract Developement 2\n// DONE: Implement Circuit Breaker Pattern!\n// DONE: Use a Library\n  // DONE: -- Change tests to use new admin style (they must add admins)\n  // DONE:L -- setup script must add admins\n  // -- DONE: reveal logic must check num admins and take majority\n  // -- TASK: UI for stopping efm\n  // -- TASK: UI for adding admins\n  // -- DONE: Make Administerable/Administrated a super class of efm and campaign and put rbac stuff in it\n// DONE: Split Contract Files (Campaign/Approvable)\n// DONE: Events\n// DONE: Error messages for require statements\n// TASK: Write Solidity Tests\n// TASK: Comment Contracts and Tests\n// TASK: Review All variable/function etc Names\n// TASK: Review All variable/function etc accessibility\n// TASK: Review uints and restrict size if possible (at least make them uint256)\n// DONE: Use a library/Package to advance time in tests\n// TASK: Review Security Best Practices - writeup\n// TASK: Review Design Patterns - writeup\n// TASK: Change ETHFUNDME to CampaignFactory\n// TASK: Make sure tests work on -b 3\n// TASK: Put all setup scripts into one, make more campaigns and time travel so that ~half are complete\n// TASK: Use OpenZeppelin Safemath\n// TASK: Approvable in its own file?\n\n// Frontend\n// DONE: Set up React Project and React Crash Course\n// DONE: Frontend\n// TASK: Listening for them Events\n  // -- Check events in tests too\n\n// Submitable\n// TASK: Packaging and Other Documentation\n// TASK: Make sure it works on Ubuntu\n// TASK: Review Grading Rubric\n// TASK: Release on testnet\n\npragma solidity ^0.4.24;\n\nimport \"./Administrated.sol\";\nimport \"./EmergencyStoppable.sol\";\nimport \"./Campaign.sol\";\n\ncontract EthFundMe is Administrated, EmergencyStoppable {\n\n  /**\n    Implement EmergencyStoppable Interface\n   */\n  function isAuthorized() internal \n    returns(bool)\n  {\n    return isAdmin(msg.sender);\n  }\n  \n  constructor() public {\n  }\n\n  /**\n    EVENTS\n   */\n  event CampaignCreated (\n    address indexed campaignAddress\n  );\n\n  /**\n    CAMPAIGNS\n  */\n  address[] public campaigns;\n\n  function getNumCampaigns() public view returns (uint) {\n    return campaigns.length;\n  }\n  \n  function createCampaign(string title, uint goal, uint duration, string description, string image) public \n    stoppedInEmergency\n    notAdmin\n    returns(address)\n  {\n    Campaign newCampaign = new Campaign(campaigns.length, title, goal, duration, description, image, msg.sender, address(this));\n    campaigns.push(address(newCampaign));\n    emit CampaignCreated(address(newCampaign));\n    return address(newCampaign);\n  }\n\n}\n\n",
  "sourcePath": "/mnt/c/Users/jalal/Github/EthFundMe/contracts/EthFundMe.sol",
  "compiler": {
    "name": "solc",
    "version": "0.4.24+commit.e67f0147.Emscripten.clang"
  },
  "schemaVersion": "2.0.1",
  "updatedAt": "2018-08-17T17:19:00.657Z"
}