{
  "contractName": "EthFundMe",
  "abi": [
    {
      "constant": true,
      "inputs": [
        {
          "name": "_operator",
          "type": "address"
        },
        {
          "name": "_role",
          "type": "string"
        }
      ],
      "name": "checkRole",
      "outputs": [],
      "payable": false,
      "stateMutability": "view",
      "type": "function"
    },
    {
      "constant": true,
      "inputs": [],
      "name": "numAdmins",
      "outputs": [
        {
          "name": "",
          "type": "uint256"
        }
      ],
      "payable": false,
      "stateMutability": "view",
      "type": "function"
    },
    {
      "constant": false,
      "inputs": [],
      "name": "stopContract",
      "outputs": [],
      "payable": false,
      "stateMutability": "nonpayable",
      "type": "function"
    },
    {
      "constant": true,
      "inputs": [
        {
          "name": "",
          "type": "uint256"
        }
      ],
      "name": "campaigns",
      "outputs": [
        {
          "name": "",
          "type": "address"
        }
      ],
      "payable": false,
      "stateMutability": "view",
      "type": "function"
    },
    {
      "constant": true,
      "inputs": [
        {
          "name": "",
          "type": "uint256"
        }
      ],
      "name": "admins",
      "outputs": [
        {
          "name": "",
          "type": "address"
        }
      ],
      "payable": false,
      "stateMutability": "view",
      "type": "function"
    },
    {
      "constant": true,
      "inputs": [
        {
          "name": "_operator",
          "type": "address"
        },
        {
          "name": "_role",
          "type": "string"
        }
      ],
      "name": "hasRole",
      "outputs": [
        {
          "name": "",
          "type": "bool"
        }
      ],
      "payable": false,
      "stateMutability": "view",
      "type": "function"
    },
    {
      "constant": true,
      "inputs": [
        {
          "name": "",
          "type": "address"
        }
      ],
      "name": "isAdmin",
      "outputs": [
        {
          "name": "",
          "type": "bool"
        }
      ],
      "payable": false,
      "stateMutability": "view",
      "type": "function"
    },
    {
      "constant": true,
      "inputs": [],
      "name": "isStopped",
      "outputs": [
        {
          "name": "",
          "type": "bool"
        }
      ],
      "payable": false,
      "stateMutability": "view",
      "type": "function"
    },
    {
      "constant": false,
      "inputs": [],
      "name": "resumeContract",
      "outputs": [],
      "payable": false,
      "stateMutability": "nonpayable",
      "type": "function"
    },
    {
      "constant": true,
      "inputs": [],
      "name": "ROLE_ADMIN",
      "outputs": [
        {
          "name": "",
          "type": "string"
        }
      ],
      "payable": false,
      "stateMutability": "view",
      "type": "function"
    },
    {
      "inputs": [],
      "payable": false,
      "stateMutability": "nonpayable",
      "type": "constructor"
    },
    {
      "anonymous": false,
      "inputs": [
        {
          "indexed": true,
          "name": "campaignAddress",
          "type": "address"
        }
      ],
      "name": "CampaignCreated",
      "type": "event"
    },
    {
      "anonymous": false,
      "inputs": [
        {
          "indexed": true,
          "name": "operator",
          "type": "address"
        },
        {
          "indexed": false,
          "name": "role",
          "type": "string"
        }
      ],
      "name": "RoleAdded",
      "type": "event"
    },
    {
      "anonymous": false,
      "inputs": [
        {
          "indexed": true,
          "name": "operator",
          "type": "address"
        },
        {
          "indexed": false,
          "name": "role",
          "type": "string"
        }
      ],
      "name": "RoleRemoved",
      "type": "event"
    },
    {
      "constant": false,
      "inputs": [
        {
          "name": "_account",
          "type": "address"
        },
        {
          "name": "_roleName",
          "type": "string"
        }
      ],
      "name": "adminAddRole",
      "outputs": [],
      "payable": false,
      "stateMutability": "nonpayable",
      "type": "function"
    },
    {
      "constant": false,
      "inputs": [
        {
          "name": "_account",
          "type": "address"
        },
        {
          "name": "_roleName",
          "type": "string"
        }
      ],
      "name": "adminRemoveRole",
      "outputs": [],
      "payable": false,
      "stateMutability": "nonpayable",
      "type": "function"
    },
    {
      "constant": true,
      "inputs": [],
      "name": "getNumCampaigns",
      "outputs": [
        {
          "name": "",
          "type": "uint256"
        }
      ],
      "payable": false,
      "stateMutability": "view",
      "type": "function"
    },
    {
      "constant": false,
      "inputs": [
        {
          "name": "title",
          "type": "string"
        },
        {
          "name": "goal",
          "type": "uint256"
        },
        {
          "name": "duration",
          "type": "uint256"
        },
        {
          "name": "description",
          "type": "string"
        },
        {
          "name": "image",
          "type": "string"
        }
      ],
      "name": "createCampaign",
      "outputs": [
        {
          "name": "",
          "type": "address"
        }
      ],
      "payable": false,
      "stateMutability": "nonpayable",
      "type": "function"
    }
  ],
  "bytecode": "0x60806040526000600160006101000a81548160ff021916908315150217905550600160025534801561003057600080fd5b5061007f336040805190810160405280600581526020017f61646d696e000000000000000000000000000000000000000000000000000000815250610084640100000000026401000000009004565b610223565b61010e826000836040518082805190602001908083835b6020831015156100c0578051825260208201915060208101905060208303925061009b565b6001836020036101000a03801982511681845116808217855250505050505090500191505090815260200160405180910390206101c564010000000002611100179091906401000000009004565b8173ffffffffffffffffffffffffffffffffffffffff167fbfec83d64eaa953f2708271a023ab9ee82057f8f3578d548c1a4ba0b5b700489826040518080602001828103825283818151815260200191508051906020019080838360005b8381101561018757808201518184015260208101905061016c565b50505050905090810190601f1680156101b45780820380516001836020036101000a031916815260200191505b509250505060405180910390a25050565b60018260000160008373ffffffffffffffffffffffffffffffffffffffff1673ffffffffffffffffffffffffffffffffffffffff16815260200190815260200160002060006101000a81548160ff0219169083151502179055505050565b61390d80620002336000396000f300608060405260043610620000df576000357c0100000000000000000000000000000000000000000000000000000000900463ffffffff1680630988ca8c14620000e45780630efd4989146200017057806312253a6c146200019e578063141961bc14620001b857806314bfd6d01462000228578063217fe6c6146200029857806324d7806c146200033c5780633f683b6a146200039a5780634b2aafcc14620003cc57806388cee87e1462000518578063b25fa92c14620005a4578063c4bc5da51462000630578063d391014b146200064a578063d9a9bb3e14620006e0575b600080fd5b348015620000f157600080fd5b506200016e600480360381019080803573ffffffffffffffffffffffffffffffffffffffff169060200190929190803590602001908201803590602001908080601f01602080910402602001604051908101604052809392919081815260200183838082843782019150505050505091929192905050506200070e565b005b3480156200017d57600080fd5b506200018862000793565b6040518082815260200191505060405180910390f35b348015620001ab57600080fd5b50620001b662000799565b005b348015620001c557600080fd5b50620001e660048036038101908080359060200190929190505050620007cb565b604051808273ffffffffffffffffffffffffffffffffffffffff1673ffffffffffffffffffffffffffffffffffffffff16815260200191505060405180910390f35b3480156200023557600080fd5b5062000256600480360381019080803590602001909291905050506200080a565b604051808273ffffffffffffffffffffffffffffffffffffffff1673ffffffffffffffffffffffffffffffffffffffff16815260200191505060405180910390f35b348015620002a557600080fd5b5062000322600480360381019080803573ffffffffffffffffffffffffffffffffffffffff169060200190929190803590602001908201803590602001908080601f016020809104026020016040519081016040528093929190818152602001838380828437820191505050505050919291929050505062000849565b604051808215151515815260200191505060405180910390f35b3480156200034957600080fd5b5062000380600480360381019080803573ffffffffffffffffffffffffffffffffffffffff169060200190929190505050620008d4565b604051808215151515815260200191505060405180910390f35b348015620003a757600080fd5b50620003b2620008f4565b604051808215151515815260200191505060405180910390f35b348015620003d957600080fd5b50620004d6600480360381019080803590602001908201803590602001908080601f01602080910402602001604051908101604052809392919081815260200183838082843782019150505050505091929192908035906020019092919080359060200190929190803590602001908201803590602001908080601f0160208091040260200160405190810160405280939291908181526020018383808284378201915050505050509192919290803590602001908201803590602001908080601f016020809104026020016040519081016040528093929190818152602001838380828437820191505050505050919291929050505062000907565b604051808273ffffffffffffffffffffffffffffffffffffffff1673ffffffffffffffffffffffffffffffffffffffff16815260200191505060405180910390f35b3480156200052557600080fd5b50620005a2600480360381019080803573ffffffffffffffffffffffffffffffffffffffff169060200190929190803590602001908201803590602001908080601f016020809104026020016040519081016040528093929190818152602001838380828437820191505050505050919291929050505062000c2d565b005b348015620005b157600080fd5b506200062e600480360381019080803573ffffffffffffffffffffffffffffffffffffffff169060200190929190803590602001908201803590602001908080601f016020809104026020016040519081016040528093929190818152602001838380828437820191505050505050919291929050505062000c91565b005b3480156200063d57600080fd5b506200064862000cf4565b005b3480156200065757600080fd5b506200066262000d27565b6040518080602001828103825283818151815260200191508051906020019080838360005b83811015620006a457808201518184015260208101905062000687565b50505050905090810190601f168015620006d25780820380516001836020036101000a031916815260200191505b509250505060405180910390f35b348015620006ed57600080fd5b50620006f862000d60565b6040518082815260200191505060405180910390f35b6200078f826000836040518082805190602001908083835b6020831015156200074d578051825260208201915060208101905060208303925062000726565b6001836020036101000a038019825116818451168082178552505050505050905001915050908152602001604051809103902062000d6d90919063ffffffff16565b5050565b60025481565b620007a362000d89565b1515620007af57600080fd5b60018060006101000a81548160ff021916908315150217905550565b600581815481101515620007db57fe5b906000526020600020016000915054906101000a900473ffffffffffffffffffffffffffffffffffffffff1681565b6003818154811015156200081a57fe5b906000526020600020016000915054906101000a900473ffffffffffffffffffffffffffffffffffffffff1681565b6000620008cc836000846040518082805190602001908083835b6020831015156200088a578051825260208201915060208101905060208303925062000863565b6001836020036101000a038019825116818451168082178552505050505050905001915050908152602001604051809103902062000dd390919063ffffffff16565b905092915050565b60046020528060005260406000206000915054906101000a900460ff1681565b600160009054906101000a900460ff1681565b600080600160009054906101000a900460ff161515156200092757600080fd5b62000968336040805190810160405280600581526020017f61646d696e00000000000000000000000000000000000000000000000000000081525062000849565b1515156200097557600080fd5b600580549050878787878733306200098c6200115e565b808981526020018060200188815260200187815260200180602001806020018673ffffffffffffffffffffffffffffffffffffffff1673ffffffffffffffffffffffffffffffffffffffff1681526020018573ffffffffffffffffffffffffffffffffffffffff1673ffffffffffffffffffffffffffffffffffffffff16815260200184810384528b818151815260200191508051906020019080838360005b8381101562000a4957808201518184015260208101905062000a2c565b50505050905090810190601f16801562000a775780820380516001836020036101000a031916815260200191505b50848103835288818151815260200191508051906020019080838360005b8381101562000ab257808201518184015260208101905062000a95565b50505050905090810190601f16801562000ae05780820380516001836020036101000a031916815260200191505b50848103825287818151815260200191508051906020019080838360005b8381101562000b1b57808201518184015260208101905062000afe565b50505050905090810190601f16801562000b495780820380516001836020036101000a031916815260200191505b509b505050505050505050505050604051809103906000f08015801562000b74573d6000803e3d6000fd5b50905060058190806001815401808255809150509060018203906000526020600020016000909192909190916101000a81548173ffffffffffffffffffffffffffffffffffffffff021916908373ffffffffffffffffffffffffffffffffffffffff160217905550508073ffffffffffffffffffffffffffffffffffffffff167f07a9c134c6ed9c353773b355c69cbf65e34e3c3820554f5b8e1afdecdfb4029260405160405180910390a28091505095945050505050565b62000c6e336040805190810160405280600581526020017f61646d696e0000000000000000000000000000000000000000000000000000008152506200070e565b62000c7a828262000e2c565b600260008154809291906001900391905055505050565b62000cd2336040805190810160405280600581526020017f61646d696e0000000000000000000000000000000000000000000000000000008152506200070e565b62000cde828262000f67565b6002600081548092919060010191905055505050565b62000cfe62000d89565b151562000d0a57600080fd5b6000600160006101000a81548160ff021916908315150217905550565b6040805190810160405280600581526020017f61646d696e00000000000000000000000000000000000000000000000000000081525081565b6000600580549050905090565b62000d79828262000dd3565b151562000d8557600080fd5b5050565b600062000dcc336040805190810160405280600581526020017f61646d696e0000000000000000000000000000000000000000000000000000008152506200070e565b6001905090565b60008260000160008373ffffffffffffffffffffffffffffffffffffffff1673ffffffffffffffffffffffffffffffffffffffff16815260200190815260200160002060009054906101000a900460ff16905092915050565b62000ead826000836040518082805190602001908083835b60208310151562000e6b578051825260208201915060208101905060208303925062000e44565b6001836020036101000a0380198251168184511680821785525050505050509050019150509081526020016040518091039020620010a290919063ffffffff16565b8173ffffffffffffffffffffffffffffffffffffffff167fd211483f91fc6eff862467f8de606587a30c8fc9981056f051b897a418df803a826040518080602001828103825283818151815260200191508051906020019080838360005b8381101562000f2857808201518184015260208101905062000f0b565b50505050905090810190601f16801562000f565780820380516001836020036101000a031916815260200191505b509250505060405180910390a25050565b62000fe8826000836040518082805190602001908083835b60208310151562000fa6578051825260208201915060208101905060208303925062000f7f565b6001836020036101000a03801982511681845116808217855250505050505090500191505090815260200160405180910390206200110090919063ffffffff16565b8173ffffffffffffffffffffffffffffffffffffffff167fbfec83d64eaa953f2708271a023ab9ee82057f8f3578d548c1a4ba0b5b700489826040518080602001828103825283818151815260200191508051906020019080838360005b838110156200106357808201518184015260208101905062001046565b50505050905090810190601f168015620010915780820380516001836020036101000a031916815260200191505b509250505060405180910390a25050565b60008260000160008373ffffffffffffffffffffffffffffffffffffffff1673ffffffffffffffffffffffffffffffffffffffff16815260200190815260200160002060006101000a81548160ff0219169083151502179055505050565b60018260000160008373ffffffffffffffffffffffffffffffffffffffff1673ffffffffffffffffffffffffffffffffffffffff16815260200190815260200160002060006101000a81548160ff0219169083151502179055505050565b6040516127728062001170833901905600608060405260008060146101000a81548160ff02191690831515021790555060008060156101000a81548160ff021916908360048111156200003d57fe5b021790555060016008556000600960006101000a81548160ff021916908360048111156200006757fe5b02179055503073ffffffffffffffffffffffffffffffffffffffff1631600a553480156200009457600080fd5b50604051620027723803806200277283398101806040528101908080519060200190929190805182019291906020018051906020019092919080519060200190929190805182019291906020018051820192919060200180519060200190929190805190602001909291905050508080806000806101000a81548173ffffffffffffffffffffffffffffffffffffffff021916908373ffffffffffffffffffffffffffffffffffffffff160217905550505087600c8190555086600d908051906020019062000165929190620001fa565b5085600e81905550620151808502600f81905550836010908051906020019062000191929190620001fa565b508260119080519060200190620001aa929190620001fa565b5081601260006101000a81548173ffffffffffffffffffffffffffffffffffffffff021916908373ffffffffffffffffffffffffffffffffffffffff1602179055505050505050505050620002a9565b828054600181600116156101000203166002900490600052602060002090601f016020900481019282601f106200023d57805160ff19168380011785556200026e565b828001600101855582156200026e579182015b828111156200026d57825182559160200191906001019062000250565b5b5090506200027d919062000281565b5090565b620002a691905b80821115620002a257600081600090555060010162000288565b5090565b90565b6124b980620002b96000396000f3006080604052600436106101d8576000357c0100000000000000000000000000000000000000000000000000000000900463ffffffff16806309eef43e146101dd5780630fb5a6b41461023857806312253a6c146102635780631afcf1591461027a5780631cee0700146102b3578063205b19461461032e57806322f3e2d41461038957806339f3027d146103b85780633ccfd60b146103f15780633f683b6a146104085780634019388314610437578063481c6a75146104625780634a79d50c146104b95780635e2c19db1461054957806365325386146105a457806371aac7f9146105cf5780637284e416146105e65780637403c5e514610676578063796b89b9146106a1578063980e7844146106cc578063a0f243b8146106e3578063a69beaba1461073a578063aac083451461076b578063ab45be42146107ca578063aedbf409146107e1578063af640d0f14610838578063b9a5301314610863578063c17c5cf0146108be578063c24a0f8b146108e9578063c4bc5da514610914578063c89f2ce41461092b578063d7bb99ba14610956578063db2e21bc14610960578063e70ac62c14610977578063f3ccaac0146109a2578063f4c9b1fd14610a32578063f81292c114610a6b578063facd493914610a96575b600080fd5b3480156101e957600080fd5b5061021e600480360381019080803573ffffffffffffffffffffffffffffffffffffffff169060200190929190505050610ac1565b604051808215151515815260200191505060405180910390f35b34801561024457600080fd5b5061024d610ae1565b6040518082815260200191505060405180910390f35b34801561026f57600080fd5b50610278610ae7565b005b34801561028657600080fd5b5061028f610b17565b6040518082600481111561029f57fe5b60ff16815260200191505060405180910390f35b3480156102bf57600080fd5b506102de60048036038101908080359060200190929190505050610b2a565b604051808473ffffffffffffffffffffffffffffffffffffffff1673ffffffffffffffffffffffffffffffffffffffff168152602001838152602001828152602001935050505060405180910390f35b34801561033a57600080fd5b5061036f600480360381019080803573ffffffffffffffffffffffffffffffffffffffff169060200190929190505050610b83565b604051808215151515815260200191505060405180910390f35b34801561039557600080fd5b5061039e610ba3565b604051808215151515815260200191505060405180910390f35b3480156103c457600080fd5b506103ef60048036038101908080351515906020019092919080359060200190929190505050610baf565b005b3480156103fd57600080fd5b50610406610ed2565b005b34801561041457600080fd5b5061041d6110d8565b604051808215151515815260200191505060405180910390f35b34801561044357600080fd5b5061044c6110eb565b6040518082815260200191505060405180910390f35b34801561046e57600080fd5b506104776110f1565b604051808273ffffffffffffffffffffffffffffffffffffffff1673ffffffffffffffffffffffffffffffffffffffff16815260200191505060405180910390f35b3480156104c557600080fd5b506104ce611117565b6040518080602001828103825283818151815260200191508051906020019080838360005b8381101561050e5780820151818401526020810190506104f3565b50505050905090810190601f16801561053b5780820380516001836020036101000a031916815260200191505b509250505060405180910390f35b34801561055557600080fd5b5061058a600480360381019080803573ffffffffffffffffffffffffffffffffffffffff1690602001909291905050506111b5565b604051808215151515815260200191505060405180910390f35b3480156105b057600080fd5b506105b96111d5565b6040518082815260200191505060405180910390f35b3480156105db57600080fd5b506105e4611229565b005b3480156105f257600080fd5b506105fb61146c565b6040518080602001828103825283818151815260200191508051906020019080838360005b8381101561063b578082015181840152602081019050610620565b50505050905090810190601f1680156106685780820380516001836020036101000a031916815260200191505b509250505060405180910390f35b34801561068257600080fd5b5061068b61150a565b6040518082815260200191505060405180910390f35b3480156106ad57600080fd5b506106b6611510565b6040518082815260200191505060405180910390f35b3480156106d857600080fd5b506106e1611518565b005b3480156106ef57600080fd5b50610724600480360381019080803573ffffffffffffffffffffffffffffffffffffffff1690602001909291905050506117a4565b6040518082815260200191505060405180910390f35b34801561074657600080fd5b5061076960048036038101908080356000191690602001909291905050506117bc565b005b34801561077757600080fd5b506107ac600480360381019080803573ffffffffffffffffffffffffffffffffffffffff169060200190929190505050611a4e565b60405180826000191660001916815260200191505060405180910390f35b3480156107d657600080fd5b506107df611a66565b005b3480156107ed57600080fd5b506107f6611b1b565b604051808273ffffffffffffffffffffffffffffffffffffffff1673ffffffffffffffffffffffffffffffffffffffff16815260200191505060405180910390f35b34801561084457600080fd5b5061084d611b40565b6040518082815260200191505060405180910390f35b34801561086f57600080fd5b506108a4600480360381019080803573ffffffffffffffffffffffffffffffffffffffff169060200190929190505050611b46565b604051808215151515815260200191505060405180910390f35b3480156108ca57600080fd5b506108d3611b66565b6040518082815260200191505060405180910390f35b3480156108f557600080fd5b506108fe611b6c565b6040518082815260200191505060405180910390f35b34801561092057600080fd5b50610929611b72565b005b34801561093757600080fd5b50610940611ba1565b6040518082815260200191505060405180910390f35b61095e611ba7565b005b34801561096c57600080fd5b50610975611f12565b005b34801561098357600080fd5b5061098c611fb7565b6040518082815260200191505060405180910390f35b3480156109ae57600080fd5b506109b7611fc4565b6040518080602001828103825283818151815260200191508051906020019080838360005b838110156109f75780820151818401526020810190506109dc565b50505050905090810190601f168015610a245780820380516001836020036101000a031916815260200191505b509250505060405180910390f35b348015610a3e57600080fd5b50610a47612062565b60405180826004811115610a5757fe5b60ff16815260200191505060405180910390f35b348015610a7757600080fd5b50610a80612075565b6040518082815260200191505060405180910390f35b348015610aa257600080fd5b50610aab61207b565b6040518082815260200191505060405180910390f35b60066020528060005260406000206000915054906101000a900460ff1681565b600f5481565b610aef612081565b1515610afa57600080fd5b6001600060146101000a81548160ff021916908315150217905550565b600060159054906101000a900460ff1681565b601381815481101515610b3957fe5b90600052602060002090600302016000915090508060000160009054906101000a900473ffffffffffffffffffffffffffffffffffffffff16908060010154908060020154905083565b60156020528060005260406000206000915054906101000a900460ff1681565b6000600b544210905090565b600060149054906101000a900460ff16151515610bcb57600080fd5b60011515600660003373ffffffffffffffffffffffffffffffffffffffff1673ffffffffffffffffffffffffffffffffffffffff16815260200190815260200160002060009054906101000a900460ff161515141515610c2a57600080fd5b60001515600760003373ffffffffffffffffffffffffffffffffffffffff1673ffffffffffffffffffffffffffffffffffffffff16815260200190815260200160002060009054906101000a900460ff161515141515610c8957600080fd5b6001806004811115610c9757fe5b600060159054906101000a900460ff166004811115610cb257fe5b141515610cbe57600080fd5b600560003373ffffffffffffffffffffffffffffffffffffffff1673ffffffffffffffffffffffffffffffffffffffff168152602001908152602001600020546000191683836040516020018083151515157f0100000000000000000000000000000000000000000000000000000000000000028152600101828152602001925050506040516020818303038152906040526040518082805190602001908083835b602083101515610d855780518252602082019150602081019050602083039250610d60565b6001836020036101000a038019825116818451168082178552505050505050905001915050604051809103902060001916141515610dc257600080fd5b8215610ddf57600160008154809291906001019190505550610df2565b6002600081548092919060010191905055505b6004600081548092919060010191905055506001600760003373ffffffffffffffffffffffffffffffffffffffff1673ffffffffffffffffffffffffffffffffffffffff16815260200190815260200160002060006101000a81548160ff0219169083151502179055506002600154101515610e95576002600060156101000a81548160ff02191690836004811115610e8757fe5b0217905550610e9461218c565b5b60028054101515610ecd576003600060156101000a81548160ff02191690836004811115610ebf57fe5b0217905550610ecc6121bd565b5b505050565b600060149054906101000a900460ff16151515610eee57600080fd5b6001600854141515610eff57600080fd5b600260088190555060001515601660003373ffffffffffffffffffffffffffffffffffffffff1673ffffffffffffffffffffffffffffffffffffffff16815260200190815260200160002060009054906101000a900460ff161515141515610f6657600080fd5b60016004811115610f7357fe5b600960009054906101000a900460ff166004811115610f8e57fe5b148015610f9c5750600b5442115b15610ffd57600e54600a54101515610fd7576002600960006101000a81548160ff02191690836004811115610fcd57fe5b0217905550610ffc565b6003600960006101000a81548160ff02191690836004811115610ff657fe5b02179055505b5b6001600481111561100a57fe5b600960009054906101000a900460ff16600481111561102557fe5b11151561103157600080fd5b6002600481111561103e57fe5b600960009054906101000a900460ff16600481111561105957fe5b1415611068576110676121e3565b5b6003600481111561107557fe5b600960009054906101000a900460ff16600481111561109057fe5b14806110c057506004808111156110a357fe5b600960009054906101000a900460ff1660048111156110be57fe5b145b156110ce576110cd6122ff565b5b6001600881905550565b600060149054906101000a900460ff1681565b600e5481565b601260009054906101000a900473ffffffffffffffffffffffffffffffffffffffff1681565b600d8054600181600116156101000203166002900480601f0160208091040260200160405190810160405280929190818152602001828054600181600116156101000203166002900480156111ad5780601f10611182576101008083540402835291602001916111ad565b820191906000526020600020905b81548152906001019060200180831161119057829003601f168201915b505050505081565b60166020528060005260406000206000915054906101000a900460ff1681565b6000806000809150600090505b601380549050811015611221576013818154811015156111fe57fe5b9060005260206000209060030201600101548201915080806001019150506111e2565b819250505090565b600060149054906101000a900460ff1615151561124557600080fd5b601260009054906101000a900473ffffffffffffffffffffffffffffffffffffffff1673ffffffffffffffffffffffffffffffffffffffff163373ffffffffffffffffffffffffffffffffffffffff16148061139457506000809054906101000a900473ffffffffffffffffffffffffffffffffffffffff1673ffffffffffffffffffffffffffffffffffffffff166324d7806c336040518263ffffffff167c0100000000000000000000000000000000000000000000000000000000028152600401808273ffffffffffffffffffffffffffffffffffffffff1673ffffffffffffffffffffffffffffffffffffffff168152602001915050602060405180830381600087803b15801561135857600080fd5b505af115801561136c573d6000803e3d6000fd5b505050506040513d602081101561138257600080fd5b81019080805190602001909291905050505b151561139f57600080fd5b600160048111156113ac57fe5b600960009054906101000a900460ff1660048111156113c757fe5b1480156113d55750600b5442115b1561143657600e54600a54101515611410576002600960006101000a81548160ff0219169083600481111561140657fe5b0217905550611435565b6003600960006101000a81548160ff0219169083600481111561142f57fe5b02179055505b5b6001600481111561144357fe5b600960009054906101000a900460ff16600481111561145e57fe5b11151561146a57600080fd5b565b60108054600181600116156101000203166002900480601f0160208091040260200160405190810160405280929190818152602001828054600181600116156101000203166002900480156115025780601f106114d757610100808354040283529160200191611502565b820191906000526020600020905b8154815290600101906020018083116114e557829003601f168201915b505050505081565b60015481565b600042905090565b600060149054906101000a900460ff1615151561153457600080fd5b601260009054906101000a900473ffffffffffffffffffffffffffffffffffffffff1673ffffffffffffffffffffffffffffffffffffffff163373ffffffffffffffffffffffffffffffffffffffff16148061168357506000809054906101000a900473ffffffffffffffffffffffffffffffffffffffff1673ffffffffffffffffffffffffffffffffffffffff166324d7806c336040518263ffffffff167c0100000000000000000000000000000000000000000000000000000000028152600401808273ffffffffffffffffffffffffffffffffffffffff1673ffffffffffffffffffffffffffffffffffffffff168152602001915050602060405180830381600087803b15801561164757600080fd5b505af115801561165b573d6000803e3d6000fd5b505050506040513d602081101561167157600080fd5b81019080805190602001909291905050505b151561168e57600080fd5b6001600481111561169b57fe5b600960009054906101000a900460ff1660048111156116b657fe5b1480156116c45750600b5442115b1561172557600e54600a541015156116ff576002600960006101000a81548160ff021916908360048111156116f557fe5b0217905550611724565b6003600960006101000a81548160ff0219169083600481111561171e57fe5b02179055505b5b6001600481111561173257fe5b600960009054906101000a900460ff16600481111561174d57fe5b1115151561175a57600080fd5b6004600060156101000a81548160ff0219169083600481111561177957fe5b02179055506004600960006101000a81548160ff0219169083600481111561179d57fe5b0217905550565b60146020528060005260406000206000915090505481565b600060149054906101000a900460ff161515156117d857600080fd5b6000809054906101000a900473ffffffffffffffffffffffffffffffffffffffff1673ffffffffffffffffffffffffffffffffffffffff166324d7806c336040518263ffffffff167c0100000000000000000000000000000000000000000000000000000000028152600401808273ffffffffffffffffffffffffffffffffffffffff1673ffffffffffffffffffffffffffffffffffffffff168152602001915050602060405180830381600087803b15801561189457600080fd5b505af11580156118a8573d6000803e3d6000fd5b505050506040513d60208110156118be57600080fd5b810190808051906020019092919050505015156118da57600080fd5b60008060048111156118e857fe5b600060159054906101000a900460ff16600481111561190357fe5b14151561190f57600080fd5b81600560003373ffffffffffffffffffffffffffffffffffffffff1673ffffffffffffffffffffffffffffffffffffffff168152602001908152602001600020816000191690555060001515600660003373ffffffffffffffffffffffffffffffffffffffff1673ffffffffffffffffffffffffffffffffffffffff16815260200190815260200160002060009054906101000a900460ff1615151415611a1b576003600081548092919060010191905055506001600660003373ffffffffffffffffffffffffffffffffffffffff1673ffffffffffffffffffffffffffffffffffffffff16815260200190815260200160002060006101000a81548160ff0219169083151502179055505b600380541415611a4a576001600060156101000a81548160ff02191690836004811115611a4457fe5b02179055505b5050565b60056020528060005260406000206000915090505481565b600060149054906101000a900460ff16151515611a8257600080fd5b60016004811115611a8f57fe5b600960009054906101000a900460ff166004811115611aaa57fe5b148015611ab85750600b5442115b15611b1957600e54600a54101515611af3576002600960006101000a81548160ff02191690836004811115611ae957fe5b0217905550611b18565b6003600960006101000a81548160ff02191690836004811115611b1257fe5b02179055505b5b565b6000809054906101000a900473ffffffffffffffffffffffffffffffffffffffff1681565b600c5481565b60076020528060005260406000206000915054906101000a900460ff1681565b60035481565b600b5481565b611b7a612081565b1515611b8557600080fd5b60008060146101000a81548160ff021916908315150217905550565b600a5481565b600060149054906101000a900460ff16151515611bc357600080fd5b601260009054906101000a900473ffffffffffffffffffffffffffffffffffffffff1673ffffffffffffffffffffffffffffffffffffffff163373ffffffffffffffffffffffffffffffffffffffff1614151515611c2057600080fd5b60016004811115611c2d57fe5b600960009054906101000a900460ff166004811115611c4857fe5b148015611c565750600b5442115b15611cb757600e54600a54101515611c91576002600960006101000a81548160ff02191690836004811115611c8757fe5b0217905550611cb6565b6003600960006101000a81548160ff02191690836004811115611cb057fe5b02179055505b5b6001806004811115611cc557fe5b600960009054906101000a900460ff166004811115611ce057fe5b141515611cec57600080fd5b600034111515611cfb57600080fd5b600a5434600a5401111515611d0f57600080fd5b601460003373ffffffffffffffffffffffffffffffffffffffff1673ffffffffffffffffffffffffffffffffffffffff1681526020019081526020016000205434601460003373ffffffffffffffffffffffffffffffffffffffff1673ffffffffffffffffffffffffffffffffffffffff1681526020019081526020016000205401111515611d9d57600080fd5b6001601560003373ffffffffffffffffffffffffffffffffffffffff1673ffffffffffffffffffffffffffffffffffffffff16815260200190815260200160002060006101000a81548160ff02191690831515021790555060136060604051908101604052803373ffffffffffffffffffffffffffffffffffffffff168152602001348152602001428152509080600181540180825580915050906001820390600052602060002090600302016000909192909190915060008201518160000160006101000a81548173ffffffffffffffffffffffffffffffffffffffff021916908373ffffffffffffffffffffffffffffffffffffffff160217905550602082015181600101556040820151816002015550505034601460003373ffffffffffffffffffffffffffffffffffffffff1673ffffffffffffffffffffffffffffffffffffffff1681526020019081526020016000206000828254019250508190555034600a6000828254019250508190555050565b600060149054906101000a900460ff161515611f2d57600080fd5b6001600854141515611f3e57600080fd5b600260088190555060001515601660003373ffffffffffffffffffffffffffffffffffffffff1673ffffffffffffffffffffffffffffffffffffffff16815260200190815260200160002060009054906101000a900460ff161515141515611fa557600080fd5b611fad6122ff565b6001600881905550565b6000601380549050905090565b60118054600181600116156101000203166002900480601f01602080910402602001604051908101604052809291908181526020018280546001816001161561010002031660029004801561205a5780601f1061202f5761010080835404028352916020019161205a565b820191906000526020600020905b81548152906001019060200180831161203d57829003601f168201915b505050505081565b600960009054906101000a900460ff1681565b60025481565b60045481565b60008060009054906101000a900473ffffffffffffffffffffffffffffffffffffffff1673ffffffffffffffffffffffffffffffffffffffff166324d7806c336040518263ffffffff167c0100000000000000000000000000000000000000000000000000000000028152600401808273ffffffffffffffffffffffffffffffffffffffff1673ffffffffffffffffffffffffffffffffffffffff168152602001915050602060405180830381600087803b15801561213f57600080fd5b505af1158015612153573d6000803e3d6000fd5b505050506040513d602081101561216957600080fd5b8101908080519060200190929190505050151561218557600080fd5b6001905090565b600f544201600b819055506001600960006101000a81548160ff021916908360048111156121b657fe5b0217905550565b6003600960006101000a81548160ff021916908360048111156121dc57fe5b0217905550565b601260009054906101000a900473ffffffffffffffffffffffffffffffffffffffff1673ffffffffffffffffffffffffffffffffffffffff163373ffffffffffffffffffffffffffffffffffffffff1614151561223f57600080fd5b6001601660003373ffffffffffffffffffffffffffffffffffffffff1673ffffffffffffffffffffffffffffffffffffffff16815260200190815260200160002060006101000a81548160ff0219169083151502179055506000600a819055503373ffffffffffffffffffffffffffffffffffffffff166108fc3073ffffffffffffffffffffffffffffffffffffffff16319081150290604051600060405180830381858888f193505050501580156122fc573d6000803e3d6000fd5b50565b60011515601560003373ffffffffffffffffffffffffffffffffffffffff1673ffffffffffffffffffffffffffffffffffffffff16815260200190815260200160002060009054906101000a900460ff16151514151561235e57600080fd5b6001601660003373ffffffffffffffffffffffffffffffffffffffff1673ffffffffffffffffffffffffffffffffffffffff16815260200190815260200160002060006101000a81548160ff021916908315150217905550601460003373ffffffffffffffffffffffffffffffffffffffff1673ffffffffffffffffffffffffffffffffffffffff16815260200190815260200160002054600a600082825403925050819055503373ffffffffffffffffffffffffffffffffffffffff166108fc601460003373ffffffffffffffffffffffffffffffffffffffff1673ffffffffffffffffffffffffffffffffffffffff168152602001908152602001600020549081150290604051600060405180830381858888f1935050505015801561248a573d6000803e3d6000fd5b505600a165627a7a723058209173c677e99f6b1566ea2a55b717dafd633634dc4605738cd50c64269bb67e230029a165627a7a72305820d83ed1ca1ed12a734127821eb040ba7eb80dcaf775d8b4fd001a1fe290ab50b30029",
  "source": "pragma solidity ^0.4.24;\n\n// import \"./Approvable.sol\";\nimport \"./EmergencyStoppable.sol\";\nimport \"./Campaign.sol\";\n\n\n// Contract Development 1\n// DONE: Timing campaigns\n// DONE: Ending Campaign and Payouts\n// DONE: Manager can cancel Campaign before approved\n// DONE: Rewrite state transition according to solidy state machine pattern\n\n// Contract Developement 2\n// TASK: Implement Circuit Breaker Pattern!\n// TASK: Use a Library\n// TASK: Comment Contracts and Tests\n// TASK: Review All variable/function etc Names\n// TASK: Review All variable/function etc accessibility\n// TASK: Split Contract Files\n// TASK: Write Solidity Tests\n// TASK: Review uints and restrict size if possible\n// DONE: Use a library/Package to advance time in tests\n// TASK: Review Security Best Practices\n// TASK: Review Design Patterns\n// TASK: Error messages for require statements\n// TASK: Campaign Factory Contract\n\n// Frontend\n// TASK: Set up React Project and React Crash Course\n// TASK: Frontend\n// TASK: Events + Listening for them\n\n// Submitable\n// TASK: Packaging and Other Documentation\n// TASK: Make sure it works on Ubuntu\n// TASK: Review Grading Rubric\n// TASK: Release on testnet\n\nimport '../node_modules/zeppelin-solidity/contracts/access/rbac/RBAC.sol';\ncontract EthFundMe is RBAC, EmergencyStoppable {\n\n  /**\n   * A constant role name for indicating admins.\n   */\n  string public constant ROLE_ADMIN = \"admin\";\n  uint public numAdmins = 1;\n\n  /**\n   * @dev modifier to scope access to admins\n   * // reverts\n   */\n  modifier onlyAdmin()\n  {\n    checkRole(msg.sender, ROLE_ADMIN);\n    _;\n  }\n\n  modifier notAdmin()\n  {\n    require(!hasRole(msg.sender, ROLE_ADMIN));\n    _;\n  }\n\n  /**\n   * @dev constructor. Sets msg.sender as admin by default\n   */\n  constructor() public {\n    //FIXME: Can I put a require statement in a contructor? What happens if it fails?\n    // require(_admins.length <= 3);\n    \n    // admins = _admins;\n    // for (uint i = 0; i < admins.length; i++) {\n    //   isAdmin[admins[i]] = true;\n    // }\n\n    addRole(msg.sender, ROLE_ADMIN);\n  }\n\n  /**\n   * @dev add a role to an account\n   * @param _account the account that will have the role\n   * @param _roleName the name of the role\n   */\n  function adminAddRole(address _account, string _roleName)\n    public\n    onlyAdmin\n  {\n    addRole(_account, _roleName);\n    numAdmins++;\n  }\n\n  /**\n   * @dev remove a role from an account\n   * @param _account the account that will no longer have the role\n   * @param _roleName the name of the role\n   */\n  function adminRemoveRole(address _account, string _roleName)\n    public\n    onlyAdmin\n  {\n    removeRole(_account, _roleName);\n    numAdmins--;\n  }\n\n\n// contract EthFundMe is EmergencyStoppable {\n\n  // modifier onlyAdmin() {\n  //   require(isAdmin[msg.sender]);\n  //   _;\n  // }\n\n  /**\n    IMPLEMENT EmergencyStoppable INTERFACE\n\n   */\n    function isAuthorized() internal \n    onlyAdmin\n    returns(bool) \n  {\n    return true;\n  }\n\n  /**\n    EVENTS\n   */\n  event CampaignCreated (\n    address indexed campaignAddress\n  );\n  \n\n  /**\n    ADMINS\n   */\n  address[] public admins;\n  mapping (address=> bool) public isAdmin;\n\n  // TODO: Reimplement this functionality\n  // function getNumAdmins() public view returns (uint) {\n  //   return admins.length;\n  // }\n\n  /**\n    CAMPAIGNS\n  */\n  address[] public campaigns;\n\n  function getNumCampaigns() public view returns (uint) {\n    return campaigns.length;\n  }\n  \n  // modifier notAdmin() {\n  //   require(isAdmin[msg.sender] == false, \"Admins cannot create campaigns\");\n  //   _;\n  // }\n\n  function createCampaign(string title, uint goal, uint duration, string description, string image) public \n    stoppedInEmergency\n    notAdmin\n    returns(address) {\n    Campaign newCampaign = new Campaign(campaigns.length, title, goal, duration, description, image, msg.sender, address(this));\n    campaigns.push(address(newCampaign));\n    emit CampaignCreated(address(newCampaign));\n    return address(newCampaign);\n  }\n\n}\n\n",
  "sourcePath": "/mnt/c/Users/jalal/Github/EthFundMe/contracts/EthFundMe.sol",
  "compiler": {
    "name": "solc",
    "version": "0.4.24+commit.e67f0147.Emscripten.clang"
  },
  "schemaVersion": "2.0.1",
  "updatedAt": "2018-08-16T07:12:46.409Z"
}