{
  "contractName": "EthFundMe",
  "abi": [
    {
      "constant": true,
      "inputs": [
        {
          "name": "_operator",
          "type": "address"
        },
        {
          "name": "_role",
          "type": "string"
        }
      ],
      "name": "checkRole",
      "outputs": [],
      "payable": false,
      "stateMutability": "view",
      "type": "function"
    },
    {
      "constant": true,
      "inputs": [],
      "name": "numAdmins",
      "outputs": [
        {
          "name": "",
          "type": "uint256"
        }
      ],
      "payable": false,
      "stateMutability": "view",
      "type": "function"
    },
    {
      "constant": true,
      "inputs": [
        {
          "name": "",
          "type": "uint256"
        }
      ],
      "name": "campaigns",
      "outputs": [
        {
          "name": "",
          "type": "address"
        }
      ],
      "payable": false,
      "stateMutability": "view",
      "type": "function"
    },
    {
      "constant": true,
      "inputs": [
        {
          "name": "_operator",
          "type": "address"
        },
        {
          "name": "_role",
          "type": "string"
        }
      ],
      "name": "hasRole",
      "outputs": [
        {
          "name": "",
          "type": "bool"
        }
      ],
      "payable": false,
      "stateMutability": "view",
      "type": "function"
    },
    {
      "constant": true,
      "inputs": [
        {
          "name": "_address",
          "type": "address"
        }
      ],
      "name": "isAdmin",
      "outputs": [
        {
          "name": "",
          "type": "bool"
        }
      ],
      "payable": false,
      "stateMutability": "view",
      "type": "function"
    },
    {
      "constant": false,
      "inputs": [
        {
          "name": "_account",
          "type": "address"
        }
      ],
      "name": "addAdminRole",
      "outputs": [],
      "payable": false,
      "stateMutability": "nonpayable",
      "type": "function"
    },
    {
      "constant": true,
      "inputs": [],
      "name": "ROLE_ADMIN",
      "outputs": [
        {
          "name": "",
          "type": "string"
        }
      ],
      "payable": false,
      "stateMutability": "view",
      "type": "function"
    },
    {
      "constant": false,
      "inputs": [
        {
          "name": "_account",
          "type": "address"
        }
      ],
      "name": "removeAdminRole",
      "outputs": [],
      "payable": false,
      "stateMutability": "nonpayable",
      "type": "function"
    },
    {
      "inputs": [],
      "payable": false,
      "stateMutability": "nonpayable",
      "type": "constructor"
    },
    {
      "anonymous": false,
      "inputs": [
        {
          "indexed": true,
          "name": "campaignAddress",
          "type": "address"
        }
      ],
      "name": "CampaignCreated",
      "type": "event"
    },
    {
      "anonymous": false,
      "inputs": [
        {
          "indexed": true,
          "name": "operator",
          "type": "address"
        },
        {
          "indexed": false,
          "name": "role",
          "type": "string"
        }
      ],
      "name": "RoleAdded",
      "type": "event"
    },
    {
      "anonymous": false,
      "inputs": [
        {
          "indexed": true,
          "name": "operator",
          "type": "address"
        },
        {
          "indexed": false,
          "name": "role",
          "type": "string"
        }
      ],
      "name": "RoleRemoved",
      "type": "event"
    },
    {
      "constant": true,
      "inputs": [],
      "name": "getNumCampaigns",
      "outputs": [
        {
          "name": "",
          "type": "uint256"
        }
      ],
      "payable": false,
      "stateMutability": "view",
      "type": "function"
    },
    {
      "constant": false,
      "inputs": [
        {
          "name": "title",
          "type": "string"
        },
        {
          "name": "goal",
          "type": "uint256"
        },
        {
          "name": "duration",
          "type": "uint256"
        },
        {
          "name": "description",
          "type": "string"
        },
        {
          "name": "image",
          "type": "string"
        }
      ],
      "name": "createCampaign",
      "outputs": [
        {
          "name": "",
          "type": "address"
        }
      ],
      "payable": false,
      "stateMutability": "nonpayable",
      "type": "function"
    }
  ],
  "bytecode": "0x60806040526001805534801561001457600080fd5b50610063336040805190810160405280600581526020017f61646d696e000000000000000000000000000000000000000000000000000000815250610068640100000000026401000000009004565b610207565b6100f2826000836040518082805190602001908083835b6020831015156100a4578051825260208201915060208101905060208303925061007f565b6001836020036101000a03801982511681845116808217855250505050505090500191505090815260200160405180910390206101a964010000000002610e84179091906401000000009004565b8173ffffffffffffffffffffffffffffffffffffffff167fbfec83d64eaa953f2708271a023ab9ee82057f8f3578d548c1a4ba0b5b700489826040518080602001828103825283818151815260200191508051906020019080838360005b8381101561016b578082015181840152602081019050610150565b50505050905090810190601f1680156101985780820380516001836020036101000a031916815260200191505b509250505060405180910390a25050565b60018260000160008373ffffffffffffffffffffffffffffffffffffffff1673ffffffffffffffffffffffffffffffffffffffff16815260200190815260200160002060006101000a81548160ff0219169083151502179055505050565b6131ff806102166000396000f300608060405260043610620000af576000357c0100000000000000000000000000000000000000000000000000000000900463ffffffff1680630988ca8c14620000b45780630efd49891462000140578063141961bc146200016e578063217fe6c614620001de57806324d7806c14620002825780634b2aafcc14620002e05780636595171c146200042c578063d391014b1462000472578063d9a9bb3e1462000508578063dccfe3101462000536575b600080fd5b348015620000c157600080fd5b506200013e600480360381019080803573ffffffffffffffffffffffffffffffffffffffff169060200190929190803590602001908201803590602001908080601f01602080910402602001604051908101604052809392919081815260200183838082843782019150505050505091929192905050506200057c565b005b3480156200014d57600080fd5b506200015862000601565b6040518082815260200191505060405180910390f35b3480156200017b57600080fd5b506200019c6004803603810190808035906020019092919050505062000607565b604051808273ffffffffffffffffffffffffffffffffffffffff1673ffffffffffffffffffffffffffffffffffffffff16815260200191505060405180910390f35b348015620001eb57600080fd5b5062000268600480360381019080803573ffffffffffffffffffffffffffffffffffffffff169060200190929190803590602001908201803590602001908080601f016020809104026020016040519081016040528093929190818152602001838380828437820191505050505050919291929050505062000646565b604051808215151515815260200191505060405180910390f35b3480156200028f57600080fd5b50620002c6600480360381019080803573ffffffffffffffffffffffffffffffffffffffff169060200190929190505050620006d1565b604051808215151515815260200191505060405180910390f35b348015620002ed57600080fd5b50620003ea600480360381019080803590602001908201803590602001908080601f01602080910402602001604051908101604052809392919081815260200183838082843782019150505050505091929192908035906020019092919080359060200190929190803590602001908201803590602001908080601f0160208091040260200160405190810160405280939291908181526020018383808284378201915050505050509192919290803590602001908201803590602001908080601f01602080910402602001604051908101604052809392919081815260200183838082843782019150505050505091929192905050506200071b565b604051808273ffffffffffffffffffffffffffffffffffffffff1673ffffffffffffffffffffffffffffffffffffffff16815260200191505060405180910390f35b3480156200043957600080fd5b5062000470600480360381019080803573ffffffffffffffffffffffffffffffffffffffff16906020019092919050505062000a24565b005b3480156200047f57600080fd5b506200048a62000abb565b6040518080602001828103825283818151815260200191508051906020019080838360005b83811015620004cc578082015181840152602081019050620004af565b50505050905090810190601f168015620004fa5780820380516001836020036101000a031916815260200191505b509250505060405180910390f35b3480156200051557600080fd5b506200052062000af4565b6040518082815260200191505060405180910390f35b3480156200054357600080fd5b506200057a600480360381019080803573ffffffffffffffffffffffffffffffffffffffff16906020019092919050505062000b01565b005b620005fd826000836040518082805190602001908083835b602083101515620005bb578051825260208201915060208101905060208303925062000594565b6001836020036101000a038019825116818451168082178552505050505050905001915050908152602001604051809103902062000b9990919063ffffffff16565b5050565b60015481565b6002818154811015156200061757fe5b906000526020600020016000915054906101000a900473ffffffffffffffffffffffffffffffffffffffff1681565b6000620006c9836000846040518082805190602001908083835b60208310151562000687578051825260208201915060208101905060208303925062000660565b6001836020036101000a038019825116818451168082178552505050505050905001915050908152602001604051809103902062000bb590919063ffffffff16565b905092915050565b600062000714826040805190810160405280600581526020017f61646d696e00000000000000000000000000000000000000000000000000000081525062000646565b9050919050565b6000806200075f336040805190810160405280600581526020017f61646d696e00000000000000000000000000000000000000000000000000000081525062000646565b1515156200076c57600080fd5b600280549050878787878733306200078362000f40565b808981526020018060200188815260200187815260200180602001806020018673ffffffffffffffffffffffffffffffffffffffff1673ffffffffffffffffffffffffffffffffffffffff1681526020018573ffffffffffffffffffffffffffffffffffffffff1673ffffffffffffffffffffffffffffffffffffffff16815260200184810384528b818151815260200191508051906020019080838360005b838110156200084057808201518184015260208101905062000823565b50505050905090810190601f1680156200086e5780820380516001836020036101000a031916815260200191505b50848103835288818151815260200191508051906020019080838360005b83811015620008a95780820151818401526020810190506200088c565b50505050905090810190601f168015620008d75780820380516001836020036101000a031916815260200191505b50848103825287818151815260200191508051906020019080838360005b8381101562000912578082015181840152602081019050620008f5565b50505050905090810190601f168015620009405780820380516001836020036101000a031916815260200191505b509b505050505050505050505050604051809103906000f0801580156200096b573d6000803e3d6000fd5b50905060028190806001815401808255809150509060018203906000526020600020016000909192909190916101000a81548173ffffffffffffffffffffffffffffffffffffffff021916908373ffffffffffffffffffffffffffffffffffffffff160217905550508073ffffffffffffffffffffffffffffffffffffffff167f07a9c134c6ed9c353773b355c69cbf65e34e3c3820554f5b8e1afdecdfb4029260405160405180910390a28091505095945050505050565b62000a65336040805190810160405280600581526020017f61646d696e0000000000000000000000000000000000000000000000000000008152506200057c565b62000aa6816040805190810160405280600581526020017f61646d696e00000000000000000000000000000000000000000000000000000081525062000c0e565b60016000815480929190600101919050555050565b6040805190810160405280600581526020017f61646d696e00000000000000000000000000000000000000000000000000000081525081565b6000600280549050905090565b62000b42336040805190810160405280600581526020017f61646d696e0000000000000000000000000000000000000000000000000000008152506200057c565b62000b83816040805190810160405280600581526020017f61646d696e00000000000000000000000000000000000000000000000000000081525062000d49565b6001600081548092919060019003919050555050565b62000ba5828262000bb5565b151562000bb157600080fd5b5050565b60008260000160008373ffffffffffffffffffffffffffffffffffffffff1673ffffffffffffffffffffffffffffffffffffffff16815260200190815260200160002060009054906101000a900460ff16905092915050565b62000c8f826000836040518082805190602001908083835b60208310151562000c4d578051825260208201915060208101905060208303925062000c26565b6001836020036101000a038019825116818451168082178552505050505050905001915050908152602001604051809103902062000e8490919063ffffffff16565b8173ffffffffffffffffffffffffffffffffffffffff167fbfec83d64eaa953f2708271a023ab9ee82057f8f3578d548c1a4ba0b5b700489826040518080602001828103825283818151815260200191508051906020019080838360005b8381101562000d0a57808201518184015260208101905062000ced565b50505050905090810190601f16801562000d385780820380516001836020036101000a031916815260200191505b509250505060405180910390a25050565b62000dca826000836040518082805190602001908083835b60208310151562000d88578051825260208201915060208101905060208303925062000d61565b6001836020036101000a038019825116818451168082178552505050505050905001915050908152602001604051809103902062000ee290919063ffffffff16565b8173ffffffffffffffffffffffffffffffffffffffff167fd211483f91fc6eff862467f8de606587a30c8fc9981056f051b897a418df803a826040518080602001828103825283818151815260200191508051906020019080838360005b8381101562000e4557808201518184015260208101905062000e28565b50505050905090810190601f16801562000e735780820380516001836020036101000a031916815260200191505b509250505060405180910390a25050565b60018260000160008373ffffffffffffffffffffffffffffffffffffffff1673ffffffffffffffffffffffffffffffffffffffff16815260200190815260200160002060006101000a81548160ff0219169083151502179055505050565b60008260000160008373ffffffffffffffffffffffffffffffffffffffff1673ffffffffffffffffffffffffffffffffffffffff16815260200190815260200160002060006101000a81548160ff0219169083151502179055505050565b6040516122828062000f52833901905600608060405260016000556000600160006101000a81548160ff021916908360048111156200002957fe5b02179055506000600960146101000a81548160ff021916908360048111156200004e57fe5b02179055503073ffffffffffffffffffffffffffffffffffffffff1631600a553480156200007b57600080fd5b506040516200228238038062002282833981018060405281019080805190602001909291908051820192919060200180519060200190929190805190602001909291908051820192919060200180518201929190602001805190602001909291908051906020019092919050505087600c8190555086600d908051906020019062000108929190620001de565b5085600e81905550620151808502600f81905550836010908051906020019062000134929190620001de565b5082601190805190602001906200014d929190620001de565b5081601260006101000a81548173ffffffffffffffffffffffffffffffffffffffff021916908373ffffffffffffffffffffffffffffffffffffffff16021790555080600960006101000a81548173ffffffffffffffffffffffffffffffffffffffff021916908373ffffffffffffffffffffffffffffffffffffffff16021790555050505050505050506200028d565b828054600181600116156101000203166002900490600052602060002090601f016020900481019282601f106200022157805160ff191683800117855562000252565b8280016001018555821562000252579182015b828111156200025157825182559160200191906001019062000234565b5b50905062000261919062000265565b5090565b6200028a91905b80821115620002865760008160009055506001016200026c565b5090565b90565b611fe5806200029d6000396000f3006080604052600436106101b7576000357c0100000000000000000000000000000000000000000000000000000000900463ffffffff16806309eef43e146101bc5780630fb5a6b4146102175780631afcf159146102425780631cee07001461027b578063205b1946146102f657806322f3e2d41461035157806339f3027d146103805780633ccfd60b146103b957806340193883146103d0578063481c6a75146103fb5780634a79d50c146104525780635e2c19db146104e2578063653253861461053d57806371aac7f9146105685780637284e4161461057f5780637403c5e51461060f578063796b89b91461063a578063980e784414610665578063a0f243b81461067c578063a69beaba146106d3578063aac0834514610704578063ab45be4214610763578063aedbf4091461077a578063af640d0f146107d1578063b9a53013146107fc578063c17c5cf014610857578063c24a0f8b14610882578063c89f2ce4146108ad578063d7bb99ba146108d8578063db2e21bc146108e2578063e70ac62c146108f9578063f3ccaac014610924578063f4c9b1fd146109b4578063f81292c1146109ed578063facd493914610a18575b600080fd5b3480156101c857600080fd5b506101fd600480360381019080803573ffffffffffffffffffffffffffffffffffffffff169060200190929190505050610a43565b604051808215151515815260200191505060405180910390f35b34801561022357600080fd5b5061022c610a63565b6040518082815260200191505060405180910390f35b34801561024e57600080fd5b50610257610a69565b6040518082600481111561026757fe5b60ff16815260200191505060405180910390f35b34801561028757600080fd5b506102a660048036038101908080359060200190929190505050610a7c565b604051808473ffffffffffffffffffffffffffffffffffffffff1673ffffffffffffffffffffffffffffffffffffffff168152602001838152602001828152602001935050505060405180910390f35b34801561030257600080fd5b50610337600480360381019080803573ffffffffffffffffffffffffffffffffffffffff169060200190929190505050610ad5565b604051808215151515815260200191505060405180910390f35b34801561035d57600080fd5b50610366610af5565b604051808215151515815260200191505060405180910390f35b34801561038c57600080fd5b506103b760048036038101908080351515906020019092919080359060200190929190505050610b01565b005b3480156103c557600080fd5b506103ce610e08565b005b3480156103dc57600080fd5b506103e5610ff2565b6040518082815260200191505060405180910390f35b34801561040757600080fd5b50610410610ff8565b604051808273ffffffffffffffffffffffffffffffffffffffff1673ffffffffffffffffffffffffffffffffffffffff16815260200191505060405180910390f35b34801561045e57600080fd5b5061046761101e565b6040518080602001828103825283818151815260200191508051906020019080838360005b838110156104a757808201518184015260208101905061048c565b50505050905090810190601f1680156104d45780820380516001836020036101000a031916815260200191505b509250505060405180910390f35b3480156104ee57600080fd5b50610523600480360381019080803573ffffffffffffffffffffffffffffffffffffffff1690602001909291905050506110bc565b604051808215151515815260200191505060405180910390f35b34801561054957600080fd5b506105526110dc565b6040518082815260200191505060405180910390f35b34801561057457600080fd5b5061057d611130565b005b34801561058b57600080fd5b50610594611259565b6040518080602001828103825283818151815260200191508051906020019080838360005b838110156105d45780820151818401526020810190506105b9565b50505050905090810190601f1680156106015780820380516001836020036101000a031916815260200191505b509250505060405180910390f35b34801561061b57600080fd5b506106246112f7565b6040518082815260200191505060405180910390f35b34801561064657600080fd5b5061064f6112fd565b6040518082815260200191505060405180910390f35b34801561067157600080fd5b5061067a611305565b005b34801561068857600080fd5b506106bd600480360381019080803573ffffffffffffffffffffffffffffffffffffffff169060200190929190505050611477565b6040518082815260200191505060405180910390f35b3480156106df57600080fd5b50610702600480360381019080803560001916906020019092919050505061148f565b005b34801561071057600080fd5b50610745600480360381019080803573ffffffffffffffffffffffffffffffffffffffff169060200190929190505050611706565b60405180826000191660001916815260200191505060405180910390f35b34801561076f57600080fd5b5061077861171e565b005b34801561078657600080fd5b5061078f6117b7565b604051808273ffffffffffffffffffffffffffffffffffffffff1673ffffffffffffffffffffffffffffffffffffffff16815260200191505060405180910390f35b3480156107dd57600080fd5b506107e66117dd565b6040518082815260200191505060405180910390f35b34801561080857600080fd5b5061083d600480360381019080803573ffffffffffffffffffffffffffffffffffffffff1690602001909291905050506117e3565b604051808215151515815260200191505060405180910390f35b34801561086357600080fd5b5061086c611803565b6040518082815260200191505060405180910390f35b34801561088e57600080fd5b50610897611809565b6040518082815260200191505060405180910390f35b3480156108b957600080fd5b506108c261180f565b6040518082815260200191505060405180910390f35b6108e0611815565b005b3480156108ee57600080fd5b506108f7611b64565b005b34801561090557600080fd5b5061090e611bee565b6040518082815260200191505060405180910390f35b34801561093057600080fd5b50610939611bfb565b6040518080602001828103825283818151815260200191508051906020019080838360005b8381101561097957808201518184015260208101905061095e565b50505050905090810190601f1680156109a65780820380516001836020036101000a031916815260200191505b509250505060405180910390f35b3480156109c057600080fd5b506109c9611c99565b604051808260048111156109d957fe5b60ff16815260200191505060405180910390f35b3480156109f957600080fd5b50610a02611cac565b6040518082815260200191505060405180910390f35b348015610a2457600080fd5b50610a2d611cb2565b6040518082815260200191505060405180910390f35b60076020528060005260406000206000915054906101000a900460ff1681565b600f5481565b600160009054906101000a900460ff1681565b601381815481101515610a8b57fe5b90600052602060002090600302016000915090508060000160009054906101000a900473ffffffffffffffffffffffffffffffffffffffff16908060010154908060020154905083565b60156020528060005260406000206000915054906101000a900460ff1681565b6000600b544210905090565b60011515600760003373ffffffffffffffffffffffffffffffffffffffff1673ffffffffffffffffffffffffffffffffffffffff16815260200190815260200160002060009054906101000a900460ff161515141515610b6057600080fd5b60001515600860003373ffffffffffffffffffffffffffffffffffffffff1673ffffffffffffffffffffffffffffffffffffffff16815260200190815260200160002060009054906101000a900460ff161515141515610bbf57600080fd5b6001806004811115610bcd57fe5b600160009054906101000a900460ff166004811115610be857fe5b141515610bf457600080fd5b600660003373ffffffffffffffffffffffffffffffffffffffff1673ffffffffffffffffffffffffffffffffffffffff168152602001908152602001600020546000191683836040516020018083151515157f0100000000000000000000000000000000000000000000000000000000000000028152600101828152602001925050506040516020818303038152906040526040518082805190602001908083835b602083101515610cbb5780518252602082019150602081019050602083039250610c96565b6001836020036101000a038019825116818451168082178552505050505050905001915050604051809103902060001916141515610cf857600080fd5b8215610d1557600260008154809291906001019190505550610d28565b6003600081548092919060010191905055505b6005600081548092919060010191905055506001600860003373ffffffffffffffffffffffffffffffffffffffff1673ffffffffffffffffffffffffffffffffffffffff16815260200190815260200160002060006101000a81548160ff02191690831515021790555060028054101515610dca576002600160006101000a81548160ff02191690836004811115610dbc57fe5b0217905550610dc9611cb8565b5b6002600354101515610e03576003600160006101000a81548160ff02191690836004811115610df557fe5b0217905550610e02611ce9565b5b505050565b6001600054141515610e1957600080fd5b600260008190555060001515601660003373ffffffffffffffffffffffffffffffffffffffff1673ffffffffffffffffffffffffffffffffffffffff16815260200190815260200160002060009054906101000a900460ff161515141515610e8057600080fd5b60016004811115610e8d57fe5b600960149054906101000a900460ff166004811115610ea857fe5b148015610eb65750600b5442115b15610f1757600e54600a54101515610ef1576002600960146101000a81548160ff02191690836004811115610ee757fe5b0217905550610f16565b6003600960146101000a81548160ff02191690836004811115610f1057fe5b02179055505b5b60016004811115610f2457fe5b600960149054906101000a900460ff166004811115610f3f57fe5b111515610f4b57600080fd5b60026004811115610f5857fe5b600960149054906101000a900460ff166004811115610f7357fe5b1415610f8257610f81611d0f565b5b60036004811115610f8f57fe5b600960149054906101000a900460ff166004811115610faa57fe5b1480610fda5750600480811115610fbd57fe5b600960149054906101000a900460ff166004811115610fd857fe5b145b15610fe857610fe7611e2b565b5b6001600081905550565b600e5481565b601260009054906101000a900473ffffffffffffffffffffffffffffffffffffffff1681565b600d8054600181600116156101000203166002900480601f0160208091040260200160405190810160405280929190818152602001828054600181600116156101000203166002900480156110b45780601f10611089576101008083540402835291602001916110b4565b820191906000526020600020905b81548152906001019060200180831161109757829003601f168201915b505050505081565b60166020528060005260406000206000915054906101000a900460ff1681565b6000806000809150600090505b6013805490508110156111285760138181548110151561110557fe5b9060005260206000209060030201600101548201915080806001019150506110e9565b819250505090565b601260009054906101000a900473ffffffffffffffffffffffffffffffffffffffff1673ffffffffffffffffffffffffffffffffffffffff163373ffffffffffffffffffffffffffffffffffffffff1614151561118c57600080fd5b6001600481111561119957fe5b600960149054906101000a900460ff1660048111156111b457fe5b1480156111c25750600b5442115b1561122357600e54600a541015156111fd576002600960146101000a81548160ff021916908360048111156111f357fe5b0217905550611222565b6003600960146101000a81548160ff0219169083600481111561121c57fe5b02179055505b5b6001600481111561123057fe5b600960149054906101000a900460ff16600481111561124b57fe5b11151561125757600080fd5b565b60108054600181600116156101000203166002900480601f0160208091040260200160405190810160405280929190818152602001828054600181600116156101000203166002900480156112ef5780601f106112c4576101008083540402835291602001916112ef565b820191906000526020600020905b8154815290600101906020018083116112d257829003601f168201915b505050505081565b60025481565b600042905090565b601260009054906101000a900473ffffffffffffffffffffffffffffffffffffffff1673ffffffffffffffffffffffffffffffffffffffff163373ffffffffffffffffffffffffffffffffffffffff1614151561136157600080fd5b6001600481111561136e57fe5b600960149054906101000a900460ff16600481111561138957fe5b1480156113975750600b5442115b156113f857600e54600a541015156113d2576002600960146101000a81548160ff021916908360048111156113c857fe5b02179055506113f7565b6003600960146101000a81548160ff021916908360048111156113f157fe5b02179055505b5b6001600481111561140557fe5b600960149054906101000a900460ff16600481111561142057fe5b1115151561142d57600080fd5b6004600160006101000a81548160ff0219169083600481111561144c57fe5b02179055506004600960146101000a81548160ff0219169083600481111561147057fe5b0217905550565b60146020528060005260406000206000915090505481565b600960009054906101000a900473ffffffffffffffffffffffffffffffffffffffff1673ffffffffffffffffffffffffffffffffffffffff166324d7806c336040518263ffffffff167c0100000000000000000000000000000000000000000000000000000000028152600401808273ffffffffffffffffffffffffffffffffffffffff1673ffffffffffffffffffffffffffffffffffffffff168152602001915050602060405180830381600087803b15801561154c57600080fd5b505af1158015611560573d6000803e3d6000fd5b505050506040513d602081101561157657600080fd5b8101908080519060200190929190505050151561159257600080fd5b60008060048111156115a057fe5b600160009054906101000a900460ff1660048111156115bb57fe5b1415156115c757600080fd5b81600660003373ffffffffffffffffffffffffffffffffffffffff1673ffffffffffffffffffffffffffffffffffffffff168152602001908152602001600020816000191690555060001515600760003373ffffffffffffffffffffffffffffffffffffffff1673ffffffffffffffffffffffffffffffffffffffff16815260200190815260200160002060009054906101000a900460ff16151514156116d3576004600081548092919060010191905055506001600760003373ffffffffffffffffffffffffffffffffffffffff1673ffffffffffffffffffffffffffffffffffffffff16815260200190815260200160002060006101000a81548160ff0219169083151502179055505b600360045414156117025760018060006101000a81548160ff021916908360048111156116fc57fe5b02179055505b5050565b60066020528060005260406000206000915090505481565b6001600481111561172b57fe5b600960149054906101000a900460ff16600481111561174657fe5b1480156117545750600b5442115b156117b557600e54600a5410151561178f576002600960146101000a81548160ff0219169083600481111561178557fe5b02179055506117b4565b6003600960146101000a81548160ff021916908360048111156117ae57fe5b02179055505b5b565b600960009054906101000a900473ffffffffffffffffffffffffffffffffffffffff1681565b600c5481565b60086020528060005260406000206000915054906101000a900460ff1681565b60045481565b600b5481565b600a5481565b601260009054906101000a900473ffffffffffffffffffffffffffffffffffffffff1673ffffffffffffffffffffffffffffffffffffffff163373ffffffffffffffffffffffffffffffffffffffff161415151561187257600080fd5b6001600481111561187f57fe5b600960149054906101000a900460ff16600481111561189a57fe5b1480156118a85750600b5442115b1561190957600e54600a541015156118e3576002600960146101000a81548160ff021916908360048111156118d957fe5b0217905550611908565b6003600960146101000a81548160ff0219169083600481111561190257fe5b02179055505b5b600180600481111561191757fe5b600960149054906101000a900460ff16600481111561193257fe5b14151561193e57600080fd5b60003411151561194d57600080fd5b600a5434600a540111151561196157600080fd5b601460003373ffffffffffffffffffffffffffffffffffffffff1673ffffffffffffffffffffffffffffffffffffffff1681526020019081526020016000205434601460003373ffffffffffffffffffffffffffffffffffffffff1673ffffffffffffffffffffffffffffffffffffffff16815260200190815260200160002054011115156119ef57600080fd5b6001601560003373ffffffffffffffffffffffffffffffffffffffff1673ffffffffffffffffffffffffffffffffffffffff16815260200190815260200160002060006101000a81548160ff02191690831515021790555060136060604051908101604052803373ffffffffffffffffffffffffffffffffffffffff168152602001348152602001428152509080600181540180825580915050906001820390600052602060002090600302016000909192909190915060008201518160000160006101000a81548173ffffffffffffffffffffffffffffffffffffffff021916908373ffffffffffffffffffffffffffffffffffffffff160217905550602082015181600101556040820151816002015550505034601460003373ffffffffffffffffffffffffffffffffffffffff1673ffffffffffffffffffffffffffffffffffffffff1681526020019081526020016000206000828254019250508190555034600a6000828254019250508190555050565b6001600054141515611b7557600080fd5b600260008190555060001515601660003373ffffffffffffffffffffffffffffffffffffffff1673ffffffffffffffffffffffffffffffffffffffff16815260200190815260200160002060009054906101000a900460ff161515141515611bdc57600080fd5b611be4611e2b565b6001600081905550565b6000601380549050905090565b60118054600181600116156101000203166002900480601f016020809104026020016040519081016040528092919081815260200182805460018160011615610100020316600290048015611c915780601f10611c6657610100808354040283529160200191611c91565b820191906000526020600020905b815481529060010190602001808311611c7457829003601f168201915b505050505081565b600960149054906101000a900460ff1681565b60035481565b60055481565b600f544201600b819055506001600960146101000a81548160ff02191690836004811115611ce257fe5b0217905550565b6003600960146101000a81548160ff02191690836004811115611d0857fe5b0217905550565b601260009054906101000a900473ffffffffffffffffffffffffffffffffffffffff1673ffffffffffffffffffffffffffffffffffffffff163373ffffffffffffffffffffffffffffffffffffffff16141515611d6b57600080fd5b6001601660003373ffffffffffffffffffffffffffffffffffffffff1673ffffffffffffffffffffffffffffffffffffffff16815260200190815260200160002060006101000a81548160ff0219169083151502179055506000600a819055503373ffffffffffffffffffffffffffffffffffffffff166108fc3073ffffffffffffffffffffffffffffffffffffffff16319081150290604051600060405180830381858888f19350505050158015611e28573d6000803e3d6000fd5b50565b60011515601560003373ffffffffffffffffffffffffffffffffffffffff1673ffffffffffffffffffffffffffffffffffffffff16815260200190815260200160002060009054906101000a900460ff161515141515611e8a57600080fd5b6001601660003373ffffffffffffffffffffffffffffffffffffffff1673ffffffffffffffffffffffffffffffffffffffff16815260200190815260200160002060006101000a81548160ff021916908315150217905550601460003373ffffffffffffffffffffffffffffffffffffffff1673ffffffffffffffffffffffffffffffffffffffff16815260200190815260200160002054600a600082825403925050819055503373ffffffffffffffffffffffffffffffffffffffff166108fc601460003373ffffffffffffffffffffffffffffffffffffffff1673ffffffffffffffffffffffffffffffffffffffff168152602001908152602001600020549081150290604051600060405180830381858888f19350505050158015611fb6573d6000803e3d6000fd5b505600a165627a7a7230582070cbcb94b6561a13381ab1b370fa3ec82a8abef1784d4d78a26aaa5cb0799f000029a165627a7a72305820a4f656a48cba5803383e62f0e486a261ebc8bd9cfe6e481f8e4415d4666265800029",
  "source": "// Contract Development 1\n// DONE: Timing campaigns\n// DONE: Ending Campaign and Payouts\n// DONE: Manager can cancel Campaign before approved\n// DONE: Rewrite state transition according to solidy state machine pattern\n\n// Contract Developement 2\n// DONE: Implement Circuit Breaker Pattern!\n// TASK: Use a Library\n  // -- Change tests to use new admin style (they must add admins)\n  // -- setup script must add admins\n  // -- reveal logic must check num admins and take majority\n  // -- UI for stopping efm\n  // -- UI for adding admins\n  // -- Make Administerable/Administrated a super class of efm and campaign and put rbac stuff in it\n// TASK: Comment Contracts and Tests\n// TASK: Review All variable/function etc Names\n// TASK: Review All variable/function etc accessibility\n// TASK: Split Contract Files\n// TASK: Write Solidity Tests\n// TASK: Review uints and restrict size if possible (at least make them uint256)\n// DONE: Use a library/Package to advance time in tests\n// TASK: Review Security Best Practices - writeup\n// TASK: Review Design Patterns - writeup\n// TASK: Error messages for require statements\n// TASK: Campaign Factory Contract\n\n// Frontend\n// DONE: Set up React Project and React Crash Course\n// DONE: Frontend\n// TASK: Events + Listening for them\n  // -- Check events in tests too\n\n// Submitable\n// TASK: Packaging and Other Documentation\n// TASK: Make sure it works on Ubuntu\n// TASK: Review Grading Rubric\n// TASK: Release on testnet\n\npragma solidity ^0.4.24;\n\nimport \"./Administrated.sol\";\nimport \"./EmergencyStoppable.sol\";\nimport \"./Campaign.sol\";\n\ncontract EthFundMe is Administrated {\n\n  /**\n    Implement EmergencyStoppable Interface\n   */\n  function isAuthorized() internal \n    returns(bool)\n  {\n    return isAdmin(msg.sender);\n  }\n  \n  constructor() public {\n  }\n\n  /**\n    EVENTS\n   */\n  event CampaignCreated (\n    address indexed campaignAddress\n  );\n\n  /**\n    CAMPAIGNS\n  */\n  address[] public campaigns;\n\n  function getNumCampaigns() public view returns (uint) {\n    return campaigns.length;\n  }\n  \n  function createCampaign(string title, uint goal, uint duration, string description, string image) public \n    // stoppedInEmergency\n    notAdmin\n    returns(address) {\n    Campaign newCampaign = new Campaign(campaigns.length, title, goal, duration, description, image, msg.sender, address(this));\n    campaigns.push(address(newCampaign));\n    emit CampaignCreated(address(newCampaign));\n    return address(newCampaign);\n  }\n\n}\n\n",
  "sourcePath": "C:\\Users\\jalal\\GitHub\\EthFundMe\\contracts\\EthFundMe.sol",
  "compiler": {
    "name": "solc",
    "version": "0.4.24+commit.e67f0147.Emscripten.clang"
  },
  "schemaVersion": "2.0.1",
  "updatedAt": "2018-08-16T15:45:04.423Z"
}