{
  "contractName": "EthFundMe",
  "abi": [
    {
      "constant": true,
      "inputs": [
        {
          "name": "",
          "type": "uint256"
        }
      ],
      "name": "campaigns",
      "outputs": [
        {
          "name": "",
          "type": "address"
        }
      ],
      "payable": false,
      "stateMutability": "view",
      "type": "function"
    },
    {
      "constant": true,
      "inputs": [
        {
          "name": "",
          "type": "uint256"
        }
      ],
      "name": "admins",
      "outputs": [
        {
          "name": "",
          "type": "address"
        }
      ],
      "payable": false,
      "stateMutability": "view",
      "type": "function"
    },
    {
      "constant": true,
      "inputs": [
        {
          "name": "",
          "type": "address"
        }
      ],
      "name": "isAdmin",
      "outputs": [
        {
          "name": "",
          "type": "bool"
        }
      ],
      "payable": false,
      "stateMutability": "view",
      "type": "function"
    },
    {
      "inputs": [
        {
          "name": "_admins",
          "type": "address[]"
        }
      ],
      "payable": false,
      "stateMutability": "nonpayable",
      "type": "constructor"
    },
    {
      "anonymous": false,
      "inputs": [
        {
          "indexed": true,
          "name": "campaignAddress",
          "type": "address"
        }
      ],
      "name": "CampaignCreated",
      "type": "event"
    },
    {
      "constant": true,
      "inputs": [],
      "name": "getNumAdmins",
      "outputs": [
        {
          "name": "",
          "type": "uint256"
        }
      ],
      "payable": false,
      "stateMutability": "view",
      "type": "function"
    },
    {
      "constant": true,
      "inputs": [],
      "name": "getNumCampaigns",
      "outputs": [
        {
          "name": "",
          "type": "uint256"
        }
      ],
      "payable": false,
      "stateMutability": "view",
      "type": "function"
    },
    {
      "constant": false,
      "inputs": [
        {
          "name": "title",
          "type": "string"
        },
        {
          "name": "goal",
          "type": "uint256"
        },
        {
          "name": "duration",
          "type": "uint256"
        },
        {
          "name": "description",
          "type": "string"
        },
        {
          "name": "image",
          "type": "string"
        }
      ],
      "name": "createCampaign",
      "outputs": [
        {
          "name": "",
          "type": "address"
        }
      ],
      "payable": false,
      "stateMutability": "nonpayable",
      "type": "function"
    }
  ],
  "bytecode": "0x608060405234801561001057600080fd5b50604051613172380380613172833981018060405281019080805182019291905050506000600382511115151561004657600080fd5b816000908051906020019061005c929190610112565b50600090505b60008054905081101561010b576001806000808481548110151561008257fe5b9060005260206000200160009054906101000a900473ffffffffffffffffffffffffffffffffffffffff1673ffffffffffffffffffffffffffffffffffffffff1673ffffffffffffffffffffffffffffffffffffffff16815260200190815260200160002060006101000a81548160ff0219169083151502179055508080600101915050610062565b50506101df565b82805482825590600052602060002090810192821561018b579160200282015b8281111561018a5782518260006101000a81548173ffffffffffffffffffffffffffffffffffffffff021916908373ffffffffffffffffffffffffffffffffffffffff16021790555091602001919060010190610132565b5b509050610198919061019c565b5090565b6101dc91905b808211156101d857600081816101000a81549073ffffffffffffffffffffffffffffffffffffffff0219169055506001016101a2565b5090565b90565b612f84806101ee6000396000f300608060405260043610610078576000357c0100000000000000000000000000000000000000000000000000000000900463ffffffff168063141961bc1461007d57806314bfd6d0146100ea57806324d7806c146101575780634b2aafcc146101b2578063581cb2dc146102fb578063d9a9bb3e14610326575b600080fd5b34801561008957600080fd5b506100a860048036038101908080359060200190929190505050610351565b604051808273ffffffffffffffffffffffffffffffffffffffff1673ffffffffffffffffffffffffffffffffffffffff16815260200191505060405180910390f35b3480156100f657600080fd5b506101156004803603810190808035906020019092919050505061038f565b604051808273ffffffffffffffffffffffffffffffffffffffff1673ffffffffffffffffffffffffffffffffffffffff16815260200191505060405180910390f35b34801561016357600080fd5b50610198600480360381019080803573ffffffffffffffffffffffffffffffffffffffff1690602001909291905050506103cd565b604051808215151515815260200191505060405180910390f35b3480156101be57600080fd5b506102b9600480360381019080803590602001908201803590602001908080601f01602080910402602001604051908101604052809392919081815260200183838082843782019150505050505091929192908035906020019092919080359060200190929190803590602001908201803590602001908080601f0160208091040260200160405190810160405280939291908181526020018383808284378201915050505050509192919290803590602001908201803590602001908080601f01602080910402602001604051908101604052809392919081815260200183838082843782019150505050505091929192905050506103ed565b604051808273ffffffffffffffffffffffffffffffffffffffff1673ffffffffffffffffffffffffffffffffffffffff16815260200191505060405180910390f35b34801561030757600080fd5b50610310610764565b6040518082815260200191505060405180910390f35b34801561033257600080fd5b5061033b610770565b6040518082815260200191505060405180910390f35b60028181548110151561036057fe5b906000526020600020016000915054906101000a900473ffffffffffffffffffffffffffffffffffffffff1681565b60008181548110151561039e57fe5b906000526020600020016000915054906101000a900473ffffffffffffffffffffffffffffffffffffffff1681565b60016020528060005260406000206000915054906101000a900460ff1681565b60008060001515600160003373ffffffffffffffffffffffffffffffffffffffff1673ffffffffffffffffffffffffffffffffffffffff16815260200190815260200160002060009054906101000a900460ff1615151415156104b8576040517f08c379a000000000000000000000000000000000000000000000000000000000815260040180806020018281038252601e8152602001807f41646d696e732063616e6e6f74206372656174652063616d706169676e73000081525060200191505060405180910390fd5b600280549050878787878733306104cd61077d565b808981526020018060200188815260200187815260200180602001806020018673ffffffffffffffffffffffffffffffffffffffff1673ffffffffffffffffffffffffffffffffffffffff1681526020018573ffffffffffffffffffffffffffffffffffffffff1673ffffffffffffffffffffffffffffffffffffffff16815260200184810384528b818151815260200191508051906020019080838360005b8381101561058857808201518184015260208101905061056d565b50505050905090810190601f1680156105b55780820380516001836020036101000a031916815260200191505b50848103835288818151815260200191508051906020019080838360005b838110156105ee5780820151818401526020810190506105d3565b50505050905090810190601f16801561061b5780820380516001836020036101000a031916815260200191505b50848103825287818151815260200191508051906020019080838360005b83811015610654578082015181840152602081019050610639565b50505050905090810190601f1680156106815780820380516001836020036101000a031916815260200191505b509b505050505050505050505050604051809103906000f0801580156106ab573d6000803e3d6000fd5b50905060028190806001815401808255809150509060018203906000526020600020016000909192909190916101000a81548173ffffffffffffffffffffffffffffffffffffffff021916908373ffffffffffffffffffffffffffffffffffffffff160217905550508073ffffffffffffffffffffffffffffffffffffffff167f07a9c134c6ed9c353773b355c69cbf65e34e3c3820554f5b8e1afdecdfb4029260405160405180910390a28091505095945050505050565b60008080549050905090565b6000600280549050905090565b6040516127cb8061078e833901905600608060405260008060146101000a81548160ff021916908360048111156200002357fe5b02179055506000600860006101000a81548160ff0219169083151502179055506000600860016101000a81548160ff021916908360048111156200006357fe5b02179055503073ffffffffffffffffffffffffffffffffffffffff16316009553480156200009057600080fd5b50604051620027cb380380620027cb83398101806040528101908080519060200190929190805182019291906020018051906020019092919080519060200190929190805182019291906020018051820192919060200180519060200190929190805190602001909291905050508080806000806101000a81548173ffffffffffffffffffffffffffffffffffffffff021916908373ffffffffffffffffffffffffffffffffffffffff160217905550505087600b8190555086600c908051906020019062000161929190620001f6565b5085600d81905550620151808502600e8190555083600f90805190602001906200018d929190620001f6565b508260109080519060200190620001a6929190620001f6565b5081601160006101000a81548173ffffffffffffffffffffffffffffffffffffffff021916908373ffffffffffffffffffffffffffffffffffffffff1602179055505050505050505050620002a5565b828054600181600116156101000203166002900490600052602060002090601f016020900481019282601f106200023957805160ff19168380011785556200026a565b828001600101855582156200026a579182015b82811115620002695782518255916020019190600101906200024c565b5b5090506200027991906200027d565b5090565b620002a291905b808211156200029e57600081600090555060010162000284565b5090565b90565b61251680620002b56000396000f3006080604052600436106101d8576000357c0100000000000000000000000000000000000000000000000000000000900463ffffffff16806309eef43e146101dd5780630fb5a6b41461023857806312253a6c146102635780631afcf1591461027a5780631cee0700146102b3578063205b19461461032e57806322f3e2d41461038957806339f3027d146103b85780633ccfd60b146103f15780633f683b6a146104085780634019388314610437578063481c6a75146104625780634a79d50c146104b95780635e2c19db1461054957806365325386146105a457806371aac7f9146105cf5780637284e416146105e65780637403c5e514610676578063796b89b9146106a1578063980e7844146106cc578063a0f243b8146106e3578063a69beaba1461073a578063aac083451461076b578063ab45be42146107ca578063aedbf409146107f9578063af640d0f14610850578063b9a530131461087b578063c17c5cf0146108d6578063c24a0f8b14610901578063c4bc5da51461092c578063c89f2ce414610943578063d7bb99ba1461096e578063db2e21bc14610978578063e70ac62c1461098f578063f3ccaac0146109ba578063f4c9b1fd14610a4a578063f81292c114610a83578063facd493914610aae575b600080fd5b3480156101e957600080fd5b5061021e600480360381019080803573ffffffffffffffffffffffffffffffffffffffff169060200190929190505050610ad9565b604051808215151515815260200191505060405180910390f35b34801561024457600080fd5b5061024d610af9565b6040518082815260200191505060405180910390f35b34801561026f57600080fd5b50610278610aff565b005b34801561028657600080fd5b5061028f610c1e565b6040518082600481111561029f57fe5b60ff16815260200191505060405180910390f35b3480156102bf57600080fd5b506102de60048036038101908080359060200190929190505050610c31565b604051808473ffffffffffffffffffffffffffffffffffffffff1673ffffffffffffffffffffffffffffffffffffffff168152602001838152602001828152602001935050505060405180910390f35b34801561033a57600080fd5b5061036f600480360381019080803573ffffffffffffffffffffffffffffffffffffffff169060200190929190505050610c8a565b604051808215151515815260200191505060405180910390f35b34801561039557600080fd5b5061039e610caa565b604051808215151515815260200191505060405180910390f35b3480156103c457600080fd5b506103ef60048036038101908080351515906020019092919080359060200190929190505050610cb6565b005b3480156103fd57600080fd5b50610406610fbd565b005b34801561041457600080fd5b5061041d6111a2565b604051808215151515815260200191505060405180910390f35b34801561044357600080fd5b5061044c6111b5565b6040518082815260200191505060405180910390f35b34801561046e57600080fd5b506104776111bb565b604051808273ffffffffffffffffffffffffffffffffffffffff1673ffffffffffffffffffffffffffffffffffffffff16815260200191505060405180910390f35b3480156104c557600080fd5b506104ce6111e1565b6040518080602001828103825283818151815260200191508051906020019080838360005b8381101561050e5780820151818401526020810190506104f3565b50505050905090810190601f16801561053b5780820380516001836020036101000a031916815260200191505b509250505060405180910390f35b34801561055557600080fd5b5061058a600480360381019080803573ffffffffffffffffffffffffffffffffffffffff16906020019092919050505061127f565b604051808215151515815260200191505060405180910390f35b3480156105b057600080fd5b506105b961129f565b6040518082815260200191505060405180910390f35b3480156105db57600080fd5b506105e46112f3565b005b3480156105f257600080fd5b506105fb611536565b6040518080602001828103825283818151815260200191508051906020019080838360005b8381101561063b578082015181840152602081019050610620565b50505050905090810190601f1680156106685780820380516001836020036101000a031916815260200191505b509250505060405180910390f35b34801561068257600080fd5b5061068b6115d4565b6040518082815260200191505060405180910390f35b3480156106ad57600080fd5b506106b66115da565b6040518082815260200191505060405180910390f35b3480156106d857600080fd5b506106e16115e2565b005b3480156106ef57600080fd5b50610724600480360381019080803573ffffffffffffffffffffffffffffffffffffffff16906020019092919050505061186e565b6040518082815260200191505060405180910390f35b34801561074657600080fd5b506107696004803603810190808035600019169060200190929190505050611886565b005b34801561077757600080fd5b506107ac600480360381019080803573ffffffffffffffffffffffffffffffffffffffff169060200190929190505050611afc565b60405180826000191660001916815260200191505060405180910390f35b3480156107d657600080fd5b506107df611b14565b604051808215151515815260200191505060405180910390f35b34801561080557600080fd5b5061080e611bb4565b604051808273ffffffffffffffffffffffffffffffffffffffff1673ffffffffffffffffffffffffffffffffffffffff16815260200191505060405180910390f35b34801561085c57600080fd5b50610865611bd9565b6040518082815260200191505060405180910390f35b34801561088757600080fd5b506108bc600480360381019080803573ffffffffffffffffffffffffffffffffffffffff169060200190929190505050611bdf565b604051808215151515815260200191505060405180910390f35b3480156108e257600080fd5b506108eb611bff565b6040518082815260200191505060405180910390f35b34801561090d57600080fd5b50610916611c05565b6040518082815260200191505060405180910390f35b34801561093857600080fd5b50610941611c0b565b005b34801561094f57600080fd5b50610958611d2a565b6040518082815260200191505060405180910390f35b610976611d30565b005b34801561098457600080fd5b5061098d61209b565b005b34801561099b57600080fd5b506109a461211f565b6040518082815260200191505060405180910390f35b3480156109c657600080fd5b506109cf61212c565b6040518080602001828103825283818151815260200191508051906020019080838360005b83811015610a0f5780820151818401526020810190506109f4565b50505050905090810190601f168015610a3c5780820380516001836020036101000a031916815260200191505b509250505060405180910390f35b348015610a5657600080fd5b50610a5f6121ca565b60405180826004811115610a6f57fe5b60ff16815260200191505060405180910390f35b348015610a8f57600080fd5b50610a986121dd565b6040518082815260200191505060405180910390f35b348015610aba57600080fd5b50610ac36121e3565b6040518082815260200191505060405180910390f35b60066020528060005260406000206000915054906101000a900460ff1681565b600e5481565b6000809054906101000a900473ffffffffffffffffffffffffffffffffffffffff1673ffffffffffffffffffffffffffffffffffffffff166324d7806c336040518263ffffffff167c0100000000000000000000000000000000000000000000000000000000028152600401808273ffffffffffffffffffffffffffffffffffffffff1673ffffffffffffffffffffffffffffffffffffffff168152602001915050602060405180830381600087803b158015610bbb57600080fd5b505af1158015610bcf573d6000803e3d6000fd5b505050506040513d6020811015610be557600080fd5b81019080805190602001909291905050501515610c0157600080fd5b6001600860006101000a81548160ff021916908315150217905550565b600060149054906101000a900460ff1681565b601281815481101515610c4057fe5b90600052602060002090600302016000915090508060000160009054906101000a900473ffffffffffffffffffffffffffffffffffffffff16908060010154908060020154905083565b60146020528060005260406000206000915054906101000a900460ff1681565b6000600a544210905090565b60011515600660003373ffffffffffffffffffffffffffffffffffffffff1673ffffffffffffffffffffffffffffffffffffffff16815260200190815260200160002060009054906101000a900460ff161515141515610d1557600080fd5b60001515600760003373ffffffffffffffffffffffffffffffffffffffff1673ffffffffffffffffffffffffffffffffffffffff16815260200190815260200160002060009054906101000a900460ff161515141515610d7457600080fd5b6001806004811115610d8257fe5b600060149054906101000a900460ff166004811115610d9d57fe5b141515610da957600080fd5b600560003373ffffffffffffffffffffffffffffffffffffffff1673ffffffffffffffffffffffffffffffffffffffff168152602001908152602001600020546000191683836040516020018083151515157f0100000000000000000000000000000000000000000000000000000000000000028152600101828152602001925050506040516020818303038152906040526040518082805190602001908083835b602083101515610e705780518252602082019150602081019050602083039250610e4b565b6001836020036101000a038019825116818451168082178552505050505050905001915050604051809103902060001916141515610ead57600080fd5b8215610eca57600160008154809291906001019190505550610edd565b6002600081548092919060010191905055505b6004600081548092919060010191905055506001600760003373ffffffffffffffffffffffffffffffffffffffff1673ffffffffffffffffffffffffffffffffffffffff16815260200190815260200160002060006101000a81548160ff0219169083151502179055506002600154101515610f80576002600060146101000a81548160ff02191690836004811115610f7257fe5b0217905550610f7f6121e9565b5b60028054101515610fb8576003600060146101000a81548160ff02191690836004811115610faa57fe5b0217905550610fb761221a565b5b505050565b600860009054906101000a900460ff16151515610fd957600080fd5b60001515601560003373ffffffffffffffffffffffffffffffffffffffff1673ffffffffffffffffffffffffffffffffffffffff16815260200190815260200160002060009054906101000a900460ff16151514151561103857600080fd5b6001600481111561104557fe5b600860019054906101000a900460ff16600481111561106057fe5b14801561106e5750600a5442115b156110cf57600d546009541015156110a9576002600860016101000a81548160ff0219169083600481111561109f57fe5b02179055506110ce565b6003600860016101000a81548160ff021916908360048111156110c857fe5b02179055505b5b600160048111156110dc57fe5b600860019054906101000a900460ff1660048111156110f757fe5b11151561110357600080fd5b6002600481111561111057fe5b600860019054906101000a900460ff16600481111561112b57fe5b141561113a57611139612240565b5b6003600481111561114757fe5b600860019054906101000a900460ff16600481111561116257fe5b1480611192575060048081111561117557fe5b600860019054906101000a900460ff16600481111561119057fe5b145b156111a05761119f61235c565b5b565b600860009054906101000a900460ff1681565b600d5481565b601160009054906101000a900473ffffffffffffffffffffffffffffffffffffffff1681565b600c8054600181600116156101000203166002900480601f0160208091040260200160405190810160405280929190818152602001828054600181600116156101000203166002900480156112775780601f1061124c57610100808354040283529160200191611277565b820191906000526020600020905b81548152906001019060200180831161125a57829003601f168201915b505050505081565b60156020528060005260406000206000915054906101000a900460ff1681565b6000806000809150600090505b6012805490508110156112eb576012818154811015156112c857fe5b9060005260206000209060030201600101548201915080806001019150506112ac565b819250505090565b600860009054906101000a900460ff1615151561130f57600080fd5b601160009054906101000a900473ffffffffffffffffffffffffffffffffffffffff1673ffffffffffffffffffffffffffffffffffffffff163373ffffffffffffffffffffffffffffffffffffffff16148061145e57506000809054906101000a900473ffffffffffffffffffffffffffffffffffffffff1673ffffffffffffffffffffffffffffffffffffffff166324d7806c336040518263ffffffff167c0100000000000000000000000000000000000000000000000000000000028152600401808273ffffffffffffffffffffffffffffffffffffffff1673ffffffffffffffffffffffffffffffffffffffff168152602001915050602060405180830381600087803b15801561142257600080fd5b505af1158015611436573d6000803e3d6000fd5b505050506040513d602081101561144c57600080fd5b81019080805190602001909291905050505b151561146957600080fd5b6001600481111561147657fe5b600860019054906101000a900460ff16600481111561149157fe5b14801561149f5750600a5442115b1561150057600d546009541015156114da576002600860016101000a81548160ff021916908360048111156114d057fe5b02179055506114ff565b6003600860016101000a81548160ff021916908360048111156114f957fe5b02179055505b5b6001600481111561150d57fe5b600860019054906101000a900460ff16600481111561152857fe5b11151561153457600080fd5b565b600f8054600181600116156101000203166002900480601f0160208091040260200160405190810160405280929190818152602001828054600181600116156101000203166002900480156115cc5780601f106115a1576101008083540402835291602001916115cc565b820191906000526020600020905b8154815290600101906020018083116115af57829003601f168201915b505050505081565b60015481565b600042905090565b600860009054906101000a900460ff161515156115fe57600080fd5b601160009054906101000a900473ffffffffffffffffffffffffffffffffffffffff1673ffffffffffffffffffffffffffffffffffffffff163373ffffffffffffffffffffffffffffffffffffffff16148061174d57506000809054906101000a900473ffffffffffffffffffffffffffffffffffffffff1673ffffffffffffffffffffffffffffffffffffffff166324d7806c336040518263ffffffff167c0100000000000000000000000000000000000000000000000000000000028152600401808273ffffffffffffffffffffffffffffffffffffffff1673ffffffffffffffffffffffffffffffffffffffff168152602001915050602060405180830381600087803b15801561171157600080fd5b505af1158015611725573d6000803e3d6000fd5b505050506040513d602081101561173b57600080fd5b81019080805190602001909291905050505b151561175857600080fd5b6001600481111561176557fe5b600860019054906101000a900460ff16600481111561178057fe5b14801561178e5750600a5442115b156117ef57600d546009541015156117c9576002600860016101000a81548160ff021916908360048111156117bf57fe5b02179055506117ee565b6003600860016101000a81548160ff021916908360048111156117e857fe5b02179055505b5b600160048111156117fc57fe5b600860019054906101000a900460ff16600481111561181757fe5b1115151561182457600080fd5b6004600060146101000a81548160ff0219169083600481111561184357fe5b02179055506004600860016101000a81548160ff0219169083600481111561186757fe5b0217905550565b60136020528060005260406000206000915090505481565b6000809054906101000a900473ffffffffffffffffffffffffffffffffffffffff1673ffffffffffffffffffffffffffffffffffffffff166324d7806c336040518263ffffffff167c0100000000000000000000000000000000000000000000000000000000028152600401808273ffffffffffffffffffffffffffffffffffffffff1673ffffffffffffffffffffffffffffffffffffffff168152602001915050602060405180830381600087803b15801561194257600080fd5b505af1158015611956573d6000803e3d6000fd5b505050506040513d602081101561196c57600080fd5b8101908080519060200190929190505050151561198857600080fd5b600080600481111561199657fe5b600060149054906101000a900460ff1660048111156119b157fe5b1415156119bd57600080fd5b81600560003373ffffffffffffffffffffffffffffffffffffffff1673ffffffffffffffffffffffffffffffffffffffff168152602001908152602001600020816000191690555060001515600660003373ffffffffffffffffffffffffffffffffffffffff1673ffffffffffffffffffffffffffffffffffffffff16815260200190815260200160002060009054906101000a900460ff1615151415611ac9576003600081548092919060010191905055506001600660003373ffffffffffffffffffffffffffffffffffffffff1673ffffffffffffffffffffffffffffffffffffffff16815260200190815260200160002060006101000a81548160ff0219169083151502179055505b600380541415611af8576001600060146101000a81548160ff02191690836004811115611af257fe5b02179055505b5050565b60056020528060005260406000206000915090505481565b600060016004811115611b2357fe5b600860019054906101000a900460ff166004811115611b3e57fe5b148015611b4c5750600a5442115b15611bad57600d54600954101515611b87576002600860016101000a81548160ff02191690836004811115611b7d57fe5b0217905550611bac565b6003600860016101000a81548160ff02191690836004811115611ba657fe5b02179055505b5b6001905090565b6000809054906101000a900473ffffffffffffffffffffffffffffffffffffffff1681565b600b5481565b60076020528060005260406000206000915054906101000a900460ff1681565b60035481565b600a5481565b6000809054906101000a900473ffffffffffffffffffffffffffffffffffffffff1673ffffffffffffffffffffffffffffffffffffffff166324d7806c336040518263ffffffff167c0100000000000000000000000000000000000000000000000000000000028152600401808273ffffffffffffffffffffffffffffffffffffffff1673ffffffffffffffffffffffffffffffffffffffff168152602001915050602060405180830381600087803b158015611cc757600080fd5b505af1158015611cdb573d6000803e3d6000fd5b505050506040513d6020811015611cf157600080fd5b81019080805190602001909291905050501515611d0d57600080fd5b6000600860006101000a81548160ff021916908315150217905550565b60095481565b600860009054906101000a900460ff16151515611d4c57600080fd5b601160009054906101000a900473ffffffffffffffffffffffffffffffffffffffff1673ffffffffffffffffffffffffffffffffffffffff163373ffffffffffffffffffffffffffffffffffffffff1614151515611da957600080fd5b60016004811115611db657fe5b600860019054906101000a900460ff166004811115611dd157fe5b148015611ddf5750600a5442115b15611e4057600d54600954101515611e1a576002600860016101000a81548160ff02191690836004811115611e1057fe5b0217905550611e3f565b6003600860016101000a81548160ff02191690836004811115611e3957fe5b02179055505b5b6001806004811115611e4e57fe5b600860019054906101000a900460ff166004811115611e6957fe5b141515611e7557600080fd5b600034111515611e8457600080fd5b6009543460095401111515611e9857600080fd5b601360003373ffffffffffffffffffffffffffffffffffffffff1673ffffffffffffffffffffffffffffffffffffffff1681526020019081526020016000205434601360003373ffffffffffffffffffffffffffffffffffffffff1673ffffffffffffffffffffffffffffffffffffffff1681526020019081526020016000205401111515611f2657600080fd5b6001601460003373ffffffffffffffffffffffffffffffffffffffff1673ffffffffffffffffffffffffffffffffffffffff16815260200190815260200160002060006101000a81548160ff02191690831515021790555060126060604051908101604052803373ffffffffffffffffffffffffffffffffffffffff168152602001348152602001428152509080600181540180825580915050906001820390600052602060002090600302016000909192909190915060008201518160000160006101000a81548173ffffffffffffffffffffffffffffffffffffffff021916908373ffffffffffffffffffffffffffffffffffffffff160217905550602082015181600101556040820151816002015550505034601360003373ffffffffffffffffffffffffffffffffffffffff1673ffffffffffffffffffffffffffffffffffffffff168152602001908152602001600020600082825401925050819055503460096000828254019250508190555050565b600860009054906101000a900460ff1615156120b657600080fd5b60001515601560003373ffffffffffffffffffffffffffffffffffffffff1673ffffffffffffffffffffffffffffffffffffffff16815260200190815260200160002060009054906101000a900460ff16151514151561211557600080fd5b61211d61235c565b565b6000601280549050905090565b60108054600181600116156101000203166002900480601f0160208091040260200160405190810160405280929190818152602001828054600181600116156101000203166002900480156121c25780601f10612197576101008083540402835291602001916121c2565b820191906000526020600020905b8154815290600101906020018083116121a557829003601f168201915b505050505081565b600860019054906101000a900460ff1681565b60025481565b60045481565b600e544201600a819055506001600860016101000a81548160ff0219169083600481111561221357fe5b0217905550565b6003600860016101000a81548160ff0219169083600481111561223957fe5b0217905550565b601160009054906101000a900473ffffffffffffffffffffffffffffffffffffffff1673ffffffffffffffffffffffffffffffffffffffff163373ffffffffffffffffffffffffffffffffffffffff1614151561229c57600080fd5b6001601560003373ffffffffffffffffffffffffffffffffffffffff1673ffffffffffffffffffffffffffffffffffffffff16815260200190815260200160002060006101000a81548160ff02191690831515021790555060006009819055503373ffffffffffffffffffffffffffffffffffffffff166108fc3073ffffffffffffffffffffffffffffffffffffffff16319081150290604051600060405180830381858888f19350505050158015612359573d6000803e3d6000fd5b50565b60011515601460003373ffffffffffffffffffffffffffffffffffffffff1673ffffffffffffffffffffffffffffffffffffffff16815260200190815260200160002060009054906101000a900460ff1615151415156123bb57600080fd5b6001601560003373ffffffffffffffffffffffffffffffffffffffff1673ffffffffffffffffffffffffffffffffffffffff16815260200190815260200160002060006101000a81548160ff021916908315150217905550601360003373ffffffffffffffffffffffffffffffffffffffff1673ffffffffffffffffffffffffffffffffffffffff168152602001908152602001600020546009600082825403925050819055503373ffffffffffffffffffffffffffffffffffffffff166108fc601360003373ffffffffffffffffffffffffffffffffffffffff1673ffffffffffffffffffffffffffffffffffffffff168152602001908152602001600020549081150290604051600060405180830381858888f193505050501580156124e7573d6000803e3d6000fd5b505600a165627a7a72305820bcc98b7b3165005ecd00519e76f61da965b9ad64cd313cfb4a4eb43e452bf49e0029a165627a7a723058207f85d69156c415f9444a53d4b9c341f42f600672c05471eb6ac84a53becb8f980029",
  "source": "pragma solidity ^0.4.24;\r\n\r\n// import \"./Approvable.sol\";\r\nimport \"./Campaign.sol\";\r\n\r\n// Contract Development 1\r\n// DONE: Timing campaigns\r\n// DONE: Ending Campaign and Payouts\r\n// DONE: Manager can cancel Campaign before approved\r\n// DONE: Rewrite state transition according to solidy state machine pattern\r\n\r\n// Contract Developement 2\r\n// TASK: Implement Circuit Breaker Pattern!\r\n// TASK: Use a Library\r\n// TASK: Comment Contracts and Tests\r\n// TASK: Review All variable/function etc Names\r\n// TASK: Review All variable/function etc accessibility\r\n// TASK: Split Contract Files\r\n// TASK: Write Solidity Tests\r\n// TASK: Review uints and restrict size if possible\r\n// DONE: Use a library/Package to advance time in tests\r\n// TASK: Review Security Best Practices\r\n// TASK: Review Design Patterns\r\n// TASK: Error messages for require statements\r\n// TASK: Campaign Factory Contract\r\n\r\n// Frontend\r\n// TASK: Set up React Project and React Crash Course\r\n// TASK: Frontend\r\n// TASK: Events + Listening for them\r\n\r\n// Submitable\r\n// TASK: Packaging and Other Documentation\r\n// TASK: Make sure it works on Ubuntu\r\n// TASK: Review Grading Rubric\r\n// TASK: Release on testnet\r\n\r\n\r\ncontract EthFundMe {\r\n\r\n  /**\r\n    EVENTS\r\n   */\r\n  event CampaignCreated (\r\n    address indexed campaignAddress\r\n  );\r\n  \r\n\r\n  /**\r\n    ADMINS\r\n   */\r\n  address[] public admins;\r\n  mapping (address=> bool) public isAdmin;\r\n\r\n  // TODO: Adding an\r\n  /**\r\n    Allows initialization of the contract with up to 3 admins\r\n   */\r\n  constructor(address[] _admins) public {\r\n    //FIXME: Can I put a require statement in a contructor? What happens if it fails?\r\n    require(_admins.length <= 3);\r\n    \r\n    admins = _admins;\r\n    for (uint i = 0; i < admins.length; i++) {\r\n      isAdmin[admins[i]] = true;\r\n    }\r\n  }\r\n\r\n  function getNumAdmins() public view returns (uint) {\r\n    return admins.length;\r\n  }\r\n\r\n  /**\r\n    CAMPAIGNS\r\n  */\r\n  address[] public campaigns;\r\n\r\n  function getNumCampaigns() public view returns (uint) {\r\n    return campaigns.length;\r\n  }\r\n  \r\n  modifier notAdmin() {\r\n    require(isAdmin[msg.sender] == false, \"Admins cannot create campaigns\");\r\n    _;\r\n  }\r\n\r\n  function createCampaign(string title, uint goal, uint duration, string description, string image) public \r\n    notAdmin\r\n    returns(address) {\r\n    Campaign newCampaign = new Campaign(campaigns.length, title, goal, duration, description, image, msg.sender, address(this));\r\n    campaigns.push(address(newCampaign));\r\n    emit CampaignCreated(address(newCampaign));\r\n    return address(newCampaign);\r\n  }\r\n\r\n}\r\n\r\n",
  "sourcePath": "/mnt/c/Users/jalal/Github/EthFundMe/contracts/EthFundMe.sol",
  "compiler": {
    "name": "solc",
    "version": "0.4.24+commit.e67f0147.Emscripten.clang"
  },
  "schemaVersion": "2.0.1",
  "updatedAt": "2018-08-15T17:14:37.070Z"
}