{
  "contractName": "EthFundMe",
  "abi": [
    {
      "constant": false,
      "inputs": [],
      "name": "stopContract",
      "outputs": [],
      "payable": false,
      "stateMutability": "nonpayable",
      "type": "function"
    },
    {
      "constant": true,
      "inputs": [
        {
          "name": "",
          "type": "uint256"
        }
      ],
      "name": "campaigns",
      "outputs": [
        {
          "name": "",
          "type": "address"
        }
      ],
      "payable": false,
      "stateMutability": "view",
      "type": "function"
    },
    {
      "constant": true,
      "inputs": [
        {
          "name": "",
          "type": "uint256"
        }
      ],
      "name": "admins",
      "outputs": [
        {
          "name": "",
          "type": "address"
        }
      ],
      "payable": false,
      "stateMutability": "view",
      "type": "function"
    },
    {
      "constant": true,
      "inputs": [
        {
          "name": "",
          "type": "address"
        }
      ],
      "name": "isAdmin",
      "outputs": [
        {
          "name": "",
          "type": "bool"
        }
      ],
      "payable": false,
      "stateMutability": "view",
      "type": "function"
    },
    {
      "constant": true,
      "inputs": [],
      "name": "isStopped",
      "outputs": [
        {
          "name": "",
          "type": "bool"
        }
      ],
      "payable": false,
      "stateMutability": "view",
      "type": "function"
    },
    {
      "constant": false,
      "inputs": [],
      "name": "resumeContract",
      "outputs": [],
      "payable": false,
      "stateMutability": "nonpayable",
      "type": "function"
    },
    {
      "inputs": [
        {
          "name": "_admins",
          "type": "address[]"
        }
      ],
      "payable": false,
      "stateMutability": "nonpayable",
      "type": "constructor"
    },
    {
      "anonymous": false,
      "inputs": [
        {
          "indexed": true,
          "name": "campaignAddress",
          "type": "address"
        }
      ],
      "name": "CampaignCreated",
      "type": "event"
    },
    {
      "constant": true,
      "inputs": [],
      "name": "getNumAdmins",
      "outputs": [
        {
          "name": "",
          "type": "uint256"
        }
      ],
      "payable": false,
      "stateMutability": "view",
      "type": "function"
    },
    {
      "constant": true,
      "inputs": [],
      "name": "getNumCampaigns",
      "outputs": [
        {
          "name": "",
          "type": "uint256"
        }
      ],
      "payable": false,
      "stateMutability": "view",
      "type": "function"
    },
    {
      "constant": false,
      "inputs": [
        {
          "name": "title",
          "type": "string"
        },
        {
          "name": "goal",
          "type": "uint256"
        },
        {
          "name": "duration",
          "type": "uint256"
        },
        {
          "name": "description",
          "type": "string"
        },
        {
          "name": "image",
          "type": "string"
        }
      ],
      "name": "createCampaign",
      "outputs": [
        {
          "name": "",
          "type": "address"
        }
      ],
      "payable": false,
      "stateMutability": "nonpayable",
      "type": "function"
    }
  ],
  "bytecode": "0x608060405260008060006101000a81548160ff02191690831515021790555034801561002a57600080fd5b50604051613259380380613259833981018060405281019080805182019291905050506000600382511115151561006057600080fd5b816001908051906020019061007692919061012e565b50600090505b6001805490508110156101275760016002600060018481548110151561009e57fe5b9060005260206000200160009054906101000a900473ffffffffffffffffffffffffffffffffffffffff1673ffffffffffffffffffffffffffffffffffffffff1673ffffffffffffffffffffffffffffffffffffffff16815260200190815260200160002060006101000a81548160ff021916908315150217905550808060010191505061007c565b50506101fb565b8280548282559060005260206000209081019282156101a7579160200282015b828111156101a65782518260006101000a81548173ffffffffffffffffffffffffffffffffffffffff021916908373ffffffffffffffffffffffffffffffffffffffff1602179055509160200191906001019061014e565b5b5090506101b491906101b8565b5090565b6101f891905b808211156101f457600081816101000a81549073ffffffffffffffffffffffffffffffffffffffff0219169055506001016101be565b5090565b90565b61304f8061020a6000396000f300608060405260043610610099576000357c0100000000000000000000000000000000000000000000000000000000900463ffffffff16806312253a6c1461009e578063141961bc146100b557806314bfd6d01461012257806324d7806c1461018f5780633f683b6a146101ea5780634b2aafcc14610219578063581cb2dc14610362578063c4bc5da51461038d578063d9a9bb3e146103a4575b600080fd5b3480156100aa57600080fd5b506100b36103cf565b005b3480156100c157600080fd5b506100e0600480360381019080803590602001909291905050506103fe565b604051808273ffffffffffffffffffffffffffffffffffffffff1673ffffffffffffffffffffffffffffffffffffffff16815260200191505060405180910390f35b34801561012e57600080fd5b5061014d6004803603810190808035906020019092919050505061043c565b604051808273ffffffffffffffffffffffffffffffffffffffff1673ffffffffffffffffffffffffffffffffffffffff16815260200191505060405180910390f35b34801561019b57600080fd5b506101d0600480360381019080803573ffffffffffffffffffffffffffffffffffffffff16906020019092919050505061047a565b604051808215151515815260200191505060405180910390f35b3480156101f657600080fd5b506101ff61049a565b604051808215151515815260200191505060405180910390f35b34801561022557600080fd5b50610320600480360381019080803590602001908201803590602001908080601f01602080910402602001604051908101604052809392919081815260200183838082843782019150505050505091929192908035906020019092919080359060200190929190803590602001908201803590602001908080601f0160208091040260200160405190810160405280939291908181526020018383808284378201915050505050509192919290803590602001908201803590602001908080601f01602080910402602001604051908101604052809392919081815260200183838082843782019150505050505091929192905050506104ac565b604051808273ffffffffffffffffffffffffffffffffffffffff1673ffffffffffffffffffffffffffffffffffffffff16815260200191505060405180910390f35b34801561036e57600080fd5b5061037761083e565b6040518082815260200191505060405180910390f35b34801561039957600080fd5b506103a261084b565b005b3480156103b057600080fd5b506103b961087a565b6040518082815260200191505060405180910390f35b6103d7610887565b15156103e257600080fd5b60016000806101000a81548160ff021916908315150217905550565b60038181548110151561040d57fe5b906000526020600020016000915054906101000a900473ffffffffffffffffffffffffffffffffffffffff1681565b60018181548110151561044b57fe5b906000526020600020016000915054906101000a900473ffffffffffffffffffffffffffffffffffffffff1681565b60026020528060005260406000206000915054906101000a900460ff1681565b6000809054906101000a900460ff1681565b6000806000809054906101000a900460ff161515156104ca57600080fd5b60001515600260003373ffffffffffffffffffffffffffffffffffffffff1673ffffffffffffffffffffffffffffffffffffffff16815260200190815260200160002060009054906101000a900460ff161515141515610592576040517f08c379a000000000000000000000000000000000000000000000000000000000815260040180806020018281038252601e8152602001807f41646d696e732063616e6e6f74206372656174652063616d706169676e73000081525060200191505060405180910390fd5b600380549050878787878733306105a76108e8565b808981526020018060200188815260200187815260200180602001806020018673ffffffffffffffffffffffffffffffffffffffff1673ffffffffffffffffffffffffffffffffffffffff1681526020018573ffffffffffffffffffffffffffffffffffffffff1673ffffffffffffffffffffffffffffffffffffffff16815260200184810384528b818151815260200191508051906020019080838360005b83811015610662578082015181840152602081019050610647565b50505050905090810190601f16801561068f5780820380516001836020036101000a031916815260200191505b50848103835288818151815260200191508051906020019080838360005b838110156106c85780820151818401526020810190506106ad565b50505050905090810190601f1680156106f55780820380516001836020036101000a031916815260200191505b50848103825287818151815260200191508051906020019080838360005b8381101561072e578082015181840152602081019050610713565b50505050905090810190601f16801561075b5780820380516001836020036101000a031916815260200191505b509b505050505050505050505050604051809103906000f080158015610785573d6000803e3d6000fd5b50905060038190806001815401808255809150509060018203906000526020600020016000909192909190916101000a81548173ffffffffffffffffffffffffffffffffffffffff021916908373ffffffffffffffffffffffffffffffffffffffff160217905550508073ffffffffffffffffffffffffffffffffffffffff167f07a9c134c6ed9c353773b355c69cbf65e34e3c3820554f5b8e1afdecdfb4029260405160405180910390a28091505095945050505050565b6000600180549050905090565b610853610887565b151561085e57600080fd5b60008060006101000a81548160ff021916908315150217905550565b6000600380549050905090565b6000600260003373ffffffffffffffffffffffffffffffffffffffff1673ffffffffffffffffffffffffffffffffffffffff16815260200190815260200160002060009054906101000a900460ff1615156108e157600080fd5b6001905090565b60405161272b806108f9833901905600608060405260008060146101000a81548160ff02191690831515021790555060008060156101000a81548160ff021916908360048111156200003d57fe5b02179055506000600860006101000a81548160ff021916908360048111156200006257fe5b02179055503073ffffffffffffffffffffffffffffffffffffffff16316009553480156200008f57600080fd5b506040516200272b3803806200272b83398101806040528101908080519060200190929190805182019291906020018051906020019092919080519060200190929190805182019291906020018051820192919060200180519060200190929190805190602001909291905050508080806000806101000a81548173ffffffffffffffffffffffffffffffffffffffff021916908373ffffffffffffffffffffffffffffffffffffffff160217905550505087600b8190555086600c908051906020019062000160929190620001f5565b5085600d81905550620151808502600e8190555083600f90805190602001906200018c929190620001f5565b508260109080519060200190620001a5929190620001f5565b5081601160006101000a81548173ffffffffffffffffffffffffffffffffffffffff021916908373ffffffffffffffffffffffffffffffffffffffff1602179055505050505050505050620002a4565b828054600181600116156101000203166002900490600052602060002090601f016020900481019282601f106200023857805160ff191683800117855562000269565b8280016001018555821562000269579182015b82811115620002685782518255916020019190600101906200024b565b5b5090506200027891906200027c565b5090565b620002a191905b808211156200029d57600081600090555060010162000283565b5090565b90565b61247780620002b46000396000f3006080604052600436106101d8576000357c0100000000000000000000000000000000000000000000000000000000900463ffffffff16806309eef43e146101dd5780630fb5a6b41461023857806312253a6c146102635780631afcf1591461027a5780631cee0700146102b3578063205b19461461032e57806322f3e2d41461038957806339f3027d146103b85780633ccfd60b146103f15780633f683b6a146104085780634019388314610437578063481c6a75146104625780634a79d50c146104b95780635e2c19db1461054957806365325386146105a457806371aac7f9146105cf5780637284e416146105e65780637403c5e514610676578063796b89b9146106a1578063980e7844146106cc578063a0f243b8146106e3578063a69beaba1461073a578063aac083451461076b578063ab45be42146107ca578063aedbf409146107e1578063af640d0f14610838578063b9a5301314610863578063c17c5cf0146108be578063c24a0f8b146108e9578063c4bc5da514610914578063c89f2ce41461092b578063d7bb99ba14610956578063db2e21bc14610960578063e70ac62c14610977578063f3ccaac0146109a2578063f4c9b1fd14610a32578063f81292c114610a6b578063facd493914610a96575b600080fd5b3480156101e957600080fd5b5061021e600480360381019080803573ffffffffffffffffffffffffffffffffffffffff169060200190929190505050610ac1565b604051808215151515815260200191505060405180910390f35b34801561024457600080fd5b5061024d610ae1565b6040518082815260200191505060405180910390f35b34801561026f57600080fd5b50610278610ae7565b005b34801561028657600080fd5b5061028f610b17565b6040518082600481111561029f57fe5b60ff16815260200191505060405180910390f35b3480156102bf57600080fd5b506102de60048036038101908080359060200190929190505050610b2a565b604051808473ffffffffffffffffffffffffffffffffffffffff1673ffffffffffffffffffffffffffffffffffffffff168152602001838152602001828152602001935050505060405180910390f35b34801561033a57600080fd5b5061036f600480360381019080803573ffffffffffffffffffffffffffffffffffffffff169060200190929190505050610b83565b604051808215151515815260200191505060405180910390f35b34801561039557600080fd5b5061039e610ba3565b604051808215151515815260200191505060405180910390f35b3480156103c457600080fd5b506103ef60048036038101908080351515906020019092919080359060200190929190505050610baf565b005b3480156103fd57600080fd5b50610406610ed2565b005b34801561041457600080fd5b5061041d6110b7565b604051808215151515815260200191505060405180910390f35b34801561044357600080fd5b5061044c6110ca565b6040518082815260200191505060405180910390f35b34801561046e57600080fd5b506104776110d0565b604051808273ffffffffffffffffffffffffffffffffffffffff1673ffffffffffffffffffffffffffffffffffffffff16815260200191505060405180910390f35b3480156104c557600080fd5b506104ce6110f6565b6040518080602001828103825283818151815260200191508051906020019080838360005b8381101561050e5780820151818401526020810190506104f3565b50505050905090810190601f16801561053b5780820380516001836020036101000a031916815260200191505b509250505060405180910390f35b34801561055557600080fd5b5061058a600480360381019080803573ffffffffffffffffffffffffffffffffffffffff169060200190929190505050611194565b604051808215151515815260200191505060405180910390f35b3480156105b057600080fd5b506105b96111b4565b6040518082815260200191505060405180910390f35b3480156105db57600080fd5b506105e4611208565b005b3480156105f257600080fd5b506105fb61144b565b6040518080602001828103825283818151815260200191508051906020019080838360005b8381101561063b578082015181840152602081019050610620565b50505050905090810190601f1680156106685780820380516001836020036101000a031916815260200191505b509250505060405180910390f35b34801561068257600080fd5b5061068b6114e9565b6040518082815260200191505060405180910390f35b3480156106ad57600080fd5b506106b66114ef565b6040518082815260200191505060405180910390f35b3480156106d857600080fd5b506106e16114f7565b005b3480156106ef57600080fd5b50610724600480360381019080803573ffffffffffffffffffffffffffffffffffffffff169060200190929190505050611783565b6040518082815260200191505060405180910390f35b34801561074657600080fd5b50610769600480360381019080803560001916906020019092919050505061179b565b005b34801561077757600080fd5b506107ac600480360381019080803573ffffffffffffffffffffffffffffffffffffffff169060200190929190505050611a2d565b60405180826000191660001916815260200191505060405180910390f35b3480156107d657600080fd5b506107df611a45565b005b3480156107ed57600080fd5b506107f6611afa565b604051808273ffffffffffffffffffffffffffffffffffffffff1673ffffffffffffffffffffffffffffffffffffffff16815260200191505060405180910390f35b34801561084457600080fd5b5061084d611b1f565b6040518082815260200191505060405180910390f35b34801561086f57600080fd5b506108a4600480360381019080803573ffffffffffffffffffffffffffffffffffffffff169060200190929190505050611b25565b604051808215151515815260200191505060405180910390f35b3480156108ca57600080fd5b506108d3611b45565b6040518082815260200191505060405180910390f35b3480156108f557600080fd5b506108fe611b4b565b6040518082815260200191505060405180910390f35b34801561092057600080fd5b50610929611b51565b005b34801561093757600080fd5b50610940611b80565b6040518082815260200191505060405180910390f35b61095e611b86565b005b34801561096c57600080fd5b50610975611ef1565b005b34801561098357600080fd5b5061098c611f75565b6040518082815260200191505060405180910390f35b3480156109ae57600080fd5b506109b7611f82565b6040518080602001828103825283818151815260200191508051906020019080838360005b838110156109f75780820151818401526020810190506109dc565b50505050905090810190601f168015610a245780820380516001836020036101000a031916815260200191505b509250505060405180910390f35b348015610a3e57600080fd5b50610a47612020565b60405180826004811115610a5757fe5b60ff16815260200191505060405180910390f35b348015610a7757600080fd5b50610a80612033565b6040518082815260200191505060405180910390f35b348015610aa257600080fd5b50610aab612039565b6040518082815260200191505060405180910390f35b60066020528060005260406000206000915054906101000a900460ff1681565b600e5481565b610aef61203f565b1515610afa57600080fd5b6001600060146101000a81548160ff021916908315150217905550565b600060159054906101000a900460ff1681565b601281815481101515610b3957fe5b90600052602060002090600302016000915090508060000160009054906101000a900473ffffffffffffffffffffffffffffffffffffffff16908060010154908060020154905083565b60146020528060005260406000206000915054906101000a900460ff1681565b6000600a544210905090565b600060149054906101000a900460ff16151515610bcb57600080fd5b60011515600660003373ffffffffffffffffffffffffffffffffffffffff1673ffffffffffffffffffffffffffffffffffffffff16815260200190815260200160002060009054906101000a900460ff161515141515610c2a57600080fd5b60001515600760003373ffffffffffffffffffffffffffffffffffffffff1673ffffffffffffffffffffffffffffffffffffffff16815260200190815260200160002060009054906101000a900460ff161515141515610c8957600080fd5b6001806004811115610c9757fe5b600060159054906101000a900460ff166004811115610cb257fe5b141515610cbe57600080fd5b600560003373ffffffffffffffffffffffffffffffffffffffff1673ffffffffffffffffffffffffffffffffffffffff168152602001908152602001600020546000191683836040516020018083151515157f0100000000000000000000000000000000000000000000000000000000000000028152600101828152602001925050506040516020818303038152906040526040518082805190602001908083835b602083101515610d855780518252602082019150602081019050602083039250610d60565b6001836020036101000a038019825116818451168082178552505050505050905001915050604051809103902060001916141515610dc257600080fd5b8215610ddf57600160008154809291906001019190505550610df2565b6002600081548092919060010191905055505b6004600081548092919060010191905055506001600760003373ffffffffffffffffffffffffffffffffffffffff1673ffffffffffffffffffffffffffffffffffffffff16815260200190815260200160002060006101000a81548160ff0219169083151502179055506002600154101515610e95576002600060156101000a81548160ff02191690836004811115610e8757fe5b0217905550610e9461214a565b5b60028054101515610ecd576003600060156101000a81548160ff02191690836004811115610ebf57fe5b0217905550610ecc61217b565b5b505050565b600060149054906101000a900460ff16151515610eee57600080fd5b60001515601560003373ffffffffffffffffffffffffffffffffffffffff1673ffffffffffffffffffffffffffffffffffffffff16815260200190815260200160002060009054906101000a900460ff161515141515610f4d57600080fd5b60016004811115610f5a57fe5b600860009054906101000a900460ff166004811115610f7557fe5b148015610f835750600a5442115b15610fe457600d54600954101515610fbe576002600860006101000a81548160ff02191690836004811115610fb457fe5b0217905550610fe3565b6003600860006101000a81548160ff02191690836004811115610fdd57fe5b02179055505b5b60016004811115610ff157fe5b600860009054906101000a900460ff16600481111561100c57fe5b11151561101857600080fd5b6002600481111561102557fe5b600860009054906101000a900460ff16600481111561104057fe5b141561104f5761104e6121a1565b5b6003600481111561105c57fe5b600860009054906101000a900460ff16600481111561107757fe5b14806110a7575060048081111561108a57fe5b600860009054906101000a900460ff1660048111156110a557fe5b145b156110b5576110b46122bd565b5b565b600060149054906101000a900460ff1681565b600d5481565b601160009054906101000a900473ffffffffffffffffffffffffffffffffffffffff1681565b600c8054600181600116156101000203166002900480601f01602080910402602001604051908101604052809291908181526020018280546001816001161561010002031660029004801561118c5780601f106111615761010080835404028352916020019161118c565b820191906000526020600020905b81548152906001019060200180831161116f57829003601f168201915b505050505081565b60156020528060005260406000206000915054906101000a900460ff1681565b6000806000809150600090505b601280549050811015611200576012818154811015156111dd57fe5b9060005260206000209060030201600101548201915080806001019150506111c1565b819250505090565b600060149054906101000a900460ff1615151561122457600080fd5b601160009054906101000a900473ffffffffffffffffffffffffffffffffffffffff1673ffffffffffffffffffffffffffffffffffffffff163373ffffffffffffffffffffffffffffffffffffffff16148061137357506000809054906101000a900473ffffffffffffffffffffffffffffffffffffffff1673ffffffffffffffffffffffffffffffffffffffff166324d7806c336040518263ffffffff167c0100000000000000000000000000000000000000000000000000000000028152600401808273ffffffffffffffffffffffffffffffffffffffff1673ffffffffffffffffffffffffffffffffffffffff168152602001915050602060405180830381600087803b15801561133757600080fd5b505af115801561134b573d6000803e3d6000fd5b505050506040513d602081101561136157600080fd5b81019080805190602001909291905050505b151561137e57600080fd5b6001600481111561138b57fe5b600860009054906101000a900460ff1660048111156113a657fe5b1480156113b45750600a5442115b1561141557600d546009541015156113ef576002600860006101000a81548160ff021916908360048111156113e557fe5b0217905550611414565b6003600860006101000a81548160ff0219169083600481111561140e57fe5b02179055505b5b6001600481111561142257fe5b600860009054906101000a900460ff16600481111561143d57fe5b11151561144957600080fd5b565b600f8054600181600116156101000203166002900480601f0160208091040260200160405190810160405280929190818152602001828054600181600116156101000203166002900480156114e15780601f106114b6576101008083540402835291602001916114e1565b820191906000526020600020905b8154815290600101906020018083116114c457829003601f168201915b505050505081565b60015481565b600042905090565b600060149054906101000a900460ff1615151561151357600080fd5b601160009054906101000a900473ffffffffffffffffffffffffffffffffffffffff1673ffffffffffffffffffffffffffffffffffffffff163373ffffffffffffffffffffffffffffffffffffffff16148061166257506000809054906101000a900473ffffffffffffffffffffffffffffffffffffffff1673ffffffffffffffffffffffffffffffffffffffff166324d7806c336040518263ffffffff167c0100000000000000000000000000000000000000000000000000000000028152600401808273ffffffffffffffffffffffffffffffffffffffff1673ffffffffffffffffffffffffffffffffffffffff168152602001915050602060405180830381600087803b15801561162657600080fd5b505af115801561163a573d6000803e3d6000fd5b505050506040513d602081101561165057600080fd5b81019080805190602001909291905050505b151561166d57600080fd5b6001600481111561167a57fe5b600860009054906101000a900460ff16600481111561169557fe5b1480156116a35750600a5442115b1561170457600d546009541015156116de576002600860006101000a81548160ff021916908360048111156116d457fe5b0217905550611703565b6003600860006101000a81548160ff021916908360048111156116fd57fe5b02179055505b5b6001600481111561171157fe5b600860009054906101000a900460ff16600481111561172c57fe5b1115151561173957600080fd5b6004600060156101000a81548160ff0219169083600481111561175857fe5b02179055506004600860006101000a81548160ff0219169083600481111561177c57fe5b0217905550565b60136020528060005260406000206000915090505481565b600060149054906101000a900460ff161515156117b757600080fd5b6000809054906101000a900473ffffffffffffffffffffffffffffffffffffffff1673ffffffffffffffffffffffffffffffffffffffff166324d7806c336040518263ffffffff167c0100000000000000000000000000000000000000000000000000000000028152600401808273ffffffffffffffffffffffffffffffffffffffff1673ffffffffffffffffffffffffffffffffffffffff168152602001915050602060405180830381600087803b15801561187357600080fd5b505af1158015611887573d6000803e3d6000fd5b505050506040513d602081101561189d57600080fd5b810190808051906020019092919050505015156118b957600080fd5b60008060048111156118c757fe5b600060159054906101000a900460ff1660048111156118e257fe5b1415156118ee57600080fd5b81600560003373ffffffffffffffffffffffffffffffffffffffff1673ffffffffffffffffffffffffffffffffffffffff168152602001908152602001600020816000191690555060001515600660003373ffffffffffffffffffffffffffffffffffffffff1673ffffffffffffffffffffffffffffffffffffffff16815260200190815260200160002060009054906101000a900460ff16151514156119fa576003600081548092919060010191905055506001600660003373ffffffffffffffffffffffffffffffffffffffff1673ffffffffffffffffffffffffffffffffffffffff16815260200190815260200160002060006101000a81548160ff0219169083151502179055505b600380541415611a29576001600060156101000a81548160ff02191690836004811115611a2357fe5b02179055505b5050565b60056020528060005260406000206000915090505481565b600060149054906101000a900460ff16151515611a6157600080fd5b60016004811115611a6e57fe5b600860009054906101000a900460ff166004811115611a8957fe5b148015611a975750600a5442115b15611af857600d54600954101515611ad2576002600860006101000a81548160ff02191690836004811115611ac857fe5b0217905550611af7565b6003600860006101000a81548160ff02191690836004811115611af157fe5b02179055505b5b565b6000809054906101000a900473ffffffffffffffffffffffffffffffffffffffff1681565b600b5481565b60076020528060005260406000206000915054906101000a900460ff1681565b60035481565b600a5481565b611b5961203f565b1515611b6457600080fd5b60008060146101000a81548160ff021916908315150217905550565b60095481565b600060149054906101000a900460ff16151515611ba257600080fd5b601160009054906101000a900473ffffffffffffffffffffffffffffffffffffffff1673ffffffffffffffffffffffffffffffffffffffff163373ffffffffffffffffffffffffffffffffffffffff1614151515611bff57600080fd5b60016004811115611c0c57fe5b600860009054906101000a900460ff166004811115611c2757fe5b148015611c355750600a5442115b15611c9657600d54600954101515611c70576002600860006101000a81548160ff02191690836004811115611c6657fe5b0217905550611c95565b6003600860006101000a81548160ff02191690836004811115611c8f57fe5b02179055505b5b6001806004811115611ca457fe5b600860009054906101000a900460ff166004811115611cbf57fe5b141515611ccb57600080fd5b600034111515611cda57600080fd5b6009543460095401111515611cee57600080fd5b601360003373ffffffffffffffffffffffffffffffffffffffff1673ffffffffffffffffffffffffffffffffffffffff1681526020019081526020016000205434601360003373ffffffffffffffffffffffffffffffffffffffff1673ffffffffffffffffffffffffffffffffffffffff1681526020019081526020016000205401111515611d7c57600080fd5b6001601460003373ffffffffffffffffffffffffffffffffffffffff1673ffffffffffffffffffffffffffffffffffffffff16815260200190815260200160002060006101000a81548160ff02191690831515021790555060126060604051908101604052803373ffffffffffffffffffffffffffffffffffffffff168152602001348152602001428152509080600181540180825580915050906001820390600052602060002090600302016000909192909190915060008201518160000160006101000a81548173ffffffffffffffffffffffffffffffffffffffff021916908373ffffffffffffffffffffffffffffffffffffffff160217905550602082015181600101556040820151816002015550505034601360003373ffffffffffffffffffffffffffffffffffffffff1673ffffffffffffffffffffffffffffffffffffffff168152602001908152602001600020600082825401925050819055503460096000828254019250508190555050565b600060149054906101000a900460ff161515611f0c57600080fd5b60001515601560003373ffffffffffffffffffffffffffffffffffffffff1673ffffffffffffffffffffffffffffffffffffffff16815260200190815260200160002060009054906101000a900460ff161515141515611f6b57600080fd5b611f736122bd565b565b6000601280549050905090565b60108054600181600116156101000203166002900480601f0160208091040260200160405190810160405280929190818152602001828054600181600116156101000203166002900480156120185780601f10611fed57610100808354040283529160200191612018565b820191906000526020600020905b815481529060010190602001808311611ffb57829003601f168201915b505050505081565b600860009054906101000a900460ff1681565b60025481565b60045481565b60008060009054906101000a900473ffffffffffffffffffffffffffffffffffffffff1673ffffffffffffffffffffffffffffffffffffffff166324d7806c336040518263ffffffff167c0100000000000000000000000000000000000000000000000000000000028152600401808273ffffffffffffffffffffffffffffffffffffffff1673ffffffffffffffffffffffffffffffffffffffff168152602001915050602060405180830381600087803b1580156120fd57600080fd5b505af1158015612111573d6000803e3d6000fd5b505050506040513d602081101561212757600080fd5b8101908080519060200190929190505050151561214357600080fd5b6001905090565b600e544201600a819055506001600860006101000a81548160ff0219169083600481111561217457fe5b0217905550565b6003600860006101000a81548160ff0219169083600481111561219a57fe5b0217905550565b601160009054906101000a900473ffffffffffffffffffffffffffffffffffffffff1673ffffffffffffffffffffffffffffffffffffffff163373ffffffffffffffffffffffffffffffffffffffff161415156121fd57600080fd5b6001601560003373ffffffffffffffffffffffffffffffffffffffff1673ffffffffffffffffffffffffffffffffffffffff16815260200190815260200160002060006101000a81548160ff02191690831515021790555060006009819055503373ffffffffffffffffffffffffffffffffffffffff166108fc3073ffffffffffffffffffffffffffffffffffffffff16319081150290604051600060405180830381858888f193505050501580156122ba573d6000803e3d6000fd5b50565b60011515601460003373ffffffffffffffffffffffffffffffffffffffff1673ffffffffffffffffffffffffffffffffffffffff16815260200190815260200160002060009054906101000a900460ff16151514151561231c57600080fd5b6001601560003373ffffffffffffffffffffffffffffffffffffffff1673ffffffffffffffffffffffffffffffffffffffff16815260200190815260200160002060006101000a81548160ff021916908315150217905550601360003373ffffffffffffffffffffffffffffffffffffffff1673ffffffffffffffffffffffffffffffffffffffff168152602001908152602001600020546009600082825403925050819055503373ffffffffffffffffffffffffffffffffffffffff166108fc601360003373ffffffffffffffffffffffffffffffffffffffff1673ffffffffffffffffffffffffffffffffffffffff168152602001908152602001600020549081150290604051600060405180830381858888f19350505050158015612448573d6000803e3d6000fd5b505600a165627a7a72305820a25f35f16b52bf802709aeace686c7b07889e96a1b0895d3911fd3c7d79dfade0029a165627a7a72305820fd390f925658274f75a36ef44b3d6951595653392c28e3399e033e1f7e0f83ac0029",
  "source": "pragma solidity ^0.4.24;\n\n// import \"./Approvable.sol\";\nimport \"./EmergencyStoppable.sol\";\nimport \"./Campaign.sol\";\n\n\n// Contract Development 1\n// DONE: Timing campaigns\n// DONE: Ending Campaign and Payouts\n// DONE: Manager can cancel Campaign before approved\n// DONE: Rewrite state transition according to solidy state machine pattern\n\n// Contract Developement 2\n// TASK: Implement Circuit Breaker Pattern!\n// TASK: Use a Library\n// TASK: Comment Contracts and Tests\n// TASK: Review All variable/function etc Names\n// TASK: Review All variable/function etc accessibility\n// TASK: Split Contract Files\n// TASK: Write Solidity Tests\n// TASK: Review uints and restrict size if possible\n// DONE: Use a library/Package to advance time in tests\n// TASK: Review Security Best Practices\n// TASK: Review Design Patterns\n// TASK: Error messages for require statements\n// TASK: Campaign Factory Contract\n\n// Frontend\n// TASK: Set up React Project and React Crash Course\n// TASK: Frontend\n// TASK: Events + Listening for them\n\n// Submitable\n// TASK: Packaging and Other Documentation\n// TASK: Make sure it works on Ubuntu\n// TASK: Review Grading Rubric\n// TASK: Release on testnet\n\n\ncontract EthFundMe is EmergencyStoppable {\n\n  modifier onlyAdmin() {\n    require(isAdmin[msg.sender]);\n    _;\n  }\n\n  /**\n    IMPLEMENT EmergencyStoppable INTERFACE\n\n   */\n    function isAuthorized() internal \n    onlyAdmin\n    returns(bool) \n  {\n    return true;\n  }\n\n  /**\n    EVENTS\n   */\n  event CampaignCreated (\n    address indexed campaignAddress\n  );\n  \n\n  /**\n    ADMINS\n   */\n  address[] public admins;\n  mapping (address=> bool) public isAdmin;\n\n  /**\n    Allows initialization of the contract with up to 3 admins\n   */\n  constructor(address[] _admins) public {\n    //FIXME: Can I put a require statement in a contructor? What happens if it fails?\n    require(_admins.length <= 3);\n    \n    admins = _admins;\n    for (uint i = 0; i < admins.length; i++) {\n      isAdmin[admins[i]] = true;\n    }\n  }\n\n  function getNumAdmins() public view returns (uint) {\n    return admins.length;\n  }\n\n  /**\n    CAMPAIGNS\n  */\n  address[] public campaigns;\n\n  function getNumCampaigns() public view returns (uint) {\n    return campaigns.length;\n  }\n  \n  modifier notAdmin() {\n    require(isAdmin[msg.sender] == false, \"Admins cannot create campaigns\");\n    _;\n  }\n\n  function createCampaign(string title, uint goal, uint duration, string description, string image) public \n    stoppedInEmergency\n    notAdmin\n    returns(address) {\n    Campaign newCampaign = new Campaign(campaigns.length, title, goal, duration, description, image, msg.sender, address(this));\n    campaigns.push(address(newCampaign));\n    emit CampaignCreated(address(newCampaign));\n    return address(newCampaign);\n  }\n\n}\n\n",
  "sourcePath": "/mnt/c/Users/jalal/Github/EthFundMe/contracts/EthFundMe.sol",
  "compiler": {
    "name": "solc",
    "version": "0.4.24+commit.e67f0147.Emscripten.clang"
  },
  "schemaVersion": "2.0.1",
  "updatedAt": "2018-08-16T04:29:02.961Z"
}