{
  "contractName": "EthFundMe",
  "abi": [
    {
      "constant": true,
      "inputs": [
        {
          "name": "",
          "type": "uint256"
        }
      ],
      "name": "campaigns",
      "outputs": [
        {
          "name": "",
          "type": "address"
        }
      ],
      "payable": false,
      "stateMutability": "view",
      "type": "function"
    },
    {
      "constant": true,
      "inputs": [
        {
          "name": "",
          "type": "uint256"
        }
      ],
      "name": "admins",
      "outputs": [
        {
          "name": "",
          "type": "address"
        }
      ],
      "payable": false,
      "stateMutability": "view",
      "type": "function"
    },
    {
      "constant": true,
      "inputs": [
        {
          "name": "",
          "type": "address"
        }
      ],
      "name": "isAdmin",
      "outputs": [
        {
          "name": "",
          "type": "bool"
        }
      ],
      "payable": false,
      "stateMutability": "view",
      "type": "function"
    },
    {
      "inputs": [
        {
          "name": "_admins",
          "type": "address[]"
        }
      ],
      "payable": false,
      "stateMutability": "nonpayable",
      "type": "constructor"
    },
    {
      "anonymous": false,
      "inputs": [
        {
          "indexed": true,
          "name": "campaignAddress",
          "type": "address"
        }
      ],
      "name": "CampaignCreated",
      "type": "event"
    },
    {
      "constant": true,
      "inputs": [],
      "name": "getNumAdmins",
      "outputs": [
        {
          "name": "",
          "type": "uint256"
        }
      ],
      "payable": false,
      "stateMutability": "view",
      "type": "function"
    },
    {
      "constant": true,
      "inputs": [],
      "name": "getNumCampaigns",
      "outputs": [
        {
          "name": "",
          "type": "uint256"
        }
      ],
      "payable": false,
      "stateMutability": "view",
      "type": "function"
    },
    {
      "constant": false,
      "inputs": [
        {
          "name": "title",
          "type": "string"
        },
        {
          "name": "goal",
          "type": "uint256"
        },
        {
          "name": "duration",
          "type": "uint256"
        }
      ],
      "name": "createCampaign",
      "outputs": [
        {
          "name": "",
          "type": "address"
        }
      ],
      "payable": false,
      "stateMutability": "nonpayable",
      "type": "function"
    }
  ],
  "bytecode": "0x608060405234801561001057600080fd5b5060405161285b38038061285b833981018060405281019080805182019291905050506000600382511115151561004657600080fd5b816000908051906020019061005c929190610112565b50600090505b60008054905081101561010b576001806000808481548110151561008257fe5b9060005260206000200160009054906101000a900473ffffffffffffffffffffffffffffffffffffffff1673ffffffffffffffffffffffffffffffffffffffff1673ffffffffffffffffffffffffffffffffffffffff16815260200190815260200160002060006101000a81548160ff0219169083151502179055508080600101915050610062565b50506101df565b82805482825590600052602060002090810192821561018b579160200282015b8281111561018a5782518260006101000a81548173ffffffffffffffffffffffffffffffffffffffff021916908373ffffffffffffffffffffffffffffffffffffffff16021790555091602001919060010190610132565b5b509050610198919061019c565b5090565b6101dc91905b808211156101d857600081816101000a81549073ffffffffffffffffffffffffffffffffffffffff0219169055506001016101a2565b5090565b90565b61266d806101ee6000396000f300608060405260043610610078576000357c0100000000000000000000000000000000000000000000000000000000900463ffffffff168063141961bc1461007d57806314bfd6d0146100ea57806324d7806c146101575780633020580b146101b2578063581cb2dc1461026f578063d9a9bb3e1461029a575b600080fd5b34801561008957600080fd5b506100a8600480360381019080803590602001909291905050506102c5565b604051808273ffffffffffffffffffffffffffffffffffffffff1673ffffffffffffffffffffffffffffffffffffffff16815260200191505060405180910390f35b3480156100f657600080fd5b5061011560048036038101908080359060200190929190505050610303565b604051808273ffffffffffffffffffffffffffffffffffffffff1673ffffffffffffffffffffffffffffffffffffffff16815260200191505060405180910390f35b34801561016357600080fd5b50610198600480360381019080803573ffffffffffffffffffffffffffffffffffffffff169060200190929190505050610341565b604051808215151515815260200191505060405180910390f35b3480156101be57600080fd5b5061022d600480360381019080803590602001908201803590602001908080601f01602080910402602001604051908101604052809392919081815260200183838082843782019150505050505091929192908035906020019092919080359060200190929190505050610361565b604051808273ffffffffffffffffffffffffffffffffffffffff1673ffffffffffffffffffffffffffffffffffffffff16815260200191505060405180910390f35b34801561027b57600080fd5b506102846105fc565b6040518082815260200191505060405180910390f35b3480156102a657600080fd5b506102af610608565b6040518082815260200191505060405180910390f35b6002818154811015156102d457fe5b906000526020600020016000915054906101000a900473ffffffffffffffffffffffffffffffffffffffff1681565b60008181548110151561031257fe5b906000526020600020016000915054906101000a900473ffffffffffffffffffffffffffffffffffffffff1681565b60016020528060005260406000206000915054906101000a900460ff1681565b60008060001515600160003373ffffffffffffffffffffffffffffffffffffffff1673ffffffffffffffffffffffffffffffffffffffff16815260200190815260200160002060009054906101000a900460ff16151514151561042c576040517f08c379a000000000000000000000000000000000000000000000000000000000815260040180806020018281038252601e8152602001807f41646d696e732063616e6e6f74206372656174652063616d706169676e73000081525060200191505060405180910390fd5b600280549050858585333061043f610615565b80878152602001806020018681526020018581526020018473ffffffffffffffffffffffffffffffffffffffff1673ffffffffffffffffffffffffffffffffffffffff1681526020018373ffffffffffffffffffffffffffffffffffffffff1673ffffffffffffffffffffffffffffffffffffffff168152602001828103825287818151815260200191508051906020019080838360005b838110156104f25780820151818401526020810190506104d7565b50505050905090810190601f16801561051f5780820380516001836020036101000a031916815260200191505b50975050505050505050604051809103906000f080158015610545573d6000803e3d6000fd5b50905060028190806001815401808255809150509060018203906000526020600020016000909192909190916101000a81548173ffffffffffffffffffffffffffffffffffffffff021916908373ffffffffffffffffffffffffffffffffffffffff160217905550508073ffffffffffffffffffffffffffffffffffffffff167f07a9c134c6ed9c353773b355c69cbf65e34e3c3820554f5b8e1afdecdfb4029260405160405180910390a2809150509392505050565b60008080549050905090565b6000600280549050905090565b60405161201c80610626833901905600608060405260008060146101000a81548160ff021916908360048111156200002357fe5b02179055506000600860006101000a81548160ff021916908360048111156200004857fe5b02179055503073ffffffffffffffffffffffffffffffffffffffff16316009553480156200007557600080fd5b506040516200201c3803806200201c8339810180604052810190808051906020019092919080518201929190602001805190602001909291908051906020019092919080519060200190929190805190602001909291905050508080806000806101000a81548173ffffffffffffffffffffffffffffffffffffffff021916908373ffffffffffffffffffffffffffffffffffffffff160217905550505085600b8190555084600c90805190602001906200013292919062000193565b5083600d81905550620151808302600e8190555081600f60006101000a81548173ffffffffffffffffffffffffffffffffffffffff021916908373ffffffffffffffffffffffffffffffffffffffff16021790555050505050505062000242565b828054600181600116156101000203166002900490600052602060002090601f016020900481019282601f10620001d657805160ff191683800117855562000207565b8280016001018555821562000207579182015b8281111562000206578251825591602001919060010190620001e9565b5b5090506200021691906200021a565b5090565b6200023f91905b808211156200023b57600081600090555060010162000221565b5090565b90565b611dca80620002526000396000f30060806040526004361061018b576000357c0100000000000000000000000000000000000000000000000000000000900463ffffffff16806309eef43e146101905780630fb5a6b4146101eb5780631afcf159146102165780631cee07001461024f578063205b1946146102ca57806322f3e2d41461032557806339f3027d146103545780633ccfd60b1461038d57806340193883146103a4578063481c6a75146103cf5780634a79d50c146104265780635e2c19db146104b657806371aac7f9146105115780637403c5e514610528578063796b89b914610553578063980e78441461057e578063a0f243b814610595578063a69beaba146105ec578063aac083451461061d578063ab45be421461067c578063aedbf409146106ab578063af640d0f14610702578063b9a530131461072d578063c17c5cf014610788578063c24a0f8b146107b3578063c89f2ce4146107de578063d7bb99ba14610809578063e70ac62c14610813578063f4c9b1fd1461083e578063f81292c114610877578063facd4939146108a2575b600080fd5b34801561019c57600080fd5b506101d1600480360381019080803573ffffffffffffffffffffffffffffffffffffffff1690602001909291905050506108cd565b604051808215151515815260200191505060405180910390f35b3480156101f757600080fd5b506102006108ed565b6040518082815260200191505060405180910390f35b34801561022257600080fd5b5061022b6108f3565b6040518082600481111561023b57fe5b60ff16815260200191505060405180910390f35b34801561025b57600080fd5b5061027a60048036038101908080359060200190929190505050610906565b604051808473ffffffffffffffffffffffffffffffffffffffff1673ffffffffffffffffffffffffffffffffffffffff168152602001838152602001828152602001935050505060405180910390f35b3480156102d657600080fd5b5061030b600480360381019080803573ffffffffffffffffffffffffffffffffffffffff16906020019092919050505061095f565b604051808215151515815260200191505060405180910390f35b34801561033157600080fd5b5061033a61097f565b604051808215151515815260200191505060405180910390f35b34801561036057600080fd5b5061038b6004803603810190808035151590602001909291908035906020019092919050505061098b565b005b34801561039957600080fd5b506103a2610c92565b005b3480156103b057600080fd5b506103b961109a565b6040518082815260200191505060405180910390f35b3480156103db57600080fd5b506103e46110a0565b604051808273ffffffffffffffffffffffffffffffffffffffff1673ffffffffffffffffffffffffffffffffffffffff16815260200191505060405180910390f35b34801561043257600080fd5b5061043b6110c6565b6040518080602001828103825283818151815260200191508051906020019080838360005b8381101561047b578082015181840152602081019050610460565b50505050905090810190601f1680156104a85780820380516001836020036101000a031916815260200191505b509250505060405180910390f35b3480156104c257600080fd5b506104f7600480360381019080803573ffffffffffffffffffffffffffffffffffffffff169060200190929190505050611164565b604051808215151515815260200191505060405180910390f35b34801561051d57600080fd5b50610526611184565b005b34801561053457600080fd5b5061053d6113ab565b6040518082815260200191505060405180910390f35b34801561055f57600080fd5b506105686113b1565b6040518082815260200191505060405180910390f35b34801561058a57600080fd5b506105936113b9565b005b3480156105a157600080fd5b506105d6600480360381019080803573ffffffffffffffffffffffffffffffffffffffff169060200190929190505050611629565b6040518082815260200191505060405180910390f35b3480156105f857600080fd5b5061061b6004803603810190808035600019169060200190929190505050611641565b005b34801561062957600080fd5b5061065e600480360381019080803573ffffffffffffffffffffffffffffffffffffffff1690602001909291905050506118b7565b60405180826000191660001916815260200191505060405180910390f35b34801561068857600080fd5b506106916118cf565b604051808215151515815260200191505060405180910390f35b3480156106b757600080fd5b506106c061196f565b604051808273ffffffffffffffffffffffffffffffffffffffff1673ffffffffffffffffffffffffffffffffffffffff16815260200191505060405180910390f35b34801561070e57600080fd5b50610717611994565b6040518082815260200191505060405180910390f35b34801561073957600080fd5b5061076e600480360381019080803573ffffffffffffffffffffffffffffffffffffffff16906020019092919050505061199a565b604051808215151515815260200191505060405180910390f35b34801561079457600080fd5b5061079d6119ba565b6040518082815260200191505060405180910390f35b3480156107bf57600080fd5b506107c86119c0565b6040518082815260200191505060405180910390f35b3480156107ea57600080fd5b506107f36119c6565b6040518082815260200191505060405180910390f35b6108116119cc565b005b34801561081f57600080fd5b50610828611d1b565b6040518082815260200191505060405180910390f35b34801561084a57600080fd5b50610853611d28565b6040518082600481111561086357fe5b60ff16815260200191505060405180910390f35b34801561088357600080fd5b5061088c611d3b565b6040518082815260200191505060405180910390f35b3480156108ae57600080fd5b506108b7611d41565b6040518082815260200191505060405180910390f35b60066020528060005260406000206000915054906101000a900460ff1681565b600e5481565b600060149054906101000a900460ff1681565b60108181548110151561091557fe5b90600052602060002090600302016000915090508060000160009054906101000a900473ffffffffffffffffffffffffffffffffffffffff16908060010154908060020154905083565b60126020528060005260406000206000915054906101000a900460ff1681565b6000600a544210905090565b60011515600660003373ffffffffffffffffffffffffffffffffffffffff1673ffffffffffffffffffffffffffffffffffffffff16815260200190815260200160002060009054906101000a900460ff1615151415156109ea57600080fd5b60001515600760003373ffffffffffffffffffffffffffffffffffffffff1673ffffffffffffffffffffffffffffffffffffffff16815260200190815260200160002060009054906101000a900460ff161515141515610a4957600080fd5b6001806004811115610a5757fe5b600060149054906101000a900460ff166004811115610a7257fe5b141515610a7e57600080fd5b600560003373ffffffffffffffffffffffffffffffffffffffff1673ffffffffffffffffffffffffffffffffffffffff168152602001908152602001600020546000191683836040516020018083151515157f0100000000000000000000000000000000000000000000000000000000000000028152600101828152602001925050506040516020818303038152906040526040518082805190602001908083835b602083101515610b455780518252602082019150602081019050602083039250610b20565b6001836020036101000a038019825116818451168082178552505050505050905001915050604051809103902060001916141515610b8257600080fd5b8215610b9f57600160008154809291906001019190505550610bb2565b6002600081548092919060010191905055505b6004600081548092919060010191905055506001600760003373ffffffffffffffffffffffffffffffffffffffff1673ffffffffffffffffffffffffffffffffffffffff16815260200190815260200160002060006101000a81548160ff0219169083151502179055506002600154101515610c55576002600060146101000a81548160ff02191690836004811115610c4757fe5b0217905550610c54611d47565b5b60028054101515610c8d576003600060146101000a81548160ff02191690836004811115610c7f57fe5b0217905550610c8c611d78565b5b505050565b60001515601360003373ffffffffffffffffffffffffffffffffffffffff1673ffffffffffffffffffffffffffffffffffffffff16815260200190815260200160002060009054906101000a900460ff161515141515610cf157600080fd5b60016004811115610cfe57fe5b600860009054906101000a900460ff166004811115610d1957fe5b148015610d275750600a5442115b15610d8857600d54600954101515610d62576002600860006101000a81548160ff02191690836004811115610d5857fe5b0217905550610d87565b6003600860006101000a81548160ff02191690836004811115610d8157fe5b02179055505b5b60016004811115610d9557fe5b600860009054906101000a900460ff166004811115610db057fe5b111515610dbc57600080fd5b60026004811115610dc957fe5b600860009054906101000a900460ff166004811115610de457fe5b1415610efd57600f60009054906101000a900473ffffffffffffffffffffffffffffffffffffffff1673ffffffffffffffffffffffffffffffffffffffff163373ffffffffffffffffffffffffffffffffffffffff16141515610e4657600080fd5b6001601360003373ffffffffffffffffffffffffffffffffffffffff1673ffffffffffffffffffffffffffffffffffffffff16815260200190815260200160002060006101000a81548160ff0219169083151502179055503373ffffffffffffffffffffffffffffffffffffffff166108fc3073ffffffffffffffffffffffffffffffffffffffff16319081150290604051600060405180830381858888f19350505050158015610efb573d6000803e3d6000fd5b505b60036004811115610f0a57fe5b600860009054906101000a900460ff166004811115610f2557fe5b1480610f555750600480811115610f3857fe5b600860009054906101000a900460ff166004811115610f5357fe5b145b156110985760011515601260003373ffffffffffffffffffffffffffffffffffffffff1673ffffffffffffffffffffffffffffffffffffffff16815260200190815260200160002060009054906101000a900460ff161515141515610fb957600080fd5b6001601360003373ffffffffffffffffffffffffffffffffffffffff1673ffffffffffffffffffffffffffffffffffffffff16815260200190815260200160002060006101000a81548160ff0219169083151502179055503373ffffffffffffffffffffffffffffffffffffffff166108fc601160003373ffffffffffffffffffffffffffffffffffffffff1673ffffffffffffffffffffffffffffffffffffffff168152602001908152602001600020549081150290604051600060405180830381858888f19350505050158015611096573d6000803e3d6000fd5b505b565b600d5481565b600f60009054906101000a900473ffffffffffffffffffffffffffffffffffffffff1681565b600c8054600181600116156101000203166002900480601f01602080910402602001604051908101604052809291908181526020018280546001816001161561010002031660029004801561115c5780601f106111315761010080835404028352916020019161115c565b820191906000526020600020905b81548152906001019060200180831161113f57829003601f168201915b505050505081565b60136020528060005260406000206000915054906101000a900460ff1681565b600f60009054906101000a900473ffffffffffffffffffffffffffffffffffffffff1673ffffffffffffffffffffffffffffffffffffffff163373ffffffffffffffffffffffffffffffffffffffff1614806112d357506000809054906101000a900473ffffffffffffffffffffffffffffffffffffffff1673ffffffffffffffffffffffffffffffffffffffff166324d7806c336040518263ffffffff167c0100000000000000000000000000000000000000000000000000000000028152600401808273ffffffffffffffffffffffffffffffffffffffff1673ffffffffffffffffffffffffffffffffffffffff168152602001915050602060405180830381600087803b15801561129757600080fd5b505af11580156112ab573d6000803e3d6000fd5b505050506040513d60208110156112c157600080fd5b81019080805190602001909291905050505b15156112de57600080fd5b600160048111156112eb57fe5b600860009054906101000a900460ff16600481111561130657fe5b1480156113145750600a5442115b1561137557600d5460095410151561134f576002600860006101000a81548160ff0219169083600481111561134557fe5b0217905550611374565b6003600860006101000a81548160ff0219169083600481111561136e57fe5b02179055505b5b6001600481111561138257fe5b600860009054906101000a900460ff16600481111561139d57fe5b1115156113a957600080fd5b565b60015481565b600042905090565b600f60009054906101000a900473ffffffffffffffffffffffffffffffffffffffff1673ffffffffffffffffffffffffffffffffffffffff163373ffffffffffffffffffffffffffffffffffffffff16148061150857506000809054906101000a900473ffffffffffffffffffffffffffffffffffffffff1673ffffffffffffffffffffffffffffffffffffffff166324d7806c336040518263ffffffff167c0100000000000000000000000000000000000000000000000000000000028152600401808273ffffffffffffffffffffffffffffffffffffffff1673ffffffffffffffffffffffffffffffffffffffff168152602001915050602060405180830381600087803b1580156114cc57600080fd5b505af11580156114e0573d6000803e3d6000fd5b505050506040513d60208110156114f657600080fd5b81019080805190602001909291905050505b151561151357600080fd5b6001600481111561152057fe5b600860009054906101000a900460ff16600481111561153b57fe5b1480156115495750600a5442115b156115aa57600d54600954101515611584576002600860006101000a81548160ff0219169083600481111561157a57fe5b02179055506115a9565b6003600860006101000a81548160ff021916908360048111156115a357fe5b02179055505b5b600160048111156115b757fe5b600860009054906101000a900460ff1660048111156115d257fe5b111515156115df57600080fd5b6004600060146101000a81548160ff021916908360048111156115fe57fe5b02179055506004600860006101000a81548160ff0219169083600481111561162257fe5b0217905550565b60116020528060005260406000206000915090505481565b6000809054906101000a900473ffffffffffffffffffffffffffffffffffffffff1673ffffffffffffffffffffffffffffffffffffffff166324d7806c336040518263ffffffff167c0100000000000000000000000000000000000000000000000000000000028152600401808273ffffffffffffffffffffffffffffffffffffffff1673ffffffffffffffffffffffffffffffffffffffff168152602001915050602060405180830381600087803b1580156116fd57600080fd5b505af1158015611711573d6000803e3d6000fd5b505050506040513d602081101561172757600080fd5b8101908080519060200190929190505050151561174357600080fd5b600080600481111561175157fe5b600060149054906101000a900460ff16600481111561176c57fe5b14151561177857600080fd5b81600560003373ffffffffffffffffffffffffffffffffffffffff1673ffffffffffffffffffffffffffffffffffffffff168152602001908152602001600020816000191690555060001515600660003373ffffffffffffffffffffffffffffffffffffffff1673ffffffffffffffffffffffffffffffffffffffff16815260200190815260200160002060009054906101000a900460ff1615151415611884576003600081548092919060010191905055506001600660003373ffffffffffffffffffffffffffffffffffffffff1673ffffffffffffffffffffffffffffffffffffffff16815260200190815260200160002060006101000a81548160ff0219169083151502179055505b6003805414156118b3576001600060146101000a81548160ff021916908360048111156118ad57fe5b02179055505b5050565b60056020528060005260406000206000915090505481565b6000600160048111156118de57fe5b600860009054906101000a900460ff1660048111156118f957fe5b1480156119075750600a5442115b1561196857600d54600954101515611942576002600860006101000a81548160ff0219169083600481111561193857fe5b0217905550611967565b6003600860006101000a81548160ff0219169083600481111561196157fe5b02179055505b5b6001905090565b6000809054906101000a900473ffffffffffffffffffffffffffffffffffffffff1681565b600b5481565b60076020528060005260406000206000915054906101000a900460ff1681565b60035481565b600a5481565b60095481565b600f60009054906101000a900473ffffffffffffffffffffffffffffffffffffffff1673ffffffffffffffffffffffffffffffffffffffff163373ffffffffffffffffffffffffffffffffffffffff1614151515611a2957600080fd5b60016004811115611a3657fe5b600860009054906101000a900460ff166004811115611a5157fe5b148015611a5f5750600a5442115b15611ac057600d54600954101515611a9a576002600860006101000a81548160ff02191690836004811115611a9057fe5b0217905550611abf565b6003600860006101000a81548160ff02191690836004811115611ab957fe5b02179055505b5b6001806004811115611ace57fe5b600860009054906101000a900460ff166004811115611ae957fe5b141515611af557600080fd5b600034111515611b0457600080fd5b6009543460095401111515611b1857600080fd5b601160003373ffffffffffffffffffffffffffffffffffffffff1673ffffffffffffffffffffffffffffffffffffffff1681526020019081526020016000205434601160003373ffffffffffffffffffffffffffffffffffffffff1673ffffffffffffffffffffffffffffffffffffffff1681526020019081526020016000205401111515611ba657600080fd5b6001601260003373ffffffffffffffffffffffffffffffffffffffff1673ffffffffffffffffffffffffffffffffffffffff16815260200190815260200160002060006101000a81548160ff02191690831515021790555060106060604051908101604052803373ffffffffffffffffffffffffffffffffffffffff168152602001348152602001428152509080600181540180825580915050906001820390600052602060002090600302016000909192909190915060008201518160000160006101000a81548173ffffffffffffffffffffffffffffffffffffffff021916908373ffffffffffffffffffffffffffffffffffffffff160217905550602082015181600101556040820151816002015550505034601160003373ffffffffffffffffffffffffffffffffffffffff1673ffffffffffffffffffffffffffffffffffffffff168152602001908152602001600020600082825401925050819055503460096000828254019250508190555050565b6000601080549050905090565b600860009054906101000a900460ff1681565b60025481565b60045481565b600e544201600a819055506001600860006101000a81548160ff02191690836004811115611d7157fe5b0217905550565b6003600860006101000a81548160ff02191690836004811115611d9757fe5b02179055505600a165627a7a723058206c997490474eed3b0bd2efd75956459a47ada8bc952f9e8b9e3fe349d99f3abb0029a165627a7a72305820ea9ca902cd059559b689f597122df9440b86777544e686829eea68b0f6f7b2440029",
  "source": "pragma solidity ^0.4.24;\n\n// import \"./Approvable.sol\";\nimport \"./Campaign.sol\";\n\n// Contract Development 1\n// DONE: Timing campaigns\n// DONE: Ending Campaign and Payouts\n// DONE: Manager can cancel Campaign before approved\n// DONE: Rewrite state transition according to solidy state machine pattern\n\n// Contract Developement 2\n// TASK: Implement Circuit Breaker Pattern!\n// TASK: Comment Contracts and Tests\n// TASK: Review All variable/function etc Names\n// TASK: Review All variable/function etc accessibility\n// TASK: Split Contract Files\n// TASK: Write Solidity Tests\n// TASK: Review uints and restrict size if possible\n// DONE: Use a library/Package to advance time in tests\n// TASK: Review Security Best Practices\n// TASK: Review Design Patterns\n// TASK: Error messages for require statements\n// TASK: Campaign Factory Contract\n// TASK: Use a Library\n\n// Frontend\n// TASK: Set up React Project and React Crash Course\n// TASK: Frontend\n// TASK: Events + Listening for them\n\n// Submitable\n// TASK: Packaging and Other Documentation\n// TASK: Make sure it works on Ubuntu\n// TASK: Review Grading Rubric\n// TASK: Release on testnet\n\n// EXTRAS\n// TASK: Adding Admin\n// TASK: Approval Quorum Support Adding Admin\n// TASK: Timing Approvals\n\n// STRETCH GOALS\n// TASK: Upgradable Contract\n// TASK: Check out the SafeMath library\n// TASK: Full PLCR Approval\n// TASK: Other Stretch Goals\n// TASK: ERC20 Token Acceptance\n// TASK: Multisig Contract Management for Admins\n\ncontract EthFundMe {\n\n  /**\n    EVENTS\n   */\n  event CampaignCreated (\n    address indexed campaignAddress\n  );\n  \n\n  /**\n    ADMINS\n   */\n  address[] public admins;\n  mapping (address=> bool) public isAdmin;\n\n  // TODO: Adding an\n  /**\n    Allows initialization of the contract with up to 3 admins\n   */\n  constructor(address[] _admins) public {\n    //FIXME: Can I put a require statement in a contructor? What happens if it fails?\n    require(_admins.length <= 3);\n    \n    admins = _admins;\n    for (uint i = 0; i < admins.length; i++) {\n      isAdmin[admins[i]] = true;\n    }\n  }\n\n  function getNumAdmins() public view returns (uint) {\n    return admins.length;\n  }\n\n  /**\n    CAMPAIGNS\n  */\n  address[] public campaigns;\n\n  function getNumCampaigns() public view returns (uint) {\n    return campaigns.length;\n  }\n  \n  modifier notAdmin() {\n    require(isAdmin[msg.sender] == false, \"Admins cannot create campaigns\");\n    _;\n  }\n\n  function createCampaign(string title, uint goal, uint duration) public \n    notAdmin\n    returns(address) {\n    Campaign newCampaign = new Campaign(campaigns.length, title, goal, duration, msg.sender, address(this));\n    campaigns.push(address(newCampaign));\n    emit CampaignCreated(address(newCampaign));\n    return address(newCampaign);\n  }\n\n}\n\n",
  "sourcePath": "C:\\Users\\jalal\\GitHub\\EthFundMe\\contracts\\EthFundMe.sol",
  "compiler": {
    "name": "solc",
    "version": "0.4.24+commit.e67f0147.Emscripten.clang"
  },
  "schemaVersion": "2.0.1",
  "updatedAt": "2018-08-13T22:28:07.401Z"
}